:020000040800F2
:10000000000001108DE702088D720208D1EE010890
:1000100049E8020849E8020849E80208000000002F
:100020000000000000000000000000001578020839
:10003000137802080000000011780208C3100008BD
:1000400049E8020849E8020849E8020849E80208C4
:1000500049E8020849E80208F913000801140008F9
:1000600049E80208FF130008FD130008197F020881
:10007000057F0208F17E0208DD7E0208C97E0208C3
:10008000B57E0208A17E020849E8020849E8020894
:1000900049E8020849E8020849E80208FB13000899
:1000A0005980020831800208098002088180020814
:1000B000F57F0208E17F0208CD7F020849E80208C7
:1000C00049E8020849E8020849E8020849E8020844
:1000D00049E8020821820208158202080982020802
:1000E000F713000849E80208F58A02087D7F020834
:1000F000557F02082D7F0208A57F02088D7E020829
:1001000049E8020849E80208B97F020849E80208FC
:10011000FD810208F181020849E8020849E8020865
:10012000797E0208657E0208517E02083D7E020843
:10013000297E020849E8020849E8020849E802085D
:1001400049E8020849E8020849E802088F720208F3
:10015000157E0208017E0208ED7D0208E581020895
:1001600049E8020849E8020849E8020849E80208A3
:1001700049E8020849E8020849E8020849E8020893
:0801800049E8020849E8020801
:1001880020B10078B0FA80F040097047012070472C
:10019800436A826930B5D154436A04690133A34282
:1001A80028BF00234362836BFBB1196811F001017A
:1001B8001AD11A68856922F001021A60826A154408
:1001C800DD60456AAA4235BFAA1AA21A5A605A6067
:1001D8004FF0000280F850201A6838BF856242F05C
:1001E800010228BF81621A6030BDC26DD36843F036
:1001F8008003D360F8E7034610B55C6B4069D968A3
:1002080044B1DA6C8C1A013A005D08BF0A46C0B2E4
:10021800DA6410BD1A6A805C01328A4228BF22461D
:10022800C0B21A62F5E7836B13B190F850007047BB
:10023800D0E909031B1A584258417047D0E90913FD
:100248000269994238BF8918CB1A816B501E19B1BF
:100258004A681344834201D2C01A7047002070478D
:10026800436B4BB1C26C5B689A42A3EB020392BF2B
:100278001846C068C0187047D0E907239A422FBFB4
:10028800D01AC0688018C01A704710F80A3C0133A9
:10029800DBB20A2B00F80A3C07D910F8131C034AF2
:1002A800002322F8113000F80A3C70478A330020F6
:1002B800F0B54F4E337814200133B3FBF0F200FB56
:1002C800123333704B4B58681A6D9C6881420A444C
:1002D80004D293F8580008B102F5803246480778EE
:1002E800B2FBF7F2944233D293F858501DB14FF451
:1002F800803595FBF7F5101B451BDD60C3E901123E
:10030800717814220020013183F8580091FBF2F033
:1003180002FB10117170B178D868013191FBF2F4C9
:1003280002FB1412B27040F68C22904243D91A781C
:1003380093F955108A4250B223D1111F0C2920D8A5
:1003480093F8561018290BD8013183F8561009E094
:100358004FF4803090FBF7F0001B1044D860CDE7D5
:1003680083F8540093F954108A4202D193F8571035
:10037800D1B9012283F8572083F8550000221A705A
:10038800F0BD0021E1E703EB81052D6924F8115048
:1003980001318A42F7DC194900240F2A07DD184980
:1003A8000A7801320A70E4E70021144CF1E721F8D9
:1003B80012400132F1E793F85720002AE0D0A0F26A
:1003C800EF2140F2DA52914207D81A780F2A04D85E
:1003D800111D013243F82100D1E7002283F857208C
:1003E800104699180432402A0861FAD1C8E700BFBC
:1003F800301D0020B02800206C0000208A33002027
:100408006833002010B50B48037814240133B3FB7C
:10041800F4F204FB1233084A0370136D01330B44E2
:1004280013654FF6FF73994204BF012382F85830D1
:1004380010BD00BF301D0020B0280020024B53F82B
:1004480020301B681960704738400020064B53F86D
:100458002030A1F57A701A6819894FF47A734143EC
:1004680091FBF3F1116070473840002070477047E6
:100478000D4B1A683F2AF0B59C4613DC0B4C17014C
:100488000346E61900F1100E18685968354603C589
:10049800083373452E46F7D1054B1B68E3510132EB
:1004A800CCF80020F0BD00BF882800208824002058
:1004B8002069002070B5104C05460E460022002326
:1004C800D4E902012DF0B4FD20B109A3D3E900233A
:1004D800C4E9022330462DF0D9FAD4E902232DF0DD
:1004E80069FC2DF0EDFD04EB4504208270BD00BFD2
:1004F800ABAAAAAAAA461040301D00200E4B98426B
:1005080013D0A3F57843984211D003F5806398423D
:100518000FD10223094A142101FB03235A8901320E
:1005280092B25A81588980B270470023F2E70123BA
:10053800F0E74FF0FF3070470030014044040020DE
:1005480008B540F2E933028992070BD589B2818157
:1005580040F2E9330289D2070CD4013B9BB2002B4D
:10056800F8D103E0013B9BB2002BECD1FFF7C6FFAB
:10057800C0B208BD8089FBE730B50278202A03465F
:1005880000F10100F9D0092AF7D02D2A4BD10346F2
:10059800BFEE000A9FED3C7A1A46F2EE046A134653
:1005A80012F8010BA0F13001CCB2092C41D92E2848
:1005B8000BD1F2EE046A1146B0EE666A0B4611F8EA
:1005C800012B303AD0B209283CD91A7802F0DF0260
:1005D800452A53D15A782D2A3FD102330120013BB5
:1005E80000220A2513F8011F3039CCB2092C3AD958
:1005F800B2F59A7F1346DFED256A28BF4FF49A7348
:100608001A46F7EE007A072A30D8DA086FF00701A1
:1006180001FB0233F2EE046A63BB88B3C7EE276AB4
:1006280020EE260A30BD2B2A08BF0346B7EE000A83
:10063800B0E707EE901AF8EEE77AE7EE267AB0EE22
:10064800677AACE707EE902AF8EEE77AC7EEA65A83
:1006580066EE866A37EE257AB0E72B2A14BF013397
:1006680002330020BBE705FB0212BBE767EEA67A60
:10067800083AC8E767EEA67A013BCDE7F7EE007ABD
:1006880067EE276ACCE700BF0000000020BCBE4C24
:10069800A0F13003DAB2092A01D818467047A0F150
:1006A8006103052B01D857387047A0F14103052B8A
:1006B80094BF37384FF0FF30704703685A1C026008
:1006C8001970704703685A1C0260197070472DE949
:1006D800F84F002B14BF4FF030094FF020090A9B48
:1006E800141E07468846BABF64424FF0010B4FF00C
:1006F800000B13F8012B02B134B9BBF1000F0ED077
:1007080000230A9D5E1B0EE0013CF2E7494638468D
:10071800C04715F1FF35F9D223462C46F1E72546A7
:10072800F7E73846C04705EB060A15F8011B00290C
:10073800F7D1BBF1000F05D02546002D05DC002CB4
:10074800A8BFA2445046BDE8F88F49463846C0477E
:10075800013DF2E7D0ED006AD0ED057AE6EE807A49
:10076800B0EE407AB0EE670AD0ED037AD0ED016AB8
:1007780067EEC07AE6EE877AD0ED066A77EEA67A5B
:10078800D0ED026AC0ED057AD0ED047A67EEC07A42
:10079800E6EE877AC0ED067A7047704743230B80F0
:1007A800004870470000002010B5064C606CFF2818
:1007B80006D005490A6B343124F0A2FCFF23636498
:1007C800002010BD00000020301D002008B5D0F822
:1007D800E4355B6A9847002008BD08B5D0F8E435D1
:1007E8001B6A9847002008BDD0F8E43510B50446C8
:1007F8001B689847D4F8E8359B689847002010BDD7
:1008080008B5D0F8E435DB6903B19847002008BD86
:1008180008B590F8123180F81331042380F81231AA
:10082800D0F8E835DB689847002008BD10B5D0F847
:10083800E83504461B699847032384F812310020E1
:1008480010BDF0B54B784C69012B27D1826915682A
:10085800136914B964F3060305E08E68A642F9D259
:100868004E6166F3060343F400231361C478012C38
:1008780005D10B780E6900EB83039B695E6145F037
:100888000445156044B94B6933B102690978506B66
:1008980001238B40034353630020F0BD0B788F681E
:1008A80000EB830307F07F065A6D156813696CB96E
:1008B80066F3060343F400231361C378012B04BFD6
:1008C8000B69536145F004451560E5E74F61EFE7B3
:1008D8002DE9F04191F801E00D784B69CE78BEF131
:1008E800010F4FD100EB850CDCF818703A683C69B1
:1008F80063F3120493B96EF3DC443C61C478012CB1
:100908001BD10D697D61012E25D100698068C00564
:1009180054BF42F0005242F080521CE0D1F80880E7
:1009280008EB030E0EF1FF3E012EBEFBF8FE6EF340
:10093800DC4408BF66F35E74DFE7012EE5D053B1EF
:10094800D0F810E00120DEF8348000FA05F545EA19
:100958000805CEF8345042F00442012E3A6009D11D
:1009680044B99BB20333C968DCF8D0009B10224617
:10097800934202D10020BDE8F08151F82240046082
:100988000132F5E700EB8505D1F808C06F6DCCF3AF
:1009980012053A683C69A3B965F31204012363F3AD
:1009A800DC443C61C378012B04BF0B697B61012ED9
:1009B80003D14B79A3B142F0005242F004423A60AD
:1009C800D8E76344013BB3FBFCF3C3F3090363F3C8
:1009D800DC446B43C3F3120363F312044B61E0E797
:1009E80042F08052E9E770B501F07F05282404FB46
:1009F800050104FB05040126C4F82821C4F82C21AC
:100A0800002201F58E7184F81D6184F81C51C4F828
:100A18003421C4F830311DB9FFF713FF002070BD31
:100A2800FFF756FFFAE7214BDA6B0F2A70B502F190
:100A380001011D4602D0D963002070BD1C49002366
:100A4800EB630B78002BF7D11A4C2268B2F5006FD4
:100A580008BF2360184B22681B689A4202D1002302
:100A68000B70E9E78CBFC2F500639B1A2B642B6CF3
:100A7800402B0ED9403B02F140062B6401230B703A
:100A8800266040230D4911FA82F28121FFF7ABFF5E
:100A9800D2E702EB030626604FF000042C640EBF79
:100AA800022401249BB20C70ECE700BF301D00202B
:100AB8001C610020C8600020CC6000201D6100205F
:100AC80070B518490B78012B0C4603D1164D2B6CC9
:100AD8005BB90B702378022B17D100231A468121AA
:100AE800FFF781FF002323700FE0104C402B226892
:100AF8000DD9403B02F140012B64216040230C4991
:100B080011FA82F28121FFF76EFF002070BD03EB1E
:100B1800020626604FF000042C640ABF02249BB230
:100B28000C70ECE71C610020301D0020C86000201C
:100B38001D61002010B504461346C4F83C21C4F8D2
:100B48003821022280F811210A460021FFF74BFFC5
:100B5800002010BD70B50C46282606FB040506FBD0
:100B68000101C5F88833002385F87443C5F880234C
:100B7800C5F88C3385F87533C37806FB0404012B5C
:100B880008BFC5F8842394F8743301F55D711BB967
:100B9800FFF757FE002070BDFFF79AFEFAE738B559
:100BA800282303FB0101074DB1F88C13044628469E
:100BB80024F06EFA40232A4601212046FFF7CAFF97
:100BC800002038BD741D002030B50B78497801220B
:100BD8009A4000EB830301294FF000052C460CBF17
:100BE8009B695B6D92B20CBF62F30F0462F31F4402
:100BF8006FF3CF3502691D60D36923EA0403D3611B
:100C0800002030BD40F2011310B500F5A271044672
:100C1800A0F84431FFF7D8FF0123A4F89C3304F56A
:100C280067712046FFF7D0FF4FF48173A4F86C3149
:100C380004F5B6712046FFF7C7FF24F0A3FA002099
:100C480010BD0B7830B501224D789A4000EB830334
:100C5800012D0CBF9D695D6D2B6892B24FF00004A9
:100C68000CBF62F30F0462F31F441A040DD48A68A0
:100C780062F30A03CA7862F39343CA8862F399530A
:100C880043F0805343F400432B600369DA6914434B
:100C9800DC61002030BD2DE9F04140F2011304462B
:100CA800022600254FF040080127A0F84431C0F87B
:100CB8004C8180F84761A0F84A7180F8485100F5E6
:100CC800A271FFF7BEFF04F56771A4F89C73C4F81E
:100CD800A48384F89F6384F8A0532046FFF7B1FFEC
:100CE8004FF48173A4F86C310823C4F874310323DA
:100CF80004F5B67184F86F31A4F872612046FFF7E5
:100D0800A0FF074B1E715D7124F044FA4346054A63
:100D180039462046FFF71EFF2846BDE8F08100BF90
:100D280024040020741D002070B5002540260446C8
:100D3800A0F87453C0F87C6380F8775300F55D71B0
:100D4800FFF77FFF4FF48073A4F81C3104F58E7110
:100D5800C4F8246184F81F51A4F822512046FFF7F3
:100D680070FF012384F81231D4F8E835A0785B6865
:100D78009847284670BD0E4BDA68D20310D4DA685B
:100D8800D1060FD4DA68D2050ED4DA6812F0E00F73
:100D98000CD1DB6813F0020F14BF0820092070473C
:100DA80001207047062070470220704707207047CF
:100DB800003C024007B509238DF80730FFF7DBFF39
:100DC8008DF807009DF80730012BF7D09DF8070034
:100DD80003B05DF804FB08B5202130F0CAF90346DA
:100DE800184623B10278202A03F10103F8D008BD80
:100DF80038B504460A4614F80E1C50F8040C41B9DC
:100E0800012324F80C2C04F80E3CBDE8384025F0EA
:100E180046BC34F80C1C24F80A2C9142A2EB0103BE
:100E280084BF0268D26A9BB288BF9B1824F8083C2A
:100E380014F80F2C064B34F8081C23F81210002560
:100E480004F80E5C012125F02AFC04F8065C38BD84
:100E58008A330020A1F57A7107EE901A9FED087A7F
:100E68009FED080AF8EEE77A10B5A7EE870A044660
:100E78002DF0E2FF044B53F824301B68186010BDB6
:100E88003D0AD73F0000D24338400020152359437C
:100E980007EE901AB8EEE70AF3EE087A10B580EE7E
:100EA800270A04462DF0C8FF024B53F824301B686C
:100EB800186010BD384000200C234B4300EE103A58
:100EC80010B5BAEEEE0A04462DF0B6FF024B53F801
:100ED80024301B68186010BD384000202DE9F0410F
:100EE8000B4DDFF830802C686A69012714400CB973
:100EF800BDE8F081B4FA84F3C3F11F0307FA03F6DF
:100F080058F823000368984724EA06046E61EEE760
:100F1800003C01405069002070B50A7812F0600466
:100F280006460D462AD0202C2FD1CC884B78FCB110
:100F380012060CD522461E49184624F0E1F8EA8824
:100F48001B493046FFF7F6FD0024204670BD194ABC
:100F5800C0F894435364184AC0F8904303231463B9
:100F680080F81131343223460021FFF7F3FDEBE717
:100F780002221144184624F0C3F8E6E74B780A2BFE
:100F880008D00B2B0BD0062BDFD1304624F0D2FF34
:100F98000224DAE701220949FFF7CCFDD5E78B786F
:100FA8001BB9054AC2F88430CEE724F0C3FFCCE76A
:100FB800641D002000000020301D0020B41D00200A
:100FC800044B9B7913B9044B18687047034B9888F6
:100FD800704700BFA8510020C80100106A3D0020DA
:100FE8002DE97848214B5A68214BC2F308028AB987
:100FF800EFF3118272B91F481F491D6886681A6885
:101008009542FAD1D1F88C209642F6D81B4BD3E9F9
:1010180000231AE0EFF31182102181F3128801F105
:10102800E0218E68086810F4803F13481EBF012431
:10103800C0F888408E681968D0F88850D3B283F316
:1010480011880E4BD3E900230D444FF47A74A2FBA8
:1010580004BC04FB03CCBBEB06006CF100012DF0D3
:10106800FDF9E4FB0501BDE8788800BF00ED00E06C
:101078002069002010E000E0301D002008890020D1
:10108800F8B504460D46FFF7ABFF06460F46FFF7D7
:10109800A7FF821B61EB0703AB4208BFA242F6D34E
:1010A800F8BD10B5044614F1FF3400D210BD4FF45A
:1010B8007A700021FFF7E4FFF5E7EFF311831022C0
:1010C80082F3128808490A6801320A60074A084907
:1010D8009068C1F88C000020C1F888001268DBB263
:1010E80083F31188704700BF2069002010E000E0FA
:1010F800301D002003689B6A03B1184770470368D6
:101108005B6A03B11847704703689B69184703680F
:101118005B69184703681B6918470368DB68184749
:1011280003689B68184703685B68184703681B686F
:10113800184708B5184B194C1D68A06813F0BAFC7D
:10114800284613F0B7FCA06841798B0703D441F017
:101158000201FFF7D9FF002024F03EFFA068FFF747
:10116800E2FF60B1012024F037FFA068FFF7D5FF48
:1011780001462846FFF7DAFF002024F02DFF284615
:10118800FFF7D1FF0028E9D02846FFF7C6FF014640
:10119800A068FFF7CBFFE1E7444B0020744D002027
:1011A8000368DB6970B506460C4615467BB90D44E5
:1011B8002B1B002B00DC70BD3046FFF7B1FF002869
:1011C800FAD014F8011B3046FFF7B0FFF0E7BDE88E
:1011D80070401847E4E7014B1868A7E78C4B0020DC
:1011E80038B505460C4614F8011B01B938BD284628
:1011F800FFF79CFFF7E70C4B1B681B0110B407D5E2
:101208000A4B1B685B050BD55DF8044BFFF752B919
:10121800074B53F820301BB107289CBF1B68196087
:101228005DF8044B704700BF088D00200C8D00202E
:10123800EC2900201FB5ADF80A30BDF81830ADF81C
:10124800040041F48041ADF80C306846BDF81C300C
:10125800ADF80610ADF80820ADF80E30FFF708F924
:1012680005B05DF804FB1FB5ADF804006846ADF89D
:101278000610FFF7FDF805B05DF804FB10B504098A
:10128800013C032C00F00F0215D80C4B33F8141056
:1012980041FA02F313F001000CD00120904001380C
:1012A80008402DF0F3F8064B1B5D1844054B0C2243
:1012B80002FB003010BD0020FCE700BFB215030898
:1012C8004C1203089869002010B1036882885A8379
:1012D800704710B1036882881A837047F8B51646BC
:1012E80090F90C20142353430D4A0446D55800693D
:1012F8000F46FFF7E9FF01200021FFF7C1FE39463D
:101308002846FFF71DF931462846FFF719F92069E5
:10131800FFF7DFFF01200021FFF7B2FE0120F8BD33
:101328004404002028B10368828809B11A837047F1
:101338005A837047044B01461868044B1B780BB955
:1013480081F00101EEE700BFD02A0020D42A002056
:1013580080B580460B25013D02D172B626F02CFFE0
:10136800002024F039FE08F101063227052424F074
:1013780025FE0120FFF7DEFF3846FFF792FE24F036
:101388001DFE0020FFF7D6FF3846FFF78AFE74B12E
:10139800013CECD14FF4FA70FFF783FEFA2726B927
:1013A8004FF47A70FFF77DFED5E70024DFE7013EB2
:1013B800F5E730B1036882881B691A4214BF01201F
:1013C8000020704728B18088B0FA80F0C0F11F0073
:1013D80070474FF0FF30704730B1006800F13F4070
:1013E80000F57E00800A70474FF0FF30704775E5C2
:1013F80074E573E572E571E570E538B504468B6808
:1014080021600D46984701232373FF220023A3730D
:101418006273E3732B6B13B120469847E073044B58
:1014280093F890301BB1E37B23F00103E37338BDDD
:10143800301D002003689B6A184703685B6A1847D9
:1014480037B54D1C85720468C27200250095A469E1
:10145800A04703B030BD2DE9F04105468AB01846D3
:101468000F4690461C462CF0B7F93B189DF8406093
:10147800AB72EB7B85F80B8036EA030319D0F207D1
:1014880017D5114BC8221B68B3FBF2F3DB0706F034
:10149800FE060ED51F2828BF1F200446024620211D
:1014A80002A82FF04FFE0AAB1C44002304F8203C8E
:1014B80002AC2B6800965E694246234639462846A8
:1014C800B0470AB0BDE8F081206900202DE9F3415A
:1014D8000446184616460D461F462CF07DF923682B
:1014E800E67228440022A0720092D3F81480324693
:1014F8003B4629462046C04702B0BDE8F081036854
:1015080010B504465B689847236820469B6898474F
:10151800A37B013BA37310BD036810B504461B6889
:101528009847236820469B689847A37B0133A37399
:1015380010BD03681B69184710B5036804469B680B
:10154800984701232373FF23637310BDF8B584897B
:101558004FF6FF764FF47A740BB901201CE082B184
:10156800157801320789BF070DD5ADB285814FF4D3
:101578007A740589ED0710D4013CA4B2B442F8D1BD
:1015880005E0FF25EEE7013CA4B2B442EAD1FEF73C
:10159800B5FF003018BF0120F8BD8589ADB209B18B
:1015A8000D700131013BD7E770B5164690F90C2054
:1015B80014235343094AD55804460069FFF784FEAB
:1015C8002846FEF7BDFF0123002231462846FFF7D3
:1015D800BDFF2069FFF77DFE012070BD4404002097
:1015E800F8B50679012E054609D0022E1FD1836869
:1015F800DB0758BF41F08001BDE8F840D4E70D4B48
:1016080090F90C00182404FB003463786BB16B7BF1
:10161800A1725B0023720023637223750223A370F7
:10162800C4E9036226F080FF237D1846F8BD002335
:10163800FBE700BFB88800202DE9F0419846037900
:10164800012B0546174623D0022B39D195F90C20DA
:101658000069142353431B4AD458AA6812F00106A0
:1016680011D0FFF731FE2046FEF76AFF00224346FD
:1016780039462046FFF76AFF2869FFF72AFE01224C
:101688001046BDE8F081FFF71FFE41F08001EAE750
:1016980090F90C000C4B182404FB00346278002AE3
:1016A800EED06B7BA1725B002372002363722375FB
:1016B8000223C4E90387A37026F036FF227DDFE703
:1016C8000022DDE744040020B888002073B50379C0
:1016D800012B0D4616460AD0022B25D18368DB075D
:1016E80058BF01F07F01FFF7F9FD02B070BD90F916
:1016F8000C10427B0D488DF80760182404FB010488
:1017080060780028F1D06372E3600DF1070323616C
:10171800002352002375022308462272A572A37083
:1017280026F002FF207DE0E70020DEE7B8880020F1
:10173800094B70B5841CD3F89450A400E4B20E464B
:10174800CAB228462146FFF7C1FF611C320A284663
:10175800C9B2BDE87040B9E7301D00202DE9F0415D
:101768000E4E8046002406F18807E0B200F003031D
:1017780043450ED136F8145037F81430EB1A002BC5
:10178800B8BF5B42052B04DD2946FFF7D1FF27F8D8
:1017980014500134102CE8D1BDE8F081401D002020
:1017A80038B50F4BD3F894501022002141F2D7746A
:1017B800B4FBF0F42846FFF789FF0120FFF771FC1E
:1017C800621ED2B2FE212846FFF780FF0120FFF7F4
:1017D80068FC284680220021BDE8384076E700BF33
:1017E800301D002073B50479022C39D1032390F9F8
:1017F8000C008DF8033004238DF804301423434380
:101808001A4E1B48F3588DF80240002501228342E6
:101818008DF800508DF8012024D0A0F5784083423F
:1018280022D0144A93421BD1204602AA11441A8896
:1018380011F8084C22F040021204120C14211A80EC
:1018480001FB00601A88016922F0380231F814108F
:101858001204120C0A431A801A8842F040021A80B5
:1018680002B070BD2846E0E71046DEE744040020D9
:1018780000300140003C004010B5427A044632B1C5
:10188800036800F10A01406898470023637210BD9D
:10189800064B1B68597A4A1C1944D2B25A7288728C
:1018A800197A914201D81846E6E77047404B002064
:1018B80010B4447A631C0444DBB24372A172027A06
:1018C8009A4202D85DF8044BD6E75DF8044B70479E
:1018D80038B5094D441E14F8011F01B938BD2868F0
:1018E800427A531C0244DBB243729172027A9A42E2
:1018F800F1D8FFF7C1FFEEE7404B002008B50446DA
:101908000648FFF7E5FF064B1868FFF7B5FF054BDC
:10191800186813F0CFF8204605F070FD706D0308C5
:10192800404B0020444B0020044808B5FFF7D0FF87
:1019380005F078FF0020FFF7E1FF00BF7C6D03088A
:10194800034808B5FFF7C4FF0120FFF7D7FF00BF22
:10195800836D030808B50448FFF7BAFF034B1868FE
:10196800BDE8084088E700BF9C6D0308404B002095
:101978000048ADE71D74030808B5FFF7A9FFBDE8E7
:101988000840F5E708B50948FFF7F6FF084B18685F
:10199800FFF772FF074B00241C70074B1C60074BB6
:1019A8001C7013F0D9FB2046FFF7A8FFA16D0308B0
:1019B800404B00204C4B0020484B00206081002009
:1019C8000048D9E7CB6D030810B504460348FFF774
:1019D8007FFF2046BDE81040CEE700BF9C6D03089E
:1019E800124B53F8200070B5E0B1114A062303FBEF
:1019F800002393F90140621C15D0187990B10D4A63
:101A08000D4E155DDA7864211423002061438C188B
:101A1800013B36F814402A442044F8D11423B0FB83
:101A2800F3F080B270BD0020FCE700BF7C3C0020D2
:101A3800D92A0020032E0020F82A002038B50320D8
:101A48000D461446FFF7CCFF07EE100A8DB1DFED07
:101A58000B7AB8EE477AF0EE006A27EE277AF8EEAE
:101A6800047AE7EE267A9FED067A67EE877AC5ED67
:101A7800007A0CB1034B236038BD00BF6740533A6E
:101A880000007A443313904330B5084B08498B4221
:101A980000D330BD5A88140406D55D68DC68C2F3EB
:101AA8000B0200FB025222601433F0E7F0AB03088C
:101AB80060AF030870B544880B460546C4F30B04B1
:101AC8002246002118462FF03DFB2969084A914219
:101AD800034607D3074A914204D22246BDE8704024
:101AE8002CF0CABF19B11846BDE87040084770BD50
:101AF80060AF0308C8B103084388426813F4004F75
:101B08001EBFC9B2C3F30B0301FB03221146D1E781
:101B180038B5214C214DAC422AD30020FFF7B4FF41
:101B28001F4811F007F91F4B4FF4FA625A801E4BF9
:101B38000721D97219754FF480511984082183F847
:101B480025104021022019851849188203200870A1
:101B580009200122487120211A811986144B1A7410
:101B6800144B1A71144B1879BDE8384005F03CBE87
:101B7800B4F90230002B4FF00001204607DAFFF7D6
:101B8800BBFF01212046FFF7B7FF02212046FFF7E0
:101B9800B3FF1434BFE700BFF0AB030860AF03081E
:101BA800D76D0308CA8D0020FA6C0020406C002015
:101BB800288D00200C520020A8510020064B074910
:101BC8008B4202D30023184670471A88C2F30B02CF
:101BD8009042F8D01433F3E7F0AB030860AF030882
:101BE800024A136823EA0000106070477834002026
:101BF800F8B50468C4F30D0405460E4604B32F680F
:101C0800FFF7D8F8092840F08780454C236923F46A
:101C180040732361236943F400732361236943F00C
:101C2800010323613E60FFF7C5F82369092823F003
:101C38000103236170D12B6804332B60002034E04A
:101C4800384B394A93422AD902F58042934225D922
:101C580002F58042934229D902F58042934227D95E
:101C680002F58032934225D902F50032934223D9F6
:101C780002F50032934221D902F5003293421FD96E
:101C880002F5003293421DD902F5802293421BD9F6
:101C9800B3F1016F1AD30520FFF75AFB0824FFF7A9
:101CA80089F8092814D04FF0FF30F8BD1024F6E762
:101CB8001824F4E72024F2E72824F0E73024EEE79C
:101CC8003824ECE74024EAE74824E8E75824E6E724
:101CD800134F3B6923F440733B613B6943F4007342
:101CE8003B613B6923F0F8033B613B6943F0020326
:101CF8001C433C613B6943F480333B61FFF75AF86E
:101D08003B6923F002033B613B69092823F0F80390
:101D18003B613FF474AFC6E76FF00100C5E700BF51
:101D2800003C024000000E08FF3F0008F8B50446DA
:101D38000D468E180027B542206900D1F8BDE3682A
:101D4800591CE160234415F8012B1A720429F2D1B9
:101D580018B9A1682046FFF74BFFC4E90370EAE70A
:101D680038B50C468D18AC4200D138BD14F8011BAB
:101D780012F070FEF7E770B501221149114C124EAE
:101D88000020FFF7EDFF22884AB1A518B54214D20A
:101D9800052A12D92146FFF7E3FF2C46F3E7022272
:101DA8002146FFF7DDFF6388084AC31AA41A084AC8
:101DB8005842A2F8B840584170BD0020FCE700BF67
:101DC80000000E0801000E0800001008FCFF0D08B6
:101DD800301D002030B50244904201D1002311E0AB
:101DE80010F8013BA3F14104192C11F8014BA4F19F
:101DF800410598BF2033192D98BF20341B1B01D1F2
:101E0800002CE9D1184630BD70B5054608460E4687
:101E18002BF0E2FC3146044602462846FFF7DAFF7B
:101E280060B92B5DA3F13002092A06D923F02003FB
:101E3800413B192B01D9601C284470BD0020FCE7E8
:101E480010B504460748FFF743FDFFF761FE05F0AC
:101E5800E9FC05492046FFF7D7FF08B9FFF74EFD13
:101E680010BD00BFE06D0308D372030870B50346C8
:101E780010F8012B202AFAD0092AF8D02D2A0ABFF7
:101E8800034601254FF0FF35591E00240A2611F894
:101E9800010FFEF7FDFB0A2802D905FB04F070BD0F
:101EA80006FB0404F3E72DE9F3472F49DFF8B8A050
:101EB80001AA2CF075FF00254FF0FF382F46A946E0
:101EC8002C46464630B9052D10D8DFE805F03232E9
:101ED800320F3941042D09D8DFE805F0030D121738
:101EE8001C00FFF7C3FF0646032819D9FFF768FD52
:101EF80002B0BDE8F087FFF7B9FF80465428F4E741
:101F0800FFF7B4FF04461F28EFE7FFF7AFFF81464E
:101F18001F28EAE70378482B09D0562BE6D101277A
:101F280001AA5146002001352CF03AFFCAE70027E4
:101F3800F6E7434632460D49012024F02DFDD7E748
:101F4800552303FB0683094A32F81370C7F3C027E9
:101F5800552344EA491403FB068624B2034B44EA9A
:101F6800C72423F81640C3E7EAA403088C6D0020B1
:101F780070B50D461446FEF72EFF0646A0B1FFF7D2
:101F880075FF40F634039842A8BF1846B0F5617F44
:101F9800B8BF4FF461701923A0F5617090FBF3F09E
:101FA80028702378013323703046FEF714FF064665
:101FB800A0B1FFF75BFF40F634039842A8BF18466C
:101FC800B0F5617FB8BF4FF461701923A0F5617057
:101FD80090FBF3F06870237801332370304670BDAE
:101FE800B5EEC00ADFED2D7AF1EE10FACCBF30EE77
:101FF800270A30EE670ADFED2A7A20EE270A30B585
:10200800FDEEC07A87B017EE904A054684EAE47080
:10201800002303A9A0EBE470CDE90033029323F079
:10202800E3FF002CACBF20232D2303A88DF800303C
:102038002BF0D2FB012822D130238DF801308DF806
:1020480002308DF8033003A968462FF083F86846FC
:102058002BF0C2FB0338C4B22246694628462FF04B
:10206800AFF800232B550F4928462FF073F80DEBD6
:10207800040128462FF06EF8284607B030BD022824
:1020880005D130238DF801308DF80230DBE70328C5
:1020980004BF30238DF80130D5E700BF6F12033A33
:1020A80000007A44297F030870B50646154608469D
:1020B800B6FBF2F414B12046FFF7F6FF05FB1464F3
:1020C800024B1B5D00F8013B70BD00BFF66D0308B5
:1020D800F0B50124B0FBF4F58D4203D200271CB9FA
:1020E8001C70F0BD4C43F5E7B0FBF4F604FB16009A
:1020F800B4FBF1F42FB9002E03DC002CEFD130250E
:1021080005E0092EFBDD002A14BF37255725354485
:102118001D7001370133E2E70A4B2DE90048D3E986
:1021280000BC5BEA0C030AD0074909681BEB0102F3
:102138004CF10003C0E900230120BDE8008800201D
:10214800FBE700BF104E002020690020F0B5264EA6
:1021580004460F460FCE8DB06D460FC50FCE0FC586
:1021680096E80F0085E80F0014F0030335D16421C9
:1021780094FBF1F201FB124242B94FF4C87294FB8E
:10218800F2F302FB1343003318BF0123C3F11D030D
:1021980040F26D1201930420631E93FBF0F002FBE2
:1021A80004046FF0630093FBF0F020444FF4C8740C
:1021B80093FBF4F31844063000220721013F5DF831
:1021C80022309742184490FBF1F4C4EBC404A0EB0E
:1021D800040004D1181A0DB0F0BD0123D6E701326E
:1021E8000C2AECD10020F6E750120308F8B5144683
:1021F8001D4606464FF47A720023204629462CF0E5
:10220800DDF82C4B3C22034493FBF2F002FB103127
:10221800B17190FBF2F102FB1102182072714FF4B8
:10222800616293FBF2F292FBF0F100FB1122327132
:102238002149224A93FBF2F293FBF1F3980040F212
:10224800B55392FBF3F103FB1123B3F5896F2DDA34
:1022580040F2DA2293422BDCB3F5B77FB4BF0022F9
:1022680001221749182707FB02170B2137F811C05D
:102278009C4501DD0139F9D100F5FA601044308040
:10228800481CB0700C2000FB02120E4901EB420200
:10229800013392F834209B1AF3704FF47A720023BA
:1022A800204629462CF08AF83281F8BD0322D8E767
:1022B8000222D6E780BC92C7801F860780510100A2
:1022C800801203084C12030837B505466846FFF725
:1022D80023FF044638B1DDE900232846FFF786FFCF
:1022E800204603B030BD40F2011328806B80A880DF
:1022F800A8712881F4E737B50546FFF7E5FF0446DE
:1023080040B1064B02AA1B8822F8023D29462846FE
:1023180024F0A5FA204603B030BD00BF886D002028
:1023280010B50288C178A2F5FA629308013940F223
:10233800B55404FB031381780C24013902F003021D
:1023480004FB02120C49847901EB42021821928E97
:102358001344027901FB0323427900893C2101FBE4
:102368000323064A224401FB03234FF47A72002117
:10237800C2FB030110BD00BF4C12030880436D3837
:10238800D1E900329A4206D05A1C0A6008B11B787B
:102398000370012070470020704710B5026811468D
:1023A800531C036011F8024B0160D31C5178036081
:1023B80093781B0443EA0123111D0160D07823435D
:1023C80043EA006010BD03685A1C02601A4612F8FE
:1023D800021B0260587841EA00207047D1E90023C7
:1023E8009B1A012B10B5044605DD0846FFF7EBFFE5
:1023F8002080012010BD0020FCE703685A1C026001
:102408001878704738B50446D0E900031B1A9A4279
:10241800154606DC2CF030FB22682A442260012095
:1024280038BD0020FCE738B50446006815462CF096
:1024380023FB22682A44226038BD03685A1C0260C4
:10244800197003685A1C02600A0A1A7003685A1C39
:1024580002600A0C1A700368090E5A1C026019708F
:10246800704703685A1C026019700368090A5A1CED
:102478000260197070472DE9F04F89B082468B468B
:1024880015461C4600270DF1140829786E1C51B317
:10249800252903D05046D847013742E069782D29CD
:1024A80005BFA978EE1CAE1C012518BF00253029F0
:1024B80006BF3178012300230293A1F1300308BF3E
:1024C8000136092B4FF0000916D96C2940F0A0807D
:1024D8003278642A06F1010544D024D8252A7BD015
:1024E80014D8002AD1D1384609B0BDE8F08F0A23A4
:1024F80016F8011B03FB09090846FEF7C9F80A2864
:10250800F5D9002DE1D0C9F10009DEE7582A1AD023
:10251800632ABAD12E4621785046D847251D01375F
:102528002C463546B1E7732A4AD008D8662A56D0D1
:102538006E2AAAD12E46236804341F60F1E7752A53
:102548000AD0782AA1D1A2F15800424204F1040627
:1025580043464241102103E0261D434600220A213A
:10256800206807E02068002804F104061ADB4346C7
:1025780000220A21FFF7ACFD3446CDF80080029B0B
:102588004A4659465046FEF7A2F807447DE72068B8
:1025980000280EDB434600220A210434FFF798FD89
:1025A8003546EAE72D238DF8143040420DF1150326
:1025B800DEE72D238DF8143040420DF11503EAE7CC
:1025C8002E46236800934A46002359465046FEF794
:1025D8007EF8251D0744A3E72E4625215AE72E46F7
:1025E800073424F00703D3E9000103F108042BF0B2
:1025F80087FD00EE100A4046FFF7F2FCCDF8008098
:10260800029B4A4659465046FEF761F8074488E758
:102618006429BCD00CD82529DFD003D800293FF481
:1026280062AF7EE7582911D063293FF474AF78E789
:102638007329C6D005D86629D2D06E293FF47BAF5E
:102648006FE775290DD078297FF46BAF58394A4266
:102658004A412068251D43461021FFF739FD2C46C5
:102668009EE7231D03932068434600220A21FFF7B3
:102678002FFD3546039C80E70FB413B5084C094974
:10268800206804AB53F8042B0193FFF7F4FE20688D
:10269800FFF7F2F802B0BDE8104004B0704700BF81
:1026A800404B0020B9180008F8B50C4C0C4E0D4FE3
:1026B80004F500752068FFF70BF9616811B1304621
:1026C800FFF7DAFFA16811B13846FFF7D5FF1034DC
:1026D800FFF74EF9AC42EDD1F8BD00BFBC4F03087F
:1026E8001B6E0308216E030810B5074C0B46024603
:1026F80006492068FFF7BFFE2068FFF7BDF8BDE870
:102708001040FFF735B900BF404B0020B91800084A
:102718000FB407B504A951F8040B0191FFF7E4FFC2
:1027280003B05DF804EB04B070472DE9F34719488E
:10273800194C1A4D1A4FDFF86C80FFF7E9FF04F5C2
:102748001376A379E27994F808A005EB820205EBE9
:1027580083032046D2F81891D3F89430FEF73CFE54
:1027680000F141012046FEF72DFE0246BAF1000FA6
:102778000AD0CDE900A94046FFF7CAFF0C34A642AB
:10278800DFD102B0BDE8F087CDF800903846FFF7FA
:10279800BFFFF3E7276E0308986900204C1203086F
:1027A800536E0308436E0308F8B51048104D114ED8
:1027B800114FFFF7ADFF002474B9104BD3F8BC30AC
:1027C8006FF003025A4312F580620BD055F82410BB
:1027D8003046FFF79DFF03E057F82420002AF5D183
:1027E800202C01D00134E7E7F8BD00BF616E030873
:1027F800E0120308776E0308F01D0020301D00204A
:102808001FB5074B0293074B0193074B0093074AE9
:10281800074B08490848FFF77BFF05B05DF804FB44
:10282800B96E0308C16E0308CA6E03088B6E0308ED
:10283800856E03089C6E0308A16E03082DE9F04F0E
:102848005348544D8DB0FFF763FF0026B046B1469C
:10285800514B1A680023934223DB0136162E05F1EB
:102868004805F5D14D49D1E9020240090C680969CA
:1028780040EAC2624FF47A734948B4FBF3F3FFF7B6
:1028880047FF0A2298FBF2F302FB138099FBF2F14F
:10289800009002FB11924348FFF73AFF0DB0BDE8E4
:1028A800F08F414951F823108D4201D00133D2E70E
:1028B800AC6A5CB107EE904ADFED3C6AF8EEE77A65
:1028C80086EEA77AFDEEC77A17EE904AD5E90C7224
:1028D8007F0947EAC2675209D5E90EA30B92214640
:1028E800E217CDE90812099A63430AFB0233A4FBF5
:1028F8000A0141F2883B1BEB000B19444FF0000C16
:102908004CEB010C4FF47A720023584661462BF0C9
:10291800A5FD0B9B099A0A90634307FB0233A4FBAE
:10292800070141F2883B1BEB000B19444FF0000CE8
:102938004CEB010C00234FF47A72584661462BF099
:102948008DFD062E18BF0A9B0A9918BF99444FF4AB
:102958007A722B6CB3FBF2F306934FF00A0318BF9D
:10296800804490FBF3F203FB1200CDE904200A9A9D
:1029780092FBF3F203FB1213CDE90223CDE900A782
:1029880023462A680A483146FFF7C2FE65E700BFBA
:10299800D66E030860160020D80200100000001050
:1029A800526F0308746F0308DC0200100024744996
:1029B8001D6F030810B50C4C03461846FDF7E0FBE5
:1029C80030B10A4B0A485979BDE8104001319FE6F9
:1029D8001846FFF74BFA0138022804D8C0B205F0B0
:1029E8006DF82346E9E710BD109C0308A8510020A4
:1029F800A26F030810B50C4C03461846FDF7C0FB40
:102A080030B10A4B0A481979BDE8104001317FE618
:102A18001846FFF72BFA0138022804D8C0B205F08F
:102A28005CF82346E9E710BD109C0308A851002074
:102A3800AA6F030838B50346FDF7A2FB80B3214B04
:102A48009B6C0133172B21D81F490C2202FB031260
:102A58001C4695684DB91C4A0C210134172C17DD0A
:102A6800002401FB042085689DB1164B9C6412F07C
:102A78003DF92A4621461548FFF74AFE0C235C43D8
:102A8800114B185DBDE8384012F046B91C46E2E724
:102A9800E7D99C42E1D10E48BDE83840FEF76CBF4B
:102AA8001846FFF7E3F91728044606D8064A0C2308
:102AB80003FB00239D68002DD7D121460548BDE8BA
:102AC800384025E600000020FC410308DF6F0308BA
:102AD800B56F0308C96F0308F7B50346FDF750FB48
:102AE800044618B1FEF76CFF03B0F0BD01AA1D49FA
:102AF8001C4F18462CF054F92646254640B90B2D94
:102B080018D919490B2302461848FFF701FEEBE7CD
:102B180044B1012C0AD001AA3946002001342CF016
:102B28003FF9EBE7FFF7A2F90546F4E7FFF79EF94F
:102B38000646F0E7022C0DD1A6F57A73B3F57A7F35
:102B480005D94FF4FA634FF47A720949DCE7094B67
:102B580023F81560074B084833F915202946FFF775
:102B6800D7FDC1E7EAA40308F46F0308FA6F030866
:102B78008E9D03086E400020177003082DE9F3416D
:102B880004462AF029FE04283DD1631E2546E11C8F
:102B980013F8012FA2F16100192898BF203A8B423F
:102BA8001A70F5D1DFF87080271D15F8016B4046C3
:102BB80031462EF0DEFA20B1314628462EF0D9FAF9
:102BC80020B1FEF7FDFE02B0BDE8F081BD42ECD1B8
:102BD800204610F0AFF80E480E4CFEF779FE0E486E
:102BE80000231A1902A952780A44195C02F8081C31
:102BF8000133042BF5D10023694608488DF80430C9
:102C0800FFF786FDDFE70028E5D0FEF7D9FEE2E70B
:102C180024700308406C002002210308246E030876
:102C28002DE9F74F80462AF0D7FD474DDFF844914C
:102C38002F680446F0B94548454EFFF71DFD0125AC
:102C480019F80430013B05FA03F33B4209EB04028F
:102C580003D091683046FFF70FFD0C34B4F5847F3C
:102C6800EED117B93B48FEF733FE03B0BDE8F04F8D
:102C7800FEF77EBE024638494046FFF7ABF80646E7
:102C880070B93648324DFEF723FE09EB0603284695
:102C980099680C36FFF7F0FCB6F5907FF5D1E4E7BC
:102CA80098F800302D2B03BF08F1010804F1FF3418
:102CB8004FF0010A4FF0000A00260C2303FB069B85
:102CC8000193DBF808300093194622464046FFF787
:102CD80081F8019B00282ED1BAF1000F18D0162ECA
:102CE8000AD11F4B2B601F48FEF7F2FD00991E48C2
:102CF80003B0BDE8F04F0BE5172E01D16B68F1E783
:102D08009BF800305A1E012393401F432F60EAE7C7
:102D1800162E03D1C5F800A01448E5E7172E17BFF3
:102D28009BF800306F6003F1FF3201231EBF934010
:102D38009F432F60F0E70136182EBFD10C4803B02F
:102D4800BDE8F04FFEF718BEF43E00202A700308D5
:102D58003B7003083470030840700308457003088B
:102D6800FFFF3F005D7003083C70030866700308AE
:102D780050700308FC4103082DE9F84F05462AF076
:102D88002BFD334F0446D7F80090C0B93148324D77
:102D9800324FFEF79DFD012655F8241059B10B78E6
:102DA8003BB106FA04F313EA090F02D03846FFF7DD
:102DB80063FC0134F0E7BDE8F84FFEF7D9BD0246E1
:102DC80027492846FFF706F878B92648264C234DA8
:102DD800FEF77EFD54F8041F0029ECD00B78002B79
:102DE800F8D02846FFF748FCF4E72B78DFF868B0FE
:102DF8002D2B03BF013504F1FF344FF0010A4FF0CA
:102E0800000A00265BF82680B8F1000F04D11748A5
:102E1800BDE8F84FFEF7B0BD224641462846FEF70A
:102E2800D9FF98B90120B040BAF1000F09D0FEF7D8
:102E3800D7FE0F48FEF74CFD41460E48BDE8F84F57
:102E480066E440EA090038600B48F3E70136D9E741
:102E5800783400206E700308B413030878700308F0
:102E6800407003087C700308B0130308507003080F
:102E78005D7003083C700308667003082DE9F3478A
:102E8800204E21483768214CDFF89080DFF8849085
:102E9800DFF88CA0FEF770FD0025BD4202DB02B012
:102EA800BDE8F08733689D4229DCA288D3B2162B8F
:102EB80018D808EB8303D3F8EC31002B08BF4B4636
:102EC80021685046FFF7D8FBE3885A040CD5E089FF
:102ED8000090A389628921890D48FFF719FC013503
:102EE8001034DAE70B4BEBE71B0405D5D4E90212E3
:102EF8000948FFF70DFCF2E7FEF73AFDEFE700237C
:102F08009B88FFDE8828002088700308882400201A
:102F1800C3700308109C0308D57003084C120308FB
:102F2800B4700308F8B5847914F0C003054602D0DC
:102F3800402B17D0F8BD13F0A1FB04F00F04062CAA
:102F4800064605D10146BDE8F8401648FFF7E0BB44
:102F5800284613F0BFFB32460146BDE8F840124848
:102F6800FFF7D6BBC3791148114E124F242B96BFD9
:102F7800114D002505EBC305FEF7AAFC00242B79AB
:102F88009C4203D3BDE8F840FEF7F2BC14B13046CA
:102F9800FEF79EFC2B68384653F82410FFF76CFBAD
:102FA8000134ECE7DF700308EF70030806710308CB
:102FB800167103083C7003084C43030870B5837905
:102FC800164603F00F028AB00546062A4CD8DFE8F9
:102FD80002F0041316181B1D49000C7813F0C003E7
:102FE80044D0402B3CD12146284613F02FFB002823
:102FF80056D0FFF741FB33E091F90040EEE70C882B
:10300800ECE7B1F90040E9E70C68E7E791ED000A61
:1030180001A8FEF7E5FF01462648FFF72DFBFEB1A4
:10302800AB7913F0C00F1BD1284613F053FB07EE02
:10303800900A01A8B8EEE70AFEF7D2FF01461E483B
:10304800FFF71AFB284613F019FB07EE900A01A8B0
:10305800B8EE670AFEF7C4FF01461748FFF70CFBF6
:103068000AB070BD1348F9E70024B7E7042A0CBF7B
:10307800124813482146FFF7FFFA002EF0D0AB792B
:1030880013F0C00FECD1284613F024FB0446284661
:1030980013F0F4FA214602460A48FFF7EDFADFE793
:1030A80001A9284613F002FC01AA21460648FFF7A9
:1030B8002FFBD5E7246E03083C700308037103084F
:1030C80039A20308187103081F71030838B50D46A3
:1030D800044613F05DFB2A4601462046BDE8384009
:1030E8006CE72DE9F0470024DFF86090DFF860A076
:1030F8008AB0074625464FF00B0808FB049601A93D
:10310800304613F0D3FB394601A82EF080F878B189
:1031180001A95046FFF7B0FA00213046FFF7D6FF65
:10312800FEF726FC3046FFF7FDFEFEF721FC0135D1
:10313800013440F257139C42DFD115B90248FEF71B
:103148001BFC0AB0BDE8F08750700308405503081F
:103158007B7103082DE9F04F2DED028B8BB0804673
:103168002AF03AFB054628B1012826D198F8003004
:103178002A2B22D18948DFF84482894FFEF7FCFBCD
:1031880000244FF00B0909FB048601A9304613F00F
:103198008DFB01A93846FFF76FFA29463046FFF73D
:1031A80095FF0134FEF7E4FB40F257139C42EAD145
:1031B8000BB0BDEC028BBDE8F08F3D2140462DF0F1
:1031C800D8FF002800F0E580034613F8012C202AD8
:1031D80003F1FF312ED0A3EB0807441C2378202BE2
:1031E80004F1010228D0DFF8D4B100264FF00B0A11
:1031F8000AFB06B501A9284613F058FB01A82AF0D6
:10320800EBFA01A9814602464046FEF7E3FDA8B95C
:10321800FBB2994512D1AB7903F00F08B8F1060F4C
:1032280015D120462AF0D8FA21460246284613F03E
:10323800BCFABDE70B46C8E71446CFE7013640F2B3
:1032480057139E42D4D15748FEF796FBB0E713F0C8
:10325800C0030AD0402B5ED05348FEF739FB2846FE
:10326800FFF760FEFEF784FBA2E72378002BF3D07C
:103278004E4920462DF0B9FF064620462AF0ACFA02
:103288008642E9D12046FDF777F92846B0EE408A14
:1032980013F020FA07EE900AF8EEE77AF4EEC87A0F
:1032A800F1EE10FAD8D8284613F0E8F907EE900A9C
:1032B800F8EE677AF4EEC87AF1EE10FACCDBB8F1E2
:1032C800050F17D0B8F1040F1FD1214614F8013BA0
:1032D800202BFAD0092BF8D0013900230A2011F845
:1032E800012F303AD2B2092A02D800FB0323F6E7AD
:1032F80008EE103A284613F04BFAB8F1050F35D806
:10330800DFE808F031313D3D41442046FEF7AEFD8F
:1033180008EE100AEEE7EB799FED258A242B96BF7D
:10332800244E064606EBC306002796F804A03B4643
:10333800B946BA4500D91BB1B9F1000F8CD0D9E70D
:1033480033686FF0004253F827002146FEF742FD2C
:10335800002808BF08EE107A0ABF012300234FF0A7
:1033680001090137E5E718EE103A037001A9124880
:10337800FFF782F900212846FFF7A8FE18E718EEA4
:10338800103A0380F2E780ED008AEFE780ED008ACB
:10339800ECE74046FFF7A5FE0AE700BF3C710308CB
:1033A8007B71030850700308677103084E710308A6
:1033B800000000004C4303085C71030840550308F3
:1033C8002DE9F04F81468DB088460026464BF4180B
:1033D800464B1868FEF750FA94F806B00BF0300325
:1033E8004B4549D1204613F0B1F9FEF7E7FB0546F6
:1033F800204613F07FF9AA680192171882462046E2
:1034080013F0C6F90BF00F010546019A062968D892
:10341800DFE801F0043A3F43484C5A0012F80A200A
:103428000378D31AD3F1000A4AEB030A18F0200FE5
:1034380002D0BAF1000F1FD103A9204613F036FAC3
:1034480018F0400F0DD0BAF1000F0AD103A928488F
:10345800FFF712F9524629462046FFF7AFFDFEF75F
:1034680087FA03A92348FFF707F9002239462046BF
:10347800FFF7A4FDFEF77CFA0B3640F6BD639E42CB
:10348800A4D10DB0BDE8F08F12F90A2090F90030F0
:10349800C7E732F80A200388C3E732F90A20B0F9EF
:1034A8000030BEE752F80A200368BAE797ED007AC1
:1034B800D0ED007AB4EE677AF1EE10FA0CBF4FF057
:1034C800010A4FF0000AB1E7204613F0D7F8294661
:1034D800421C38462DF062FEB0FA80FA4FEA5A1ABA
:1034E800A4E74FF0000AA1E740550308404B00202D
:1034F8007671030877710308022810B50C460FD8B7
:1035080004F05AF90748FEF75FFA074B074859795C
:103518000131FFF7FDF821463020BDE810404FE7A4
:1035280010BD00BF81710308A851002091710308E4
:10353800022810B50C4613D804F056F90948FEF7CE
:1035480043FA094B094819790131FFF7E1F8214697
:103558001020FFF735FF21462020BDE810402FE757
:1035680010BD00BF4D9E0308A851002099710308A3
:103578000CB407B510F0400009D069B92320FEF754
:1035880087F905A904980191FFF7AEF8012003B067
:103598005DF804EB02B070470020F8E70CB483062E
:1035A80007B500D551B905A904980191FFF79CF812
:1035B800012003B05DF804EB02B070470020F8E783
:1035C8002DE9F04F824687B091460E4615460027F2
:1035D800337896F9028004937378059396F803B0CC
:1035E800B8F1000F32D0B9F1000F34D02B78049C19
:1035F8006A7895F90210E8789C422AD1059C944291
:1036080027D1884525D1ABEB000CDCF1000444EB55
:103618000C04CDE90210CDE9003221463B460F4AA1
:103628005046FFF7A5FF059B0193049B0093CDE946
:10363800028B3B46094A214650460137FFF7AEFF49
:10364800102F06F1040605F10405C1D107B0BDE845
:10365800F08F0024DDE74C46E5E700BFA6710308BC
:103668002DE9F0478AB005462AF0B6F8C2B232B959
:1036780069490120FFF7A4FF0AB0BDE8F0870522D9
:1036880066492846FEF7A6FB88B91520FEF796FA84
:1036980010B16149FEF70EFA614B00221A60DA6038
:1036A8009A615A621A63DA639A645A65E4E70722F0
:1036B8005C492846FEF78EFB0446002875D1202178
:1036C80028462DF056FD06462AF086F8C5B285BB79
:1036D8005548FEF7D1FF2C46544D21462846013463
:1036E800FEF7CAFF172CF8D1FEF742F94C4EDFF867
:1036F8004C914F4FDFF84881002421464846FEF799
:10370800BBFFDFF840A1002532680123AB4013421C
:1037180014BF3946414650460135FEF7ADFF172D17
:10372800F2D10134FEF724F9082C06F10C06E4D195
:10373800A2E7304601AA3F493E4E2BF031FB02ADCD
:1037480000283DD0022C15D1029A072A2AD80399BD
:10375800162927D80378722B17D06E2B22D10C2369
:1037680053432F48012202FA01F1C25822EA01020A
:10377800C25013E0FEF77AFB01AA45F8240031464F
:1037880000202BF00DFB0134DAE70C23244C5343C3
:10379800012000FA01F1E0580843E0502148FFF702
:1037A8005FFF69E7FEF70CF9F8E7284601AA214907
:1037B800204E2BF0F5FA002402AD78B1052C02D189
:1037C800FEF7FEF858E7FEF751FB01AA45F824007A
:1037D800314600202BF0E4FA0134EEE7052CEFD156
:1037E800029A0F2AECD8039D072DE9D8049C162CC1
:1037F800E6D8059800F17D03FA2BE1D80699FF2950
:10380800DED8054B03F8225003EB820398705C70F6
:10381800D9700948C3E700BF553F0020BA710308B3
:10382800983F0020C0710308256E0308C87103087B
:10383800FB710308EAA40308109C030839A20308D3
:10384800A7940308CD7103082DE9F04FDFF8FCB009
:1038580085B08046894617460E4615464FF0000A41
:10386800002F6ED072686B689A4268D1B468AB68F2
:1038780024F07F4423F07F43E31A5C425C4195F9CE
:103888000A300393B5F908300293B5F9063001936D
:10389800B5F9043000935A46534621464046FFF78F
:1038A80067FE96F90A300393B6F908300293B6F921
:1038B80006300193B6F9043000935A465346214620
:1038C80040460AF1010AFFF769FEBAF1080F06F14E
:1038D8000C0605F10C05C3D177B300242646002554
:1038E800012303FA05FA3A5959F8043053403AEAE1
:1038F800030314BF4FF0010B4FF0000B12EA0A0F3D
:1039080006D000953346104A59464046FFF730FE28
:1039180059F804301AEA030F06D0009533460A4ACC
:1039280059464046FFF73AFE0135172DD8D10136E2
:10393800082E04F10C04D2D105B0BDE8F08F0024A4
:103948009DE73C46ADE700BFE8710308D371030863
:103958007FB50546FCF714FC002858D02D490022F5
:10396800012004B0BDE870406EE72D2B03D0A3F111
:103978003002092A46D8042C04DD04B0BDE87040A2
:10398800FEF71EB82846FEF771FA04AB621C03EB7B
:10399800440424F80C0C15F8013F303B092BFAD9E4
:1039A80014462B78002BE0D1052CE6D1BDF9043064
:1039B8009AB2072AE1D8BDF90600A0F2EE2292B227
:1039C80040F2DC54A242D8D8BDF90810A1F2EE2288
:1039D80092B2A242D1D8BDF90A209042CDDC9142E0
:1039E800CBDBBDF90C5005F17D04A4B2FA2CC4D888
:1039F800084C0C2606FB03439880D9801A819D72D7
:103A080004B070BD202BB8D101352246C8E7044662
:103A1800C7E700BF983F00202DE9F347DFF868A00B
:103A280081460F46904602260024B8F1000F28D0A0
:103A380038F8243037F8241038F8062099421ED177
:103A4800BD5BA91A4D424D41CDE9003229462346B6
:103A580052464846FFF78CFDBB5B019337F824308C
:103A6800009352462346294648460134FFF796FDFF
:103A7800042C06F10406D8D102B0BDE8F087002571
:103A8800E2E74546E8E700BFFD7103082DE9F0418C
:103A98000546FCF775FB064628B100222749012098
:103AA800BDE8F041B8E76FF0004225492846FEF727
:103AB80091F970B9214B4FF47A714FF4FA62198079
:103AC8005A809980DA8019815A819981DA81BDE812
:103AD800F0812846FEF7CAF90328044626D8284666
:103AE800FDF779F9064670B1FEF7C0F901250746DA
:103AF8003046FDF770F910B1FEF7B8F92DB9BDE8F9
:103B0800F041FDF75DBF0546F2E7A7F2EE2240F26D
:103B1800DC539A42F3D8A0F2EE229A42EFD8074B30
:103B280023F8247003EB84035880D0E7324603233C
:103B380004490548BDE8F041FEF7EABD8E3D002086
:103B4800BA7103080E720308FA6F03082DE9F04FE3
:103B58002DED088BDFF80C9197B0804692460D4604
:103B68001446002695ED008AB5EE408AF1EE10FA6B
:103B780070D0D5ED019A95ED029AD5ED038ABAF188
:103B8800000F3ED094ED000A94ED01BAD4ED02AADC
:103B980094ED03AAB4EE408AF1EE10FA5FD1F4EE88
:103BA8004B9AF1EE10FA5AD1B4EE6A9AF1EE10FA85
:103BB80055D1F4EE4A8AF1EE10FA0CBF012700271E
:103BC80012A8FEF70DFAB0EE4B0A83460EA8FEF7D0
:103BD80007FAB0EE6A0A05900AA8FEF701FAB0EEF5
:103BE8004A0A049006A8FEF7FBF9059B049A03907D
:103BF8000292CDE900B34A46334639464046FFF7BC
:103C0800B7FCB0EE480A12A8FEF7EAF9B0EE690A66
:103C180007460EA8FEF7E4F9B0EE490A83460AA85B
:103C2800FEF7DEF9B0EE680A049006A8FEF7D8F9A8
:103C3800049B0390CDE901B3009733464A4600211F
:103C480040460136FFF7AAFC0C2E05F1100504F1D9
:103C5800100487D117B0BDEC088BBDE8F08F0027A2
:103C6800AEE700BF1672030870B50446FCF788FA81
:103C7800064628B100222E490120BDE8704065E7BC
:103C880005222C492046FEF7A5F840B9284900220C
:103C980001EB001301300C281A60F9D170BD2046E1
:103CA800FEF7E4F80B2805463AD82046FDF793F8C6
:103CB800064648B3FCF760FC1D4B03EB051383ED88
:103CC800000A01243046FDF786F8064638B1FCF7AD
:103CD80053FC174B03EB051383ED010A01343046FF
:103CE800FDF779F8064638B1FCF746FC104B03EBB4
:103CF800051383ED020A01343046FDF76CF828B944
:103D0800BDE87040FDF75CBE0446DBE7FCF734FC19
:103D1800074B032C03EB051585ED030AAAD0EFE743
:103D280032460B2304490548BDE87040FEF7F0BC55
:103D380048420020BA710308F46F0308FA6F0308B9
:103D48002DE9F04F834687B092460C461646002769
:103D58004FF019094FF46178BAF1000F4DD0B078DF
:103D6800A5783378727896F803C096F804E07179EC
:103D7800854240D125789D423DD1657895423AD11A
:103D8800E578654537D12579754534D165798D4212
:103D980014BF0025012519FB028219FB0383CDE915
:103DA800010303920091CDE904CE3B46144A29460B
:103DB8005846FFF7DDFB23790593E378049363788E
:103DC8000F4A19FB03830393237819FB0383029398
:103DD800A37801936379009329463B4658460137F7
:103DE800FFF7DCFB0C2F04F1060406F10606B3D13D
:103DF80007B0BDE8F08F0025CDE75546DBE700BFEB
:103E08002A7203082DE9F7438146FCF7B9F90646FB
:103E180038B1002237490120FFF792FF03B0BDE80F
:103E2800F0834846FEF722F80B2804465BDC06259B
:103E3800454309F101008DF80760FCF7CCFFDFF876
:103E4800B480814605EB0807464638B1FEF70EF800
:103E580003289EBF012378718DF807304846FCF788
:103E6800BAFF814660B1FEF701F80D2808D806238D
:103E780003FB046398709DF8073001338DF8073011
:103E88000DF1070239464846FEF772F8FCF7A3FF22
:103E9800814660B1FDF7EAFF302808D89DF8073061
:103EA800062202FB04620133D0708DF807304846C1
:103EB800FCF791FF60B1FDF7D9FF0D2808D89DF8F0
:103EC8000730062202FB0464013320718DF80730A5
:103ED8009DF80730062BA1D0002345F80830BB8099
:103EE800FDF76EFD9AE70B23324603490348FEF7B8
:103EF8000FFC93E732430020F46F0308FA6F0308BE
:103F08002DE9F04F374FDFF8E4A089B0814690469D
:103F18000C46164602F1380B94F9025000230C2285
:103F280002FB03F130480956A94256D00133072B4A
:103F3800F6D108365E4504F10804EDD109B0BDE8B4
:103F4800F08F96F9023007939D423288F1783079E4
:103F580096F806C096F805E03DD1258895423AD1F5
:103F6800E5788D4237D12579854234D1A5796545E3
:103F780031D16579A5EB0E035D425D4157F82E30CE
:103F880057F8211057F82000049357F82C30039362
:103F9800CDE900210290079B524629464846FFF783
:103FA800E7FA627994F9023057F822200492A2794C
:103FB80057F822200392227957F822200292E278B9
:103FC80057F82220019222880092294652464846F4
:103FD800FFF7E4FAADE70025D0E7B8F1000FB0D15C
:103FE8004546DEE75C660308346D00204872030826
:103FF8002DE9F3410346FCF7C3F830B135490022F7
:10400800012002B0BDE8F0417AE7CDE9000018468A
:104018005D1CFDF72BFF44B2204610F0FDFD06465F
:1040280000283CD08DF8024001242846FCF7D3FE36
:10403800074628B1FDF71AFF0134ADF80000E4B2D5
:10404800DFF8948000253846FCF7C5FE0746F8B12E
:10405800FDF70CFF002258F822108842D3B203D093
:104068000132112AF7D1002358F8232090420FD1AA
:10407800022D1CD0032D1FD0012D12D05A1E0F2A3D
:1040880003D88DF803300134E4B20135042DDAD1B8
:10409800052C17D802B0BDE8F041FDF791BC0446E5
:1040A800C3E71A1F042AF0D88DF80430EBE7082B71
:1040B800EBD88DF80630E6E75A1F052AE5D88DF8C3
:1040C8000530E0E76B4603CB3060716002B0BDE8B5
:1040D800F08100BFFA6C00205C6603082DE9F04F00
:1040E800834685B092460D46164600274FF01909BB
:1040F8004FF46178BAF1000F3ED032782C7871789D
:10410800B378F078944235D16C788C4232D1AC785F
:104118009C422FD1EC78A4EB000CDCF1000444EBBA
:104128000C0419FB008019FB0383CDE901130390EC
:1041380000923B46114A21465846FFF719FAEB7898
:104148000E4A19FB03830393AB7819FB038302938D
:104158006B78019315F8043B009321463B4658467B
:104168000137FFF71BFA142F06F10406C2D105B078
:10417800BDE8F08F0024D4E75446E0E765720308F1
:104188002DE9F04F0F468DB07A490646FDF73CFE03
:104198000546002840F0AC8077493046FDF734FEEC
:1041A8000546002840F0A68074493046FDF72CFEED
:1041B8000546002840F0A08071493046FDF724FEEE
:1041C800002805460ABF0124102435460FB144F0E3
:1041D80020046C4B6C4E93F8049093F805806B4F59
:1041E8000193BE42C0F08A80FDF792FC484603F076
:1041F800FBFA404603F0E0FA65492846FDF704FE5D
:1042080008B144F0400414F0110F00F0B98161487E
:10421800FDF7DAFB0020FEF7F3FA04F03003302B49
:1042280002D15D48FDF7D0FB5C4D5D48DFF8A8A1E1
:10423800DFF8A8B1FDF7C8FB5A48FDF7C5FBD5ED77
:10424800007A594AF5EE407AF1EE10FA0CBF0121D6
:1042580000212046FFF7A2F92A465449544D20462A
:10426800FFF774FC5348FDF7AFFB95F90210524A6B
:10427800B1FA81F149092046FFF790F92A464F49DA
:104288002046FFF79DF94E48FDF79EFB4D4A4E49E3
:104298002046FFF7D9FA4D48FDF796FB4C4B1E68B0
:1042A8004C4B1F684FF000085AF828509DB32B78E4
:1042B800DBB14FF0010909FA08F967EA060313EAC6
:1042C800090F14BF012100212B465A462046FFF74B
:1042D8004FF966EA070313EA090F5A462B4614BF3B
:1042E800012100212046FFF759F908F10108DBE711
:1042F80001246BE7022469E7042467E77388C3F3A2
:104308000B021B04D6E9011048BF02EB42022AF057
:10431800B3FB143665E7DFF8C8A0A84667EA060BC2
:104328002D4B53F82850002D5CD02B78FBB14FF063
:10433800010909FA08F917EA090F0BD066EA070319
:1043480013EA090F52462B4614BF012100212046CB
:10435800FFF70EF916EA090F09D01BEA090F2B46D9
:10436800524614BF012100212046FFF717F908F132
:104378000108D5E78D7203084D9E03088171030873
:10438800EC980308A8510020F0AB030860AF0308BD
:104398009472030803A00308A1720308484200208E
:1043A800939E0308799F0308DC720308EC430020FE
:1043B800553F0020EB720308F57203086C45002096
:1043C80002730308983F00200C4500200873030877
:1043D800943E002078340020B413030810730308B7
:1043E8001C7303087D48DFF86C92DFF86C82FDF7D8
:1043F800EBFA7B4B1E687B4B1B687340DB430393D4
:104408004FF0010B039A0BFA05F31A4218BF5F46E7
:10441800754A08BF0027334002934FF00C0303FB93
:1044280005233946D3F808A00CBF4A4642465346EE
:104438002046FFF79DF8029A5346002A14BF4A46C1
:104448004246394620465D44FFF7A8F8162DD7D1D5
:104458006648674E674FFDF7B7FA0023664808932A
:1044680004935D460BEB06021BF8003012F8011CA2
:104478000CAA1A440DF1300C02F8201C1BF8072076
:1044880094440CF8101C2DB1A3EB020CDCF10005D0
:1044980045EB0C050BF1010BBBF1050FE2D1002632
:1044A80008AB564A8DF8146029462046FFF760F895
:1044B80004AB524A29462046FFF770F85048FDF7EA
:1044C80083FA504A50492046FFF71AFD4F48FDF736
:1044D8007BFA4F4A4F492046FFF700FE4E48FDF74A
:1044E80073FA4E4A4E492046FFF72AFC4D48FDF71D
:1044F8006BFA4D4A4D492046FFF78EFA4C48FDF7B6
:1045080063FA4FF0FF331A464A49204622F044FA2C
:104518004948FDF759FA30462146FEF751FFE006B3
:1045280043D5019B214630461F795D79FFF700F896
:1045380021460120FEF7FCFF21460220FEF7F8FF86
:1045480021463046FEF7D8FF21460120FEF7D4FF6A
:1045580021460220FEF7D0FF384603F045F92846E9
:1045680003F02AF93548FDF72FFA791C3448FEF78D
:10457800CFF83448691CFEF7CBF83348FDF724FA26
:10458800A10704D5019B21461879FEF7D1FF6207E0
:1045980004D5019B21465879FEF7AEFF2B4C2C4BD6
:1045A8009C420DD30DB0BDE8F08F019B21461879D0
:1045B800FEF7BEFF019B21465879FEF79DFFDFE716
:1045C8006388C3F30B021B04D4E9010148BF02EB63
:1045D80042022AF051FA1434E1E700BF7F9C030835
:1045E800AC450020F43E0020FC4103082773030873
:1045F80002210308406C0020A88C00202B730308BC
:10460800369F0308FA6C00206E8C00203273030872
:10461800E0400020AC4400203673030832430020F9
:104628009E4300203F7303088E3D00207E3D0020FE
:1046380047730308AC8900208D720308527303087E
:10464800AA6F0308A26F030875730308F0AB030889
:1046580060AF0308827203087872030801218FE5AE
:1046680000218DE5F7B50746FBF78AFD044630B112
:10467800002222490120FFF731FD03B0F0BD384682
:10468800FDF7F4FB1328054630DC8600781C8DF80E
:104698000740FCF7A0FB194C074640B1FDF7E6FBC5
:1046A80023289EBF012304F825008DF807303846DB
:1046B800FCF791FB074650B1FDF7D8FB0D2806D84B
:1046C800A31958709DF8073001338DF80730B11CD5
:1046D8000DF1070221443846FDF74AFC9DF80730E2
:1046E800042BCAD0002344F82530C6E713232246FA
:1046F80003490448FEF70CF8BFE700BFE04000207C
:10470800F46F0308FA6F03080EB40FB505AB0190F8
:1047180053F8042B0649039301A8FDF7ACFE019B4F
:1047280000221A7004B05DF804EB03B0704700BFB4
:10473800CD0600082DE9F043344B8DB00CAA1B8838
:1047480022F80E3D054609A822F089F8BDF9222075
:104758003C2192FBF1F301FB132109B21EB2BDF813
:1047680024300029B8BF4942B3F5FA6F1AD39DF82F
:104778002630013B0B2B15D89DF82730013B1E2B0B
:1047880010D89DF82830172B0CD89DF829303B2BD2
:1047980008D89DF82A303B2B04D8BDF82C30B3F547
:1047A8007A7F30D300201A4B0993ADF828008DF892
:1047B8002A00ADF82C000446002E9DF828709DF8BC
:1047C80029C09DF82AE0BDF82C809DF827000791A4
:1047D800B4BF4FF02D094FF02B09002EB8BF764219
:1047E8000090BDF824209DF826300A49CDE90596A9
:1047F800CDE903E8CDE9017C2846FFF785FF20468F
:104808000DB0BDE8F0830124D6E700BF886D002015
:10481800000001018E7303080FB437B50B490C482B
:10482800096800680B4D06AB53F8042B0193FDF79C
:1048380022FE04462868FCF76AFC0028FAD02046C5
:1048480003B0BDE8304004B0704700BF8C2800209A
:10485800902800208C4B00202DE9F04F87B00346AC
:10486800FBF78EFC064620B1FDF7AAF807B0BDE8B5
:10487800F08F05AA5B49DFF89891DFF898A1DFF877
:1048880098B118462AF08CFA34460546B0464FF0DF
:10489800FF37A5B9544B78B20C2606FB05F2D118A0
:1048A800D256824200F081800135072DF5D1B8F14A
:1048B800000F34D14D483946FFF7AEFFD6E7012E39
:1048C8000ED0022E11D01EB92846FDF7CFFA0746A2
:1048D80005AA444900202AF063FA01360546D8E7BC
:1048E8002846FDF7C3FA8046F2E7494628462CF0E9
:1048F8008EFC20B93E4928462CF089FC08B144F0CA
:104908000104514628462CF082FC28B9594628460D
:104918002CF07DFC0028DBD044F00204D8E7002C02
:1049280008BF03240023E4B20293CDE900841A46A9
:10493800194610F0DFF8054610B939462D48BBE78F
:10494800424639462C48FFF767FF39462B48FFF7A0
:1049580063FF2B4B1C68204610F0ACF8284610F07B
:10496800A9F8002021F038FB2046FCF7DCFB60B1F9
:10497800012021F031FB2046FCF7CFFB01462846F9
:10498800FCF7D4FB002021F027FB2846FCF7CBFBE3
:104998000028E9D0012021F01FFB2846FCF7BDFBC9
:1049A80001462046FCF7C2FBDBE74D68002D3FF4CB
:1049B8007EAF39461348FFF72FFF54B16979A142FA
:1049C80007D022461048FFF727FFE1B22846FCF738
:1049D8009BFBEB6A002BB8D00C48FFF71DFF0023A8
:1049E800EB62B2E7EAA40308346D0020BC73030845
:1049F800147A0308E4730308037403086E74030845
:104A0800444B0020207403083874030858740308C2
:104A1800E8930308F09203080C7A03082DE9F04F95
:104A28004FF0000C85B0864607468046054600F1E3
:104A3800400908F1100B2B463E4612E0F4EC016ADF
:104A48001AED047AD3ED007AE6EEC77AC3ED007A60
:104A5800AC420AF1100AF1D104335B4506F10406B1
:104A680002D0B2464446F3E71E464E451CD006EB3C
:104A78000C0BBA46B04607E0F8EC016A1AED047A66
:104A8800E6EEC77AC4ED047AD845D4ED047A0AF183
:104A9800100AF1D1D5ED006A87EEA67A103617EE26
:104AA800108A44F8108FE0E70CF1040CBCF1100FE9
:104AB80005F1140507F104079846BAD100230093BD
:104AC80001930293039302F1100705466C4652F8CE
:104AD800043B44F8043B6E467346AB4224D1BA42C9
:104AE8000EF1100E03F11405F1D1403004AE01F1BE
:104AF8001003054656F8044D43F8044C1A1F0446A3
:104B0800AC42D2ED007A1AD150ED016A87EEA67A4E
:104B18008A42A0F11400A4F11005134682ED007A30
:104B2800E8D105B0BDE8F08FB6EC017A54ED017A12
:104B3800F3EC016AE6EEC77A44ED017ACDE7F4ECCE
:104B4800016AB3EC017AE6EEC77AC2ED007AD7E7DC
:104B58001FB50C46024669461030FFF75FFFDDEDD2
:104B6800007AB6EE007A67EE877AC4ED007ADDED5A
:104B7800017A67EE877AC4ED017ADDED027A67EE95
:104B8800877AC4ED027A04B010BDD1ED007A90EDB9
:104B9800066AD0ED095AB8EEE77AD0ED047AE7EE66
:104BA800077AB7EE005AC0ED047AD1ED017AF8EE33
:104BB800E76AD0ED057AE7EE267AC0ED057AD1ED01
:104BC800027AF8EEE77AA7EE276A80ED066A90ED9A
:104BD800076A36EE076A80ED076A90ED086AA7EE65
:104BE800266A80ED086A26EEA66A75EE865AA7EE52
:104BF800076AC0ED095AD0ED0A5AE6EEA75AA7EEA1
:104C0800A76AC0ED0A5AD0ED0B5A75EEA65AC0ED48
:104C18000B5AD0ED0C5AE7EE275AC0ED0C5AD0EDDE
:104C28000D5AE6EEA75AC0ED0D5AD0ED0E5AE7EE32
:104C3800A75AC0ED0E5AD0ED0F5A75EEA75AC0ED1F
:104C48000F5AD0ED105A75EE875AC0ED105AD0EDB4
:104C5800115A75EEA65AC0ED115AD0ED125A75EEDA
:104C6800A75AC0ED125AD0ED135A75EE855AC0ED09
:104C7800135AD0ED005AE7EE065A90ED017AC0EDCE
:104C8800005AA6EE867A80ED017A90ED027AA7EEB8
:104C9800867AD0ED037A80ED027A37EE866A80ED67
:104CA800036A704700F14001034600221A615A6105
:104CB8009A61DA6110338B4240F8042BF6D17047C1
:104CC800024684B00068516801AB03C3906818605D
:104CD800DDE901329342C8BFCDE90123DDE90223B2
:104CE8009A42C8BF0293DDE901329342C8BF0293DA
:104CF800029804B0704780EAE073A3EBE0738B423C
:104D080006DB002801DD401A704702D008447047CE
:104D18000020704748F6A043984203DDA0F50C40F8
:104D2800A03870470028B8BFC018704744F25063D5
:104D3800984203DDA0F50C40A0387047034B984219
:104D4800BCBF00F50C40A030704700BFB0B9FFFFF2
:104D580008B52DED028BB0EEC08AF0EE408AB7EEB2
:104D6800000A30EE480A2AF087FB9FED0E7ADFED45
:104D78000E7AE8EE077A9FED0D7AA7EE887ADFEDD6
:104D88000C7AE7EE087AF5EEC08ABDEC028BF1EEFC
:104D980010FA27EE800A44BFDFED067A37EEC00A24
:104DA80008BD00BF306E99BC2716983D843459BEA3
:104DB800A40DC93FDB0F4940F0EEE06AB0EEC07ABF
:104DC800F4EEC76AF1EE10FAD4BFB0EE476AB0EE5F
:104DD800666AB5EE406AF1EE10FA48D0F4EEC76A9A
:104DE800F1EE10FA54BFF0EE475AF0EE665AC5EEEF
:104DF800867A9FED206ADFED205A9FED205AE7EE74
:104E0800865A9FED1F6AA5EEA76ADFED1E5AE6EEE9
:104E1800275A9FED1D6AA5EEA76ADFED1C5AA7EE7B
:104E2800A55AF7EE005AE5EE275AB1EE466AC6EEE5
:104E3800257AF4EEC76AF1EE10FA48BF9FED147AAE
:104E4800F5EEC00A48BF77EE677AF1EE10FA48BF70
:104E58009FED107AB5EEC00A48BF77EE677AF1EE9B
:104E680010FA48BFF1EE677AB0EE670A7047DFEDD7
:104E78000A7ABEE739094E3DE3B59EBE69A2163EE1
:104E880088FA16BE45FE7FBFA7DFA8B499FB243F6A
:104E9800DB0FC93FDB0F494000000000FDEEC07A80
:104EA80017EE903A2033402B43D8DFED237A9FED5D
:104EB800237AB4EEE70AF1EE10FA28DCDFED207A67
:104EC8009FED1E7AB4EEE70AF1EE10FA22D4DFED78
:104ED8001D7AB4EEE70AF1EE10FA1EDD30EE670A2D
:104EE80037EEC00A60EE007ADFED176A9FED177A99
:104EF800A7EEA67ADFED166AE7EE876A9FED157AC8
:104F0800A7EEA67A20EE276AA6EE070A704730EECB
:104F1800470ACEE730EE070AD4E79FED0F7AB4EEE2
:104F2800C70AF1EE10FA44BF30EE270A37EE400AFE
:104F3800D8E79FED0A0A7047DB0F4940DB0FC940ED
:104F4800DB0F49C0DB0FC93F9A7C2E36FAAF4FB949
:104F58003587083CA4AA2ABEDB0FC9BF00000000A1
:104F6800DFED027A30EE270A98E700BFDB0FC93F72
:104F78002DE9F74F0DF018FF6E4C6F4BA4F1140795
:104F88009F42C0F084806D4D287902F02DFC68792D
:104F980002F012FC6A494B898A899A4224BF00238D
:104FA8004B810A8ACB899A42664A019224BF002320
:104FB800CB811368988FDC8F8442634C634824BF8D
:104FC80000229A87237C627C9A4224BF00232374A0
:104FD800FCF706FE5E4B1B78012B02D14020FCF744
:104FE800FFFDAB790BB10123CB705A4FDFF878A1E5
:104FF80000263546B9464FF0FF08F25B530803F028
:105008007733900800F03330D31A1B1AD00800F019
:1050180011301B1A03EB231312F0010103F00F33B5
:1050280093FBF8F0C0EB002018BF0135A3EB000399
:1050380018BFEDB2012B0ADD022B0ED111B112EA15
:105048000A0F04D109EB060024F0AAFC28B108369F
:10505800382ED2D1013D022D06D90D20FCF7AEFD28
:1050680010B13C49FCF726FD3B4A3C4D938B518BD4
:10507800643B8B42A8BF0B4653832B7A042B7CD806
:10508800DFE813F07400A101A801B401BB0134F9F1
:10509800123C002BA7BF4FF00008C1464FF0030891
:1050A8004FF001094FF0000A09EB0A02D2B290450D
:1050B80001D2143461E72A4E3588002D00F0B481FE
:1050C800284B7019984280F0AF81052D40F2AC81D1
:1050D80034F8141CB6F802C0C1F30B018C4526D174
:1050E800717901F00301914221D15146384696F871
:1050F80004B0FCF701FD34F8141CBBEB113F13D1CD
:1051080034F812CC54F8100CCCF30B01AA1F8A42C5
:10511800A8BF0A461CF4004F1CBF5FFA8AF501FBC2
:105128000500B11D29F0A8FC0AF1010ABCE70646F2
:10513800C2E700BF04AC030860AF0308A851002011
:105148006A3D0020409300205C3C00200063040678
:10515800406C0020FA6C0020708D0020CA8D002061
:1051680001000E0800001008BC83FFFFEB88B3F5B0
:10517800F57FA8BF4FF4F573EB80002011F02FFBEB
:10518800AC4B1A68002800F0448122F080621A6053
:10519800A94BB5F800C0D3F800A06D889AF8007044
:1051A800A5EB0C05642205FB07F393FBF2F3A34A76
:1051B80063441380BAB202EB82035B005242C7F128
:1051C8006409009392B200205FFA89F94FF00A0B44
:1051D8004FF47A7813B2002B40F31E8149469AF8AF
:1051E800016003FB03FE06FB0EFEC6F1640611FB1D
:1051F80001F19EFBF1F131444B43009993FBFBF322
:105208000B441BB28E496B4393FBF8F3634421F8BC
:10521800103001300A320B2892B2DBD1894D0DF0E3
:10522800ABF83022002188482BF08CFF11F072FC7B
:105238002979864B6422C82012FB0101996069799B
:10524800A3F8308012FB0102DA6001210022C3E9D1
:105258000422C3E90622C3E9082283F8282083F838
:10526800292099715A859A85DA85B4F90430784DE0
:10527800002B40F0D580B4F90630002B40F0D080E8
:10528800B4F90830002B40F0CB80B4F90A30B3F5FC
:10529800805F40F0C580B4F90C30B3F5805F40F012
:1052A800BF80B4F90E30B3F5805F40F0B9802B6849
:1052B80023F400732B600DF09DF8664ADFED667AE3
:1052C800B2F84411654B664C664F676307EE101AD7
:1052D800B8EEC77AB2F84611C7EE276A40F205560B
:1052E80004F11C002063268707EE101AB8EEC77A6F
:1052F800C3ED006AC7EE276AB2F8481107EE101A24
:10530800B8EEC77AC3ED016AC7EE276AB2F84A1148
:1053180092F84C211A74142207EE101AB8EEC77AC4
:10532800C3ED026AC7EE276A0021C3ED036A2BF0BA
:1053380009FF04F1B40014220021C4E93207A4F8DB
:10534800D0602BF0FFFE04F5A670C4F86001C4F825
:105358006471A4F86861142200212BF0F3FE2B6815
:10536800DB0601D50FF0F6FD019B9FED3F5A1A6849
:10537800B2F9503007EE903AF8EEE77AF2EE044AC6
:1053880087EEA40A20EE050AFFF7EAFDB2F95230CB
:1053980007EE903AF8EEE77AF0EE405A87EEA40A64
:1053A80020EE050AFFF7DCFD304B25EE800A0022CF
:1053B80083ED000A2E4B1A7026F092FE03B0BDE86A
:1053C800F04F0DF0D5BCEB8840F63C729342A8BF75
:1053D8001346D1E6EB88B3F5FA5FA8BF4FF4FA534A
:1053E800B3F5FA6FB8BF4FF4FA63C5E6EB88B3F5C7
:1053F8007A5FA8BF4FF47A53F2E7EB88B3F5FA4F18
:10540800A8BF4FF4FA43B3F5FA7FB8BF4FF4FA7365
:10541800B2E642F08062BAE60CBF01213946DEE608
:105428002B6843F4007345E751463846FCF764FBA4
:105438007AE600BFD08C00205C990020F498002008
:10544800062E0020489900207C410020D48C0020A2
:105458000C8D0020301D002000401C46D405001093
:10546800480300109414030835FA8E3CF805001020
:105478003803001091ED005A08B5B0EE450AFFF761
:105488006FFDF0EE405AB0EE450AFFF707FDD1ED8B
:10549800014AB0EE405AB0EE640AFFF761FDB0EE83
:1054A800404AB0EE640AFFF7F9FC91ED023AF0EEDB
:1054B800403AB0EE430AFFF753FDF0EE404AB0EE33
:1054C800430AFFF7EBFC25EEA46A65EE806A65EEF9
:1054D800247A64EE244A25EE007AC0ED004AF0EE04
:1054E800664AE3EEA74AB0EE463AC0ED034AF1EE4B
:1054F800634AA4EE873AE3EEA67AA4EE867A24EE0F
:10550800400A25EE445A65EE845A80ED010AC0ED42
:10551800023A80ED043A80ED055A80ED067AC0ED36
:10552800077AC0ED085A08BD38B52F4CB4FBF2F421
:10553800A142B0EE405A1D46F7EE005A4FF0000463
:105548004BD207EE901A9FED297ADFED296AF8EE23
:10555800677A67EE877A07EE102AB8EE477A27EE61
:10556800267AC5EE876AC7EEA64AB0EE640AFFF748
:1055780095FCB0EE404AB0EE640AFFF7F1FC35EE58
:10558800055A012D84EE056A1CBF75EEC06AB6EE99
:10559800007AB8EE005A76EE257A12BF26EE877AA0
:1055A80060EE056AB0EE657AC7EE274A86EEA77AFE
:1055B80020EE050A80ED017A80EE277A75EEC65A4C
:1055C80080ED037A85EEA77AC0ED004AC0ED024A65
:1055D80080ED047A8461446138BDC0ED005A4460AE
:1055E8008460C4600461F5E720A10700DB0FC940AF
:1055F800BD37863500239FED010A95E7F304353F53
:1056080030B507EE902A2DED028BB8EE670A07EE4B
:10561800903AF8EE677A83B080EE270A0D46044682
:10562800019229F08DFD30EE008AB0EE000AF0EE0E
:10563800480A29F08FFD29F01FFFF0EE480AF0EE26
:10564800408AB0EE000A29F085FDF7EE007A30EEC8
:10565800670A019988EE800A01232A46204603B08A
:10566800BDEC028BBDE830405EE790ED017AB5EE07
:10567800407AF1EE10FA07EE901A0BD19FED0F7AEF
:10568800F8EEE77AF7EE006A67EE877A86EEA77A91
:1056980080ED017A90ED017AD0ED007AC0ED020A32
:1056A80030EE877A30EE670AC0EE876AE6EE807AD7
:1056B800B0EE670AC0ED007A704700BFDB0FC94043
:1056C8004840082310F0800F4FEA400018BF80F0D0
:1056D800D500013BC0B2F5D1704710B50A440C465D
:1056E800944200D110BD14F8011BFFF7E9FFF7E75A
:1056F8004A09012301F01F0103FA01F150F8223091
:105708000B4340F8223070470EB42E4B70B51B681F
:10571800002BADF5277D054630DA2B4B2B4C19684D
:105728004FF47A7306A8B1FBF3F203FB121328496E
:10573800FEF7EAFF06AB03440193AB9A2549ACABED
:10574800064601A80093FCF796FE019B5A1C01929D
:105758000A221A70019B5A1C019200221A702368AF
:1057680093B11A68126A0AB11846904706A92068C8
:10577800FBF736FD15B120680FF09CF90DF5277D74
:10578800BDE8704003B07047134A1468002CF5D088
:10579800CDF81230ADF816308219A6AB26AD0393BA
:1057A80006A9FD2302A80232ADF810300295FCF7D5
:1057B8003AFE029B022202A92046CDE902530DF0CF
:1057C800ABFBDBE7088D002020690020A028002023
:1057D8009C740308C3060008A428002038B5174B9A
:1057E800D3F8BC20033002EB9005B5F5807F19D8BB
:1057F80003F5A874C3F8BC5003EB810304EB8204DF
:10580800D3F8C0200E4920F0030010446FF00302C3
:105818006A43C3F8C00002F580620020FFF774FFF6
:10582800204638BD07490020FFF76EFF064A136877
:1058380043F0007313600024F2E700BF301D00201E
:10584800A8740308CB740308D08C00202DE9F84312
:10585800904603682B4A81460F46002452F83410BC
:105868008B423FD1284D99F8056055F82430B60889
:105878002BB90A212420FFF7B1FF45F8240099F835
:10588800051055F82400D9F800308A080221914003
:1058980089B290B300EB860240F82670C2F81080F7
:1058A8009A891143998100F12002EFF31184502164
:1058B80081F3128800F11001164651F8045B1DB1FE
:1058C800156051F8042C0432B142F6D10021116060
:1058D800E2B282F31188026A4AB19A8942F001025F
:1058E8009A8102E001340E2CB8D1BDE8F8839A8978
:1058F80022F001021204120CF2E79A8922EA01014D
:105908009981F2E720650308808800204BB201F0F6
:105918007F02002B10B54FF02804B5BF04FB02012D
:1059280004FB010101F58E7101F55D710124DB0FA6
:105938008C700A704B7000EB820053B18269136857
:10594800002B01DA43F0804343F400131360002076
:1059580010BD426D1368F7E782B0002301930D4A2A
:10596800036819690191013A10D001990029F8DA00
:10597800019A42F001020192019A1A61054A1969D5
:105988000191013A02D00199C907F8D4002002B068
:10599800704700BF410D0300436D064A1A61C27883
:1059A800012A06D100F2CC5058611A684FF08022C3
:1059B8001A6070471800086010B5042380F8113188
:1059C800002304461A461946FBF70DF82046FFF750
:1059D800E3FF002010BD10B5044671BB90F81131EB
:1059E800032B1BD1D0F89023D0F87C339A4217D9D7
:1059F800C178012908BFD0F88013A2EB030204BFC5
:105A0800C918C0F88013934228BF1346C0F89023E2
:105A18009BB2D0F880230021FBF79CF8002010BD32
:105A2800D0F8E4351B6923B190F81221032A00D17C
:105A380098472046FFF7C0FFF0E7D0F8E4359B69A8
:105A4800002BEBD090F81221032AE7D19847E5E71D
:105A5800F0B590F8CF2590F8CE3590F8D05590F85D
:105A6800D37590F8CC1590F8CD6503EB022390F828
:105A7800D12505EB022590F8D22502EB0722012754
:105A880085B080F8117101F01F0792B29BB2ADB2D8
:105A9800012F04468DF808108DF80960ADF80A301A
:105AA800ADF80C50ADF80E20C0F8402100F0098187
:105AB80005D3022F00F0198101F0800182E1092E3F
:105AC8005ED8DFE816F0B500F3005D00C7005D00A2
