:020000040800F2
:100000000000011015530308532203080DB702081E
:10001000D1530308D1530308D15303080000000053
:10002000000000000000000000000000E5270308B9
:10003000E327030800000000E12703082316000857
:10004000D1530308D1530308D1530308D1530308F4
:10005000D1530308D1530308451A0008551A000864
:10006000D1530308511A00084D1A000871C6000840
:1000700061C6000851C600083DC6000829C6000830
:1000800015C6000801C60008D1530308D153030860
:10009000D1530308D1530308D1530308491A000868
:1000A000ADC7000885C700085DC70008D5C70008B0
:1000B00049C7000835C7000821C70008D153030805
:1000C000D1530308D1530308D1530308D153030874
:1000D000D153030891CE0008D153030885CE000800
:1000E000411A0008D15303080D430308D1C6000884
:1000F000A9C6000881C60008F9C60008EDC50008B9
:10010000D1530308D15303080DC70008D153030886
:10011000D1530308D1530308D1530308D153030823
:10012000D9C50008C5C50008B1C500089DC50008AF
:1001300089C50008D1530308D1530308D1530308DC
:10014000D1530308D1530308D153030855220308A0
:1001500075C5000861C500084DC5000879CE0008C6
:10016000D1530308D1530308D1530308D1530308D3
:10017000D1530308D1530308D1530308D1530308C3
:08018000D1530308D153030819
:100188002DE9F0411D4E337804460D4643B11C4B12
:10019800D3E90023994208BF904224BF002333705B
:1001A800184F3B6A3846984710F0010F16490ED091
:1001B80001230B7080F00203C3F340033370D7E9C7
:1001C80004230F4E171943EB0508C6E900784307C7
:1001D80042BF0E4B01221A700D4B1B68E41A002C0B
:1001E800C4BF01230B700B782BB9084B187800F0AB
:1001F8000100BDE8F0810120F9E700BFD5620020C9
:1002080088160020C09300200158002000580020C4
:1002180008580020114B30B503F11004014622465E
:1002280053F8045B41F8045BA342F9D11B880B80A7
:100238000A4900F1120351F8044B43F8044B914268
:10024800F9D111881980054B243053F8041B40F864
:10025800041B9342F9D11B88038030BDD47D030869
:1002680020B10078B0FA80F040097047012070474B
:10027800436A826930B5D154436A04690133A342A1
:1002880028BF00234362836BFBB1196811F0010199
:100298001AD11A68856922F001021A60826A154427
:1002A800DD60456AAA4235BFAA1AA21A5A605A6086
:1002B8004FF0000280F850201A6838BF856242F07B
:1002C800010228BF81621A6030BDC26DD36843F055
:1002D8008003D360F8E7034610B55C6B4069D968C2
:1002E80044B1DA6C8C1A013A005D08BF0A46C0B204
:1002F800DA6410BD1A6A805C01328A4228BF22463D
:10030800C0B21A62F5E7836B13B190F850007047DA
:10031800D0E909031B1A584258417047D0E909131C
:100328000269994238BF8918CB1A816B501E19B1DE
:100338004A681344834201D2C01A704700207047AC
:10034800436B4BB1C26C5B689A42A3EB020392BF4A
:100358001846C068C0187047D0E907239A422FBFD3
:10036800D01AC0688018C01A704710F80A3C0133C8
:10037800DBB20A2B00F80A3C07D910F8131C034A11
:10038800002322F8113000F80A3C7047863D00200F
:10039800F0B54F4E337A14200133B3FBF0F200FB73
:1003A800123333724B4B58681A6D9C6881420A4469
:1003B80004D293F8580008B102F58032464807780D
:1003C800B2FBF7F2944233D293F858501DB14FF470
:1003D800803595FBF7F5101B451BDD60C3E901125D
:1003E800717A14220020013183F8580091FBF2F051
:1003F80002FB10117172B17AD868013191FBF2F4E5
:1004080002FB1412B27240F68C22904243D91A7839
:1004180093F955108A4250B223D1111F0C2920D8C4
:1004280093F8561018290BD8013183F8561009E0B3
:100438004FF4803090FBF7F0001B1044D860CDE7F4
:1004480083F8540093F954108A4202D193F8571054
:10045800D1B9012283F8572083F8550000221A7079
:10046800F0BD0021E1E703EB81052D6924F8115067
:1004780001318A42F7DC194900240F2A07DD18499F
:100488000A7801320A70E4E70021144CF1E721F8F8
:1004980012400132F1E793F85720002AE0D0A0F289
:1004A800EF2140F2DA52914207D81A780F2A04D87D
:1004B800111D013243F82100D1E7002283F85720AB
:1004C800104699180432402A0861FAD1C8E700BFDB
:1004D80088160020EC5200207E120020863D002065
:1004E800643D002010B50B48037A14240133B3FB94
:1004F800F4F204FB1233084A0372136D01330B4400
:1005080013654FF6FF73994204BF012382F85830F0
:1005180010BD00BF88160020EC5200200B4B1B6852
:100528001B0110B406D50A4B1B685B050AD55DF89C
:10053800044B4DE0074B53F820301BB107289CBFF4
:100548001B6819605DF8044B704700BFFC2200204F
:100558000023002028540020024B53F820301B6849
:10056800196070477C770020064B53F82030A1F5BE
:100578007A701A6819894FF47A73414391FBF3F141
:10058800116070477C770020704770470D4B1A68E0
:100598003F2AF0B59C4613DC0B4C17010346E619BD
:1005A80000F1100E18685968354603C508337345BD
:1005B8002E46F7D1054B1B68E3510132CCF80020D9
:1005C800F0BD00BFC0520020C04E0020B8880020F7
:1005D80070B5114C05460E4600220023D4E90401EB
:1005E80034F0EAFA20B10AA3D3E90023C4E90423CA
:1005F800304634F00FF8D4E9042334F09FF934F08E
:1006080023FB04EB4504208370BD00BFAFF30080DB
:10061800ABAAAAAAAA461040881600200E4B9842F8
:1006280013D0A3F57843984211D003F5806398421C
:100638000FD10223094A142101FB03235A890132ED
:1006480092B25A81588980B270470023F2E7012399
:10065800F0E74FF0FF3070470030014050150020A0
:1006680030B5084B08498B4200D330BD5A88140472
:1006780006D55D68DC68C2F30B0200FB02522260FB
:100688001433F0E7F81B0408A41F040830B50278F7
:10069800202A034600F10100F9D0092AF7D02D2AB3
:1006A8004BD10346BFEE000A9FED3C7A1A46F2EEA4
:1006B800046A134612F8010BA0F13001CCB2092CE0
:1006C80041D92E280BD1F2EE046A1146B0EE666AC3
:1006D8000B4611F8012B303AD0B209283CD91A78C8
:1006E80002F0DF02452A53D15A782D2A3FD102332E
:1006F8000120013B00220A2513F8011F3039CCB232
:10070800092C3AD9B2F59A7F1346DFED256A28BF3E
:100718004FF49A731A46F7EE007A072A30D8DA08A7
:100728006FF0070101FB0233F2EE046A63BB88B382
:10073800C7EE276A20EE260A30BD2B2A08BF0346DB
:10074800B7EE000AB0E707EE901AF8EEE77AE7EEA0
:10075800267AB0EE677AACE707EE902AF8EEE77AE9
:10076800C7EEA65A66EE866A37EE257AB0E72B2AD8
:1007780014BF013302330020BBE705FB0212BBE7BD
:1007880067EEA67A083AC8E767EEA67A013BCDE796
:10079800F7EE007A67EE276ACCE700BF000000009A
:1007A80020BCBE4CA0F13003DAB2092A01D81846A1
:1007B8007047A0F16103052B01D857387047A0F1A5
:1007C8004103052B94BF37384FF0FF30704703685B
:1007D8005A1C02601970704703685A1C026019702D
:1007E80070472DE9F84F002B14BF4FF030094FF038
:1007F80020090A9B141E07468846BABF64424FF078
:10080800010B4FF0000B13F8012B02B134B9BBF107
:10081800000F0ED000230A9D5E1B0EE0013CF2E79C
:1008280049463846C04715F1FF35F9D223462C46CC
:10083800F1E72546F7E73846C04705EB060A15F8FD
:10084800011B0029F7D1BBF1000F05D02546002D6B
:1008580005DC002CA8BFA2445046BDE8F88F4946E5
:100868003846C047013DF2E7D0ED006AD0ED057A81
:10087800E6EE807AB0EE407AB0EE670AD0ED037A01
:10088800D0ED016A67EEC07AE6EE877AD0ED066AA7
:1008980077EEA67AD0ED026AC0ED057AD0ED047A3B
:1008A80067EEC07AE6EE877AC0ED067A7047704741
:1008B80043230B80004870470000002010B5064C09
:1008C800606CFF2806D005498A6B3C312FF0C5FDC6
:1008D800FF236364002010BD00000020881600205C
:1008E80008B5D0F8E4355B6A9847002008BD08B51C
:1008F800D0F8E4351B6A9847002008BDD0F8E435E5
:1009080010B504461B689847D4F8E8359B689847A3
:10091800002010BD08B5D0F8E435DB6903B198476D
:10092800002008BD08B590F8123180F8133104236F
:1009380080F81231D0F8E835DB689847002008BD08
:1009480010B5D0F8E83504461B699847032384F8A6
:100958001231002010BDF0B54B784C69012B27D11E
:1009680082691568136914B964F3060305E08E6893
:10097800A642F9D24E6166F3060343F400231361DD
:10098800C478012C05D10B780E6900EB83039B69B1
:100998005E6145F00445156044B94B6933B102699D
:1009A8000978506B01238B40034353630020F0BD4B
:1009B8000B788F6800EB830307F07F065A6D156884
:1009C80013696CB966F3060343F400231361C37813
:1009D800012B04BF0B69536145F004451560E5E739
:1009E8004F61EFE72DE9F04191F801E00D784B698F
:1009F800CE78BEF1010F4FD100EB850CDCF81870F2
:100A08003A683C6963F3120493B96EF3DC443C61C1
:100A1800C478012C1BD10D697D61012E25D1006997
:100A28008068C00554BF42F0005242F080521CE07A
:100A3800D1F8088008EB030E0EF1FF3E012EBEFB35
:100A4800F8FE6EF3DC4408BF66F35E74DFE7012E40
:100A5800E5D053B1D0F810E00120DEF8348000FA78
:100A680005F545EA0805CEF8345042F00442012E57
:100A78003A6009D144B99BB20333C968DCF8D000A5
:100A88009B102246934202D10020BDE8F08151F824
:100A9800224004600132F5E700EB8505D1F808C073
:100AA8006F6DCCF312053A683C69A3B965F312047B
:100AB800012363F3DC443C61C378012B04BF0B6959
:100AC8007B61012E03D14B79A3B142F0005242F071
:100AD80004423A60D8E76344013BB3FBFCF3C3F339
:100AE800090363F3DC446B43C3F3120363F3120497
:100AF8004B61E0E742F08052E9E770B501F07F050D
:100B0800282404FB050104FB05040126C4F8282158
:100B1800C4F82C21002201F58E7184F81D6184F837
:100B28001C51C4F83421C4F830311DB9FFF713FF44
:100B3800002070BDFFF756FFFAE7214B5A6C0F2AC9
:100B480070B502F101011D4602D05964002070BD44
:100B58001C4900236B640B78002BF7D11A4C2268D0
:100B6800B2F5006F08BF2360184B22681B689A42D1
:100B780002D100230B70E9E78CBFC2F500639B1A12
:100B8800AB64AB6C402B0ED9403B02F14006AB6422
:100B980001230B70266040230D4911FA82F281214E
:100BA800FFF7ABFFD2E702EB030626604FF0000425
:100BB800AC640EBF022401249BB20C70ECE700BFAA
:100BC80088160020BC8800209C880020A08800206F
:100BD800BD88002070B518490B78012B0C4603D14D
:100BE800164DAB6C5BB90B702378022B17D1002321
:100BF8001A468121FFF781FF002323700FE0104C74
:100C0800402B22680DD9403B02F14001AB642160C2
:100C180040230C4911FA82F28121FFF76EFF002070
:100C280070BD03EB020626604FF00004AC640ABFF7
:100C380002249BB20C70ECE7BC88002088160020C8
:100C48009C880020BD88002010B504461346C4F8CF
:100C58003C21C4F83821022280F811210A460021DB
:100C6800FFF74BFF002010BD70B50C46282606FB89
:100C7800040506FB0101C5F88833002385F8744391
:100C8800C5F88023C5F88C3385F87533C37806FB1F
:100C98000404012B08BFC5F8842394F8743301F5C4
:100CA8005D711BB9FFF757FE002070BDFFF79AFE74
:100CB800FAE738B5282303FB0101074DB1F88C1377
:100CC800044628462FF090FB40232A46012120465F
:100CD800FFF7CAFF002038BDD416002030B50B78C6
:100CE800497801229A4000EB830301294FF000055F
:100CF8002C460CBF9B695B6D92B20CBF62F30F046C
:100D080062F31F446FF3CF3502691D60D36923EA8C
:100D18000403D361002030BD40F2011310B500F583
:100D2800A2710446A0F84431FFF7D8FF0123A4F8C4
:100D38009C3304F567712046FFF7D0FF4FF48173A9
:100D4800A4F86C3104F5B6712046FFF7C7FF2FF001
:100D5800C5FB002010BD0B7830B501224D789A40B4
:100D680000EB8303012D0CBF9D695D6D2B6892B26A
:100D78004FF000040CBF62F30F0462F31F441A041F
:100D88000DD48A6862F30A03CA7862F39343CA8867
:100D980062F3995343F0805343F400432B60036993
:100DA800DA691443DC61002030BD2DE9F04140F2DE
:100DB80001130446022600254FF040080127A0F839
:100DC8004431C0F84C8180F84761A0F84A7180F836
:100DD800485100F5A271FFF7BEFF04F56771A4F84A
:100DE8009C73C4F8A48384F89F6384F8A0532046B6
:100DF800FFF7B1FF4FF48173A4F86C310823C4F8EE
:100E08007431032304F5B67184F86F31A4F8726164
:100E18002046FFF7A0FF074B1E715D712FF066FBA0
:100E28004346054A39462046FFF71EFF2846BDE8D7
:100E3800F08100BF3C150020D416002070B50025B5
:100E480040260446A0F87453C0F87C6380F87753B2
:100E580000F55D71FFF77FFF4FF48073A4F81C3134
:100E680004F58E71C4F8246184F81F51A4F8225146
:100E78002046FFF770FF012384F81231D4F8E835D3
:100E8800A0785B689847284670BD0E4BDA68D20395
:100E980010D4DA68D1060FD4DA68D2050ED4DA682D
:100EA80012F0E00F0CD1DB6813F0020F14BF08201A
:100EB80009207047012070470620704702207047BC
:100EC80007207047003C024007B509238DF807301A
:100ED800FFF7DBFF8DF807009DF80730012BF7D0EF
:100EE8009DF8070003B05DF804FBA1F57A7107EEE1
:100EF800901A9FED097A9FED090AF8EEE77A10B586
:100F0800A7EE870A044634F05BFD054B53F82430FE
:100F18001B68186010BD00BF3D0AD73F0000D243D0
:100F28007C7700201523594307EE901AB8EEE70A9C
:100F3800F3EE087A10B580EE270A044634F040FD37
:100F4800024B53F824301B68186010BD7C770020D2
:100F58000C234B4300EE103A10B5BAEEEE0A0446E5
:100F680034F02EFD024B53F824301B68186010BD76
:100F78007C77002008B5202136F0BFFE03461846CE
:100F880023B10278202A03F10103F8D008BD38B54F
:100F980004460A4614F80E1C50F8040C49B90123FB
:100FA80024F80C2C04F80E3C0A22BDE838400BF05B
:100FB80029BD34F80C1C24F80A2C9142A2EB010339
:100FC80084BF0268D26A9BB288BF9B1824F8083C89
:100FD80014F80F2C074B34F8081C23F812100025BE
:100FE80004F80E5C0A2201210BF00CFD04F8065CE3
:100FF80038BD00BF863D00202DE9F0410B4DDFF8DC
:1010080030802C686A69012714400CB9BDE8F0816A
:10101800B4FA84F3C3F11F0307FA03F658F8230060
:101028000368984724EA06046E61EEE7003C014035
:101038004023002038B50C468D18AC4200D138BD8D
:1010480014F8011B2BF028FAF7E770B50A7812F0AC
:10105800600406460D462AD0202C2FD1CC884B7828
:10106800FCB112060CD522461E4918462FF0F5F998
:10107800EA881C493046FFF7E7FD0024204670BD8A
:10108800194AC0F894435364184AC0F8904303239C
:10109800946380F811313C3223460021FFF7E4FDC8
:1010A800EBE70222114418462FF0D7F9E6E74B7810
:1010B8000A2B08D00B2B0BD0062BDFD130462FF094
:1010C80013FC0224DAE701220949FFF7BDFDD5E741
:1010D8008B781BB9054AC2F88C30CEE72FF004FC98
:1010E800CCE700BFC41600200000002088160020AE
:1010F800141700200E4B1B68590702D50D4A1278A9
:10110800A2B19A0602D50C4A12787AB10B4A92F823
:10111800A00058B10A4A12880AB19B0707D4094BA4
:10112800B3F84800003018BF01207047012070470D
:101138005436002090390020BC570020F039002098
:101148006446002088050010084A03465079C01AF2
:1011580018BF0120022B88BF00235371044AC3EB38
:10116800C30302EB8303034A1360704778660020C9
:1011780054470020B05B002070B50B4E35792D1A0E
:1011880018BF01250328044634BF0446002420461E
:10119800FFF766FA054B347104EBC40403EB44040F
:1011A800034B28461C6070BD786600201817002085
:1011B80064620020044B9B7913B9044B186870478C
:1011C800034B9888704700BF7866002078000010AD
:1011D800CA46002073B504681C480023054650F829
:1011E8003360B4422CD1DCB255F8346030460BF091
:1011F800EEFC3388E40043F0010333802B195B795C
:1012080063B18DF804300022012301A88DF8053060
:101218008DF806208DF807302FF046FB2C44A37973
:1012280063B18DF804300022012301A88DF8053040
:101238008DF806208DF807302FF036FB02B070BD10
:1012480001330E2BCBD1FE24CEE700BFECB303084D
:101258002DE97848214B5A68214BC2F308028AB914
:10126800EFF3118272B91F481F491D6886681A6812
:101278009542FAD1D1F8CC209642F6D81B4BD3E947
:1012880000231AE0EFF31182102181F3128801F193
:10129800E0218E68086810F4803F13481EBF0124BF
:1012A800C0F8C8408E681968D0F8C850D3B283F324
:1012B80011880E4BD3E900230D444FF47A74A2FB36
:1012C80004BC04FB03CCBBEB06006CF1000133F05B
:1012D80089FEE4FB0501BDE8788800BF00ED00E069
:1012E800B888002010E000E0881600203035002083
:1012F8002DE9F043AC4C256815F0040687B005D0FD
:1013080001202FF065FB07B0BDE8F083FFF7F2FE80
:10131800A64B002800F00F8145F40075256083F87E
:10132800D060A34A236892F82920012A14BF43F405
:10133800802323F4802323609E4B1B7843B92568C0
:101348002EF032F8002800F0048145F400252560CD
:101358001EF0D4FE40B125682EF04CF8002800F0AD
:10136800FB8045F400052560934E236837683A07EB
:10137800924A54BF43F4807323F480732360128825
:101388002368632A8CBF43F4806323F480630820B6
:1013980023602DF01BFD8046002840F0E2801320DA
:1013A8002DF014FD002840F0DC8009202DF00EFD02
:1013B800002840F0D680FB0640F1D18003202DF0B4
:1013C80005FD002840F0CD8023202DF0FFFC0546C8
:1013D8001EF094FE90B1B8F1000F40F0C4801320C5
:1013E8002DF0F4FC002840F0BE8003202DF0EEFC28
:1013F800002840F0B88023202DF0E8FC704B5A7884
:101408009946002A00F0B4806E4B6F4A93F800802A
:10141800B8F1000F03D16D4BDB79022B07D1137A9A
:10142800002B00F0A28087F0010707F0010823686D
:101438005F0704D41DB1002808BF4FF0010892F9D6
:10144800F937002B14DDD2F85C320393D2F86032FE
:1014580004936946D2F864320593012203A82FF059
:1014680079FF68461FF028FBB9F80E30984202D879
:10147800B8F1000F7CD0236843F400632360544B19
:101488001A682368150777D53168C80574D443F4FA
:10149800805323609107236871D5326892056ED412
:1014A80043F40053236014F049FC2368002869D1F1
:1014B80043F400432360474B187868B925682DF03A
:1014C80085FC25F0784323F07F03002B5DD00028AE
:1014D8005DD045F48045256012202DF077FC236807
:1014E800002857D043F48033172023602DF06EFC7A
:1014F8002368002851D043F400331B2023602DF0CB
:1015080065FC236800284BD043F080732360236870
:10151800314A23F0784323F07F0303B10223137089
:10152800FFF796FE2D4B1B68C01A0028FFF6EBAE9E
:101538002AF0A8FDE7E693F8D02025F40075256089
:10154800002A7FF4EEAE012083F8D0002BF036FDA0
:10155800E7E625F40025FAE625F4000503E7454605
:1015680036E7012534E7012048E74FF001085EE738
:10157800236823F4006381E723F4805389E723F485
:1015880000538FE723F4004394E70028A4D125F4FF
:101598008045A0E723F48033A6E723F40033ACE7C3
:1015A80023F08073B2E700BFC42200208816002011
:1015B800C82200208E700020002300207000001038
:1015C80038A0002074780020FC970020506200208A
:1015D80054360020341500206473002068730020FE
:1015E800F8B504460D46FFF733FE06460F46FFF7EB
:1015F8002FFE821B61EB0703AB4208BFA242F6D362
:10160800F8BD10B5044614F1FF3400D210BD4FF4F4
:101618007A700021FFF7E4FFF5E7EFF3118310225A
:1016280082F3128808490A6801320A60074A0849A1
:101638009068C1F8CC000020C1F8C8001268DBB27D
:1016480083F31188704700BFB888002010E000E0DD
:101658008816002003689B6A03B11847704703681F
:101668005B6A03B11847704703689B6918470368AA
:101678005B69184703681B6918470368DB681847E4
:1016880003689B68184703685B68184703681B680A
:10169800184708B5184B194C1D68A0682AF02CFF8C
:1016A80028462AF029FFA06841798B0703D441F026
:1016B8000201FFF7D9FF00202FF08AF9A068FFF791
:1016C800E2FF60B101202FF083F9A068FFF7D5FF92
:1016D80001462846FFF7DAFF00202FF079F928465F
:1016E800FFF7D1FF0028E9D02846FFF7C6FF0146DB
:1016F800A068FFF7CBFFE1E7844D0020D85B00200E
:101708000368DB6970B506460C4615467BB90D447F
:101718002B1B002B00DC70BD3046FFF7B1FF002803
:10172800FAD014F8011B3046FFF7B0FFF0E7BDE828
:1017380070401847E4E7014B1868A7E7CC4D002034
:1017480038B505460C4614F8011B01B938BD2846C2
:10175800FFF79CFFF7E71FB5ADF80A30BDF8183062
:10176800ADF8040041F48041ADF80C306846BDF88E
:101778001C30ADF80610ADF80820ADF80E30FEF7B5
:1017880005FF05B05DF804FB1FB5ADF80400684619
:10179800ADF80610FEF7FAFE05B05DF804FB10B5CB
:1017A8000409013C032C00F00F0216D80C4B33F847
:1017B800141041FA02F313F001000DD001209040FB
:1017C8000138084033F026FC064B1C440C22A37C4D
:1017D8001844054B02FB003010BD0020FCE700BF99
:1017E800E4B30308D47D0308C090002010B1036857
:1017F80082885A83704710B1036882881A837047B9
:1018080028B10368828809B11A8370475A837047E0
:10181800044B01461868044B1B780BB981F0010191
:10182800EEE700BFAC540020B054002080B58046DD
:101838000B25013D02D172B60BF008FB00202FF0FA
:10184800C7F808F10106322705242FF0B3F8012064
:10185800FFF7DEFF3846FFF7D4FE2FF0ABF8002085
:10186800FFF7D6FF3846FFF7CCFE74B1013CECD148
:101878004FF4FA70FFF7C5FEFA2726B94FF47A70CD
:10188800FFF7BFFED5E70024DFE7013EF5E7F8B52F
:101898000468C4F30D0405460E4604B32F68FFF729
:1018A80013FB092840F08780444C236923F44073D4
:1018B8002361236943F400732361236943F001031F
:1018C80023613E60FFF700FB2369092823F0010329
:1018D800236170D12B6804332B60002034E0384B2F
:1018E800384A93422AD902F58042934225D902F513
:1018F8008042934229D902F58042934227D902F5C2
:101908008032934225D902F50032934223D902F559
:101918000032934221D902F5003293421FD902F5D1
:10192800003293421DD902F5802293421BD9B3F1AC
:10193800016F1AD30520FFF779FF0824FFF7C4FACF
:10194800092814D04FF0FF30F8BD1024F6E718240A
:10195800F4E72024F2E72824F0E73024EEE73824DF
:10196800ECE74024EAE74824E8E75824E6E7134F81
:101978003B6923F440733B613B6943F400733B616B
:101988003B6923F0F8033B613B6943F002031C43C6
:101998003C613B6943F480333B61FFF795FA3B694F
:1019A80023F002033B613B69092823F0F8033B61FC
:1019B8003FF474AFC6E76FF00100C5E7003C024092
:1019C80000000E08FF3F0008F8B504460D468E18C3
:1019D8000027B542206900D1F8BDE368591CE160D1
:1019E800234415F8012B1A720429F2D118B9A168F9
:1019F8002046FFF74CFFC4E90370EAE730B10368FB
:101A080082881B691A4214BF01200020704728B140
:101A18008088B0FA80F0C0F11F0070474FF0FF30A7
:101A2800704730B1006800F13F4000F57E00800A41
:101A380070474FF0FF307047FFF7DEBAFFF7DCBAA8
:101A4800FFF7DABAFFF7D8BAFFF7D6BAFFF7D4BA72
:101A580038B504468B6821600D46984701232373E7
:101A6800FF220023A3736273E3732B6B13B1204629
:101A78009847E073044B93F8D1301BB1E37B23F014
:101A88000103E37338BD00BF8816002003689B6A12
:101A9800184703685B6A184737B54D1C8572046898
:101AA800C27200250095A469A04703B030BD2DE996
:101AB800F04105468AB018460F4690461C4632F05B
:101AC8004FFC3B189DF84060AB72EB7B85F80B80B0
:101AD80036EA030319D0F20717D5114BC8221B6841
:101AE800B3FBF2F3DB0706F0FE060ED51F2828BF6E
:101AF8001F2004460246202102A836F0E7F80AAB68
:101B08001C44002304F8203C02AC2B6800965E6954
:101B18004246234639462846B0470AB0BDE8F08118
:101B2800B88800202DE9F3410446184616460D46AC
:101B38001F4632F015FC2368E67228440022A07282
:101B48000092D3F8148032463B4629462046C047C7
:101B580002B0BDE8F081036810B504465B68984799
:101B6800236820469B689847A37B013BA37310BD5D
:101B7800036810B504461B689847236820469B688D
:101B88009847A37B0133A37310BD03681B691847EB
:101B980010B5036804469B68984701232373FF2305
:101BA800637310BD144B984230B521D0A3F5784328
:101BB80098421FD003F58063984218D10222038807
:101BC8000E4C23F040031B041B0C1425038005FB5B
:101BD80002420388126923F0380332F811201B04EB
:101BE8001B0C13430380038843F04003038030BD7C
:101BF8000022E4E70122E2E700300140501500200E
:101C0800F8B584894FF6FF764FF47A740BB9012042
:101C18001CE082B1157801320789BF070DD5ADB236
:101C280085814FF47A740589ED0710D4013CA4B27C
:101C3800B442F8D105E0FF25EEE7013CA4B2B44276
:101C4800EAD1FEF7EBFC003018BF0120F8BD85890A
:101C5800ADB209B10D700131013BD7E708B540F2CB
:101C6800E933028992070BD589B2818140F2E933C1
:101C78000289D2070CD4013B9BB2002BF8D103E0B8
:101C8800013B9BB2002BECD1FEF7C8FCC0B208BDEB
:101C98008089FBE770B5164690F90C20142353434E
:101CA800094AD55804460069FFF7A0FD2846FFF702
:101CB800D5FF0123002231462846FFF7A1FF2069FE
:101CC800FFF799FD012070BD50150020F8B51646A4
:101CD80090F90C20142353430D4A0446D558006943
:101CE8000F46FFF783FD01200021FFF779FC3946F5
:101CF8002846FFF7B3FF31462846FFF7AFFF2069B4
:101D0800FFF779FD01200021FFF76AFC0120F8BDEB
:101D180050150020F8B50679012E054609D0022E87
:101D28001FD18368DB0758BF41F08001BDE8F84048
:101D3800B0E70D4B90F90C00182404FB00346378CD
:101D48006BB16B7BA1725B002372002363722375F6
:101D58000223A370C4E903620BF036FB237D184607
:101D6800F8BD0023FBE700BFE03400202DE9F04177
:101D780098460379012B0546174623D0022B39D103
:101D880095F90C200069142353431B4AD458AA68B8
:101D980012F0010611D0FFF729FD2046FFF75EFF7C
:101DA8000022434639462046FFF72AFF2869FFF7F5
:101DB80022FD01221046BDE8F081FFF717FD41F032
:101DC8008001EAE790F90C000C4B182404FB00345E
:101DD8006278002AEED06B7BA1725B00237200232D
:101DE800637223750223C4E90387A3700BF0ECFA2E
:101DF800227DDFE70022DDE750150020E0340020D7
:101E080073B50379012B0D4616460AD0022B25D14E
:101E18008368DB0758BF01F07F01FFF757FF02B067
:101E280070BD90F90C10427B0D488DF8076018249E
:101E380004FB010460780028F1D06372E3600DF1BF
:101E480007032361002352002375022308462272E8
:101E5800A572A3700BF0B8FA207DE0E70020DEE75A
:101E6800E0340020094B70B5841CD3F8D450A4008A
:101E7800E4B20E46CAB228462146FFF7C1FF611CEC
:101E8800320A2846C9B2BDE87040B9E78816002072
:101E98002DE9F0410E4E8046002406F1C007E0B25D
:101EA80000F0030343450ED136F8145037F81430C8
:101EB800EB1A002BB8BF5B42052B04DD2946FFF760
:101EC800D1FF27F814500134102CE8D1BDE8F08177
:101ED800A016002038B50F4BD3F8D450102200219B
:101EE80041F2D774B4FBF0F42846FFF789FF0120CC
:101EF800FFF787FB621ED2B2FE212846FFF780FF5C
:101F08000120FFF77EFB284680220021BDE83840EB
:101F180076E700BF881600202DE9F041984603793E
:101F2800012B0546174622D0022B39D195F90C20F2
:101F3800AE680069142353431A4A16F00106D458B0
:101F480010D0FFF753FC2046FFF788FE43463A4679
:101F580000212046FFF754FE2869FFF74CFC0120BA
:101F6800BDE8F081FFF742FC41F08001EBE790F912
:101F78000C600D4A182404FB062460780028EFD072
:101F88006A7B637200235200237502233046227253
:101F9800A172C4E90387A3700BF016FA207DDFE76E
:101FA8000020DDE750150020E03400200379022BE3
:101FB80082B019D18DF80230002203238DF8002059
:101FC8008DF80330012204238DF801208DF80430A8
:101FD80090F90C2002AB194414235343034A11F817
:101FE800081CD05802B0DDE502B07047501500203B
:101FF80010B5427A044632B1036800F10A0140681C
:1020080098470023637210BD064B1B68597A4A1C17
:102018001944D2B25A728872197A914201D8184674
:10202800E6E77047804D002010B4447A631C0444EE
:10203800DBB24372A172027A9A4202D85DF8044B6D
:10204800D6E75DF8044B704738B5094D441E14F8BF
:10205800011F01B938BD2868427A531C0244DBB21B
:1020680043729172027A9A42F1D8FFF7C1FFEEE704
:10207800804D002008B504460648FFF7E5FF064BEB
:102088001868FFF7B5FF054B18682AF035FA20469F
:102098001BF09CFA68DA0308804D0020844D00206C
:1020A800034808B5FFF7D0FF0120FFF7E3FF00BFA3
:1020B80074DA030808B50448FFF7C6FF034B18682D
:1020C800BDE8084094E700BF8DDA0308804D002082
:1020D8000048B9E7F5E1030808B5FFF7B5FFBDE823
:1020E8000840F5E708B50948FFF7F6FF084B1868F8
:1020F800FFF77EFF074B00241C70074B1C60074B43
:102108001C702BF081F92046FFF7B4FF92DA030820
:10211800804D00208C4D0020884D002090A9002083
:102128000048D9E7BCDA030810B504460348FFF7AE
:102138008BFF2046BDE81040CEE700BF8DDA0308CC
:10214800124B53F8200070B5E0B1114A062303FB87
:10215800002393F90140621C15D0187990B10D4AFB
:102168000D4E155DDA7864211423002061438C1824
:10217800013B36F814402A442044F8D11423B0FB1C
:10218800F3F080B270BD0020FCE700BF38460020A5
:10219800B5540020F0570020D454002038B503204F
:1021A8000D461446FFF7CCFF07EE100A8DB1DFEDA0
:1021B8000B7AB8EE477AF0EE006A27EE277AF8EE47
:1021C800047AE7EE267A9FED067A67EE877AC5ED00
:1021D800007A0CB1034B236038BD00BF6740533A07
:1021E80000007A443313904370B544880B46054683
:1021F800C4F30B0422460021184635F067FD29690F
:10220800084A9142034607D3074A914204D222461C
:10221800BDE8704033F0F4B919B11846BDE8704014
:10222800084770BDA41F04081822040843884268A0
:1022380013F4004F1EBFC9B2C3F30B0301FB032203
:102248001146D1E738B5124C124DAC420DD30020DF
:10225800FEF706FA104814F053FF104B1879FEF7F2
:102268008BFFBDE8384020F0ABBCB4F90230002B3E
:102278004FF00001204607DAFFF7D8FF012120467A
:10228800FFF7D4FF02212046FFF7D0FF1434DCE724
:10229800F81B0408A41F0408C8DA0308786600209D
:1022A800064B07498B4202D30023184670471A8809
:1022B800C2F30B029042F8D01433F3E7F81B04087A
:1022C800A41F0408024A136823EA0000106070473C
:1022D800783E002070B501221049114C114E0020A3
:1022E800FEF7A8FE22884AB1A518B54214D2052ADD
:1022F80012D92146FEF79EFE2C46F3E7022221461C
:10230800FEF798FE6388084AC31AA41A074A584277
:10231800A2F8F840584170BD0020FCE700000E0804
:1023280001000E0800001008FCFF0D0888160020A8
:102338002DE9F04F8DB014F01DFFDFF8B481674B25
:10234800A3EB08034FF0030901931022002108A80A
:1023580035F0BCFC019B0793614BCDF818801A69D6
:10236800002ABFBF5F4A5A6002F188325A600CAC3B
:102378000125F3228DF82C50DA607E2304F8243DE1
:102388002A46214606A8FFF71FFB21462A460020B9
:10239800FEF750FE544CADF80E004FF0000B534BB7
:1023A8009C4241D3022204A9002406A8ADF810409B
:1023B800FFF70AFBBDF80E00022204A9FEF73AFE59
:1023C8000CA9022221F8220D06A8FFF7FDFA0998A8
:1023D80078B108ABC0F104022146184435F076FC08
:1023E8000A9818B9089906A8FFF751FA00230A9025
:1023F80009939DF82C300A9A23B139490B6943F0A7
:1024080000430B61B9F1010963D0002A9DD198F806
:1024180000307E2B5FD1FFF75DFF00285BD014F002
:102428008DFE0DB0BDE8F08F62888DF815B0C2F34F
:102438000B06B31DADF810302388C3F30B011B0B3B
:102448008DF814301304ADF812101BD4062204A919
:1024580006A8FFF7B9FABDF80E00062204A9FEF790
:10246800E9FD3246ADF80E00616806A8FFF7ACFA40
:10247800BDF80E0061683246FEF7DCFDADF80E00CF
:1024880014348CE700273D460135EDB2062204A935
:1024980006A88DF81550FFF797FABDF80E0006222A
:1024A80004A9FEF7C7FD6368ADF80E0003EB070A41
:1024B8003246514606A8FFF787FABDF80E003246A5
:1024C8005146FEF7B7FD032DADF80E003744DBD1BA
:1024D800D6E7002A9BD00520FFF7A8F900001008CE
:1024E800003C024023016745F81B0408A41F0408A8
:1024F80000000E082D4A1368590770B555D52C4DA4
:102508002C4923F0040313602B6808701A0315D5AF
:10251800294C22780B2A0BD80123934040F603015B
:1025280019400BD113F4C06F02D0FF2012F02CFE1B
:10253800224B1A68224B5A600B232370214C237BB1
:1025480073B31E4B204E1B68D6F8FC209B1A4FF421
:102558007A72B3FBF2F3092B22D922681344236061
:102568001DF0EEFED6F80031C01A6423B0FBF3F07C
:10257800636818442B6860609B070FD513F038FD1B
:1025880060B1124BD6F804211B689B1AA2681A4442
:10259800A260D6F808211344C6F80831FFF7C8FE30
:1025A8000520BDE870402AF009BD70BDC422002096
:1025B800FC220020F5410020F4410020B8880020CA
:1025C8002C3F00209857002088160020A8380020AB
:1025D800044808B5FFF738FDFFF7AAFE0020FFF70B
:1025E80049FD00BFD1DA030830B50244904201D159
:1025F800002311E010F8013BA3F14104192C11F854
:10260800014BA4F1410598BF2033192D98BF203400
:102618001B1B01D1002CE9D1184630BD70B5054609
:1026280008460E4631F09CFE3146044602462846CE
:10263800FFF7DAFF60B92B5DA3F13002092A06D94A
:1026480023F02003413B192B01D9601C284470BD9D
:102658000020FCE710B504460748FFF7F5FCFFF734
:10266800F1FDFFF765FE05492046FFF7D7FF08B9DA
:10267800FFF700FD10BD00BFD8DA03088DE003089E
:1026880070B5034610F8012B202AFAD0092AF8D091
:102698002D2A0ABF034601254FF0FF35591E002495
:1026A8000A2611F8010FFEF77DF80A2802D905FB62
:1026B80004F070BD06FB0404F3E72DE9F3472F4946
:1026C800DFF8B8A001AA33F02FF900254FF0FF3842
:1026D8002F46A9462C46464630B9052D10D8DFE8C6
:1026E80005F03232320F3941042D09D8DFE805F000
:1026F800030D12171C00FFF7C3FF0646032819D95C
:10270800FFF70EFD02B0BDE8F087FFF7B9FF80467E
:102718005428F4E7FFF7B4FF04461F28EFE7FFF754
:10272800AFFF81461F28EAE70378482B09D0562BCC
:10273800E6D1012701AA51460020013533F0F4F80B
:10274800CAE70027F6E7434632460D4901202EF036
:1027580057FDD7E7552303FB0683094A32F8137060
:10276800C7F3C027552344EA491403FB068624B25D
:10277800034B44EAC72423F81640C3E77D05040841
:102788003C95002070B50D461446FEF7F3FB06464F
:10279800A0B1FFF775FF40F634039842A8BF18466A
:1027A800B0F5617FB8BF4FF461701923A0F561706F
:1027B80090FBF3F028702378013323703046FEF73E
:1027C800D9FB0646A0B1FFF75BFF40F634039842F9
:1027D800A8BF1846B0F5617FB8BF4FF461701923E0
:1027E800A0F5617090FBF3F06870237801332370D3
:1027F800304670BDB5EEC00ADFED2D7AF1EE10FA65
:10280800CCBF30EE270A30EE670ADFED2A7A20EED9
:10281800270A30B5FDEEC07A87B017EE904A054614
:1028280084EAE470002303A9A0EBE470CDE9003347
:1028380002932EF09DF8002CACBF20232D2303A873
:102848008DF8003031F08CFD012822D130238DF82D
:1028580001308DF802308DF8033003A9684635F051
:102868003DFA684631F07CFD0338C4B22246694619
:10287800284635F069FA00232B550F49284635F0CC
:102888002DFA0DEB0401284635F028FA284607B042
:1028980030BD022805D130238DF801308DF8023083
:1028A800DBE7032804BF30238DF80130D5E700BFEC
:1028B8006F12033A00007A4472EA030870B50646BC
:1028C80015460846B6FBF2F414B12046FFF7F6FFAA
:1028D80005FB1464024B1B5D00F8013B70BD00BF93
:1028E800EEDA0308F0B50124B0FBF4F58D4203D20B
:1028F80000271CB91C70F0BD4C43F5E7B0FBF4F69B
:1029080004FB1600B4FBF1F42FB9002E03DC002CF5
:10291800EFD1302505E0092EFBDD002A14BF37254D
:10292800572535441D7001370133E2E70A4B2DE97D
:102938000048D3E900BC5BEA0C030AD007490968E0
:102948001BEB01024CF10003C0E900230120BDE8A4
:1029580000880020FBE700BFE8620020B88800205C
:10296800F0B5264E04460F460FCE8DB06D460FC506
:102978000FCE0FC596E80F0085E80F0014F003038B
:1029880035D1642194FBF1F201FB124242B94FF4B4
:10299800C87294FBF2F302FB1343003318BF012300
:1029A800C3F11D0340F26D1201930420631E93FBD3
:1029B800F0F002FB04046FF0630093FBF0F0204496
:1029C8004FF4C87493FBF4F318440630002207212F
:1029D800013F5DF822309742184490FBF1F4C4EBB4
:1029E800C404A0EB040004D1181A0DB0F0BD0123F3
:1029F800D6E701320C2AECD10020F6E7EC7D03087B
:102A0800F8B514461D4606464FF47A720023204650
:102A1800294632F097FA2C4B3C22034493FBF2F000
:102A280002FB1031B17190FBF2F102FB1102182088
:102A380072714FF4616293FBF2F292FBF0F100FBCA
:102A4800112232712149224A93FBF2F293FBF1F3EE
:102A5800980040F2B55392FBF3F103FB1123B3F551
:102A6800896F2DDA40F2DA2293422BDCB3F5B77F77
:102A7800B4BF002201221749182707FB02170B21B0
:102A880037F811C09C4501DD0139F9D100F5FA602C
:102A980010443080481CB0700C2000FB02120E4914
:102AA80001EB4202013392F848209B1AF3704FF46D
:102AB8007A7200232046294632F044FA3281F8BD62
:102AC8000322D8E70222D6E780BC92C7801F860778
:102AD800805101001C7E0308D47D030837B50546E4
:102AE8006846FFF723FF044638B1DDE9002328468E
:102AF800FFF786FF204603B030BD40F2011328805F
:102B08006B80A880A8712881F4E737B50546FFF7E0
:102B1800E5FF044640B1064B02AA1B8822F8023D95
:102B2800294628462EF0CFFA204603B030BD00BF14
:102B38003895002010B50288C178A2F5FA6293088A
:102B4800013940F2B55404FB031381780C24013990
:102B580002F0030204FB02120C49847901EB4202E1
:102B68001821B2F848201344027901FB0323427963
:102B780000893C2101FB0323054A224401FB03236E
:102B88004FF47A720021C2FB030110BDD47D030803
:102B980080436D38D1E900329A4206D05A1C0A6047
:102BA80008B11B780370012070470020704710B5EA
:102BB80002681146531C036011F8024B0160D31CD4
:102BC8005178036093781B0443EA0123111D0160C7
:102BD800D078234343EA006010BD03685A1C0260A2
:102BE8001A4612F8021B0260587841EA0020704722
:102BF800D1E900239B1A012B10B5044605DD0846D0
:102C0800FFF7EBFF2080012010BD0020FCE70368E0
:102C18005A1C02601878704738B50446D0E900039A
:102C28001B1A9A42154606DC32F0EAFC22682A444E
:102C38002260012038BD0020FCE738B50446006852
:102C4800154632F0DDFC22682A44226038BD03684C
:102C58005A1C0260197003685A1C02600A0A1A702A
:102C680003685A1C02600A0C1A700368090E5A1C81
:102C780002601970704703685A1C02601970036873
:102C8800090A5A1C0260197070472DE9F04F89B083
:102C980082468B4615461C4600270DF114082978F4
:102CA8006E1C51B3252903D05046D847013742E05E
:102CB80069782D2905BFA978EE1CAE1C012518BF1F
:102CC8000025302906BF3178012300230293A1F1A2
:102CD800300308BF0136092B4FF0000916D96C29BB
:102CE80040F0A0803278642A06F1010544D024D847
:102CF800252A7BD014D8002AD1D1384609B0BDE89E
:102D0800F08F0A2316F8011B03FB09090846FDF793
:102D180049FD0A28F5D9002DE1D0C9F10009DEE7FF
:102D2800582A1AD0632ABAD12E4621785046D84755
:102D3800251D01372C463546B1E7732A4AD008D8F5
:102D4800662A56D06E2AAAD12E46236804341F60FC
:102D5800F1E7752A0AD0782AA1D1A2F15800424297
:102D680004F1040643464241102103E0261D434670
:102D780000220A21206807E02068002804F10406E0
:102D88001ADB434600220A21FFF7ACFD3446CDF892
:102D98000080029B4A4659465046FDF722FD0744EB
:102DA8007DE7206800280EDB434600220A21043410
:102DB800FFF798FD3546EAE72D238DF81430404299
:102DC8000DF11503DEE72D238DF8143040420DF187
:102DD8001503EAE72E46236800934A46002359461E
:102DE8005046FDF7FEFC251D0744A3E72E46252186
:102DF8005AE72E46073424F00703D3E9000103F10C
:102E0800080431F041FF00EE100A4046FFF7F2FCDB
:102E1800CDF80080029B4A4659465046FDF7E1FC32
:102E2800074488E76429BCD00CD82529DFD003D80B
:102E380000293FF462AF7EE7582911D063293FF497
:102E480074AF78E77329C6D005D86629D2D06E2921
:102E58003FF47BAF6FE775290DD078297FF46BAF0E
:102E680058394A424A412068251D43461021FFF738
:102E780039FD2C469EE7231D039320684346002214
:102E88000A21FFF72FFD3546039C80E70FB413B5E1
:102E9800084C0949206804AB53F8042B0193FFF749
:102EA800F4FE2068FFF7A4F802B0BDE8104004B0B3
:102EB800704700BF804D002031200008F8B50C4C49
:102EC8000C4E0D4F04F510752068FFF7BDF86168CA
:102ED80011B13046FFF7DAFFA16811B13846FFF7A4
:102EE800D5FF1034FFF7F4F8AC42EDD1F8BD00BFC0
:102EF800A4B1030813DB030819DB030830B529481C
:102F080085B0FFF7A1F830F037FE28B9264805B09C
:102F1800BDE83040FFF7E0B8244C94F82430032B88
:102F280001D82348F3E794F83200E26B94F83A307A
:102F380094F82810029094F831000190208F0090A6
:102F480052081C48FFF7A2FF04F12C05313415F88C
:102F5800010BFFF759F8A542F9D1174C1748FFF7AD
:102F680073F86278032A13D8DFE802F0080806022B
:102F78001348FFF769F80BE01248FAE71248FFF721
:102F880063F841F2B413E35C022B06D0032B06D09E
:102F980005B0BDE83040FFF79BB80C48E9E70C489E
:102FA800E7E700BF1FDB030829DB03084080002098
:102FB80037DB030846DB030864B0002074DB030832
:102FC80084DB03088ADB030897DB03089DDB03081F
:102FD800B6DB030810B5074C0B46024606492068C5
:102FE800FFF753FE2068FFF703F8BDE81040FFF72E
:102FF8006FB800BF804D0020312000080FB407B51E
:1030080004A951F8040B0191FFF7E4FF03B05DF840
:1030180004EB04B070472DE9F3471948194C1A4DD1
:103028001A4FDFF86C80FFF7E9FF04F54076A379C3
:10303800E27994F808A005EB820205EB83032046A9
:10304800D2F82C91D3F8A830FEF7EBFC00F141013F
:103058002046FEF7DCFC0246BAF1000F0AD0CDE9A3
:1030680000A94046FFF7CAFF0C34A642DFD102B0E0
:10307800BDE8F087CDF800903846FFF7BFFFF3E7CB
:10308800C8DB0308C0900020D47D0308F4DB0308E4
:10309800E4DB0308F8B51048104D114E114FFFF747
:1030A800ADFF002474B9104BD3F80C316FF0030254
:1030B8005A4312F580620BD055F824103046FFF7BA
:1030C8009DFF03E057F82420002AF5D1202C01D0D9
:1030D8000134E7E7F8BD00BF02DC03087C7E030883
:1030E80018DC030898170020881600201FB5074B26
:1030F8000293074B0193074B0093074A074B084974
:103108000848FFF77BFF05B05DF804FB56DC0308B1
:103118005EDC030867DC03082CDC030826DC0308F4
:1031280039DC03083EDC03082DE9F04F5348544DC1
:103138008DB0FFF763FF0026B046B146514B1A68C1
:103148000023934223DB0136192E05F14805F5D1FA
:103158004D49D1E9020240090C68096940EAC26296
:103168004FF47A734948B4FBF3F3FFF747FF0A2299
:1031780098FBF2F302FB138099FBF2F1009002FB3B
:1031880011924348FFF73AFF0DB0BDE8F08F41496F
:1031980051F823108D4201D00133D2E7AC6A5CB1FB
:1031A80007EE904ADFED3C6AF8EEE77A86EEA77AFA
:1031B800FDEEC77A17EE904AD5E90C727F0947EA07
:1031C800C2675209D5E90EA30B922146E217CDE951
:1031D8000812099A63430AFB0233A4FB0A0141F26D
:1031E800883B1BEB000B19444FF0000C4CEB010C17
:1031F8004FF47A7200235846614631F0F3FE0B9B78
:10320800099A0A90634307FB0233A4FB070141F2C2
:10321800883B1BEB000B19444FF0000C4CEB010CE6
:1032280000234FF47A725846614631F0DBFE062ED1
:1032380018BF0A9B0A9918BF99444FF47A722B6CED
:10324800B3FBF2F306934FF00A0318BF804490FBD8
:10325800F3F203FB1200CDE904200A9A92FBF3F281
:1032680003FB1213CDE90223CDE900A723462A6800
:103278000A483146FFF7C2FE65E700BF73DC030862
:10328800200A00208801001000000010EFDC03086D
:1032980011DD03088C01001000247449BADC03080E
:1032A80038B50346FCF7DCFF80B3214B9B6C013338
:1032B800172B21D81F490C2202FB03121C469568C4
:1032C8004DB91C4A0C210134172C17DD002401FBD1
:1032D800042085689DB1164B9C6429F047FB2A465B
:1032E80021461548FFF78AFE0C235C43114B185DF5
:1032F800BDE8384029F062BE1C46E2E7E7D99C42A7
:10330800E1D10E48BDE83840FEF7E6BE1846FFF7A3
:10331800B7F91728044606D8064A0C2303FB0023EE
:103328009D68002DD7D121460548BDE8384065E69F
:1033380000000020B4CC030869DD03083FDD030862
:1033480053DD0308F7B50346FCF78AFF044618B1B6
:10335800FEF7E6FE03B0F0BD01AA1D491C4F184652
:1033680032F0E2FA2646254640B9052D18D9194902
:10337800052302461848FFF741FEEBE744B1012C4C
:103388000AD001AA39460020013432F0CDFAEBE721
:10339800FFF776F90546F4E7FFF772F90646F0E716
:1033A800022C0DD1A6F57A73B3F57A7F05D94FF4BF
:1033B800FA634FF47A720949DCE7094B23F8156080
:1033C800074B084833F915202946FFF717FEC1E7D0
:1033D8007D0504087EDD030884DD030803FE030879
:1033E8009A770020A1DD03082DE9F341044630F067
:1033F800B7FF04283DD1631E2546E11C13F8012FB1
:10340800A2F16100192898BF203A8B421A70F5D1B1
:10341800DFF87080271D15F8016B4046314634F0FF
:103428006CFC20B13146284634F067FC20B1FEF729
:1034380077FE02B0BDE8F081BD42ECD1204613F022
:103448005FFE0E480E4CFEF7FFFD0E4800231A19CA
:1034580002A952780A44195C02F8081C0133042BAB
:10346800F5D10023694608488DF80430FFF7C6FDFA
:10347800DFE70028E5D0FEF753FEE2E7AEDD0308FC
:10348800189400205A8B03081CDB03082DE9F74F1A
:10349800804630F065FF474DDFF844912F680446B9
:1034A800F0B94548454EFFF7F1FC012519F80430FD
:1034B800013B05FA03F33B4209EB040203D0916890
:1034C8003046FFF7E3FC0C34B4F5847FEED117B92E
:1034D8003B48FEF7B9FD03B0BDE8F04FFEF7F8BD75
:1034E800024638494046FFF77FF8064670B9364825
:1034F800324DFEF7A9FD09EB0603284699680C36FC
:10350800FFF7C4FCB6F5907FF5D1E4E798F80030F2
:103518002D2B03BF08F1010804F1FF344FF0010A15
:103528004FF0000A00260C2303FB069B0193DBF8EF
:1035380008300093194622464046FFF755F8019B8C
:1035480000282ED1BAF1000F18D0162E0AD11F4B21
:103558002B601F48FEF778FD00991E4803B0BDE8B0
:10356800F04F4BE5172E01D16B68F1E79BF800305F
:103578005A1E012393401F432F60EAE7162E03D1FA
:10358800C5F800A01448E5E7172E17BF9BF80030D0
:103598006F6003F1FF3201231EBF93409F432F60EA
:1035A800F0E70136182EBFD10C4803B0BDE8F04F44
:1035B800FEF792BD38760020B4DD0308C5DD0308A8
:1035C800BEDD0308CADD0308CFDD0308FFFF3F00A7
:1035D800E7DD0308C6DD0308F0DD0308DADD0308CC
:1035E800B4CC03082DE9F84F054630F0B9FE334F47
:1035F8000446D7F80090C0B93148324D324FFEF733
:1036080023FD012655F8241059B10B783BB106FA71
:1036180004F313EA090F02D03846FFF737FC0134E8
:10362800F0E7BDE8F84FFEF753BD024627492846A4
:10363800FEF7DAFF78B92648264C234DFEF704FD3D
:1036480054F8041F0029ECD00B78002BF8D028463A
:10365800FFF71CFCF4E72B78DFF868B02D2B03BFCD
:10366800013504F1FF344FF0010A4FF0000A00263B
:103678005BF82680B8F1000F04D11748BDE8F84F71
:10368800FEF72ABD224641462846FEF7ADFF98B907
:103698000120B040BAF1000F09D0FEF713FE0F4821
:1036A800FEF7D2FC41460E48BDE8F84FA6E440EAD2
:1036B800090038600B48F3E70136D9E7783E002067
:1036C800F8DD0308507F030802DE0308CADD03089B
:1036D80006DE03084C7F0308DADD0308E7DD03088C
:1036E800C6DD0308F0DD03082DE9F347204E214825
:1036F8003768214CDFF89080DFF88490DFF88CA0E1
:10370800FEF7EAFC0025BD4202DB02B0BDE8F08707
:1037180033689D4229DCA288D3B2162B18D808EB4F
:103728008303D3F80032002B08BF4B46216850466C
:10373800FFF7ACFBE3885A040CD5E0890090A38915
:10374800628921890D48FFF759FC01351034DAE701
:103758000B4BEBE71B0405D5D4E902120948FFF728
:103768004DFCF2E7FEF7B4FCEFE700239B88FFDE91
:10377800C052002012DE0308C04E00204DDE0308B0
:10378800D8FB03085FDE0308D47D03083EDE030888
:10379800F8B5447914F0C003054602D0402B15D083
:1037A800F8BD2BF0C7F804F00F04062C064604D128
:1037B8000146BDE8F840154820E428462BF0D2F829
:1037C80032460146BDE8F840114817E483791148AC
:1037D800114E124F262B96BF114D002505EBC30540
:1037E800FEF732FC00242B799C4203D3BDE8F84055
:1037F800FEF76EBC14B13046FEF726FC2B6838463F
:1038080053F82410FFF742FB0134ECE769DE0308A4
:1038180079DE030890DE0308A0DE0308C6DD03088E
:1038280004CE030870B54379164603F00F028AB038
:103838000546062A4CD8DFE802F0041316181B1DAB
:1038480049000C7813F0C00344D0402B3CD12146EA
:1038580028462BF057F8002856D0FFF717FB33E01F
:1038680091F90040EEE70C88ECE7B1F90040E9E790
:103878000C68E7E791ED000A01A8FEF7BBFF0146D7
:103888002648FFF703FBFEB16B7913F0C00F1BD17D
:1038980028462BF067F807EE900A01A8B8EEE70A69
:1038A800FEF7A8FF01461E48FFF7F0FA28462BF05E
:1038B80041F807EE900A01A8B8EE670AFEF79AFFEA
:1038C80001461748FFF7E2FA0AB070BD1348F9E756
:1038D8000024B7E7042A0CBF124813482146FFF713
:1038E800D5FA002EF0D06B7913F0C00FECD1284632
:1038F8002BF038F8044628462BF01CF821460246DF
:103908000A48FFF7C3FADFE701A928462BF028F990
:1039180001AA21460648FFF771FBD5E71CDB03081F
:10392800C6DD03088DDE0308B7020408A2DE03081B
:10393800A9DE030838B50D4604462BF06FF82A4671
:1039480001462046BDE838406CE72DE9F0470024E1
:10395800DFF86090DFF860A08AB0074625464FF090
:103968000A0808FB049601A930462BF0F9F83946F5
:1039780001A834F010FA78B101A95046FFF786FA89
:1039880000213046FFF7D6FFFEF7A2FB3046FFF7CF
:10399800FFFEFEF79DFB0135013440F25F139C42A8
:1039A800DFD115B90248FEF797FB0AB0BDE8F087EA
:1039B800DADD0308D8BB030805DF03082DE9F04F5B
:1039C8002DED028B8BB0804630F0CAFC054628B13D
:1039D800012826D198F800302A2B22D18948DFF80F
:1039E8004482894FFEF778FB00244FF00A0909FB4F
:1039F800048601A930462BF0B3F801A93846FFF731
:103A080045FA29463046FFF795FF0134FEF760FB7B
:103A180040F25F139C42EAD10BB0BDEC028BBDE8CB
:103A2800F08F3D21404634F068F9002800F0E58029
:103A3800034613F8012C202A03F1FF312ED0A3EB03
:103A48000807441C2378202B04F1010228D0DFF852
:103A5800D4B100264FF00A0A0AFB06B501A9284688
:103A68002BF07EF801A830F07BFC01A981460246C4
:103A78004046FEF7B9FDA8B9FBB2994512D16B795A
:103A880003F00F08B8F1060F15D1204630F068FC96
:103A98002146024628462AF0CEFFBDE70B46C8E776
:103AA8001446CFE7013640F25F139E42D4D15748FF
:103AB800FEF712FBB0E713F0C0030AD0402B5ED02C
:103AC8005348FEF7C1FA2846FFF762FEFEF700FBEF
:103AD800A2E72378002BF3D04E49204634F049F969
:103AE8000646204630F03CFC8642E9D12046FCF7E9
:103AF800CDFD2846B0EE408A2AF034FF07EE900A42
:103B0800F8EEE77AF4EEC87AF1EE10FAD8D828463B
:103B18002AF010FF07EE900AF8EE677AF4EEC87AFA
:103B2800F1EE10FACCDBB8F1050F17D0B8F1040F9D
:103B38001FD1214614F8013B202BFAD0092BF8D0CD
:103B4800013900230A2011F8012F303AD2B2092A8C
:103B580002D800FB0323F6E708EE103A28462AF0BD
:103B68005DFFB8F1050F35D8DFE808F031313D3D8C
:103B780041442046FEF784FD08EE100AEEE7AB79D3
:103B88009FED258A262B96BF244E064606EBC306D4
:103B9800002796F804A03B46B946BA4500D91BB1A0
:103BA800B9F1000F8CD0D9E733686FF0004253F8B1
:103BB80027002146FEF718FD002808BF08EE107AF6
:103BC8000ABF012300234FF001090137E5E718EE8A
:103BD800103A037001A91248FFF758F90021284646
:103BE800FFF7A8FE18E718EE103A0380F2E780ED19
:103BF800008AEFE780ED008AECE74046FFF7A5FE74
:103C08000AE700BFC6DE030805DF0308DADD03089C
:103C1800F1DE0308D8DE03080000000004CE030824
:103C2800E6DE0308D8BB03082DE9F04F81468DB0C6
:103C380088460026464BF418464B1868FEF7D8F914
:103C480094F805B00BF030034B4549D120462AF0D3
:103C5800C3FEFEF725FB054620462AF093FEAA6818
:103C680001921718824620462AF0D8FE0BF00F0161
:103C78000546019A062968D8DFE801F0043A3F436F
:103C8800484C5A0012F80A200378D31AD3F1000AD4
:103C98004AEB030A18F0200F02D0BAF1000F1FD127
:103CA80003A920462AF05CFF18F0400F0DD0BAF1A6
:103CB800000F0AD103A92848FFF7E8F85246294619
:103CC8002046FFF7AFFDFEF703FA03A92348FFF7E5
:103CD800DDF8002239462046FFF7A4FDFEF7F8F983
:103CE8000A3640F6B6539E42A4D10DB0BDE8F08F17
:103CF80012F90A2090F90030C7E732F80A20038841
:103D0800C3E732F90A20B0F90030BEE752F80A20BA
:103D18000368BAE797ED007AD0ED007AB4EE677AD7
:103D2800F1EE10FA0CBF4FF0010A4FF0000AB1E7AC
:103D380020462AF0FFFD2946421C384633F0F2FFA0
:103D4800B0FA80FA4FEA5A1AA4E74FF0000AA1E73E
:103D5800D8BB0308804D002000DF030801DF0308FB
:103D6800022810B50C460FD8FDF7EEF90748FEF704
:103D7800DBF9074B074859790131FFF73FF921462D
:103D88003020BDE810404FE710BD00BF0BDF03082F
:103D9800786600201BDF0308022810B50C4613D8EC
:103DA800FDF7EAF90948FEF7BFF9094B09481979FF
:103DB8000131FFF723F921461020FFF735FF21468F
:103DC8002020BDE810402FE710BD00BFD1FE03083A
:103DD8007866002023DF03080CB407B510F0400014
:103DE80009D069B92320FEF70FF905A904980191B4
:103DF800FFF7F0F8012003B05DF804EB02B070475C
:103E08000020F8E70CB4830607B500D551B905A919
:103E180004980191FFF7DEF8012003B05DF804EB88
:103E280002B070470020F8E72DE9F04F824687B0CE
:103E380091460E4615460027337896F9028004937A
:103E48007378059396F803B0B8F1000F32D0B9F142
:103E5800000F34D02B78049C6A7895F90210E87822
:103E68009C422AD1059C944227D1884525D1ABEBA9
:103E7800000CDCF1000444EB0C04CDE90210CDE9A0
:103E8800003221463B460F4A5046FFF7A5FF059BE7
:103E98000193049B0093CDE9028B3B46094A2146D6
:103EA80050460137FFF7AEFF102F06F1040605F163
:103EB8000405C1D107B0BDE8F08F0024DDE74C460A
:103EC800E5E700BF30DF03082DE9F0478AB0054673
:103ED80030F046FAC2B232B969490120FFF7A4FFAF
:103EE8000AB0BDE8F087052266492846FEF77CFB44
:103EF80088B91520FEF7D4F910B16149FEF774F9B5
:103F0800614B00221A60DA609A615A621A63DA63B6
:103F18009A645A65E4E707225C492846FEF764FB81
:103F28000446002875D12021284633F0E6FE0646CF
:103F380030F016FAC5B285BB5548FEF7A7FF2C46E8
:103F4800544D214628460134FEF7A0FF172CF8D11E
:103F5800FEF7BEF84C4EDFF84C914F4FDFF8488122
:103F6800002421464846FEF791FFDFF840A10025CE
:103F780032680123AB40134214BF394641465046CC
:103F88000135FEF783FF172DF2D10134FEF7A0F8B3
:103F9800082C06F10C06E4D1A2E7304601AA3F49F5
:103FA8003E4E31F0C1FC02AD00283DD0022C15D1A7
:103FB800029A072A2AD80399162927D80378722B38
:103FC80017D06E2B22D10C2353432F48012202FA1B
:103FD80001F1C25822EA0102C25013E0FEF750FB79
:103FE80001AA45F824003146002031F09DFC013437
:103FF800DAE70C23244C5343012000FA01F1E0587E
:104008000843E0502148FFF75FFF69E7FEF788F8AB
:10401800F8E7284601AA2149204E31F085FC002402
:1040280002AD78B1052C02D1FEF77AF858E7FEF711
:1040380027FB01AA45F824003146002031F074FC22
:104048000134EEE7052CEFD1029A0F2AECD8039D34
:10405800072DE9D8049C162CE6D8059800F17D03B5
:10406800FA2BE1D80699FF29DED8054B03F8225030
:1040780003EB820398705C70D9700948C3E700BFEE
:104088009976002044DF0308DC7600204ADF030825
:104098001DDB030852DF030885DF03087D050408DC
:1040A800D8FB0308B7020408FC0E040857DF03080E
:1040B8002DE9F04FDFF8FCB085B0804689461746F9
:1040C8000E4615464FF0000A002F6ED072686B68D6
:1040D8009A4268D1B468AB6824F07F4423F07F43E8
:1040E800E31A5C425C4195F90A300393B5F908304C
:1040F8000293B5F906300193B5F9043000935A4696
:10410800534621464046FFF767FE96F90A30039367
:10411800B6F908300293B6F906300193B6F90430BF
:1041280000935A465346214640460AF1010AFFF7D2
:1041380069FEBAF1080F06F10C0605F10C05C3D1AA
:1041480077B3002426460025012303FA05FA3A59D5
:1041580059F8043053403AEA030314BF4FF0010BF7
:104168004FF0000B12EA0A0F06D000953346104AAA
:1041780059464046FFF730FE59F804301AEA030F53
:1041880006D0009533460A4A59464046FFF73AFE9C
:104198000135172DD8D10136082E04F10C04D2D1DF
:1041A80005B0BDE8F08F00249DE73C46ADE700BFB1
:1041B80072DF03085DDF03087FB50546FCF750F89A
:1041C800002858D02D490022012004B0BDE87040D5
:1041D8006EE72D2B03D0A3F13002092A46D8042C10
:1041E80004DD04B0BDE87040FDF79ABF2846FEF72D
:1041F80047FA04AB621C03EB440424F80C0C15F8D2
:10420800013F303B092BFAD914462B78002BE0D11B
:10421800052CE6D1BDF904309AB2072AE1D8BDF9D8
:104228000600A0F2EE2292B240F2DC54A242D8D8A4
:10423800BDF90810A1F2EE2292B2A242D1D8BDF97E
:104248000A209042CDDC9142CBDBBDF90C5005F140
:104258007D04A4B2FA2CC4D8084C0C2606FB0343F0
:104268009880D9801A819D7204B070BD202BB8D176
:1042780001352246C8E70446C7E700BFDC760020C0
:104288002DE9F04F804685B00E4615468946924680
:104298000027002409EB040393F8C0300393002D92
:1042A80048D00AEB0403039A93F8C030D11AD1F12D
:1042B800000B4BEB010BCDE90043204A3B46594626
:1042C8004046FFF789FD039B1C4ACDE90043594648
:1042D8003B4640460134FFF795FD062CDAD10137FD
:1042E800062F09F106090AF1060AD2D106F1E40AF5
:1042F800124E00241AF8019BF5B12B19404693F889
:10430800E430A9EB030257425741CDE90043324656
:1043180006233946FFF760FDCDE9004906233246FA
:10432800394640460134FFF76DFD0B2CE2D105B04C
:10433800BDE8F08FAB46C6E72F46EDE787DF0308F9
:104348007FB50346FBF78CFF044630B100221F49B6
:104358000120FFF795FF04B070BD6A461C491C4E4A
:10436800184631F0E1FA01ADC0B1032C02D1FDF7D6
:10437800D7FEF0E7FEF784F96A4645F8240031468F
:10438800002031F0D1FA0134EEE70628EFD10A2AED
:10439800EDD80E48104480F8E43012E0032CE6D142
:1043A800039B0F2BE3D8DDE90112C8B20528ECD82E
:1043B800052ADCD8054C062505FB0040104480F88A
:1043C800C0300448FEF71AFEC5E700BFB059002008
:1043D8007D05040887DF03082DE9FF47DFF86CA097
:1043E800814690460E4615460027B8F1000F2AD0A0
:1043F8002B8832889A4224D174886A88A21A544237
:104408005441EA780292AA782146CDE9003248461A
:104418003B465246FFF7E0FCF3780293B3780193EA
:1044280036F8043B009352463B462146484601373E
:10443800FFF7E8FC102F05F10405D6D104B0BDE85C
:10444800F0870024DDE74446E6E700BF9BDF03086A
:104458002DE9F0410646FBF703FF044628B1002288
:1044680024490120BDE8F041B6E73046FEF708F9D7
:104478000F2805462EDC3046FCF77CFDDFF88480EB
:104488001D4F064620353046FEF7FAF838F8143046
:10449800984227DC012C11D0022C13D027F82500D4
:1044A80030462C2133F029FC064678B10136012329
:1044B8000134BBB1032CE6D1BDE8F08107EB8503DD
:1044C8009870EDE707EB8503D870E9E7A21E534221
:1044D8005341EDE722460F2308490948BDE8F0415A
:1044E800FEF78CBD002347F82530BDE8F041FDF705
:1044F80017BE00BF305A0020B05900207EDD0308E7
:1045080084DD0308308003082DE9F04FDFF8688068
:104518008FB007468A46164600240DF124095AF83A
:1045280024300293494602A82CF0C4FE16B356F86C
:104538002430029D0393EB1A5D420DF1100B5D418F
:10454800594603A82CF0B6FECDF800B023464246E3
:1045580029463846FFF740FC2346CDF800904246EE
:10456800294638460134FFF74DFC202CD7D10FB02F
:10457800BDE8F08F3546EFE7ADDF03082DE9F04FD2
:1045880087B00546FBF76CFE044638B10022634944
:104598000120FFF7B9FF07B0BDE8F08F2846FEF706
:1045A8006FF81F28074600F3B1802846FCF7E2FCA5
:1045B8005A4B009443F82740834625462646A04692
:1045C800A146A2460193564BE1B2E05C0DF10C0EF8
:1045D8000023DC461BF8012B1AB1904211D00A2B9C
:1045E8000BD10DF1180E734490424FF0000E03F8F2
:1045F8000CEC08D0FDF794FDCDE703F80E2001334D
:10460800E7E70246EDE701390CF1010B03293FD832
:10461800DFE801F05A2602730DF10B014FF0010E8D
:1046280011F8013FC3B300223E4810F802C09C4570
:1046380003D00132072AF7D14A46542B53D04F2BC7
:1046480053D0422B53D04E2B53D0492B53D0572BFA
:1046580004D105230EFA03F348EA03089146DFE77D
:104668000DF10B02012112F8013FABB14E2B30D0F6
:10467800452B30D0532B30D0572B30D0552B30D042
:10468800442BF0D1052301FA03F34AEA030AEAE7C7
:1046980003A8FDF7F5FF06460134052C93D1009BCE
:1046A80005F00F0545EA834545EA8A5A4AEA092989
:1046B800360149EA0838019BF6B248EA060643F88B
:1046C80027601EF07DFA66E703A8FDF7D9FF0546C7
:1046D800E2E70023D7E70123D5E70223D3E7032343
:1046E800D1E70423CFE70023B4E70123B2E702238D
:1046F800B0E70323AEE70423ACE703A8FDF7C0FF48
:1047080003460F28C8BF00230093C5E71F2322468E
:1047180005490648FEF772FC3DE700BFB059002086
:1047280036800308AAD903087EDD030884DD030860
:104738002DE9F347DFF868A081460F469046022628
:104748000024B8F1000F28D038F8243037F82410A6
:1047580038F8062099421ED1BD5BA91A4D424D4139
:10476800CDE900322946234652464846FFF734FB36
:10477800BB5B019337F82430009352462346294601
:1047880048460134FFF73EFB042C06F10406D8D155
:1047980002B0BDE8F0870025E2E74546E8E700BF3C
:1047A800B7DF03082DE9F0410546FBF759FD06463A
:1047B80028B1002227490120BDE8F041B8E76FF091
:1047C800004225492846FDF70FFF70B9214B4FF4E9
:1047D8007A714FF4FA6219805A809980DA801981C7
:1047E8005A819981DA81BDE8F0812846FDF748FFB2
:1047F8000328044626D82846FCF7BCFB064670B1B9
:10480800FDF73EFF012507463046FCF7B3FB10B124
:10481800FDF736FF2DB9BDE8F041FDF781BC05462F
:10482800F2E7A7F2EE2240F2DC539A42F3D8A0F264
:10483800EE229A42EFD8074B23F8247003EB840347
:104848005880D0E73246032304490548BDE8F041C3
:10485800FEF7D4BBF046002044DF0308C8DF030896
:1048680084DD03082DE9F04F2DED088BDFF80C915E
:1048780097B0804692460D461446002695ED008A6C
:10488800B5EE408AF1EE10FA70D0D5ED019A95EDAB
:10489800029AD5ED038ABAF1000F3ED094ED000AD2
:1048A80094ED01BAD4ED02AA94ED03AAB4EE408ABD
:1048B800F1EE10FA5FD1F4EE4B9AF1EE10FA5AD1FC
:1048C800B4EE6A9AF1EE10FA55D1F4EE4A8AF1EE96
:1048D80010FA0CBF0127002712A8FDF78BFFB0EED6
:1048E8004B0A83460EA8FDF785FFB0EE6A0A0590CD
:1048F8000AA8FDF77FFFB0EE4A0A049006A8FDF764
:1049080079FF059B049A03900292CDE900B34A46C9
:10491800334639464046FFF75FFAB0EE480A12A818
:10492800FDF768FFB0EE690A07460EA8FDF762FFBB
:10493800B0EE490A83460AA8FDF75CFFB0EE680AA4
:10494800049006A8FDF756FF049B0390CDE901B338
:10495800009733464A46002140460136FFF752FA8F
:10496800062E05F1100504F1100487D117B0BDEC2F
:10497800088BBDE8F08F0027AEE700BFD0DF030843
:1049880070B50446FBF76CFC064628B100222E4998
:104998000120BDE8704065E705222C492046FDF757
:1049A80023FE40B9284B00221A601A611A621A6362
:1049B8001A641A6570BD2046FDF762FE0528054693
:1049C8003AD82046FCF7D6FA064648B3FBF75EFE0F
:1049D8001D4B03EB051383ED000A01243046FCF759
:1049E800C9FA064638B1FBF751FE174B03EB05131E
:1049F80083ED010A01343046FCF7BCFA064638B1AB
:104A0800FBF744FE104B03EB051383ED020A013458
:104A18003046FCF7AFFA28B9BDE87040FDF780BB17
:104A28000446DBE7FBF732FE074B032C03EB0515C7
:104A380085ED030AAAD0EFE7324605230449054865
:104A4800BDE87040FEF7DABADC70002044DF0308E6
:104A58007EDD030884DD03082DE9F04F834687B027
:104A680092460C46164600274FF019094FF4617814
:104A7800BAF1000F4DD0B078A5783378727896F8EF
:104A880003C096F804E07179854240D125789D42AB
:104A98003DD1657895423AD1E578654537D1257994
:104AA800754534D165798D4214BF0025012519FB60
:104AB800028219FB0383CDE9010303920091CDE93A
:104AC80004CE3B46144A29465846FFF785F9237910
:104AD8000593E378049363780F4A19FB03830393E0
:104AE800237819FB03830293A378019363790093D6
:104AF80029463B4658460137FFF784F90C2F04F145
:104B0800060406F10606B3D107B0BDE8F08F00250C
:104B1800CDE75546DBE700BFE4DF03082DE9F7439F
:104B28008146FBF79DFB064638B100223749012034
:104B3800FFF792FF03B0BDE8F0834846FDF7A0FDFC
:104B48000B2804465BDC0625454309F101008DF876
:104B58000760FCF70FFADFF8B480814605EB080719
:104B6800464638B1FDF78CFD03289EBF01237871B6
:104B78008DF807304846FCF7FDF9814660B1FDF72E
:104B88007FFD0D2808D8062303FB046398709DF861
:104B9800073001338DF807300DF1070239464846D2
:104BA800FDF7F0FDFCF7E6F9814660B1FDF768FD19
:104BB800302808D89DF80730062202FB046201332A
:104BC800D0708DF807304846FCF7D4F960B1FDF78E
:104BD80057FD0D2808D89DF80730062202FB04640B
:104BE800013320718DF807309DF80730062BA1D0CE
:104BF800002345F80830BB80FDF792FA9AE70B23AB
:104C0800324603490348FEF7F9F993E79470002008
:104C18007EDD030884DD03082DE9F04F374FDFF808
:104C2800E4A089B0814690460C46164602F1280B4E
:104C380094F9025000230C2202FB03F13048095674
:104C4800A94256D00133052BF6D108365E4504F14A
:104C58000804EDD109B0BDE8F08F96F9023007934A
:104C68009D423288F178307996F806C096F805E0CA
:104C78003DD1258895423AD1E5788D4237D12579BD
:104C8800854234D1A579654531D16579A5EB0E0307
:104C98005D425D4157F82E3057F8211057F8200033
:104CA800049357F82C300393CDE900210290079B19
:104CB800524629464846FFF78FF8627994F9023040
:104CC80057F822200492A27957F8222003922279D9
:104CD80057F822200292E27857F82220019222887F
:104CE8000092294652464846FFF78CF8ADE7002562
:104CF800D0E7B8F1000FB0D14546DEE7848203085B
:104D0800FC94002002E003082DE9F3410346FBF779
:104D1800A7FA30B135490022012002B0BDE8F041C0
:104D28007AE7CDE9000018465D1CFDF7A9FC44B2FE
:104D3800204627F057FD064600283CD08DF8024053
:104D480001242846FCF716F9074628B1FDF798FC18
:104D58000134ADF80000E4B2DFF89480002538464D
:104D6800FCF708F90746F8B1FDF78AFC002258F865
:104D780022108842D3B203D00132112AF7D100237E
:104D880058F8232090420FD1022D1CD0032D1FD09C
:104D9800012D12D05A1E0F2A03D88DF80330013482
:104DA800E4B20135042DDAD1052C17D802B0BDE8DC
:104DB800F041FDF7B5B90446C3E71A1F042AF0D835
:104DC8008DF80430EBE7082BEBD88DF80630E6E7D2
:104DD8005A1F052AE5D88DF80530E0E76B4603CB66
:104DE8003060716002B0BDE8F08100BFD29400204D
:104DF800848203082DE9F04F834685B092460D461C
:104E0800164600274FF019094FF46178BAF1000FE0
:104E18003ED032782C787178B378F078944235D1D6
:104E28006C788C4232D1AC789C422FD1EC78A4EBD0
:104E3800000CDCF1000444EB0C0419FB008019FBA6
:104E48000383CDE90113039000923B46114A2146A2
:104E58005846FEF7C1FFEB780E4A19FB038303930C
:104E6800AB7819FB038302936B78019315F8043B25
:104E7800009321463B4658460137FEF7C3FF142FDF
:104E880006F10406C2D105B0BDE8F08F0024D4E7CE
:104E98005446E0E71FE003082DE9F04F0F468DB0B8
:104EA8007A490646FDF7BAFB0546002840F0AC8073
:104EB80077493046FDF7B2FB0546002840F0A6804A
:104EC80074493046FDF7AAFB0546002840F0A0804B
:104ED80071493046FDF7A2FB002805460ABF0124A8
:104EE800102435460FB144F020046C4B6C4E93F8F7
:104EF800049093F805806B4F0193BE42C0F08A80FE
:104F0800FDF7A0F94846FCF737F94046FCF71CF9CD
:104F180065492846FDF782FB08B144F0400414F0C7
:104F2800110F00F0D1816148FDF7FEF80020FEF76F
:104F3800DDF804F03003302B02D15D48FDF7F4F8BA
:104F48005C4D5D48DFF8A8A1DFF8A8B1FDF7ECF8E3
:104F58005A48FDF7E9F8D5ED007A594AF5EE407A56
:104F6800F1EE10FA0CBF012100212046FEF74AFF9E
:104F78002A465449544D2046FFF774FC5348FDF720
:104F8800D3F895F90210524AB1FA81F1490920463D
:104F9800FEF738FF2A464F492046FEF745FF4E48A0
:104FA800FDF7C2F84D4A4E492046FFF781F84D48B3
:104FB800FDF7BAF84C4B1E684C4B1F684FF00008C1
:104FC8005AF828509DB32B78DBB14FF0010909FA44
:104FD80008F967EA060313EA090F14BF0121002143
:104FE8002B465A462046FEF7F7FE66EA070313EA01
:104FF800090F5A462B4614BF012100212046FEF70F
:1050080001FF08F10108DBE701246BE7022469E7E7
:10501800042467E77388C3F30B021B04D6E9011065
:1050280048BF02EB420230F0EBFA143665E7DFF8CE
:10503800C8A0A84667EA060B2D4B53F82850002D48
:105048005CD02B78FBB14FF0010909FA08F917EA8F
:10505800090F0BD066EA070313EA090F52462B46DD
:1050680014BF012100212046FEF7B6FE16EA090FFB
:1050780009D01BEA090F2B46524614BF0121002113
:105088002046FEF7BFFE08F10108D5E747E0030810
:10509800D1FE03080BDF03083715040878660020E3
:1050A800F81B0408A41F04084EE003089B0004082A
:1050B8005BE00308DC70002017FF0308FDFF03080E
:1050C80096E003088472002099760020A5E0030882
:1050D800AFE00308CC790020BCE00308DC760020B0
:1050E8006C790020C2E00308FC470020783E0020CD
:1050F800507F0308CAE00308D6E003088948DFF8B0
:10510800B892DFF8B882FDF70FF8874B1E68874B17
:105118001B687340DB4303934FF0010B039A0BFAB0
:1051280005F31A4218BF5F46814A08BF002733407B
:1051380002934FF00C0303FB05233946D3F808A06C
:105148000CBF4A46424653462046FEF745FE029AA1
:105158005346002A14BF4A464246394620465D4413
:10516800FEF750FE162DD7D17248734E734FFCF7D9
:10517800DBFF00237248089304935D460BEB06029D
:105188001BF8003012F8011C0CAA1A440DF1300C5F
:1051980002F8201C1BF8072094440CF8101C2DB1B1
:1051A800A3EB020CDCF1000545EB0C050BF1010B40
:1051B800BBF1050FE2D1002608AB624A8DF81460F6
:1051C80029462046FEF708FE04AB5E4A29462046DB
:1051D800FEF718FE5C48FCF7A7FF5C4A5C492046CE
:1051E800FFF71AFD5B48FCF79FFF5B4A5B492046C7
:1051F800FFF78AF95A48FCF797FF5A4A5A49204656
:10520800FFF7EAF85948FCF78FFF534A53492046FD
:10521800FFF736F85648FCF787FF564A56492046A6
:10522800FFF7E8FD5548FCF77FFF554A55492046EA
:10523800FFF712FC5448FCF777FF544A54492046BC
:10524800FFF776FA5348FCF76FFF4FF0FF331A4623
:10525800514920462BF0D4FF5048FCF765FF3046F3
:105268002146FEF7E1FCE00643D5019B2146304686
:105278001F795D79FEF790FD21460120FEF78CFD30
:1052880021460220FEF788FD21463046FEF768FDDC
:1052980021460120FEF764FD21460220FEF760FD4D
:1052A8003846FBF769FF2846FBF74EFF3C48FCF7FA
:1052B8003BFF791C3B48FDF7A1FE3B48691CFDF705
:1052C8009DFE3A48FCF730FFA10704D5019B214613
:1052D8001879FEF761FD620704D5019B21465879CC
:1052E800FEF73EFD324C334B9C420DD30DB0BDE86A
:1052F800F08F019B21461879FEF74EFD019B214650
:105308005879FEF72DFDDFE76388C3F30B021B0412
:10531800D4E9010148BF02EB420230F071F91434BC
:10532800E1E700BFC1FC03080C7A002038760020B2
:10533800B4CC0308E1E003085A8B03081894002052
:1053480040B00020E5E00308BAFF0308D29400202B
:1053580014B00020F4DD0308B059002034670020A1
:10536800F1E00308305A0020B4670020ECE003089D
:10537800F7E00308007800200C790020FBE0030820
:10538800947000203472002004E10308F0460020E5
:10539800E04600200CE1030852AD002047E0030876
:1053A80017E1030842E103083AE103084DE1030865
:1053B800F81B0408A41F04083CE0030832E00308B3
:1053C800012169E5002167E5F7B50746FAF748FFC7
:1053D800044630B1002222490120FFF70BFD03B03B
:1053E800F0BD3846FDF74CF91328054630DC860039
:1053F800781C8DF80740FBF7BDFD194C074640B1F6
:10540800FDF73EF923289EBF012304F825008DF8F7
:1054180007303846FBF7AEFD074650B1FDF730F9C7
:105428000D2806D8A31958709DF8073001338DF858
:105438000730B11C0DF1070221443846FDF7A2F9E7
:105448009DF80730042BCAD0002344F82530C6E75E
:105458001323224603490448FDF7D0FDBFE700BFE8
:10546800007800207EDD030884DD03080EB40FB544
:1054780005AB019053F8042B0649039301A8FDF7E7
:1054880004FC019B00221A7004B05DF804EB03B021
:10549800704700BFE10700082DE9F043344B8DB099
:1054A8000CAA1B8822F80E3D054609A82BF00BFE16
:1054B800BDF922203C2192FBF1F301FB132109B233
:1054C8001EB2BDF824300029B8BF4942B3F5FA6FBF
:1054D8001AD39DF82630013B0B2B15D89DF82730A1
:1054E800013B1E2B10D89DF82830172B0CD89DF89F
:1054F80029303B2B08D89DF82A303B2B04D8BDF81F
:105508002C30B3F57A7F30D300201A4B0993ADF8CD
:1055180028008DF82A00ADF82C000446002E9DF8CE
:1055280028709DF829C09DF82AE0BDF82C809DF8C8
:1055380027000791B4BF4FF02D094FF02B09002E1B
:10554800B8BF76420090BDF824209DF826300A495D
:10555800CDE90596CDE903E8CDE9017C2846FFF7BA
:1055680085FF20460DB0BDE8F0830124D6E700BFD3
:10557800389500200000010166E103080FB437B533
:105588000B490C48096800680B4D06AB53F8042B0F
:105598000193FDF77AFB04462868FCF768F80028B1
:1055A800FAD0204603B0BDE8304004B0704700BFD1
:1055B800C4520020C8520020CC4D00202DE9F04FE5
:1055C80087B00346FAF74CFE064620B1FCF7A8FD63
:1055D80007B0BDE8F08F05AA5B49DFF89891DFF8BE
:1055E80098A1DFF898B1184630F09EF93446054680
:1055F800B0464FF0FF37A5B9544B78B20C2606FBDE
:1056080005F2D118D256824200F081800135052D6D
:10561800F5D1B8F1000F34D14D483946FFF7AEFF48
:10562800D6E7012E0ED0022E11D01EB92846FDF75E
:1056380027F8074605AA4449002030F075F90136D5
:105648000546D8E72846FDF71BF88046F2E74946A5
:10565800284632F0A0FB20B93E49284632F09BFB91
:1056680008B144F001045146284632F094FB28B9A9
:105678005946284632F08FFB0028DBD044F002045C
:10568800D8E7002C08BF03240023E4B20293CDE935
:1056980000841A46194626F067FF054610B93946B0
:1056A8002D48BBE7424639462C48FFF767FF394685
:1056B8002B48FFF763FF2B4B1C68204626F01CFF86
:1056C800284626F019FF00202BF082F92046FBF728
:1056D800DAFF60B101202BF07BF92046FBF7CDFF04
:1056E80001462846FBF7D2FF00202BF071F9284627
:1056F800FBF7C9FF0028E9D001202BF069F92846FB
:10570800FBF7BBFF01462046FBF7C0FFDBE74D6810
:10571800002D3FF47EAF39461348FFF72FFF54B1F1
:105728006979A14207D022461048FFF727FFE1B266
:105738002846FBF799FFEB6A002BB8D00C48FFF717
:105748001DFF0023EB62B2E77D050408FC940020EE
:1057580094E103081EE80308BCE10308DBE1030841
:1057680046E20308844D0020F8E1030810E203082C
:1057780030E20308230F0408140E040816E803088F
:105788002DE9F04F4FF0000C85B08646074680465D
:10579800054600F1400908F1100B2B463E4612E081
:1057A800F4EC016A1AED047AD3ED007AE6EEC77AD2
:1057B800C3ED007AAC420AF1100AF1D104335B451B
:1057C80006F1040602D0B2464446F3E71E464E45AB
:1057D8001CD006EB0C0BBA46B04607E0F8EC016AA1
:1057E8001AED047AE6EEC77AC4ED047AD845D4ED0A
:1057F800047A0AF1100AF1D1D5ED006A87EEA67A8B
:10580800103617EE108A44F8108FE0E70CF1040CFC
:10581800BCF1100F05F1140507F104079846BAD139
:105828000023009301930293039302F110070546A6
:105838006C4652F8043B44F8043B6E467346AB4250
:1058480024D1BA420EF1100E03F11405F1D1403003
:1058580004AE01F11003054656F8044D43F8044C14
:105868001A1F0446AC42D2ED007A1AD150ED016AF3
:1058780087EEA67A8A42A0F11400A4F11005134617
:1058880082ED007AE8D105B0BDE8F08FB6EC017A78
:1058980054ED017AF3EC016AE6EEC77A44ED017A39
:1058A800CDE7F4EC016AB3EC017AE6EEC77AC2ED13
:1058B800007AD7E71FB50C46024669461030FFF755
:1058C8005FFFDDED007AB6EE007A67EE877AC4ED09
:1058D800007ADDED017A67EE877AC4ED017ADDEDB5
:1058E800027A67EE877AC4ED027A04B010BDD1ED72
:1058F800007A90ED066AD0ED095AB8EEE77AD0ED55
:10590800047AE7EE077AB7EE005AC0ED047AD1EDD3
:10591800017AF8EEE76AD0ED057AE7EE267AC0ED6F
:10592800057AD1ED027AF8EEE77AA7EE276A80EDDC
:10593800066A90ED076A36EE076A80ED076A90ED11
:10594800086AA7EE266A80ED086A26EEA66A75EE52
:10595800865AA7EE076AC0ED095AD0ED0A5AE6EE54
:10596800A75AA7EEA76AC0ED0A5AD0ED0B5A75EEF2
:10597800A65AC0ED0B5AD0ED0C5AE7EE275AC0EDE7
:105988000C5AD0ED0D5AE6EEA75AC0ED0D5AD0EDDF
:105998000E5AE7EEA75AC0ED0E5AD0ED0F5A75EE23
:1059A800A75AC0ED0F5AD0ED105A75EE875AC0EDC0
:1059B800105AD0ED115A75EEA65AC0ED115AD0ED15
:1059C800125A75EEA75AC0ED125AD0ED135A75EE59
:1059D800855AC0ED135AD0ED005AE7EE065A90EDFD
:1059E800017AC0ED005AA6EE867A80ED017A90ED34
:1059F800027AA7EE867AD0ED037A80ED027A37EE46
:105A0800866A80ED036A704700F140010346002270
:105A18001A615A619A61DA6110338B4240F8042B9B
:105A2800F6D17047024684B00068516801AB03C3E1
:105A380090681860DDE901329342C8BFCDE90123BF
:105A4800DDE902239A42C8BF0293DDE9013293429D
:105A5800C8BF0293029804B0704780EAE073A3EBD2
:105A6800E0738B4206DB002801DD401A704702D044
:105A78000844704700207047A0F2DC50164BB0F580
:105A8800FA7FA8BF4FF4FA70984210B5B8BF18460D
:105A98000C461146FFF7E1FF00B207EE900A9FEDB2
:105AA8000F7AF8EEE77AE4B287EE870AFBEE096A26
:105AB800E0EE006A07EE904AB8EE677ADFED087A02
:105AC800E7EE267A67EE807AB3EE090A87EE800A57
