:020000040800F2
:100000000000011011DB0208E3CD01086DA1010819
:10001000CDDB0208CDDB0208CDDB020800000000CA
:10002000000000000000000000000000E1CD010819
:10003000DFCD010800000000DDCD01086F110008D0
:10004000CDDB0208CDDB0208CDDB0208CDDB0208E8
:10005000CDDB0208CDDB02083F150008471500087C
:10006000CDDB02084515000843150008D9D4010866
:10007000C5D40108B1D401089DD4010889D4010870
:1000800075D4010861D40108CDDB0208CDDB02087C
:10009000CDDB0208CDDB0208CDDB020841150008EC
:1000A00019D60108F1D50108C9D5010841D60108C2
:1000B000B5D50108A1D501088DD50108CDDB020811
:1000C000CDDB0208CDDB0208CDDB0208CDDB020868
:1000D000CDDB0208A1DC0108CDDB020895DC0108BC
:1000E0003D150008CDDB020875E501083DD5010886
:1000F00015D50108EDD4010865D501084DD40108D6
:10010000CDDB0208CDDB020879D50108CDDB020882
:10011000CDDB0208CDDB0208CDDB0208CDDB020817
:1001200039D4010825D4010811D40108FDD30108F0
:10013000E9D30108CDDB0208CDDB0208CDDB0208E4
:10014000CDDB0208CDDB0208CDDB02084FC8010879
:10015000D5D30108C1D30108ADD3010889DC01085A
:10016000CDDB0208CDDB0208CDDB0208CDDB0208C7
:10017000CDDB0208CDDB0208CDDB0208CDDB0208B7
:08018000CDDB0208CDDB020813
:1001880020B10078B0FA80F040097047012070472C
:10019800436A826930B5D154436A04690133A34282
:1001A80028BF00234362836BFBB1196811F001017A
:1001B8001AD11A68856922F001021A60826A154408
:1001C800DD60456AAA4235BFAA1AA21A5A605A6067
:1001D8004FF0000280F850201A6838BF856242F05C
:1001E800010228BF81621A6030BDC26DD36843F036
:1001F8008003D360F8E7034610B55C6B4069D968A3
:1002080044B1DA6C8C1A013A005D08BF0A46C0B2E4
:10021800DA6410BD1A6A805C01328A4228BF22461D
:10022800C0B21A62F5E7836B13B190F850007047BB
:10023800D0E909031B1A584258417047D0E90913FD
:100248000269994238BF8918CB1A816B501E19B1BF
:100258004A681344834201D2C01A7047002070478D
:10026800436B4BB1C26C5B689A42A3EB020392BF2B
:100278001846C068C0187047D0E907239A422FBFB4
:10028800D01AC0688018C01A704710F80A3C0133A9
:10029800DBB20A2B00F80A3C07D910F8131C034AF2
:1002A800002322F8113000F80A3C7047263100205C
:1002B800F0B54F4E337814200133B3FBF0F200FB56
:1002C800123333704B4B58681A6D9C6881420A444C
:1002D80004D293F8580008B102F5803246480778EE
:1002E800B2FBF7F2944233D293F858501DB14FF451
:1002F800803595FBF7F5101B451BDD60C3E901123E
:10030800717814220020013183F8580091FBF2F033
:1003180002FB10117170B178D868013191FBF2F4C9
:1003280002FB1412B27040F68C22904243D91A781C
:1003380093F955108A4250B223D1111F0C2920D8A5
:1003480093F8561018290BD8013183F8561009E094
:100358004FF4803090FBF7F0001B1044D860CDE7D5
:1003680083F8540093F954108A4202D193F8571035
:10037800D1B9012283F8572083F8550000221A705A
:10038800F0BD0021E1E703EB81052D6924F8115048
:1003980001318A42F7DC194900240F2A07DD184980
:1003A8000A7801320A70E4E70021144CF1E721F8D9
:1003B80012400132F1E793F85720002AE0D0A0F26A
:1003C800EF2140F2DA52914207D81A780F2A04D85E
:1003D800111D013243F82100D1E7002283F857208C
:1003E800104699180432402A0861FAD1C8E700BFBC
:1003F8004016002020250020A800002026310020DB
:100408000431002010B50B48037814240133B3FBE2
:10041800F4F204FB1233084A0370136D01330B44E2
:1004280013654FF6FF73994204BF012382F85830D1
:1004380010BD00BF4016002020250020024B53F8B5
:1004480020301B6819607047C8810020064B53F89C
:100458002030A1F57A701A6819894FF47A734143EC
:1004680091FBF3F111607047C88100207047704715
:100478000D4B1A683F2AF0B59C4613DC0B4C17014C
:100488000346E61900F1100E18685968354603C589
:10049800083373452E46F7D1054B1B68E3510132EB
:1004A800CCF80020F0BD00BFF8240020F820002080
:1004B800FC5A002070B5104C05460E460022002359
:1004C800D4E902012CF08CFF20B109A3D3E9002361
:1004D800C4E9022330462CF0B1FCD4E902232CF005
:1004E80041FE2CF0AFFF04EB4504208270BD00BF35
:1004F800ABAAAAAAAA461040401600200E4B984262
:1005080013D0A3F57843984211D003F5806398423D
:100518000FD10223094A142101FB03235A8901320E
:1005280092B25A81588980B270470023F2E70123BA
:10053800F0E74FF0FF307047003001400000002026
:10054800F8B584894FF6FF764FF47A740BB9012019
:100558001CE082B1157801320789BF070DD5ADB20D
:1005680085814FF47A740589ED0710D4013CA4B253
:10057800B442F8D105E0FF25EEE7013CA4B2B4424D
:10058800EAD1FFF7BBFF003018BF0120F8BD85890D
:10059800ADB209B10D700131013BD7E708B540F2A2
:1005A800E933028992070BD589B2818140F2E93398
:1005B8000289D2070CD4013B9BB2002BF8D103E08F
:1005C800013B9BB2002BECD1FFF798FFC0B208BDEE
:1005D8008089FBE730B50278202A034600F1010044
:1005E800F9D0092AF7D02D2A4BD10346BFEE000ACD
:1005F8009FED3C7A1A46F2EE046A134612F8010B94
:10060800A0F13001CCB2092C41D92E280BD1F2EE41
:10061800046A1146B0EE666A0B4611F8012B303AAF
:10062800D0B209283CD91A7802F0DF02452A53D102
:100638005A782D2A3FD102330120013B00220A2596
:1006480013F8011F3039CCB2092C3AD9B2F59A7F88
:100658001346DFED256A28BF4FF49A731A46F7EE62
:10066800007A072A30D8DA086FF0070101FB023355
:10067800F2EE046A63BB88B3C7EE276A20EE260A47
:1006880030BD2B2A08BF0346B7EE000AB0E707EED5
:10069800901AF8EEE77AE7EE267AB0EE677AACE7DA
:1006A80007EE902AF8EEE77AC7EEA65A66EE866A53
:1006B80037EE257AB0E72B2A14BF01330233002026
:1006C800BBE705FB0212BBE767EEA67A083AC8E764
:1006D80067EEA67A013BCDE7F7EE007A67EE276A68
:1006E800CCE700BF0000000020BCBE4CA0F13003E6
:1006F800DAB2092A01D818467047A0F16103052B20
:1007080001D857387047A0F14103052B94BF3738FB
:100718004FF0FF307047F0B50124B0FBF4F58D427F
:1007280003D200271CB91C70F0BD4C43F5E7B0FBA1
:10073800F4F604FB1600B4FBF1F42FB9002E03DC29
:10074800002CEFD1302505E0092EFBDD002A14BF6F
:100758003725572535441D7001370133E2E7036813
:100768005A1C02601970704703685A1C026019709D
:1007780070472DE9F84F002B14BF4FF030094FF0A8
:1007880020090A9B141E07468846BABF64424FF0E8
:10079800010B4FF0000B13F8012B02B134B9BBF178
:1007A800000F0ED000230A9D5E1B0EE0013CF2E70D
:1007B80049463846C04715F1FF35F9D223462C463D
:1007C800F1E72546F7E73846C04705EB060A15F86E
:1007D800011B0029F7D1BBF1000F05D02546002DDC
:1007E80005DC002CA8BFA2445046BDE8F88F494656
:1007F8003846C047013DF2E7D0ED006AD0ED057AF2
:10080800E6EE807AB0EE407AB0EE670AD0ED037A71
:10081800D0ED016A67EEC07AE6EE877AD0ED066A17
:1008280077EEA67AD0ED026AC0ED057AD0ED047AAB
:1008380067EEC07AE6EE877AC0ED067A70477047B1
:1008480043230B80004870473C00002010B5074C3C
:10085800D4F88000FF2807D005490A6B343119F015
:1008680066FDFF23C4F88030002010BD0000002082
:100878004016002008B5D0F8E4355B6A9847002098
:1008880008BD08B5D0F8E4351B6A9847002008BDB4
:10089800D0F8E43510B504461B689847D4F8E83515
:1008A8009B689847002010BD08B5D0F8E435DB698F
:1008B80003B19847002008BD08B590F8123180F8B8
:1008C8001331042380F81231D0F8E835DB689847F3
:1008D800002008BD10B5D0F8E83504461B699847D4
:1008E800032384F81231002010BDF0B54B784C6911
:1008F800012B27D182691568136914B964F30603BB
:1009080005E08E68A642F9D24E6166F3060343F409
:1009180000231361C478012C05D10B780E6900EB14
:1009280083039B695E6145F00445156044B94B69D2
:1009380033B102690978506B01238B400343536339
:100948000020F0BD0B788F6800EB830307F07F066B
:100958005A6D156813696CB966F3060343F40023EE
:100968001361C378012B04BF0B69536145F004453B
:100978001560E5E74F61EFE72DE9F04191F801E0F7
:100988000D784B69CE78BEF1010F4FD100EB850C85
:10099800DCF818703A683C6963F3120493B96EF393
:1009A800DC443C61C478012C1BD10D697D61012EAA
:1009B80025D100698068C00554BF42F0005242F05A
:1009C80080521CE0D1F8088008EB030E0EF1FF3EC0
:1009D800012EBEFBF8FE6EF3DC4408BF66F35E74BE
:1009E800DFE7012EE5D053B1D0F810E00120DEF8A2
:1009F800348000FA05F545EA0805CEF8345042F08F
:100A08000442012E3A6009D144B99BB20333C96844
:100A1800DCF8D0009B102246934202D10020BDE8AA
:100A2800F08151F8224004600132F5E700EB8505BA
:100A3800D1F808C06F6DCCF312053A683C69A3B9C8
:100A480065F31204012363F3DC443C61C378012B92
:100A580004BF0B697B61012E03D14B79A3B142F02E
:100A6800005242F004423A60D8E76344013BB3FBCA
:100A7800FCF3C3F3090363F3DC446B43C3F31203CE
:100A880063F312044B61E0E742F08052E9E770B586
:100A980001F07F05282404FB050104FB0504012659
:100AA800C4F82821C4F82C21002201F58E7184F89D
:100AB8001D6184F81C51C4F83421C4F830311DB9C3
:100AC800FFF713FF002070BDFFF756FFFAE7214B31
:100AD800DA6B0F2A70B502F101011D4602D0D96305
:100AE800002070BD1C490023EB630B78002BF7D165
:100AF8001A4C2268B2F5006F08BF2360184B2268B1
:100B08001B689A4202D100230B70E9E78CBFC2F53B
:100B180000639B1A2B642B6C402B0ED9403B02F1CF
:100B280040062B6401230B70266040230D4911FAFF
:100B380082F28121FFF7ABFFD2E702EB03062660C2
:100B48004FF000042C640EBF022401249BB20C70E9
:100B5800ECE700BF40160020F8520020B4520020F5
:100B6800B8520020F952002070B518490B78012BB3
:100B78000C4603D1164D2B6C5BB90B702378022BF6
:100B880017D100231A468121FFF781FF0023237024
:100B98000FE0104C402B22680DD9403B02F1400178
:100BA8002B64216040230C4911FA82F28121FFF75E
:100BB8006EFF002070BD03EB020626604FF00004B4
:100BC8002C640ABF02249BB20C70ECE7F852002098
:100BD80040160020B4520020F952002010B50446F7
:100BE8001346C4F83C21C4F83821022280F81121A8
:100BF8000A460021FFF74BFF002010BD70B50C46D8
:100C0800282606FB040506FB0101C5F888330023E6
:100C180085F87443C5F88023C5F88C3385F8753397
:100C2800C37806FB0404012B08BFC5F8842394F895
:100C3800743301F55D711BB9FFF757FE002070BDD5
:100C4800FFF79AFEFAE738B5282303FB0101074DA1
:100C5800B1F88C130446284619F030FB40232A4685
:100C680001212046FFF7CAFF002038BD8416002066
:100C780030B50B78497801229A4000EB83030129AB
:100C88004FF000052C460CBF9B695B6D92B20CBF00
:100C980062F30F0462F31F446FF3CF3502691D60DE
:100CA800D36923EA0403D361002030BD40F2011365
:100CB80010B500F5A2710446A0F84431FFF7D8FF3B
:100CC8000123A4F89C3304F567712046FFF7D0FF91
:100CD8004FF48173A4F86C3104F5B6712046FFF720
:100CE800C7FF19F065FB002010BD0B7830B5012255
:100CF8004D789A4000EB8303012D0CBF9D695D6D13
:100D08002B6892B24FF000040CBF62F30F0462F339
:100D18001F441A040DD48A6862F30A03CA7862F37E
:100D28009343CA8862F3995343F0805343F40043D2
:100D38002B600369DA691443DC61002030BD2DE9BA
:100D4800F04140F201130446022600254FF0400806
:100D58000127A0F84431C0F84C8180F84761A0F819
:100D68004A7180F8485100F5A271FFF7BEFF04F5FB
:100D78006771A4F89C73C4F8A48384F89F6384F80B
:100D8800A0532046FFF7B1FF4FF48173A4F86C31EC
:100D98000823C4F87431032304F5B67184F86F315D
:100DA800A4F872612046FFF7A0FF074B1E715D7122
:100DB80019F006FB4346054A39462046FFF71EFF51
:100DC8002846BDE8F08100BF3802002084160020C4
:100DD80070B5002540260446A0F87453C0F87C631B
:100DE80080F8775300F55D71FFF77FFF4FF480734C
:100DF800A4F81C3104F58E71C4F8246184F81F51DD
:100E0800A4F822512046FFF770FF012384F812311D
:100E1800D4F8E835A0785B689847284670BD0E4B33
:100E2800DA68D20310D4DA68D1060FD4DA68D205AA
:100E38000ED4DA6812F0E00F0CD1DB6813F0020F61
:100E480014BF08200920704701207047062070470A
:100E58000220704707207047003C024007B509236D
:100E68008DF80730FFF7DBFF8DF807009DF8073096
:100E7800012BF7D09DF8070003B05DF804FB08B517
:100E880020212FF0E2F90346184623B10278202AE0
:100E980003F10103F8D008BD38B504460A4614F832
:100EA8000E1C50F8040C41B9012324F80C2C04F84A
:100EB8000E3CBDE838401AF0C0BC34F80C1C24F8CD
:100EC8000A2C9142A2EB010384BF0268D26A9BB24A
:100ED80088BF9B1824F8083C14F80F2C064B34F8EC
:100EE800081C23F81210002504F80E5C01211AF0E2
:100EF800A4FC04F8065C38BD26310020A1F57A71FF
:100F080007EE901A9FED087A9FED080AF8EEE77A47
:100F180010B5A7EE870A04462DF050F9044B53F894
:100F280024301B68186010BD3D0AD73F0000D2432B
:100F3800C88100201523594307EE901AB8EEE70A36
:100F4800F3EE087A10B580EE270A04462DF036F93C
:100F5800024B53F824301B68186010BDC88100206C
:100F68000C234B4300EE103A10B5BAEEEE0A0446D5
:100F78002DF024F9024B53F824301B68186010BD7B
:100F8800C88100202DE9F0410B4DDFF830802C6836
:100F98006A69012714400CB9BDE8F081B4FA84F3FA
:100FA800C3F11F0307FA03F658F8230003689847AC
:100FB80024EA06046E61EEE7003C0140005B002075
:100FC80070B50A7812F0600406460D462BD0202C26
:100FD80030D1CC884B7804B312060CD522461F4971
:100FE800184619F0A4F9EA881C493046FFF7F6FDBF
:100FF8000024204670BD1A4AC0F89443C2F88030D5
:10100800184AC0F890430323146380F8113134322E
:1010180023460021FFF7F2FDEAE7022211441846B1
:1010280019F085F9E5E74B780A2B08D00B2B0BD084
:10103800062BDED130461AF013F90224D9E7012233
:101048000949FFF7CBFDD4E78B781BB9054AC2F8ED
:101058008430CDE71AF004F9CBE700BF74160020FE
:101068000000002040160020C4160020044B9B7985
:1010780013B9044B18687047034B9888704700BF32
:10108800822F0020C8010010423600202DE9784840
:10109800214B5A68214BC2F308028AB9EFF3118237
:1010A80072B91F481F491D6886681A689542FAD1A7
:1010B800D1F88C209642F6D81B4BD3E900231AE0CE
:1010C800EFF31182102181F3128801F1E0218E687B
:1010D800086810F4803F13481EBF0124C0F88840F8
:1010E8008E681968D0F88850D3B283F311880E4BF4
:1010F800D3E900230D444FF47A74A2FB04BC04FB2B
:1011080003CCBBEB06006CF100012CF069FBE4FB9F
:101118000501BDE8788800BF00ED00E0FC5A00201A
:1011280010E000E040160020387F0020F8B50446A3
:101138000D46FFF7ABFF06460F46FFF7A7FF821BDA
:1011480061EB0703AB4208BFA242F6D3F8BD10B566
:10115800044614F1FF3400D210BD4FF47A70002118
:10116800FFF7E4FFF5E7EFF31183102282F312880B
:1011780008490A6801320A60074A08499068C1F8B4
:101188008C000020C1F888001268DBB283F3118854
:10119800704700BFFC5A002010E000E04016002015
:1011A80003689B6A03B11847704703685B6A03B119
:1011B8001847704703689B69184703685B691847B5
:1011C80003681B6918470368DB68184703689B684E
:1011D800184703685B68184703681B681847036863
:1011E800DB6970B506460C4615467BB90D442B1BCA
:1011F800002B00DC70BD3046FFF7E8FF0028FAD06E
:1012080014F8011B3046FFF7E7FFF0E7BDE8704030
:101218001847E4E7014B1868DEE700BF5C4300208D
:1012280038B505460C4614F8011B01B938BD2846E7
:10123800FFF7D2FFF7E70C4B1B681B0110B407D56B
:101248000A4B1B685B050BD55DF8044BFFF732B9F9
:10125800074B53F820301BB107289CBF1B68196047
:101268005DF8044B704700BF808D0020848D0020FE
:101278005C2600201FB5ADF80A30BDF81830ADF86F
:10128800040041F48041ADF80C306846BDF81C30CC
:10129800ADF80610ADF80820ADF80E30FFF7E8F805
:1012A80005B05DF804FB1FB5ADF804006846ADF85D
:1012B8000610FFF7DDF805B05DF804FB064B53F8A0
:1012C80020303BB19A881B6859690A4201D05A8379
:1012D80070471A83704700BFB406030810B50409A5
:1012E800013C032C00F00F0215D80C4B33F81410F6
:1012F80041FA02F313F001000CD0012090400138AC
:1013080008402CF085FA064B1B5D1844054B0C224F
:1013180002FB003010BD0020FCE700BFAA0603084E
:1013280024030308F81D002010B1036882885A833B
:10133800704710B1036882881A83704770B51646E3
:1013480090F90C2014235343094AD55804460069E0
:10135800FFF7EAFF2846FFF721F90123002231466B
:101368002846FFF7EDF82069FFF7E3FF012070BD7D
:1013780000000020F8B5164690F90C2014235343BA
:101388000D4A0446D55800690F46FFF7CDFF0120E6
:101398000021FFF7CBFE39462846FFF7FFF8314614
:1013A8002846FFF7FBF82069FFF7C3FF012000215B
:1013B800FFF7BCFE0120F8BD0000002028B103683B
:1013C800828809B11A8370475A837047044B0146D3
:1013D8001868044B1B780BB981F00101EEE700BFD8
:1013E8004027002044270020024B81F0010153F8D8
:1013F8002000E3E7B406030808B51E4B1E4C1D6821
:10140800A0681DF0F9FD28461DF0F6FDA068417999
:101418008B0703D441F00201FFF7CCFE00210846F8
:10142800FFF7E2FF00210120FFF7DEFFA068FFF7CA
:10143800D0FE70B101210020FFF7D6FFA068FFF7AA
:10144800C2FE01462846FFF7C7FE00210846FFF7FF
:10145800CBFF2846FFF7BDFE0028E7D0012108464C
:10146800FFF7C2FF2846FFF7AEFE0146A068FFF768
:10147800B3FED7E7144300200089002080B58046DA
:101488000B25013D02D172B61CF0E8FB012108468C
:10149800FFF7AAFF00210846FFF7A6FF08F101069B
:1014A800322705240120FFF709FF0020FFF706FF78
:1014B8000120FFF78BFF3846FFF749FE0120FFF7B1
:1014C800FDFE0020FFF7FAFE0020FFF77FFF3846F9
:1014D800FFF73DFE74B1013CE4D14FF4FA70FFF719
:1014E80036FEFA2726B94FF47A70FFF730FEC8E7C0
:1014F8000024D7E7013EF5E730B1036882881B690D
:101508001A4214BF01200020704728B18088B0FA21
:1015180080F0C0F11F0070474FF0FF30704730B1C6
:10152800006800F13F4000F57E00800A70474FF0E8
:10153800FF30704726E525E524E523E522E521E58A
:1015480038B504468B6821600D46984701232373FC
:10155800FF220023A3736273E3732B6B13B120463E
:101568009847E073044B93F890301BB1E37B23F06A
:101578000103E37338BD00BF4016002003689B6A6F
:1015880018472DE9F3410446184616460D461F46EE
:101598002BF0FAFA2368E67228440022A07200921F
:1015A800D3F8148032463B4629462046C04702B04D
:1015B800BDE8F081036810B504465B689847236866
:1015C80020469B689847A37B013BA37310BD036823
:1015D80010B504461B689847236820469B689847BF
:1015E800A37B0133A37310BD10B5036804469B6841
:1015F800984701232373FF23637310BDF8B517467B
:1016080090F90C20142353430D4A05460069D65817
:101618000C46FFF789FE00BFD1E90123304609686F
:10162800FEF78EFF022F05D1D4E90423E168304686
:10163800FEF786FF00BF2869FFF77BFE0120F8BD93
:1016480000000020F8B50679012E054609D0022EC3
:101658001FD18368DB0758BF41F08001BDE8F8401F
:101668006CE60D4B90F90C00182404FB00346378E9
:101678006BB16B7BA1725B002372002363722375CD
:101688000223A370C4E903621CF08EFC237D184674
:10169800F8BD0023FBE700BFE87E00202DE9F041FC
:1016A80098460379012B0546174623D0022B39D1DA
:1016B80095F90C200069142353431B4AD458AA688F
:1016C80012F0010611D0FFF72FFE2046FEF766FF45
:1016D8000022434639462046FEF732FF2869FFF7C5
:1016E80028FE01221046BDE8F081FFF71DFE41F0FB
:1016F8008001EAE790F90C000C4B182404FB003435
:101708006278002AEED06B7BA1725B002372002303
:10171800637223750223C4E90387A3701CF044FC99
:10172800227DDFE70022DDE700000020E87E0020C0
:1017380073B50379012B0D4616460AD0022B25D125
:101748008368DB0758BF01F07F01FFF713FE02B083
:1017580070BD90F90C10427B0D488DF80760182475
:1017680004FB010460780028F1D06372E3600DF196
:1017780007032361002352002375022308462272BF
:10178800A572A3701CF010FC207DE0E70020DEE7C6
:10179800E87E0020094B70B5841CD3F89450A4004F
:1017A800E4B20E46CAB228462146FFF7C1FF611CC3
:1017B800320A2846C9B2BDE87040B9E74016002091
:1017C8002DE9F0410E4E8046002406F18807E0B26C
:1017D80000F0030343450ED136F8145037F814309F
:1017E800EB1A002BB8BF5B42052B04DD2946FFF737
:1017F800D1FF27F814500134102CE8D1BDE8F0814E
:101808005016002038B50F4BD3F894501022002101
:1018180041F2D774B4FBF0F42846FFF789FF0120A2
:10182800FFF795FC621ED2B2FE212846FFF780FF23
:101838000120FFF78CFC284680220021BDE83840B3
:1018480076E700BF401600202DE9F041984603795D
:10185800012B0546174622D0022B39D195F90C20C9
:10186800AE680069142353431A4A16F00106D45887
:1018780010D0FFF759FD2046FEF790FE43463A4642
:1018880000212046FEF75CFE2869FFF752FD012083
:10189800BDE8F081FFF748FD41F08001EBE790F9E2
:1018A8000C600D4A182404FB062460780028EFD049
:1018B8006A7B63720023520023750223304622722A
:1018C800A172C4E90387A3701CF06EFB207DDFE7DB
:1018D8000020DDE700000020E87E002073B50479D1
:1018E800022C39D1032390F90C008DF8033004231E
:1018F8008DF80430142343431A4E1B48F3588DF8CF
:1019080002400025012283428DF800508DF8012005
:1019180024D0A0F57840834222D0144A93421BD1A8
:10192800204602AA11441A8811F8084C22F04002F5
:101938001204120C14211A8001FB00601A88016934
:1019480022F0380231F814101204120C0A431A80DB
:101958001A8842F040021A8002B070BD2846E0E7BB
:101968001046DEE70000002000300140003C004047
:1019780010B5427A044632B1036800F10A014068A2
:1019880098470023637210BD064B1B68597A4A1C9E
:101998001944D2B25A728872197A914201D81846FB
:1019A800E6E770471043002010B4447A631C0444EF
:1019B800DBB24372A172027A9A4202D85DF8044BF4
:1019C800D6E75DF8044B704738B5094D441E14F846
:1019D800011F01B938BD2868427A531C0244DBB2A2
:1019E80043729172027A9A42F1D8FFF7C1FFEEE78B
:1019F8001043002008B504460648FFF7E5FF064BEC
:101A08001868FFF7B5FF054B18681DF0F5FA204672
:101A180005F0C2FDAC510308104300201443002018
:101A2800044808B5FFF7D0FF05F0B0FF0020FFF726
:101A3800E1FF00BFB8510308034808B5FFF7C4FF2A
:101A48000120FFF7D7FF00BFBF51030808B50448BE
:101A5800FFF7BAFF034B1868BDE8084088E700BFE6
:101A6800D8510308104300200048ADE7BB580308CD
:101A780008B5FFF7A9FFBDE80840F5E708B509482C
:101A8800FFF7F6FF084B1868FFF772FF074B0024B3
:101A98001C70074B1C60074B1C701DF08BFD20460B
:101AA800FFF7A8FFDD510308104300201C43002066
:101AB80018430020C06D002008B50848FFF7D8FF7C
:101AC8001BF04AFB1BF0DCF918B10548BDE80840DB
:101AD800CEE76420FFF73BFBF4E700BF075203089B
:101AE800125203080048C3E71852030810B5044609
:101AF8000348FFF769FF2046BDE81040B8E700BF7C
:101B0800D8510308124B53F8200070B5E0B1114AC0
:101B1800062303FB002393F90140621C15D01879B2
:101B280090B10D4A0D4E155DDA786421142300201A
:101B380061438C18013B36F814402A442044F8D1FC
:101B48001423B0FBF3F080B270BD0020FCE700BFA7
:101B5800E83A002049270020632A0020682700204F
:101B680038B503200D461446FFF7CCFF07EE100AE0
:101B78008DB1DFED0B7AB8EE477AF0EE006A27EE0A
:101B8800277AF8EE047AE7EE267A9FED067A67EE72
:101B9800877AC5ED007A0CB1034B236038BD00BFCE
:101BA8006740533A00007A443313904330B5084BEA
:101BB80008498B4200D330BD5A88140406D55D68A5
:101BC800DC68C2F30B0200FB025222601433F0E718
:101BD80058870308F08A030870B544880B46054601
:101BE800C4F30B042246002118462EF017FB29697E
:101BF800084A9142034607D3074A914204D2224633
:101C0800BDE870402CF0FAB819B11846BDE870402C
:101C1800084770BDF08A0308648D0308438842684A
:101C280013F4004F1EBFC9B2C3F30B0301FB032219
:101C38001146D1E7064B07498B4202D300231846C9
:101C480070471A88C2F30B029042F8D01433F3E7B6
:101C580058870308F08A0308024A136823EA000039
:101C68001060704710320020024A13681843106051
:101C7800704700BF1032002038B5144C144DAC42E8
:101C880011D30020FFF792FF124811F075FF4FF4AF
:101C98000020FFF7E9FF104B187905F059FEBDE861
:101CA800384025F03BB9B4F90230002B4FF0000161
:101CB800204607DAFFF7B2FF01212046FFF7AEFF03
:101CC80002212046FFF7AAFF1434D8E758870308F3
:101CD800F08A030824520308822F0020F8B504680C
:101CE800C4F30D0405460E4604B32F68FFF7B6F893
:101CF800092840F08780454C236923F44073236109
:101D0800236943F400732361236943F001032361CA
:101D18003E60FFF7A3F82369092823F00103236134
:101D280070D12B6804332B60002034E0384B394ADB
:101D380093422AD902F58042934225D902F580427E
:101D4800934229D902F58042934227D902F580327D
:101D5800934225D902F50032934223D902F5003285
:101D6800934221D902F5003293421FD902F500327D
:101D780093421DD902F5802293421BD9B3F1016F1A
:101D88001AD30520FFF77AFB0824FFF767F809281C
:101D980014D04FF0FF30F8BD1024F6E71824F4E70C
:101DA8002024F2E72824F0E73024EEE73824ECE793
:101DB8004024EAE74824E8E75824E6E7134F3B695C
:101DC80023F440733B613B6943F400733B613B6917
:101DD80023F0F8033B613B6943F002031C433C6179
:101DE8003B6943F480333B61FFF738F83B6923F0E4
:101DF80002033B613B69092823F0F8033B613FF488
:101E080074AFC6E76FF00100C5E700BF003C0240B1
:101E180000000E08FF3F0008F8B504460D468E186E
:101E28000027B542206900D1F8BDE368591CE1607C
:101E3800234415F8012B1A720429F2D118B9A168A4
:101E48002046FFF74BFFC4E90370EAE738B50C46B4
:101E58008D18AC4200D138BD14F8011B1DF09CF858
:101E6800F7E770B501221149114C124E0020FFF717
:101E7800EDFF22884AB1A518B54214D2052A12D915
:101E88002146FFF7E3FF2C46F3E702222146FFF73E
:101E9800DDFF6388084AC31AA41A084A5842A2F800
:101EA800B840584170BD0020FCE700BF00000E0894
:101EB80001000E0800001008FCFF0D084016002065
:101EC80030B50244904201D1002311E010F8013BE3
:101ED800A3F14104192C11F8014BA4F1410598BF55
:101EE8002033192D98BF20341B1B01D1002CE9D1B8
:101EF800184630BD70B5054608460E462AF044FE21
:101F08003146044602462846FFF7DAFF60B92B5DE2
:101F1800A3F13002092A06D923F02003413B192BEB
:101F280001D9601C284470BD0020FCE710B50446A8
:101F38000748FFF749FDFFF79FFE05F027FD054914
:101F48002046FFF7D7FF08B9FFF754FD10BD00BFC3
:101F58002D5203089F57030870B5034610F8012B4C
:101F6800202AFAD0092AF8D02D2A0ABF03460125CB
:101F78004FF0FF35591E00240A2611F8010FFEF70D
:101F8800B5FB0A2802D905FB04F070BD06FB040462
:101F9800F3E770B50D461446FEF771FF0646A0B18B
:101FA800FFF7DAFF40F634039842A8BF1846B0F5A9
:101FB800617FB8BF4FF461701923A0F5617090FB81
:101FC800F3F028702378013323703046FEF757FF6B
:101FD8000646A0B1FFF7C0FF40F634039842A8BFF9
:101FE8001846B0F5617FB8BF4FF461701923A0F5AA
:101FF800617090FBF3F068702378013323703046EA
:1020080070BDB5EEC00ADFED2D7AF1EE10FACCBF47
:1020180030EE270A30EE670ADFED297A20EE270A2C
:1020280030B5FDEEC07A87B017EE904A054684EACF
:10203800E470002303A9A0EBE470CDE90033029318
:1020480019F0C0FB002CACBF20232D2303A88DF86A
:1020580000302AF099FD012822D130238DF8013073
:102068008DF802308DF8033003A968462EF0DEF8AB
:1020780068462AF089FD0338C4B2224669462846D4
:102088002EF00AF900232B550E4928462EF0CEF8DB
:102098000DEB040128462EF0C9F8284607B030BDDC
:1020A800022805D130238DF801308DF80230DBE7A6
:1020B800032804BF30238DF80130D5E76F12033AA7
:1020C80000007A445563030870B50646154608466D
:1020D800B6FBF2F414B12046FFF7F6FF05FB1464D3
:1020E800024B1B5D00F8013B70BD00BF4352030863
:1020F8000A4B2DE90048D3E900BC5BEA0C030AD07F
:10210800074909681BEB01024CF10003C0E90023F1
:102118000120BDE800880020FBE700BFD889002027
:10212800FC5A0020F0B5264E04460F460FCE8DB05F
:102138006D460FC50FCE0FC596E80F0085E80F0056
:1021480014F0030335D1642194FBF1F201FB124230
:1021580042B94FF4C87294FBF2F302FB1343003305
:1021680018BF0123C3F11D0340F26D12019304202F
:10217800631E93FBF0F002FB04046FF0630093FB13
:10218800F0F020444FF4C87493FBF4F3184406307D
:1021980000220721013F5DF822309742184490FB46
:1021A800F1F4C4EBC404A0EB040004D1181A0DB078
:1021B800F0BD0123D6E701320C2AECD10020F6E766
:1021C80028030308F8B514461D4606464FF47A72EC
:1021D8000023204629462BF0B3FA2C4B3C2203441B
:1021E80093FBF2F002FB1031B17190FBF2F102FBAC
:1021F8001102182072714FF4616293FBF2F292FBA4
:10220800F0F100FB112232712149224A93FBF2F2CC
:1022180093FBF1F3980040F2B55392FBF3F103FB03
:102228001123B3F5896F2DDA40F2DA2293422BDCC1
:10223800B3F5B77FB4BF002201221749182707FB5F
:1022480002170B2137F811C09C4501DD0139F9D17E
:1022580000F5FA6010443080481CB0700C2000FB78
:1022680002120E4901EB4202013392F834209B1A04
:10227800F3704FF47A720023204629462BF060FA57
:102288003281F8BD0322D8E70222D6E780BC92C784
:10229800801F8607805101005803030824030308A0
:1022A80037B505466846FFF723FF044638B1DDE930
:1022B80000232846FFF786FF204603B030BD40F2D2
:1022C800011328806B80A880A8712881F4E710B5D5
:1022D8000288C178A2F5FA629308013940F2B55430
:1022E80004FB031381780C24013902F0030204FB78
:1022F80002120C49847901EB42021821928E134490
:10230800027901FB0323427900893C2101FB032365
:10231800054A224401FB03234FF47A720021C2FBD1
:10232800030110BD2403030880436D38D1E900324E
:102338009A4206D05A1C0A6008B11B780370012023
:1023480070470020704710B502681146531C03609F
:1023580011F8024B0160D31C5178036093781B0479
:1023680043EA0123111D0160D078234343EA00604A
:1023780010BD03685A1C02601A4612F8021B02605C
:10238800587841EA00207047D1E900239B1A012BB5
:1023980010B5044605DD0846FFF7EBFF2080012055
:1023A80010BD0020FCE703685A1C026018787047CB
:1023B80038B50446D0E900031B1A9A42154606DCD4
:1023C8002BF01CFD22682A442260012038BD002021
:1023D800FCE738B50446006815462BF00FFD226867
:1023E8002A44226038BD03685A1C026019700368C9
:1023F8005A1C02600A0A1A7003685A1C02600A0C06
:102408001A700368090E5A1C026019707047036835
:102418005A1C026019700368090A5A1C0260197074
:1024280070472DE9F04F89B082468B4615461C4609
:1024380000270DF1140829786E1C51B3252903D003
:102448005046D847013742E069782D2905BFA97859
:10245800EE1CAE1C012518BF0025302906BF3178B7
:10246800012300230293A1F1300308BF0136092B91
:102478004FF0000916D96C2940F0A0803278642A00
:1024880006F1010544D024D8252A7BD014D8002A87
:10249800D1D1384609B0BDE8F08F0A2316F8011BE0
:1024A80003FB09090846FEF721F90A28F5D9002D8A
:1024B800E1D0C9F10009DEE7582A1AD0632ABAD157
:1024C8002E4621785046D847251D01372C463546DB
:1024D800B1E7732A4AD008D8662A56D06E2AAAD1FC
:1024E8002E46236804341F60F1E7752A0AD0782A3B
:1024F800A1D1A2F15800424204F1040643464241E8
:10250800102103E0261D434600220A21206807E027
:102518002068002804F104061ADB434600220A2139
:10252800FEF7F9F83446CDF80080029B4A46594632
:102538005046FEF71EF907447DE7206800280EDBA9
:10254800434600220A210434FEF7E5F83546EAE757
:102558002D238DF8143040420DF11503DEE72D23AD
:102568008DF8143040420DF11503EAE72E46236832
:1025780000934A46002359465046FEF7FAF8251DAF
:102588000744A3E72E4625215AE72E46073424F0B0
:102598000703D3E9000103F108042AF073FF00EEF2
:1025A800100A4046FFF72DFDCDF80080029B4A46F1
:1025B80059465046FEF7DDF8074488E76429BCD041
:1025C8000CD82529DFD003D800293FF462AF7EE775
:1025D800582911D063293FF474AF78E77329C6D01E
:1025E80005D86629D2D06E293FF47BAF6FE77529ED
:1025F8000DD078297FF46BAF58394A424A41206898
:10260800251D43461021FEF786F82C469EE7231D1C
:1026180003932068434600220A21FEF77CF83546DA
:10262800039C80E70FB413B5084C0949206804AB34
:1026380053F8042B0193FFF7F4FE2068FFF798F98D
:1026480002B0BDE8104004B0704700BF104300203E
:10265800B1190008F8B50C4C0C4E0D4F04F5107567
:102668002068FFF7B1F9616811B13046FFF7DAFF6A
:10267800A16811B13846FFF7D5FF1034FFF7F4F918
:10268800AC42EDD1F8BD00BF083403086852030816
:102698006E52030810B5074C0B46024606492068DF
:1026A800FFF7BFFE2068FFF763F9BDE81040FFF7AA
:1026B800DBB900BF10430020B11900080FB407B5FB
:1026C80004A951F8040B0191FFF7E4FF03B05DF88A
:1026D80004EB04B070472DE9F3471948194C1A4D1B
:1026E8001A4FDFF86C80FFF7E9FF04F54076A3790D
:1026F800E27994F808A005EB820205EB83032046F3
:10270800D2F81891D3F89430FEF709FF00F141018F
:102718002046FEF7FAFE0246BAF1000F0AD0CDE9CC
:1027280000A94046FFF7CAFF0C34A642DFD102B029
:10273800BDE8F087CDF800903846FFF7BFFFF3E714
:1027480074520308F81D002024030308A05203084C
:1027580090520308F8B51048104D114E114FFFF76D
:10276800ADFF002474B9104BD3F8BC306FF00302EE
:102778005A4312F580620BD055F824103046FFF703
:102788009DFF03E057F82420002AF5D1202C01D022
:102798000134E7E7F8BD00BFAE520308B8030308E9
:1027A800C452030800170020401600201FB5074B2D
:1027B8000293074B0193074B0093074A074B0849BD
:1027C8000848FFF77BFF05B05DF804FBFA520308E1
:1027D800025303080B530308D8520308D2520308C4
:1027E800DD520308E25203082DE9F04F5348544DD7
:1027F8008DB0FFF763FF0026B046B146514B1A680B
:102808000023934223DB0136182E05F14805F5D144
:102818004D49D1E9020240090C68096940EAC262DF
:102828004FF47A734948B4FBF3F3FFF747FF0A22E2
:1028380098FBF2F302FB138099FBF2F1009002FB84
:1028480011924348FFF73AFF0DB0BDE8F08F4149B8
:1028580051F823108D4201D00133D2E7AC6A5CB144
:1028680007EE904ADFED3C6AF8EEE77A86EEA77A43
:10287800FDEEC77A17EE904AD5E90C727F0947EA50
:10288800C2675209D5E90EA30B922146E217CDE99A
:102898000812099A63430AFB0233A4FB0A0141F2B6
:1028A800883B1BEB000B19444FF0000C4CEB010C60
:1028B8004FF47A720023584661462AF091FF0B9B29
:1028C800099A0A90634307FB0233A4FB070141F20C
:1028D800883B1BEB000B19444FF0000C4CEB010C30
:1028E80000234FF47A72584661462AF079FF062E83
:1028F80018BF0A9B0A9918BF99444FF47A722B6C37
:10290800B3FBF2F306934FF00A0318BF804490FB21
:10291800F3F203FB1200CDE904200A9A92FBF3F2CA
:1029280003FB1213CDE90223CDE900A723462A6849
:102938000A483146FFF7C2FE65E700BF1753030890
:10294800E00E0020DC020010000000109353030882
:10295800B5530308E0020010002474495E530308CD
:1029680010B50C4C03461846FDF70AFC30B10A4B6B
:102978000A485979BDE8104001319FE61846FFF72B
:10298800EBFA0138022804D8C0B205F04FF9234603
:10299800E9E710BD306E0308822F0020E3530308D7
:1029A80010B50C4C03461846FDF7EAFB30B10A4B4C
:1029B8000A481979BDE8104001317FE61846FFF74B
:1029C800CBFA0138022804D8C0B205F03EF92346F4
:1029D800E9E710BD306E0308822F0020EB5303088F
:1029E80038B50346FDF7CCFB90B3224BD3F88430BF
:1029F8000133172B22D820490C2202FB03121C4654
:102A080095684DB91C4A0C210134172C18DD002497
:102A180001FB04208568A5B1164BC3F884401CF05F
:102A2800CBFB2A4621461548FFF748FE0C235C439A
:102A3800114B185DBDE838401CF0D4BB1C46E1E7DB
:102A4800E6D99C42E0D10E48BDE83840FFF710B8FF
:102A58001846FFF781FA1728044606D8064A0C23B9
:102A680003FB00239D68002DD6D121460548BDE80B
:102A7800384023E600000020D0390308205403081A
:102A8800F65303080A540308F7B50346FDF778FB25
:102A9800044618B1FFF726F803B0F0BD01AA1D4996
:102AA8001C4F18462BF03EFB2646254640B90B2DF9
:102AB80018D919490B2302461848FFF7FFFDEBE721
:102AC80044B1012C0AD001AA3946002001342BF068
:102AD80029FBEBE7FFF740FA0546F4E7FFF73CFA76
:102AE8000646F0E7022C0DD1A6F57A73B3F57A7F86
:102AF80005D94FF4FA634FF47A720949DCE7094BB8
:102B080023F81560074B084833F915202946FFF7C5
:102B1800D5FDC1E76D560308355403083B54030837
:102B28001E700308FE810020585403082DE9F34164
:102B380004462AF029F804283DD1631E2546E11CE5
:102B480013F8012FA2F16100192898BF203A8B428F
:102B58001A70F5D1DFF87080271D15F8016B404613
:102B680031462DF072FB20B1314628462DF06DFB21
:102B780020B1FEF7B7FF02B0BDE8F081BD42ECD14D
:102B8800204610F0F9FF0E480E4CFEF71DFF0E48C8
:102B980000231A1902A952780A44195C02F8081C81
:102BA8000133042BF5D10023694608488DF8043019
:102BB800FFF784FDDFE70028E5D0FEF793FFE2E7A3
:102BC80065540308A05B0020721C030871520308B7
:102BD8002DE9F74F804629F0D7FF474DDFF844919C
:102BE8002F680446F0B94548454EFFF71BFD0125FF
:102BF80019F80430013B05FA03F33B4209EB0402E0
:102C080003D091683046FFF70DFD0C34B4F5847F8E
:102C1800EED117B93B48FEF7D7FE03B0BDE8F04F39
:102C2800FEF722BF024638494046FFF749F90646F3
:102C380070B93648324DFEF7C7FE09EB0603284641
:102C480099680C36FFF7EEFCB6F5907FF5D1E4E70E
:102C580098F800302D2B03BF08F1010804F1FF3468
:102C68004FF0010A4FF0000A00260C2303FB069BD5
:102C78000193DBF808300093194622464046FFF7D7
:102C88001FF9019B00282ED1BAF1000F18D0162E7B
:102C98000AD11F4B2B601F48FEF796FE00991E486D
:102CA80003B0BDE8F04F09E5172E01D16B68F1E7D5
:102CB8009BF800305A1E012393401F432F60EAE718
:102CC800162E03D1C5F800A01448E5E7172E17BF44
:102CD8009BF800306F6003F1FF3201231EBF934061
:102CE8009F432F60F0E70136182EBFD10C4803B080
:102CF800BDE8F04FFEF7BCBE848000206B5403088B
:102D08007C54030875540308815403088654030847
:102D1800FFFF3F009E5403087D540308A75403088F
:102D280091540308D03903082DE9F843054629F0E2
:102D38002BFF0446D0B9304B30481D68304EDFF8C1
:102D4800D080FEF741FE012756F8241051B10B78C8
:102D580033B107FA04F32B4202D04046FFF762FC76
:102D68000134F1E7BDE8F843FEF77EBE0246254987
:102D78002846FFF7A5F878B92348244C244DFEF7D8
:102D880023FE54F8041F0029ECD00B78002BF8D050
:102D98002846FFF747FCF4E72B78DFF864902D2BE3
:102DA80003BF013504F1FF344FF001084FF000086C
:102DB800002659F8267027B91648BDE8F843FEF7EB
:102DC80057BE224639462846FFF77AF890B90120BF
:102DD800B040B8F1000F09D0FEF73EFF0E48FEF7ED
:102DE800F3FD39460D48BDE8F84367E4FEF73CFFBC
:102DF8000B48F4E70136DCE710320020AF54030833
:102E08008C04030881540308BD540308880403088C
:102E1800B9540308915403089E5403087D540308C9
:102E2800A75403082DE9FF410A48048885684688A5
:102E38008788D0F80C801AF003F80097CDE9018054
:102E480033462A4621460448FFF738FC04B0BDE85B
:102E5800F08100BFE8020020C95403082DE9F347B8
:102E6800204E21483768214CDFF89080DFF88490A5
:102E7800DFF88CA0FEF7FCFD0025BD4202DB02B0A6
:102E8800BDE8F08733689D4229DCA288D3B2162BAF
:102E980018D808EB8303D3F8EC31002B08BF4B4656
:102EA80021685046FFF7BEFBE3885A040CD5E08939
:102EB8000090A389628921890D48FFF7FFFB01353E
:102EC8001034DAE70B4BEBE71B0405D5D4E9021203
:102ED8000948FFF7F3FBF2E7FEF7C6FDEFE700232B
:102EE8009B88FFDEF824002024550308F8200020E2
:102EF8005F550308306E030871550308240303085F
:102F080050550308F8B5447914F0C003054602D0BB
:102F1800402B17D0F8BD1DF0F1FB04F00F04062C70
:102F2800064605D10146BDE8F8401648FFF7C6BB7E
:102F380028461DF00FFC32460146BDE8F84012480D
:102F4800FFF7BCBB83791148114E124F212B96BF56
:102F5800114D002505EBC305FEF736FD00242B793E
:102F68009C4203D3BDE8F840FEF77EBD14B130465D
:102F7800FEF72AFD2B68384653F82410FFF752FB5A
:102F88000134ECE77B5503088B550308A255030869
:102F9800B25503087D540308203B030870B54379F4
:102FA800164603F00F028AB00546062A4CD8DFE819
:102FB80002F0041316181B1D49000C7813F0C00307
:102FC80044D0402B3CD1214628461DF07FFB0028E9
:102FD80056D0FFF727FB33E091F90040EEE70C8865
:102FE800ECE7B1F90040E9E70C68E7E791ED000A82
:102FF80001A8FFF706F801462648FFF713FBFEB1C4
:103008006B7913F0C00F1BD128461DF0A3FB07EE08
:10301800900A01A8B8EEE70AFEF7F3FF01461E483A
:10302800FFF700FB28461DF069FB07EE900A01A890
:10303800B8EE670AFEF7E5FF01461748FFF7F2FA10
:103048000AB070BD1348F9E70024B7E7042A0CBF9B
:10305800124813482146FFF7E5FA002EF0D06B79A5
:1030680013F0C00FECD128461DF074FB0446284627
:103078001DF044FB214602460A48FFF7D3FADFE772
:1030880001A928461DF04CFC01AA21460648FFF775
:1030980015FBD5E7715203087D5403089F550308B3
:1030A80097810308B4550308BB55030838B50D4686
:1030B80004461DF0ABFB2A4601462046BDE83840D1
:1030C8006CE72DE9F0430024DFF85C80DFF85C90C2
:1030D8008BB00746264604EBC405454401A928469B
:1030E8001DF01EFC394601A82DF0FDF878B101A9A4
:1030F8004846FFF797FA00212846FFF7D7FFFEF763
:10310800B3FC2846FFF7FEFEFEF7AEFC013601349D
:10311800B4F5A77FDFD116B90248FEF7A9FC0BB0BA
:10312800BDE8F083915403084410030817560308B8
:103138002DE9F0472DED028B8AB0074629F024FDD2
:10314800064620B1012823D13B782A2B20D1884874
:10315800DFF83C82874FFEF78BFC002404EBC405A4
:10316800454401A928461DF0DBFB01A93846FFF7B5
:1031780059FA013431462846FFF798FFFEF774FCE8
:10318800B4F5A77FEAD10AB0BDEC028BBDE8F087A1
:103198003D2138462DF059F8002800F0E480034618
:1031A80013F8012C202A03F1FF312DD0DB1B441C1E
:1031B8002278202A04F1010128D0DFF8D4A14FF0A9
:1031C8000008DEB208EBC805554401A928461DF0E1
:1031D800A7FB01A829F0D8FC01A981460246384678
:1031E800FEF76EFEA0B9B14512D16B7903F00F0856
:1031F800B8F1060F15D1204629F0C6FC2146024633
:1032080028461DF010FBBEE70B46C9E70C46CFE782
:1032180008F10108B8F5A77FD4D15748FEF728FC74
:10322800B1E713F0C0030AD0402B5ED05348FEF735
:10323800CBFB2846FFF766FEFEF716FCA3E72378CC
:10324800002BF3D04E4920462DF03BF80646204689
:1032580029F09AFC8642E9D12046FDF7BBF92846B9
:10326800B0EE408A1DF076FA07EE900AF8EEE77A9B
:10327800F4EEC87AF1EE10FAD8D828461DF03EFAD6
:1032880007EE900AF8EE677AF4EEC87AF1EE10FAD3
:10329800CCDBB8F1050F17D0B8F1040F1FD12146C8
:1032A80014F8013B202BFAD0092BF8D00139002360
:1032B8000A2011F8012F303AD2B2092A02D800FBAD
:1032C8000323F6E708EE103A28461DF09FFAB8F1F6
:1032D800050F35D8DFE808F031313D3D414420463F
:1032E800FEF73AFE08EE100AEEE7AB799FED258A65
:1032F800212B96BF244E064606EBC306002796F8F8
:1033080004A03B46B946BA4500D91BB1B9F1000F34
:103318008CD0D9E733686FF0004253F82700214674
:10332800FEF7CEFD002808BF08EE107A0ABF012379
:1033380000234FF001090137E5E718EE103A037052
:1033480001A91248FFF76EF900212846FFF7AEFEE3
:1033580019E718EE103A0380F2E780ED008AEFE7EC
:1033680080ED008AECE73846FFF7ABFE0BE700BFBD
:10337800D855030817560308915403080356030841
:10338800EA55030800000000203B0308F85503082D
:10339800441003082DE9F04F81468DB08846002679
:1033A800464BF418464B1868FEF7E2FA94F805B055
:1033B8000BF030034B4549D120461DF005FAFEF7C6
:1033C80039FC054620461DF0D5F9AA680192171860
:1033D800824620461DF01AFA0BF00F010546019AA5
:1033E800062968D8DFE801F0043A3F43484C5A0000
:1033F80012F80A200378D31AD3F1000A4AEB030A19
:1034080018F0200F02D0BAF1000F1FD103A92046EF
:103418001DF086FA18F0400F0DD0BAF1000F0AD14E
:1034280003A92848FFF7FEF8524629462046FFF729
:10343800B5FDFEF719FB03A92348FFF7F3F80022AF
:1034480039462046FFF7AAFDFEF70EFB093640F67F
:10345800BE339E42A4D10DB0BDE8F08F12F90A2008
:1034680090F90030C7E732F80A200388C3E732F939
:103478000A20B0F90030BEE752F80A200368BAE71C
:1034880097ED007AD0ED007AB4EE677AF1EE10FA93
:103498000CBF4FF0010A4FF0000AB1E720461DF0BB
:1034A8002DF92946421C38462CF0E4FEB0FA80FA81
:1034B8004FEA5A1AA4E74FF0000AA1E7441003089C
:1034C800104300201256030813560308022810B5AB
:1034D8000C460FD804F024FA0748FEF707FB074B01
:1034E800074859790131FFF7E9F821463020BDE84E
:1034F80010404FE710BD00BF1D560308822F002063
:103508002D560308022810B50C4613D804F020FAEB
:103518000948FEF7EBFA094B094819790131FFF719
:10352800CDF821461020FFF735FF21462020BDE8C1
:1035380010402FE710BD00BFEC700308822F002059
:10354800355603080CB407B510F0400009D069B926
:103558002320FEF719FA05A904980191FFF79AF8B4
:10356800012003B05DF804EB02B070470020F8E7D3
:103578000CB4830607B500D551B905A90498019183
:10358800FFF788F8012003B05DF804EB02B070473C
:103598000020F8E72DE9F04F824687B091460E46A5
:1035A80015460027337896F90280049373780593BB
:1035B80096F803B0B8F1000F32D0B9F1000F34D04B
:1035C8002B78049C6A7895F90210E8789C422AD1F5
:1035D800059C944227D1884525D1ABEB000CDCF142
:1035E800000444EB0C04CDE90210CDE90032214679
:1035F8003B460F4A5046FFF7A5FF059B0193049BE6
:103608000093CDE9028B3B46094A214650460137D3
:10361800FFF7AEFF102F06F1040605F10405C1D12E
:1036280007B0BDE8F08F0024DDE74C46E5E700BFB2
:10363800425603082DE9F0478AB0054629F0A4FA56
:10364800C2B232B969490120FFF7A4FF0AB0BDE848
:10365800F087052266492846FEF732FC88B915200E
:10366800FEF7E8FA10B16149FEF7B6FA614B00229D
:103678001A60DA609A615A621A63DA639A645A6560
:10368800E4E707225C492846FEF71AFC04460028AE
:1036980075D1202128462CF0D8FD064629F074FA69
:1036A800C5B285BB5548FEF7BDFF2C46544D214693
:1036B80028460134FEF7B6FF172CF8D1FEF7D4F9E7
:1036C8004C4EDFF84C914F4FDFF8488100242146DB
:1036D8004846FEF7A7FFDFF840A10025326801231E
:1036E800AB40134214BF3946414650460135FEF7F8
:1036F80099FF172DF2D10134FEF7B6F9082C06F11F
:103708000C06E4D1A2E7304601AA3F493E4E2AF012
:1037180009FD02AD00283DD0022C15D1029A072AD6
:103728002AD80399162927D80378722B17D06E2B1D
:1037380022D10C2353432F48012202FA01F1C25827
:1037480022EA0102C25013E0FEF706FC01AA45F87E
:103758002400314600202AF0E5FC0134DAE70C2386
:10376800244C5343012000FA01F1E0580843E0508B
:103778002148FFF75FFF69E7FEF7B4F9F8E7284645
:1037880001AA2149204E2AF0CDFC002402AD78B1CF
:10379800052C02D1FEF7A6F958E7FEF7DDFB01AAD2
:1037A80045F82400314600202AF0BCFC0134EEE73D
:1037B800052CEFD1029A0F2AECD8039D072DE9D8E2
:1037C800049C162CE6D8059800F17D03FA2BE1D865
:1037D8000699FF29DED8054B03F8225003EB820334
:1037E80098705C70D9700948C3E700BFE580002075
:1037F80056560308288100205C56030872520308B5
:1038080064560308975603086D560308306E03087C
:103818009781030831790308695603082DE9F04FA9
:10382800DFF8FCB085B08046894617460E46154637
:103838004FF0000A002F6ED072686B689A4268D108
:10384800B468AB6824F07F4423F07F43E31A5C42FA
:103858005C4195F90A300393B5F908300293B5F93C
:1038680006300193B5F9043000935A465346214671
:103878004046FFF767FE96F90A300393B6F9083019
:103888000293B6F906300193B6F9043000935A460C
:103898005346214640460AF1010AFFF769FEBAF18C
:1038A800080F06F10C0605F10C05C3D177B3002407
:1038B80026460025012303FA05FA3A5959F8043037
:1038C80053403AEA030314BF4FF0010B4FF0000BCB
:1038D80012EA0A0F06D000953346104A5946404668
:1038E800FFF730FE59F804301AEA030F06D00095A6
:1038F80033460A4A59464046FFF73AFE0135172D26
:10390800D8D10136082E04F10C04D2D105B0BDE897
:10391800F08F00249DE73C46ADE700BF84560308BE
:103928006F5603087FB50546FCF72AFC002858D0D7
:103938002D490022012004B0BDE870406EE72D2B10
:1039480003D0A3F13002092A46D8042C04DD04B0C0
:10395800BDE87040FEF7C6B82846FEF7FDFA04AB8E
:10396800621C03EB440424F80C0C15F8013F303BAF
:10397800092BFAD914462B78002BE0D1052CE6D177
:10398800BDF904309AB2072AE1D8BDF90600A0F2C1
:10399800EE2292B240F2DC54A242D8D8BDF9081007
:1039A800A1F2EE2292B2A242D1D8BDF90A209042E9
:1039B800CDDC9142CBDBBDF90C5005F17D04A4B2FE
:1039C800FA2CC4D8084C0C2606FB03439880D980EF
:1039D8001A819D7204B070BD202BB8D101352246E2
:1039E800C8E70446C7E700BF288100202DE9F04F4B
:1039F800804685B00E461546894692460027002423
:103A080009EB040393F8C0300393002D48D00AEB68
:103A18000403039A93F8C030D11AD1F1000B4BEB91
:103A2800010BCDE90043204A3B4659464046FFF783
:103A380089FD039B1C4ACDE9004359463B46404655
:103A48000134FFF795FD062CDAD10137062F09F16D
:103A580006090AF1060AD2D106F1E40A124E002438
:103A68001AF8019BF5B12B19404693F8E430A9EBFD
:103A7800030257425741CDE90043324606233946EF
:103A8800FFF760FDCDE90049062332463946404636
:103A98000134FFF76DFD0B2CE2D105B0BDE8F08FC6
:103AA800AB46C6E72F46EDE7995603087FB50346B0
:103AB800FCF766FB044630B100221F490120FFF7DE
:103AC80095FF04B070BD6A461C491C4E18462AF082
:103AD80029FB01ADC0B1032C02D1FEF703F8F0E7D2
:103AE800FEF73AFA6A4645F82400314600202AF0E3
:103AF80019FB0134EEE70628EFD10A2AEDD80E4863
:103B0800104480F8E43012E0032CE6D1039B0F2B1D
:103B1800E3D8DDE90112C8B20528ECD8052ADCD8BB
:103B2800054C062505FB0040104480F8C0300448C9
:103B3800FEF7C4FDC5E700BFE48600206D56030804
:103B4800995603082DE9FF47DFF86CA08146904697
:103B58000E4615460027B8F1000F2AD02B88328868
:103B68009A4224D174886A88A21A54425441EA7845
:103B78000292AA782146CDE9003248463B46524691
:103B8800FFF7E0FCF3780293B378019336F8043B2F
:103B9800009352463B46214648460137FFF7E8FC6A
:103BA800102F05F10405D6D104B0BDE8F087002434
:103BB800DDE74446E6E700BFAD5603082DE9F041CE
:103BC8000646FCF7DDFA044628B100222449012004
:103BD800BDE8F041B6E73046FEF7BEF90F280546C6
:103BE8002EDC3046FDF74BF9DFF884801D4F064682
:103BF80020353046FEF7B0F938F81430984227DC03
:103C0800012C11D0022C13D027F8250030462C2186
:103C18002CF01BFB064678B1013601230134BBB1F9
:103C2800032CE6D1BDE8F08107EB85039870EDE73A
:103C380007EB8503D870E9E7A21E53425341EDE72D
:103C480022460F2308490948BDE8F041FEF736BD72
:103C5800002347F82530BDE8F041FDF743BF00BF1A
:103C680064870020E4860020355403083B54030889
:103C78006C0503082DE9F04FDFF868808FB0074620
:103C88008A46164600240DF124095AF82430029376
:103C9800494602A817F0BCFF16B356F82430029D17
:103CA8000393EB1A5D420DF1100B5D41594603A8D1
:103CB80017F0AEFFCDF800B02346424629463846F5
:103CC800FFF740FC2346CDF8009042462946384687
:103CD8000134FFF74DFC202CD7D10FB0BDE8F08F91
:103CE8003546EFE7BF5603082DE9F04F87B0054684
:103CF800FCF746FA044638B1002263490120FFF771
:103D0800B9FF07B0BDE8F08F2846FEF725F91F2850
:103D1800074600F3B1802846FDF7B1F85A4B0094E6
:103D280043F82740834625462646A046A146A24694
:103D38000193564BE1B2E05C0DF10C0E0023DC461A
:103D48001BF8012B1AB1904211D00A2B0BD10DF19F
:103D5800180E734490424FF0000E03F80CEC08D094
:103D6800FDF7C0FECDE703F80E200133E7E7024672
:103D7800EDE701390CF1010B03293FD8DFE801F029
:103D88005A2602730DF10B014FF0010E11F8013F95
:103D9800C3B300223E4810F802C09C4503D001324C
:103DA800072AF7D14A46542B53D04F2B53D0422BD6
:103DB80053D04E2B53D0492B53D0572B04D1052326
:103DC8000EFA03F348EA03089146DFE70DF10B0208
:103DD800012112F8013FABB14E2B30D0452B30D02A
:103DE800532B30D0572B30D0552B30D0442BF0D11B
:103DF800052301FA03F34AEA030AEAE703A8FEF7F0
:103E0800ABF806460134052C93D1009B05F00F054D
:103E180045EA834545EA8A5A4AEA0929360149EAC0
:103E28000838019BF6B248EA060643F8276023F0F3
:103E380075F866E703A8FEF78FF80546E2E7002362
:103E4800D7E70123D5E70223D3E70323D1E70423E8
:103E5800CFE70023B4E70123B2E70223B0E7032347
:103E6800AEE70423ACE703A8FEF776F803460F286D
:103E7800C8BF00230093C5E71F232246054906480B
:103E8800FEF71CFC3DE700BFE4860020720503082E
:103E980066370308355403083B5403082DE9F347F4
:103EA800DFF868A081460F46904602260024B8F144
:103EB800000F28D038F8243037F8241038F80620B6
:103EC80099421ED1BD5BA91A4D424D41CDE9003240
:103ED8002946234652464846FFF734FBBB5B01930D
:103EE80037F8243000935246234629464846013481
:103EF800FFF73EFB042C06F10406D8D102B0BDE85A
:103F0800F0870025E2E74546E8E700BFC956030801
:103F18002DE9F0410546FCF733F9064628B10022A1
:103F280027490120BDE8F041B8E76FF00042254974
:103F38002846FDF7C5FF70B9214B4FF47A714FF44D
:103F4800FA6219805A809980DA8019815A81998198
:103F5800DA81BDE8F0812846FDF7FEFF0328044614
:103F680026D82846FCF78BFF064670B1FDF7F4FF0C
:103F7800012507463046FCF782FF10B1FDF7ECFF3C
:103F88002DB9BDE8F041FDF7ADBD0546F2E7A7F252
:103F9800EE2240F2DC539A42F3D8A0F2EE229A4283
:103FA800EFD8074B23F8247003EB84035880D0E73D
:103FB8003246032304490548BDE8F041FEF77EBBBD
:103FC800CA3B002056560308DA5603083B54030838
:103FD8002DE9F04F2DED088BDFF80C9197B0804656
:103FE80092460D461446002695ED008AB5EE408AA5
:103FF800F1EE10FA70D0D5ED019A95ED029AD5ED53
:10400800038ABAF1000F3ED094ED000A94ED01BA8C
:10401800D4ED02AA94ED03AAB4EE408AF1EE10FAA8
:104028005FD1F4EE4B9AF1EE10FA5AD1B4EE6A9AD7
:10403800F1EE10FA55D1F4EE4A8AF1EE10FA0CBFFF
:104048000127002712A8FDF7DCFFB0EE4B0A8346D4
:104058000EA8FDF7D6FFB0EE6A0A05900AA8FDF78C
:10406800D0FFB0EE4A0A049006A8FDF7CAFF059BE8
:10407800049A03900292CDE900B34A463346394682
:104088004046FFF75FFAB0EE480A12A8FDF7B9FFFD
:10409800B0EE690A07460EA8FDF7B3FFB0EE490A6D
:1040A80083460AA8FDF7ADFFB0EE680A049006A89B
:1040B800FDF7A7FF049B0390CDE901B300973346B2
:1040C8004A46002140460136FFF752FA0C2E05F108
:1040D800100504F1100487D117B0BDEC088BBDE8BA
:1040E800F08F0027AEE700BFE256030870B504461C
:1040F800FCF746F8064628B100222E490120BDE803
:10410800704065E705222C492046FDF7D9FE40B9E5
:104118002849002201EB001301300C281A60F9D15C
:1041280070BD2046FDF718FF0B2805463AD82046F3
:10413800FCF7A5FE064648B3FCF74CFA1D4B03EB0B
:10414800051383ED000A01243046FCF798FE064665
:1041580038B1FCF73FFA174B03EB051383ED010A5F
:1041680001343046FCF78BFE064638B1FCF732FACC
:10417800104B03EB051383ED020A01343046FCF7BC
:104188007EFE28B9BDE87040FDF7ACBC0446DBE70D
:10419800FCF720FA074B032C03EB051585ED030A02
:1041A800AAD0EFE732460B2304490548BDE8704022
:1041B800FEF784BAD88300205656030835540308FE
:1041C8003B5403082DE9F04F834687B092460C46CE
:1041D800164600274FF019094FF46178BAF1000F1D
:1041E8004DD0B078A5783378727896F803C096F8F1
:1041F80004E07179854240D125789D423DD16578AA
:1042080095423AD1E578654537D12579754534D158
:1042180065798D4214BF0025012519FB028219FB1F
:104228000383CDE9010303920091CDE904CE3B4617
:10423800144A29465846FFF785F923790593E37808
:10424800049363780F4A19FB03830393237819FBBC
:1042580003830293A37801936379009329463B462D
:1042680058460137FFF784F90C2F04F1060406F1CC
:104278000606B3D107B0BDE8F08F0025CDE7554657
:10428800DBE700BFF65603082DE9F7438146FBF745
:1042980077FF064638B1002237490120FFF792FF21
:1042A80003B0BDE8F0834846FDF756FE0B280446E8
:1042B8005BDC0625454309F101008DF80760FCF732
:1042C800DEFDDFF8B480814605EB0807464638B1C5
:1042D800FDF742FE03289EBF012378718DF8073051
:1042E8004846FCF7CCFD814660B1FDF735FE0D2848
:1042F80008D8062303FB046398709DF80730013340
:104308008DF807300DF1070239464846FDF741FEA2
:10431800FCF7B5FD814660B1FDF71EFE302808D8D0
:104328009DF80730062202FB04620133D0708DF835
:1043380007304846FCF7A3FD60B1FDF70DFE0D28D8
:1043480008D89DF80730062202FB04640133207167
:104358008DF807309DF80730062BA1D0002345F8CB
:104368000830BB80FDF7BEFB9AE70B2332460349B2
:104378000348FEF7A3F993E78E830020355403081A
:104388003B5403082DE9F04F374FDFF8E4A089B01C
:10439800814690460C46164602F1200B94F90250CD
:1043A80000230C2202FB03F130480956A94256D0DB
:1043B8000133042BF6D108365E4504F10804EDD12B
:1043C80009B0BDE8F08F96F9023007939D42328814
:1043D800F178307996F806C096F805E03DD1258841
:1043E80095423AD1E5788D4237D12579854234D145
:1043F800A579654531D16579A5EB0E035D425D412F
:1044080057F82E3057F8211057F82000049357F822
:104418002C300393CDE900210290079B5246294690
:104428004846FFF78FF8627994F9023057F822204E
:104438000492A27957F822200392227957F8222071
:104448000292E27857F822200192228800922946A7
:1044580052464846FFF78CF8ADE70025D0E7B8F19B
:10446800000FB0D14546DEE7984A03087C5C00207F
:10447800145703082DE9F3410346FBF781FE30B1D9
:1044880035490022012002B0BDE8F0417AE7CDE9C4
:10449800000018465D1CFDF75FFD44B220461AF087
:1044A80021FE064600283CD08DF80240012428460B
:1044B800FCF7E5FC074628B1FDF74EFD0134ADF8E1
:1044C8000000E4B2DFF8948000253846FCF7D7FCFA
:1044D8000746F8B1FDF740FD002258F8221088423F
:1044E800D3B203D00132112AF7D1002358F8232080
:1044F80090420FD1022D1CD0032D1FD0012D12D0B8
:104508005A1E0F2A03D88DF803300134E4B201355E
:10451800042DDAD1052C17D802B0BDE8F041FDF71B
:10452800E1BA0446C3E71A1F042AF0D88DF804300C
:10453800EBE7082BEBD88DF80630E6E75A1F052A7B
:10454800E5D88DF80530E0E76B4603CB3060716045
:1045580002B0BDE8F08100BF5A5C0020984A030809
:104568002DE9F04F834685B092460D461646002742
:104578004FF019094FF46178BAF1000F3ED0327844
:104588002C787178B378F078944235D16C788C4275
:1045980032D1AC789C422FD1EC78A4EB000CDCF142
:1045A800000444EB0C0419FB008019FB0383CDE9DC
:1045B8000113039000923B46114A21465846FEF7E4
:1045C800C1FFEB780E4A19FB03830393AB7819FB01
:1045D800038302936B78019315F8043B00932146FB
:1045E8003B4658460137FEF7C3FF142F06F1040671
:1045F800C2D105B0BDE8F08F0024D4E75446E0E707
:10460800315703082DE9F04F0F468DB07A49064619
:10461800FDF770FC0546002840F0AC80774930462D
:10462800FDF768FC0546002840F0A680744930462E
:10463800FDF760FC0546002840F0A080714930462F
:10464800FDF758FC002805460ABF0124102435460A
:104658000FB144F020046C4B6C4E93F8049093F81F
:1046680005806B4F0193BE42C0F08A80FDF704FBC2
:10467800484603F06DF9404603F052F9654928466B
:10468800FDF738FC08B144F0400414F0110F00F0B5
:10469800C7816148FDF72AFA0020FEF787F804F081
:1046A8003003302B02D15D48FDF720FA5C4D5D48A0
:1046B800DFF8A8A1DFF8A8B1FDF718FA5A48FDF706
:1046C80015FAD5ED007A594AF5EE407AF1EE10FA6E
:1046D8000CBF012100212046FEF74AFF2A46544913
:1046E800544D2046FFF774FC5348FDF7FFF995F940
:1046F8000210524AB1FA81F149092046FEF738FF03
:104708002A464F492046FEF745FF4E48FDF7EEF989
:104718004D4A4E492046FFF781F84D48FDF7E6F926
:104728004C4B1E684C4B1F684FF000085AF8285035
:104738009DB32B78DBB14FF0010909FA08F967EA54
:10474800060313EA090F14BF012100212B465A461C
:104758002046FEF7F7FE66EA070313EA090F5A46F2
:104768002B4614BF012100212046FEF701FF08F166
:104778000108DBE701246BE7022469E7042467E703
:104788007388C3F30B021B04D6E9011048BF02EB80
:10479800420229F033FB143665E7DFF8C8A0A846C3
:1047A80067EA060B2D4B53F82850002D5CD02B7868
:1047B800FBB14FF0010909FA08F917EA090F0BD004
:1047C80066EA070313EA090F52462B4614BF012174
:1047D80000212046FEF7B6FE16EA090F09D01BEAAB
:1047E800090F2B46524614BF012100212046FEF72F
:1047F800BFFE08F10108D5E759570308EC70030814
:104808001D560308A57E0308822F00205887030839
:10481800F08A030860570308A27203086D5703085B
:10482800D88300203271030818720308A8570308B8
:10483800BC840020E5800020B7570308C15703084F
:1048480094860020CE570308288100203486002053
:10485800D4570308F83C0020103200208C040308C9
:10486800DC570308E85703088448DFF89C92DFF810
:104878009C82FDF73BF9824B1E68824B1B68734094
:10488800DB4303934FF0010B039A0BFA05F31A422B
:1048980018BF5F467C4A08BF0027334002934FF099
:1048A8000C0303FB05233946D3F808A00CBF4A467E
:1048B800424653462046FEF745FE029A5346002AD2
:1048C80014BF4A464246394620465D44FEF750FE2C
:1048D800162DD7D16D486E4E6E4FFDF707F90023A0
:1048E8006D48089304935D460BEB06021BF80030F5
:1048F80012F8011C0CAA1A440DF1300C02F8201C05
:104908001BF8072094440CF8101C2DB1A3EB020CE3
:10491800DCF1000545EB0C050BF1010BBBF1050FB4
:10492800E2D1002608AB5D4A8DF81460294620467E
:10493800FEF708FE04AB594A29462046FEF718FE42
:104948005748FDF7D3F8574A57492046FFF71AFD4D
:104958005648FDF7CBF8564A56492046FFF78AF9DC
:104968005548FDF7C3F8554A55492046FFF7EAF878
:104978005448FDF7BBF84E4A4E492046FFF736F833
:104988005148FDF7B3F8514A51492046FFF7E8FD71
:104998005048FDF7ABF8504A50492046FFF712FC43
:1049A8004F48FDF7A3F84F4A4F492046FFF776FADC
:1049B8004E48FDF79BF830462146FEF7EBFCE00633
:1049C80043D5019B214630461F795D79FEF79AFD54
:1049D80021460120FEF796FD21460220FEF792FDB2
:1049E80021463046FEF772FD21460120FEF76EFD96
:1049F80021460220FEF76AFD384602F0A9FF284644
:104A080002F08EFF3A48FDF771F8791C3948FDF736
:104A180055FE3948691CFDF751FE3848FDF766F820
:104A2800A10704D5019B21461879FEF76BFD6207A3
:104A380004D5019B21465879FEF748FD304C314B8F
:104A48009C420DD30DB0BDE8F08F019B214618792B
:104A5800FEF758FD019B21465879FEF737FDDFE741
:104A68006388C3F30B021B04D4E9010148BF02EBBE
:104A7800420229F0C3F91434E1E700BF9F6E03082E
:104A8800D486002084800020D0390308F357030817
:104A9800721C0308A05B002004800020F75703085D
:104AA800D57103085A5C0020E07F0020AB5403084E
:104AB800E4860020588C00200358030864870020EF
:104AC800D88C0020FE570308095803087882002074
:104AD800CA8500200D5803088E8300207C8500209D
:104AE80016580308CA3B0020BA3B00205957030850
:104AF8001E580308EB530308E353030841580308FF
:104B080058870308F08A03084E57030844570308D8
:104B1800012177E5002175E5F7B50746FBF730FB7E
:104B2800044630B1002222490120FFF719FD03B0E5
:104B3800F0BD3846FDF710FA1328054630DC86002C
:104B4800781C8DF80740FCF79AF9194C074640B1D4
:104B5800FDF702FA23289EBF012304F825008DF8EB
:104B680007303846FCF78BF9074650B1FDF7F4F9E2
:104B78000D2806D8A31958709DF8073001338DF811
:104B88000730B11C0DF1070221443846FDF701FA40
:104B98009DF80730042BCAD0002344F82530C6E717
:104BA8001323224603490448FDF788FDBFE700BFE9
:104BB80078820020355403083B5403080EB40FB51F
:104BC80005AB019053F8042B0649039301A8FDF7A0
:104BD80028FC019B00221A7004B05DF804EB03B0B6
:104BE800704700BF710700080FB437B50B490C4870
:104BF800096800680B4D06AB53F8042B0193FDF7C9
:104C080010FC04462868FCF7D8FA0028FAD0204699
:104C180003B0BDE8304004B0704700BFFC2400205A
:104C2800002500205C4300202DE9F04F87B00346A3
:104C3800FBF7A6FA064620B1FCF754FF07B0BDE81B
:104C4800F08F05AA6049DFF8AC91DFF8ACA1DFF876
:104C5800ACB1184629F066FA34460546B0464FF01E
:104C6800FF37A5B9594B78B20C2606FB05F2D118C7
:104C7800D256824200F08B800135042DF5D1B8F16F
:104C8800000F34D152483946FFF7AEFFD6E7012E60
:104C98000ED0022E11D01EB92846FDF75DF9074641
:104CA80005AA4949002029F03DFA01360546D8E70A
:104CB8002846FDF751F98046F2E7494628462BF089
:104CC80012FB20B9434928462BF00DFB08B144F0EC
:104CD8000104514628462BF006FB28B959462846B8
:104CE8002BF001FB0028DBD044F00204D8E7002CAD
:104CF80008BF03240023E4B20293CDE900841A46D6
:104D080019461AF099F9054610B939463248BBE7F1
:104D1800424639463148FFF767FF39463048FFF7C2
:104D280063FF304B1C6820461AF066F928461AF0D3
:104D380063F900210846FCF757FB00210120FCF726
:104D480053FB2046FCF745FA70B101210020FCF71F
:104D58004BFB2046FCF737FA01462846FCF73CFA9D
:104D680000210846FCF740FB2846FCF732FA0028E9
:104D7800E7D001210020FCF737FB2846FCF723FA8F
:104D880001462046FCF728FA00210846D7E74D6877
:104D9800002D3FF474AF39461348FFF725FF54B18F
:104DA8006979A14207D022461048FFF71DFFE1B2FA
:104DB8002846FCF7FFF9EB6A002BAED00C48FFF74A
:104DC80013FF0023EB62A8E76D5603087C5C002004
:104DD8005A580308BA5E030882580308A158030802
:104DE8000C59030814430020BE580308D65803087A
:104DF800F6580308517903086B780308B25E030874
:104E08002DE9F04F4FF0000C85B0864607468046E6
:104E1800054600F1400908F1100B2B463E4612E00A
:104E2800F4EC016A1AED047AD3ED007AE6EEC77A5B
:104E3800C3ED007AAC420AF1100AF1D104335B45A4
:104E480006F1040602D0B2464446F3E71E464E4534
:104E58001CD006EB0C0BBA46B04607E0F8EC016A2A
:104E68001AED047AE6EEC77AC4ED047AD845D4ED93
:104E7800047A0AF1100AF1D1D5ED006A87EEA67A14
:104E8800103617EE108A44F8108FE0E70CF1040C86
:104E9800BCF1100F05F1140507F104079846BAD1C3
:104EA8000023009301930293039302F11007054630
:104EB8006C4652F8043B44F8043B6E467346AB42DA
:104EC80024D1BA420EF1100E03F11405F1D140308D
:104ED80004AE01F11003054656F8044D43F8044C9E
:104EE8001A1F0446AC42D2ED007A1AD150ED016A7D
:104EF80087EEA67A8A42A0F11400A4F110051346A1
:104F080082ED007AE8D105B0BDE8F08FB6EC017A01
:104F180054ED017AF3EC016AE6EEC77A44ED017AC2
:104F2800CDE7F4EC016AB3EC017AE6EEC77AC2ED9C
:104F3800007AD7E71FB50C46024669461030FFF7DE
:104F48005FFFDDED007AB6EE007A67EE877AC4ED92
:104F5800007ADDED017A67EE877AC4ED017ADDED3E
:104F6800027A67EE877AC4ED027A04B010BDD1EDFB
:104F7800007A90ED066AD0ED095AB8EEE77AD0EDDE
:104F8800047AE7EE077AB7EE005AC0ED047AD1ED5D
:104F9800017AF8EEE76AD0ED057AE7EE267AC0EDF9
:104FA800057AD1ED027AF8EEE77AA7EE276A80ED66
:104FB800066A90ED076A36EE076A80ED076A90ED9B
:104FC800086AA7EE266A80ED086A26EEA66A75EEDC
:104FD800865AA7EE076AC0ED095AD0ED0A5AE6EEDE
:104FE800A75AA7EEA76AC0ED0A5AD0ED0B5A75EE7C
:104FF800A65AC0ED0B5AD0ED0C5AE7EE275AC0ED71
:105008000C5AD0ED0D5AE6EEA75AC0ED0D5AD0ED68
:105018000E5AE7EEA75AC0ED0E5AD0ED0F5A75EEAC
:10502800A75AC0ED0F5AD0ED105A75EE875AC0ED49
:10503800105AD0ED115A75EEA65AC0ED115AD0ED9E
:10504800125A75EEA75AC0ED125AD0ED135A75EEE2
:10505800855AC0ED135AD0ED005AE7EE065A90ED86
:10506800017AC0ED005AA6EE867A80ED017A90EDBD
:10507800027AA7EE867AD0ED037A80ED027A37EECF
:10508800866A80ED036A704700F1400103460022FA
:105098001A615A619A61DA6110338B4240F8042B25
:1050A800F6D17047024684B00068516801AB03C36B
:1050B80090681860DDE901329342C8BFCDE9012349
:1050C800DDE902239A42C8BF0293DDE90132934227
:1050D800C8BF0293029804B0704780EAE073A3EB5C
:1050E800E0738B4206DB002801DD401A704702D0CE
:1050F800084470470020704744F25063984203DD2B
:10510800A0F50C40A0387047034B9842BCBF00F58F
:105118000C40A030704700BFB0B9FFFFF0EEE06A66
:10512800B0EEC07AF4EEC76AF1EE10FAD4BFB0EE72
:10513800476AB0EE666AB5EE406AF1EE10FA48D0FA
:10514800F4EEC76AF1EE10FA54BFF0EE475AF0EEEB
:10515800665AC5EE867A9FED206ADFED205A9FEDEC
:10516800205AE7EE865A9FED1F6AA5EEA76ADFED83
:105178001E5AE6EE275A9FED1D6AA5EEA76ADFEDD7
:105188001C5AA7EEA55AF7EE005AE5EE275AB1EEDB
:10519800466AC6EE257AF4EEC76AF1EE10FA48BF01
:1051A8009FED147AF5EEC00A48BF77EE677AF1EE04
:1051B80010FA48BF9FED107AB5EEC00A48BF77EEE7
:1051C800677AF1EE10FA48BFF1EE677AB0EE670A37
:1051D8007047DFED0A7ABEE739094E3DE3B59EBE5A
:1051E80069A2163E88FA16BE45FE7FBFA7DFA8B49F
:1051F80099FB243FDB0FC93FDB0F4940000000004B
:10520800FDEEC07A17EE903A2033402B43D8DFEDFD
:10521800237A9FED237AB4EEE70AF1EE10FA28DC40
:10522800DFED207A9FED1E7AB4EEE70AF1EE10FA70
:1052380022D4DFED1D7AB4EEE70AF1EE10FA1EDD96
:1052480030EE670A37EEC00A60EE007ADFED176AC3
:105258009FED177AA7EEA67ADFED166AE7EE876A62
:105268009FED157AA7EEA67A20EE276AA6EE070A22
:10527800704730EE470ACEE730EE070AD4E79FEDD5
:105288000F7AB4EEC70AF1EE10FA44BF30EE270ADF
:1052980037EE400AD8E79FED0A0A7047DB0F49400E
:1052A800DB0FC940DB0F49C0DB0FC93F9A7C2E36A4
:1052B800FAAF4FB93587083CA4AA2ABEDB0FC9BF8D
:1052C80000000000DFED027A30EE270A98E700BF01
:1052D800DB0FC93F2DE9F74F0EF088FC6E4C6F4B82
:1052E800A4F114079F42C0F084806D4D287902F024
:1052F8002FFB687902F014FB6A494B898A899A4224
:1053080024BF00234B810A8ACB899A42664A0192BC
:1053180024BF0023CB811368988FDC8F8442634CB1
:10532800634824BF00229A87237C627C9A4224BF68
:1053380000232374FCF790FC5E4B1B78012B02D1F1
:105348004020FCF789FCAB790BB10123CB705A4F95
:10535800DFF878A100263546B9464FF0FF08F25B22
:10536800530803F07733900800F03330D31A1B1A30
:10537800D00800F011301B1A03EB231312F00101BF
:1053880003F00F3393FBF8F0C0EB002018BF013592
:10539800A3EB000318BFEDB2012B0ADD022B0ED1DF
:1053A80011B112EA0A0F04D109EB060023F056FEE8
:1053B80028B10836202ED2D1013D022D06D90D2064
:1053C800FCF738FC10B13C49FCF706FC3B4A3C4D65
:1053D800938B518B643B8B42A8BF0B4653832B7A2C
:1053E800042B7CD8DFE813F07400A101A801B401F4
:1053F800BB0134F9123C002BA7BF4FF00008C1468F
:105408004FF003084FF001094FF0000A09EB0A02B8
:10541800D2B2904501D2143461E72A4E3588002D66
:1054280000F0B481284B7019984280F0AF81052DA7
:1054380040F2AC8134F8141CB6F802C0C1F30B0179
:105448008C4526D1717901F00301914221D1514651
:10545800384696F804B0FCF7E1FB34F8141CBBEBB3
:10546800113F13D134F812CC54F8100CCCF30B01C3
:10547800AA1F8A42A8BF0A461CF4004F1CBF5FFA45
:105488008AF501FB0500B11D28F0B8FC0AF1010AF4
:10549800BCE70646C2E700BF6C870308F08A03082A
:1054A800822F0020423600204094002056360020EB
:1054B80000630406A05B00205A5C0020C48D002015
:1054C8001E8E002001000E0800001008BC83FFFF9C
:1054D800EB88B3F5F57FA8BF4FF4F573EB80002098
:1054E8001BF0BBF9AC4B1A68002800F0448122F08D
:1054F80080621A60A94BB5F800C0D3F800A06D8887
:105508009AF80070A5EB0C05642205FB07F393FBE2
:10551800F2F3A34A63441380BAB202EB82035B003E
:105528005242C7F16409009392B200205FFA89F9E8
:105538004FF00A0B4FF47A7813B2002B40F31E8118
:1055480049469AF8016003FB03FE06FB0EFEC6F10E
:10555800640611FB01F19EFBF1F131444B430099C4
:1055680093FBFBF30B441BB28E496B4393FBF8F39D
:10557800634421F8103001300A320B2892B2DBD193
:10558800894D0DF013FC3022002188482AF046FE90
:105598001BF0FEFA2979864B6422C82012FB010110
:1055A80099606979A3F8308012FB0102DA60012161
:1055B8000022C3E90422C3E90622C3E9082283F8CA
:1055C800282083F8292099715A859A85DA85B4F9B3
:1055D8000430784D002B40F0D580B4F90630002B0C
:1055E80040F0D080B4F90830002B40F0CB80B4F9FB
:1055F8000A30B3F5805F40F0C580B4F90C30B3F5DC
:10560800805F40F0BF80B4F90E30B3F5805F40F0A2
:10561800B9802B6823F400732B600DF0FBFB664AFE
:10562800DFED667AB2F84411654B664C664F6763E6
:1056380007EE101AB8EEC77AB2F84611C7EE276A15
:1056480040F2055604F11C002063268707EE101A65
:10565800B8EEC77AC3ED006AC7EE276AB2F84811F8
:1056680007EE101AB8EEC77AC3ED016AC7EE276ACB
:10567800B2F84A1192F84C211A74142207EE101A43
:10568800B8EEC77AC3ED026AC7EE276A0021C3EDF8
:10569800036A2AF0C3FD04F1B40014220021C4E90E
:1056A8003207A4F8D0602AF0B9FD04F5A670C4F852
:1056B8006001C4F86471A4F86861142200212AF01A
:1056C800ADFD2B68DB0601D519F072FE019B9FED3D
:1056D8003F5A1A68B2F9503007EE903AF8EEE77A76
:1056E800F2EE044A87EEA40A20EE050AFFF7EAFD67
:1056F800B2F9523007EE903AF8EEE77AF0EE405AF7
:1057080087EEA40A20EE050AFFF7DCFD304B25EEF4
:10571800800A002283ED000A2E4B1A7026F0EEFF55
:1057280003B0BDE8F04F0EF045BAEB8840F63C7286
:105738009342A8BF1346D1E6EB88B3F5FA5FA8BF3A
:105748004FF4FA53B3F5FA6FB8BF4FF4FA63C5E6EE
:10575800EB88B3F57A5FA8BF4FF47A53F2E7EB888A
:10576800B3F5FA4FA8BF4FF4FA43B3F5FA7FB8BFC1
:105778004FF4FA73B2E642F08062BAE60CBF012138
:105788003946DEE62B6843F4007345E75146384650
:10579800FCF744FA7AE600BF488D002058940020B0
:1057A800C6880020702A002044940020702E002013
:1057B8004C8D0020848D00204016002000401C469F
:1057C800F0050010640300107805030835FA8E3CD4
:1057D80014060010D801001091ED005A08B5B0EE7B
:1057E800450AFFF76FFDF0EE405AB0EE450AFFF7A5
:1057F80007FDD1ED014AB0EE405AB0EE640AFFF75A
:1058080061FDB0EE404AB0EE640AFFF7F9FC91ED95
:10581800023AF0EE403AB0EE430AFFF753FDF0EEDD
:10582800404AB0EE430AFFF7EBFC25EEA46A65EEAA
:10583800806A65EE247A64EE244A25EE007AC0ED8B
:10584800004AF0EE664AE3EEA74AB0EE463AC0EDEB
:10585800034AF1EE634AA4EE873AE3EEA67AA4EE91
:10586800867A24EE400A25EE445A65EE845A80ED85
:10587800010AC0ED023A80ED043A80ED055A80ED48
:10588800067AC0ED077AC0ED085A08BD38B52F4C26
:10589800B4FBF2F4A142B0EE405A1D46F7EE005AAE
:1058A8004FF000044BD207EE901A9FED297ADFEDF6
:1058B800296AF8EE677A67EE877A07EE102AB8EE5B
:1058C800477A27EE267AC5EE876AC7EEA64AB0EE73
:1058D800640AFFF795FCB0EE404AB0EE640AFFF7A1
:1058E800F1FC35EE055A012D84EE056A1CBF75EEF4
:1058F800C06AB6EE007AB8EE005A76EE257A12BF84
:1059080026EE877A60EE056AB0EE657AC7EE274A1A
:1059180086EEA77A20EE050A80ED017A80EE277AD6
:1059280075EEC65A80ED037A85EEA77AC0ED004A77
:10593800C0ED024A80ED047A8461446138BDC0ED4F
:10594800005A44608460C4600461F5E720A1070040
:10595800DB0FC940BD37863500239FED010A95E767
:10596800F304353F30B507EE902A2DED028BB8EEE3
:10597800670A07EE903AF8EE677A83B080EE270A56
:105988000D460446019228F011FD30EE008AB0EE73
:10599800000AF0EE480A28F013FD28F0A3FEF0EE06
:1059A800480AF0EE408AB0EE000A28F009FDF7EE4A
:1059B800007A30EE670A019988EE800A01232A46A8
:1059C800204603B0BDEC028BBDE830405EE790EDA9
:1059D800017AB5EE407AF1EE10FA07EE901A0BD183
:1059E8009FED0F7AF8EEE77AF7EE006A67EE877AAE
:1059F80086EEA77A80ED017A90ED017AD0ED007AF3
:105A0800C0ED020A30EE877A30EE670AC0EE876A88
:105A1800E6EE807AB0EE670AC0ED007A704700BF04
:105A2800DB0FC9404840082310F0800F4FEA4000C0
:105A380018BF80F0D500013BC0B2F5D1704710B552
:105A48000A440C46944200D110BD14F8011BFFF71C
:105A5800E9FFF7E74A09012301F01F0103FA01F101
:105A680050F822300B4340F8223070470EB4254BD3
:105A780070B51B68002BA5B0064630DA224B234CC4
:105A880019684FF47A7304A8B1FBF3F203FB1213FD
:105A98001F49FFF793F804AB03440393299A1D4960
:105AA8002AAB054603A80293FCF7BBFC039B591CD1
:105AB80003910A211970039B591C03910021197045
:105AC8000246206880B103681B6A03B1984704A99D
