:020000040800F2
:1000000000000110F937030813FF0208F9CF0208B6
:10001000B5380308B5380308B538030800000000F8
:10002000000000000000000000000000A50403081C
:10003000A304030800000000A10403080B1100083A
:10004000B5380308B5380308B5380308B5380308D0
:10005000B5380308B53803086F1400087714000892
:10006000B538030875140008731400081D2403082C
:1000700009240308F5230308E1230308CD2303081B
:10008000B9230308A5230308B5380308B5380308C6
:10009000B5380308B5380308B538030871140008EB
:1000A0005D250308352503080D250308852503086C
:1000B000F9240308E5240308D1240308B53803080C
:1000C000B5380308B5380308B5380308B538030850
:1000D000B5380308E5BD0108D9BD0108CDBD01084B
:1000E0006D140008B5380308F127030881240308BC
:1000F0005924030831240308A92403089123030881
:10010000B5380308B5380308BD240308B53803081B
:10011000C1BD0108B5BD0108B5380308B5380308ED
:100120007D2303086923030855230308412303089B
:100130002D230308B5380308B5380308B53803087C
:10014000B5380308B5380308B538030815FF0208A9
:100150001923030805230308F1220308A9BD010898
:10016000B5380308B5380308B5380308B5380308AF
:10017000B5380308B5380308B5380308B53803089F
:08018000B5380308B538030887
:1001880020B10078B0FA80F040097047012070472C
:10019800436A826930B5D154436A04690133A34282
:1001A80028BF00234362836BFBB1196811F001017A
:1001B8001AD11A68856922F001021A60826A154408
:1001C800DD60456AAA4235BFAA1AA21A5A605A6067
:1001D8004FF0000280F850201A6838BF856242F05C
:1001E800010228BF81621A6030BDC26DD36843F036
:1001F8008003D360F8E7034610B55C6B4069D968A3
:1002080044B1DA6C8C1A013A005D08BF0A46C0B2E4
:10021800DA6410BD1A6A805C01328A4228BF22461D
:10022800C0B21A62F5E7836B13B190F850007047BB
:10023800D0E909031B1A584258417047D0E90913FD
:100248000269994238BF8918CB1A816B501E19B1BF
:100258004A681344834201D2C01A7047002070478D
:10026800436B4BB1C26C5B689A42A3EB020392BF2B
:100278001846C068C0187047D0E907239A422FBFB4
:10028800D01AC0688018C01A704710F80A3C0133A9
:10029800DBB20A2B00F80A3C07D910F8131C034AF2
:1002A800002322F8113000F80A3C7047E2270020AA
:1002B800F0B54F4E337814200133B3FBF0F200FB56
:1002C800123333704B4B58681A6D9C6881420A444C
:1002D80004D293F8580008B102F5803246480778EE
:1002E800B2FBF7F2944233D293F858501DB14FF451
:1002F800803595FBF7F5101B451BDD60C3E901123E
:10030800717814220020013183F8580091FBF2F033
:1003180002FB10117170B178D868013191FBF2F4C9
:1003280002FB1412B27040F68C22904243D91A781C
:1003380093F955108A4250B223D1111F0C2920D8A5
:1003480093F8561018290BD8013183F8561009E094
:100358004FF4803090FBF7F0001B1044D860CDE7D5
:1003680083F8540093F954108A4202D193F8571035
:10037800D1B9012283F8572083F8550000221A705A
:10038800F0BD0021E1E703EB81052D6924F8115048
:1003980001318A42F7DC194900240F2A07DD184980
:1003A8000A7801320A70E4E70021144CF1E721F8D9
:1003B80012400132F1E793F85720002AE0D0A0F26A
:1003C800EF2140F2DA52914207D81A780F2A04D85E
:1003D800111D013243F82100D1E7002283F857208C
:1003E800104699180432402A0861FAD1C8E700BFBC
:1003F800801D00207439002064010020E2270020BD
:10040800C027002010B50B48037814240133B3FB30
:10041800F4F204FB1233084A0370136D01330B44E2
:1004280013654FF6FF73994204BF012382F85830D1
:1004380010BD00BF801D002074390020024B53F806
:1004480020301B6819607047D0460020064B53F8CF
:100458002030A1F57A701A6819894FF47A734143EC
:1004680091FBF3F111607047D04600207047704748
:100478000D4B1A683F2AF0B59C4613DC0B4C17014C
:100488000346E61900F1100E18685968354603C589
:10049800083373452E46F7D1054B1B68E3510132EB
:1004A800CCF80020F0BD00BF4C3900204C350020AE
:1004B8009088002070B5104C05460E460022002397
:1004C800D4E9020132F0EAFD20B109A3D3E90023FF
:1004D800C4E90223304632F00FFBD4E9022332F09C
:1004E8009FFC32F023FE04EB4504208270BD00BF60
:1004F800ABAAAAAAAA461040801D00200E4B98421B
:1005080013D0A3F57843984211D003F5806398423D
:100518000FD10223094A142101FB03235A8901320E
:1005280092B25A81588980B270470023F2E70123BA
:10053800F0E74FF0FF30704700300140841A002088
:1005480030B50278202A034600F10100F9D0092AC3
:10055800F7D02D2A4BD10346BFEE000A9FED3C7A17
:100568001A46F2EE046A134612F8010BA0F13001A4
:10057800CCB2092C41D92E280BD1F2EE046A1146CF
:10058800B0EE666A0B4611F8012B303AD0B2092852
:100598003CD91A7802F0DF02452A53D15A782D2A1D
:1005A8003FD102330120013B00220A2513F8011F25
:1005B8003039CCB2092C3AD9B2F59A7F1346DFED1F
:1005C800256A28BF4FF49A731A46F7EE007A072A6D
:1005D80030D8DA086FF0070101FB0233F2EE046A43
:1005E80063BB88B3C7EE276A20EE260A30BD2B2AE4
:1005F80008BF0346B7EE000AB0E707EE901AF8EE18
:10060800E77AE7EE267AB0EE677AACE707EE902A4B
:10061800F8EEE77AC7EEA65A66EE866A37EE257ACE
:10062800B0E72B2A14BF013302330020BBE705FBD8
:100638000212BBE767EEA67A083AC8E767EEA67A21
:10064800013BCDE7F7EE007A67EE276ACCE700BFFB
:100658000000000020BCBE4CA0F13003DAB2092A29
:1006680001D818467047A0F16103052B01D8573807
:100678007047A0F14103052B94BF37384FF0FF3086
:10068800704703685A1C02601970704703685A1C47
:100698000260197070472DE9F84F002B14BF4FF016
:1006A80030094FF020090A9B141E07468846BABF36
:1006B80064424FF0010B4FF0000B13F8012B02B10D
:1006C80034B9BBF1000F0ED000230A9D5E1B0EE06B
:1006D800013CF2E749463846C04715F1FF35F9D2E3
:1006E80023462C46F1E72546F7E73846C04705EB91
:1006F800060A15F8011B0029F7D1BBF1000F05D038
:100708002546002D05DC002CA8BFA2445046BDE8B4
:10071800F88F49463846C047013DF2E7D0ED006AF8
:10072800D0ED057AE6EE807AB0EE407AB0EE670A50
:10073800D0ED037AD0ED016A67EEC07AE6EE877AEB
:10074800D0ED066A77EEA67AD0ED026AC0ED057A9A
:10075800D0ED047A67EEC07AE6EE877AC0ED067AC5
:100768007047704743230B80004870470000002003
:1007780010B5064C606CFF2806D005490A6B343169
:100788002CF019FDFF236364002010BD0000002039
:10079800801D002008B5D0F8E4355B6A9847002032
:1007A80008BD08B5D0F8E4351B6A9847002008BD95
:1007B800D0F8E43510B504461B689847D4F8E835F6
:1007C8009B689847002010BD08B5D0F8E435DB6970
:1007D80003B19847002008BD08B590F8123180F899
:1007E8001331042380F81231D0F8E835DB689847D4
:1007F800002008BD10B5D0F8E83504461B699847B5
:10080800032384F81231002010BDF0B54B784C69F1
:10081800012B27D182691568136914B964F306039B
:1008280005E08E68A642F9D24E6166F3060343F4EA
:1008380000231361C478012C05D10B780E6900EBF5
:1008480083039B695E6145F00445156044B94B69B3
:1008580033B102690978506B01238B40034353631A
:100868000020F0BD0B788F6800EB830307F07F064C
:100878005A6D156813696CB966F3060343F40023CF
:100888001361C378012B04BF0B69536145F004451C
:100898001560E5E74F61EFE72DE9F04191F801E0D8
:1008A8000D784B69CE78BEF1010F4FD100EB850C66
:1008B800DCF818703A683C6963F3120493B96EF374
:1008C800DC443C61C478012C1BD10D697D61012E8B
:1008D80025D100698068C00554BF42F0005242F03B
:1008E80080521CE0D1F8088008EB030E0EF1FF3EA1
:1008F800012EBEFBF8FE6EF3DC4408BF66F35E749F
:10090800DFE7012EE5D053B1D0F810E00120DEF882
:10091800348000FA05F545EA0805CEF8345042F06F
:100928000442012E3A6009D144B99BB20333C96825
:10093800DCF8D0009B102246934202D10020BDE88B
:10094800F08151F8224004600132F5E700EB85059B
:10095800D1F808C06F6DCCF312053A683C69A3B9A9
:1009680065F31204012363F3DC443C61C378012B73
:1009780004BF0B697B61012E03D14B79A3B142F00F
:10098800005242F004423A60D8E76344013BB3FBAB
:10099800FCF3C3F3090363F3DC446B43C3F31203AF
:1009A80063F312044B61E0E742F08052E9E770B567
:1009B80001F07F05282404FB050104FB050401263A
:1009C800C4F82821C4F82C21002201F58E7184F87E
:1009D8001D6184F81C51C4F83421C4F830311DB9A4
:1009E800FFF713FF002070BDFFF756FFFAE7214B12
:1009F800DA6B0F2A70B502F101011D4602D0D963E6
:100A0800002070BD1C490023EB630B78002BF7D145
:100A18001A4C2268B2F5006F08BF2360184B226891
:100A28001B689A4202D100230B70E9E78CBFC2F51C
:100A380000639B1A2B642B6C402B0ED9403B02F1B0
:100A480040062B6401230B70266040230D4911FAE0
:100A580082F28121FFF7ABFFD2E702EB03062660A3
:100A68004FF000042C640EBF022401249BB20C70CA
:100A7800ECE700BF801D00208C800020048000204F
:100A8800088000208D80002070B518490B78012B54
:100A98000C4603D1164D2B6C5BB90B702378022BD7
:100AA80017D100231A468121FFF781FF0023237005
:100AB8000FE0104C402B22680DD9403B02F1400159
:100AC8002B64216040230C4911FA82F28121FFF73F
:100AD8006EFF002070BD03EB020626604FF0000495
:100AE8002C640ABF02249BB20C70ECE78C800020B7
:100AF800801D0020048000208D80002010B5044651
:100B08001346C4F83C21C4F83821022280F8112188
:100B18000A460021FFF74BFF002010BD70B50C46B8
:100B2800282606FB040506FB0101C5F888330023C7
:100B380085F87443C5F88023C5F88C3385F8753378
:100B4800C37806FB0404012B08BFC5F8842394F876
:100B5800743301F55D711BB9FFF757FE002070BDB6
:100B6800FFF79AFEFAE738B5282303FB0101074D82
:100B7800B1F88C13044628462CF0E4FA40232A46A0
:100B880001212046FFF7CAFF002038BDC41D002000
:100B980030B50B78497801229A4000EB830301298C
:100BA8004FF000052C460CBF9B695B6D92B20CBFE1
:100BB80062F30F0462F31F446FF3CF3502691D60BF
:100BC800D36923EA0403D361002030BD40F2011346
:100BD80010B500F5A2710446A0F84431FFF7D8FF1C
:100BE8000123A4F89C3304F567712046FFF7D0FF72
:100BF8004FF48173A4F86C3104F5B6712046FFF701
:100C0800C7FF2CF019FB002010BD0B7830B501226E
:100C18004D789A4000EB8303012D0CBF9D695D6DF3
:100C28002B6892B24FF000040CBF62F30F0462F31A
:100C38001F441A040DD48A6862F30A03CA7862F35F
:100C48009343CA8862F3995343F0805343F40043B3
:100C58002B600369DA691443DC61002030BD2DE99B
:100C6800F04140F201130446022600254FF04008E7
:100C78000127A0F84431C0F84C8180F84761A0F8FA
:100C88004A7180F8485100F5A271FFF7BEFF04F5DC
:100C98006771A4F89C73C4F8A48384F89F6384F8EC
:100CA800A0532046FFF7B1FF4FF48173A4F86C31CD
:100CB8000823C4F87431032304F5B67184F86F313E
:100CC800A4F872612046FFF7A0FF074B1E715D7103
:100CD8002CF0BAFA4346054A39462046FFF71EFF6C
:100CE8002846BDE8F08100BF701A0020C41D00200E
:100CF80070B5002540260446A0F87453C0F87C63FC
:100D080080F8775300F55D71FFF77FFF4FF480732C
:100D1800A4F81C3104F58E71C4F8246184F81F51BD
:100D2800A4F822512046FFF770FF012384F81231FE
:100D3800D4F8E835A0785B689847284670BD0E4B14
:100D4800DA68D20310D4DA68D1060FD4DA68D2058B
:100D58000ED4DA6812F0E00F0CD1DB6813F0020F42
:100D680014BF0820092070470120704706207047EB
:100D78000220704707207047003C024007B509234E
:100D88008DF80730FFF7DBFF8DF807009DF8073077
:100D9800012BF7D09DF8070003B05DF804FB08B5F8
:100DA800202135F01EFA0346184623B10278202A7E
:100DB80003F10103F8D008BD38B504460A4614F813
:100DC8000E1C50F8040C49B9012324F80C2C04F823
:100DD8000E3C0A22BDE838401AF092BE34F80C1CCA
:100DE80024F80A2C9142A2EB010384BF0268D26A5C
:100DF8009BB288BF9B1824F8083C14F80F2C074BAB
:100E080034F8081C23F81210002504F80E5C0A2296
:100E180001211AF075FE04F8065C38BDE2270020AF
:100E2800A1F57A7107EE901A9FED087A9FED080AEE
:100E3800F8EEE77A10B5A7EE870A044633F032F8E1
:100E4800044B53F824301B68186010BD3D0AD73F87
:100E58000000D243D04600201523594307EE901ACC
:100E6800B8EEE70AF3EE087A10B580EE270A0446D2
:100E780033F018F8024B53F824301B68186010BD83
:100E8800D04600200C234B4300EE103A10B5BAEEC2
:100E9800EE0A044633F006F8024B53F824301B6878
:100EA800186010BDD04600202DE9F0410B4DDFF849
:100EB80030802C686A69012714400CB9BDE8F081BC
:100EC800B4FA84F3C3F11F0307FA03F658F82300B2
:100ED8000368984724EA06046E61EEE7003C014087
:100EE800A888002070B50A7812F0600406460D46FE
:100EF8002AD0202C2FD1CC884B78FCB112060CD5E7
:100F080022461E4918462CF056F9EA881B493046F5
:100F1800FFF7F4FD0024204670BD194AC0F8944339
:100F28005364184AC0F890430323146380F81131BE
:100F3800343223460021FFF7F1FDEBE7022211448A
:100F480018462CF038F9E6E74B780A2B08D00B2B1B
:100F58000BD0062BDFD130462DF026FB0224DAE732
:100F680001220949FFF7CAFDD5E78B781BB9054A65
:100F7800C2F88430CEE72DF017FBCCE7B41D002073
:100F880000000020801D0020041E0020044B9B79D7
:100F980013B9044B18687047034B9888704700BF13
:100FA80088680020240000105A31002073B50468B6
:100FB8001C480023054650F83360B4422CD1DCB2FB
:100FC80055F8346030461AF080FE3388E40043F068
:100FD800010333802B195B7963B18DF8043000224B
:100FE800012301A88DF805308DF806208DF807300B
:100FF8002DF049F92C44A37963B18DF8043000220F
:10100800012301A88DF805308DF806208DF80730EA
:101018002DF039F902B070BD01330E2BCBD1FE246F
:10102800CEE700BF408F03082DE97848214B5A6866
:10103800214BC2F308028AB9EFF3118272B91F4833
:101048001F491D6886681A689542FAD1D1F88C2024
:101058009642F6D81B4BD3E900231AE0EFF311822E
:10106800102181F3128801F1E0218E68086810F4DC
:10107800803F13481EBF0124C0F888408E68196855
:10108800D0F88850D3B283F311880E4BD3E90023EC
:101098000D444FF47A74A2FB04BC04FB03CCBBEBF5
:1010A80006006CF1000132F00FFAE4FB0501BDE81F
:1010B800788800BF00ED00E09088002010E000E094
:1010C800801D0020884D0020F8B504460D46FFF726
:1010D800ABFF06460F46FFF7A7FF821B61EB07032E
:1010E800AB4208BFA242F6D3F8BD10B5044614F1CE
:1010F800FF3400D210BD4FF47A700021FFF7E4FFEF
:10110800F5E7EFF31183102282F3128808490A6881
:1011180001320A60074A08499068C1F88C0000202B
:10112800C1F888001268DBB283F31188704700BFEA
:101138009088002010E000E0801D0020074A084B3E
:1011480012781B680AB980F001002BB11A689B88D5
:1011580008B1138370475383704700BF983B002042
:10116800943B002003689B6A03B1184770470368E3
:101178005B6A03B11847704703689B69184703689F
:101188005B69184703681B6918470368DB681847D9
:1011980003689B68184703685B68184703681B68FF
:1011A80018470368DB6970B506460C4615467BB9D7
:1011B8000D442B1B002B00DC70BD3046FFF7E8FF09
:1011C8000028FAD014F8011B3046FFF7E7FFF0E7D4
:1011D800BDE870401847E4E7014B1868DEE700BF38
:1011E8007C70002038B505460C4614F8011B01B97F
:1011F80038BD2846FFF7D2FFF7E70C4B1B681B01E9
:1012080010B407D50A4B1B685B050BD55DF8044B7A
:10121800FFF750B9074B53F820301BB107289CBF84
:101228001B6819605DF8044B704700BFD84C00205C
:10123800DC4C0020B03A00201FB5ADF80A30BDF8EC
:101248001830ADF8040041F48041ADF80C30684620
:10125800BDF81C30ADF80610ADF80820ADF80E301A
:10126800FFF706F905B05DF804FB1FB5ADF80400FB
:101278006846ADF80610FFF7FBF805B05DF804FB0B
:10128800084B53F8203049B123B970471A689B8836
:10129800138370471A689B8853837047002BF5D1D6
:1012A800704700BF348F030808B51E4B1E4C1D68DD
:1012B800A06814F089F8284614F086F8A0684179E7
:1012C8008B0703D441F00201FFF756FF00210846BF
:1012D800FFF7D6FF00210120FFF7D2FFA068FFF734
:1012E8005AFF70B101210020FFF7CAFFA068FFF77D
:1012F8004CFF01462846FFF751FF00210846FFF73B
:10130800BFFF2846FFF747FF0028E7D0012108461E
:10131800FFF7B6FF2846FFF738FF0146A068FFF73A
:101328003DFFD7E7347000203C640020064B53F89B
:1013380020303BB19A881B6859690A4201D05A8308
:1013480070471A83704700BF348F030880B5804602
:101358000B25013D02D172B61AF010FD0121084695
:10136800FFF78EFF00210846FFF78AFF08F1010604
:10137800322705240120FFF7D9FF0020FFF7D6FF09
:101388000120FFF7DBFE3846FFF7AFFE0120FFF72D
:10139800CDFF0020FFF7CAFF0020FFF7CFFE384639
:1013A800FFF7A3FE74B1013CE4D14FF4FA70FFF7E4
:1013B8009CFEFA2726B94FF47A70FFF796FEC8E725
:1013C8000024D7E7013EF5E710B50409013C032CDA
:1013D80000F00F0215D80C4B33F8141041FA02F341
:1013E80013F001000CD0012090400138084032F081
:1013F80083F8064B1B5D1844054B0C2202FB00309A
:1014080010BD0020FCE700BF2A8F0308BC62030858
:101418000033002010B1036882885A83704710B1E6
:10142800036882881A83704730B1036882881B6911
:101438001A4214BF01200020704728B18088B0FAF2
:1014480080F0C0F11F0070474FF0FF30704730B197
:10145800006800F13F4000F57E00800A70474FF0B9
:10146800FF30704720E51FE51EE51DE51CE51BE57F
:1014780038B504468B6821600D46984701232373CD
:10148800FF220023A3736273E3732B6B13B120460F
:101498009847E073044B93F890301BB1E37B23F03B
:1014A8000103E37338BD00BF801D002003689B6AF9
:1014B800184703685B6A184737B54D1C857204687E
:1014C800C27200250095A469A04703B030BD2DE97C
:1014D800F04105468AB018460F4690461C4631F042
:1014E800B1F93B189DF84060AB72EB7B85F80B8037
:1014F80036EA030319D0F20717D5114BC8221B6827
:10150800B3FBF2F3DB0706F0FE060ED51F2828BF53
:101518001F2004460246202102A834F04BFE0AABE5
:101528001C44002304F8203C02AC2B6800965E693A
:101538004246234639462846B0470AB0BDE8F081FE
:10154800908800202DE9F3410446184616460D46BA
:101558001F4631F077F92368E67228440022A0720A
:101568000092D3F8148032463B4629462046C047AD
:1015780002B0BDE8F081036810B504465B6898477F
:10158800236820469B689847A37B013BA37310BD43
:10159800036810B504461B689847236820469B6873
:1015A8009847A37B0133A37310BD03681B691847D1
:1015B80010B5036804469B68984701232373FF23EB
:1015C800637310BD144B984230B521D0A3F578430E
:1015D80098421FD003F58063984218D102220388ED
:1015E8000E4C23F040031B041B0C1425038005FB41
:1015F80002420388126923F0380332F811201B04D1
:101608001B0C13430380038843F04003038030BD61
:101618000022E4E70122E2E700300140841A0020BA
:10162800F8B584894FF6FF764FF47A740BB9012028
:101638001CE082B1157801320789BF070DD5ADB21C
:1016480085814FF47A740589ED0710D4013CA4B262
:10165800B442F8D105E0FF25EEE7013CA4B2B4425C
:10166800EAD1FEF74BFF003018BF0120F8BD85898D
:10167800ADB209B10D700131013BD7E708B540F2B1
:10168800E933028992070BD589B2818140F2E933A7
:101698000289D2070CD4013B9BB2002BF8D103E09E
:1016A800013B9BB2002BECD1FEF728FFC0B208BD6E
:1016B8008089FBE770B5164690F90C201423534334
:1016C800094AD55804460069FFF7A4FE2846FFF7E3
:1016D800D5FF0123002231462846FFF7A1FF2069E4
:1016E800FFF79DFE012070BD841A0020F8B516464C
:1016F80090F90C20142353430D4A0446D558006929
:101708000F46FFF787FE01200021FFF7DDFC394671
:101718002846FFF7B3FF31462846FFF7AFFF206999
:10172800FFF77DFE01200021FFF7CEFC0120F8BD68
:10173800841A0020F8B50679012E054609D0022E34
:101748001FD18368DB0758BF41F08001BDE8F8402E
:10175800B0E70D4B90F90C00182404FB00346378B3
:101768006BB16B7BA1725B002372002363722375DC
:101778000223A370C4E903621AF0D0FD237D184642
:10178800F8BD0023FBE700BF3C4D00202DE9F041E8
:1017980098460379012B0546174623D0022B39D1E9
:1017A80095F90C200069142353431B4AD458AA689E
:1017B80012F0010611D0FFF72DFE2046FFF75EFF5D
:1017C8000022434639462046FFF72AFF2869FFF7DB
:1017D80026FE01221046BDE8F081FFF71BFE41F00E
:1017E8008001EAE790F90C000C4B182404FB003444
:1017F8006278002AEED06B7BA1725B002372002313
:10180800637223750223C4E90387A3701AF086FD67
:10181800227DDFE70022DDE7841A00203C4D00200E
:1018280073B50379012B0D4616460AD0022B25D134
:101838008368DB0758BF01F07F01FFF757FF02B04D
:1018480070BD90F90C10427B0D488DF80760182484
:1018580004FB010460780028F1D06372E3600DF1A5
:1018680007032361002352002375022308462272CE
:10187800A572A3701AF052FD207DE0E70020DEE794
:101888003C4D0020094B70B5841CD3F89450A4003B
:10189800E4B20E46CAB228462146FFF7C1FF611CD2
:1018A800320A2846C9B2BDE87040B9E7801D002059
:1018B8002DE9F0410E4E8046002406F18807E0B27B
:1018C80000F0030343450ED136F8145037F81430AE
:1018D800EB1A002BB8BF5B42052B04DD2946FFF746
:1018E800D1FF27F814500134102CE8D1BDE8F0815D
:1018F800901D002038B50F4BD3F8945010220021CA
:1019080041F2D774B4FBF0F42846FFF789FF0120B1
:10191800FFF7EBFB621ED2B2FE212846FFF780FFDD
:101928000120FFF7E2FB284680220021BDE838406D
:1019380076E700BF801D00200379022B82B019D101
:101948008DF80230002203238DF800208DF8033033
:10195800012204238DF801208DF8043090F90C2021
:1019680002AB194414235343034A11F8081CD058F6
:1019780002B027E602B07047841A002010B5427AF8
:10198800044632B1036800F10A0140689847002311
:10199800637210BD064B1B68597A4A1C1944D2B2AF
:1019A8005A728872197A914201D81846E6E7704748
:1019B8003070002010B4447A631C0444DBB24372D4
:1019C800A172027A9A4202D85DF8044BD6E75DF814
:1019D800044B704738B5094D441E14F8011F01B96E
:1019E80038BD2868427A531C0244DBB243729172B4
:1019F800027A9A42F1D8FFF7C1FFEEE73070002073
:101A080008B504460648FFF7E5FF064B1868FFF7D8
:101A1800B5FF054B186813F0D7FC20460CF0C6FF3D
:101A280040C003083070002034700020044808B516
:101A3800FFF7D0FF0DF0CEF90020FFF7E1FF00BF60
:101A48004CC00308034808B5FFF7C4FF0120FFF79F
:101A5800D7FF00BF53C0030808B50448FFF7BAFF13
:101A6800034B1868BDE8084088E700BF6CC003084E
:101A7800307000200048ADE7BEC7030808B5FFF77F
:101A8800A9FFBDE80840F5E708B50948FFF7F6FFE4
:101A9800084B1868FFF772FF074B00241C70074BB0
:101AA8001C60074B1C7014F0A1FB2046FFF7A8FF31
:101AB80071C00308307000203C700020387000208E
:101AC800489F00200048D9E79BC0030810B504468A
:101AD8000348FFF77FFF2046BDE81040CEE700BF70
:101AE8006CC00308124B53F8200070B5E0B1114ADE
:101AF800062303FB002393F90140621C15D01879D3
:101B080090B10D4A0D4E155DDA786421142300203A
:101B180061438C18013B36F814402A442044F8D11C
:101B28001423B0FBF3F080B270BD0020FCE700BFC7
:101B3800743000209D3B0020CB3E0020BC3B0020A1
:101B480038B503200D461446FFF7CCFF07EE100A00
:101B58008DB1DFED0B7AB8EE477AF0EE006A27EE2A
:101B6800277AF8EE047AE7EE267A9FED067A67EE92
:101B7800877AC5ED007A0CB1034B236038BD00BFEE
:101B88006740533A00007A443313904330B5084B0A
:101B980008498B4200D330BD5A88140406D55D68C5
:101BA800DC68C2F30B0200FB025222601433F0E738
:101BB80040000408C403040870B544880B46054671
:101BC800C4F30B0422460021184634F0F3FA2969BD
:101BD800084A9142034607D3074A914204D2224653
:101BE800BDE8704031F07EBF19B11846BDE87040BD
:101BF800084770BDC40304082C06040843884268DB
:101C080013F4004F1EBFC9B2C3F30B0301FB032239
:101C18001146D1E738B51A4C1A4DAC421DD30020F5
:101C2800FFF7B4FF18480AF0E5FE184B40F21A42D5
:101C38001A8040F29E725A80154B0721D9721549B5
:101C480001221A810A7120221A87134B18790DF084
:101C5800A3F8BDE8384021F005BEB4F90230002BE6
:101C68004FF00001204607DAFFF7C8FF01212046A0
:101C7800FFF7C4FF02212046FFF7C0FF1434CCE76A
:101C880040000408C4030408A7C00308244D00202A
:101C98004A8A0020EC68002088680020064B074923
:101CA8008B4202D30023184670471A88C2F30B02EE
:101CB8009042F8D01433F3E740000408C403040842
:101CC800024A136823EA000010607047D0280020F9
:101CD800F8B50468C4F30D0405460E4604B32F682E
:101CE800FFF74CF8092840F08780454C236923F416
:101CF80040732361236943F400732361236943F02C
:101D0800010323613E60FFF739F82369092823F0AE
:101D18000103236170D12B6804332B60002034E069
:101D2800384B394A93422AD902F58042934225D941
:101D380002F58042934229D902F58042934227D97D
:101D480002F58032934225D902F50032934223D915
:101D580002F50032934221D902F5003293421FD98D
:101D680002F5003293421DD902F5802293421BD915
:101D7800B3F1016F1AD30520FFF7E8FA0824FEF73C
:101D8800FDFF092814D04FF0FF30F8BD1024F6E706
:101D98001824F4E72024F2E72824F0E73024EEE7BB
:101DA8003824ECE74024EAE74824E8E75824E6E743
:101DB800134F3B6923F440733B613B6943F4007361
:101DC8003B613B6923F0F8033B613B6943F0020345
:101DD8001C433C613B6943F480333B61FEF7CEFF13
:101DE8003B6923F002033B613B69092823F0F803B0
:101DF8003B613FF474AFC6E76FF00100C5E700BF71
:101E0800003C024000000E08FF3F0008F8B50446F9
:101E18000D468E180027B542206900D1F8BDE36849
:101E2800591CE160234415F8012B1A720429F2D1D8
:101E380018B9A1682046FFF74BFFC4E90370EAE729
:101E480038B50C468D18AC4200D138BD14F8011BCA
:101E580013F08EFAF7E770B501221149114C124EB2
:101E68000020FFF7EDFF22884AB1A518B54214D229
:101E7800052A12D92146FFF7E3FF2C46F3E7022291
:101E88002146FFF7DDFF6388084AC31AA41A084AE7
:101E98005842A2F8B840584170BD0020FCE700BF86
:101EA80000000E0801000E0800001008FCFF0D08D5
:101EB800801D002030B50244904201D1002311E07A
:101EC80010F8013BA3F14104192C11F8014BA4F1BE
:101ED800410598BF2033192D98BF20341B1B01D111
:101EE800002CE9D1184630BD70B5054608460E46A7
:101EF80030F0A8FC3146044602462846FFF7DAFFD0
:101F080060B92B5DA3F13002092A06D923F020031A
:101F1800413B192B01D9601C284470BD0020FCE707
:101F280010B504460748FFF755FDFFF773FE0CF0A0
:101F380051FF05492046FFF7D7FF08B9FFF760FDB5
:101F480010BD00BFB0C0030869C6030870B50346DA
:101F580010F8012B202AFAD0092AF8D02D2A0ABF16
:101F6800034601254FF0FF35591E00240A2611F8B3
:101F7800010FFEF771FB0A2802D905FB04F070BDBA
:101F880006FB0404F3E72DE9F3472F49DFF8B8A06F
:101F980001AA31F03BFF00254FF0FF382F46A94634
:101FA8002C46464630B9052D10D8DFE805F0323208
:101FB800320F3941042D09D8DFE805F0030D121757
:101FC8001C00FFF7C3FF0646032819D9FFF77AFD5F
:101FD80002B0BDE8F087FFF7B9FF80465428F4E760
:101FE800FFF7B4FF04461F28EFE7FFF7AFFF81466E
:101FF8001F28EAE70378482B09D0562BE6D101279A
:1020080001AA51460020013531F000FFCAE7002738
:10201800F6E7434632460D4901202CF099FFD7E7F1
:10202800552303FB0683094A32F81370C7F3C02708
:10203800552344EA491403FB068624B2034B44EAB9
:10204800C72423F81640C3E763F30308F48A002083
:1020580070B50D461446FEF7A2FE0646A0B1FFF77E
:1020680075FF40F634039842A8BF1846B0F5617F63
:10207800B8BF4FF461701923A0F5617090FBF3F0BD
:1020880028702378013323703046FEF788FE064611
:10209800A0B1FFF75BFF40F634039842A8BF18468B
:1020A800B0F5617FB8BF4FF461701923A0F5617076
:1020B80090FBF3F06870237801332370304670BDCD
:1020C800B5EEC00ADFED2D7AF1EE10FACCBF30EE96
:1020D800270A30EE670ADFED2A7A20EE270A30B5A4
:1020E800FDEEC07A87B017EE904A054684EAE470A0
:1020F800002303A9A0EBE470CDE9003302932CF090
:1021080097FA002CACBF20232D2303A88DF80030AC
:1021180030F098FB012822D130238DF801308DF85A
:1021280002308DF8033003A9684634F04BF868464E
:1021380030F088FB0338C4B222466946284634F09A
:1021480077F800232B550F49284634F03BF80DEB60
:102158000401284634F036F8284607B030BD022876
:1021680005D130238DF801308DF80230DBE70328E4
:1021780004BF30238DF80130D5E700BF6F12033A52
:1021880000007A44ACCF030870B5064615460846E9
:10219800B6FBF2F414B12046FFF7F6FF05FB146412
:1021A800024B1B5D00F8013B70BD00BFC6C00308B1
:1021B800F0B50124B0FBF4F58D4203D200271CB919
:1021C8001C70F0BD4C43F5E7B0FBF4F604FB1600B9
:1021D800B4FBF1F42FB9002E03DC002CEFD130252D
:1021E80005E0092EFBDD002A14BF372557253544A5
:1021F8001D7001370133E2E70A4B2DE90048D3E9A6
:1022080000BC5BEA0C030AD0074909681BEB010212
:102218004CF10003C0E900230120BDE8008800203C
:10222800FBE700BFF864002090880020F0B5264E38
:1022380004460F460FCE8DB06D460FC50FCE0FC5A5
:1022480096E80F0085E80F0014F0030335D16421E8
:1022580094FBF1F201FB124242B94FF4C87294FBAD
:10226800F2F302FB1343003318BF0123C3F11D032C
:1022780040F26D1201930420631E93FBF0F002FB01
:1022880004046FF0630093FBF0F020444FF4C8742B
:1022980093FBF4F31844063000220721013F5DF850
:1022A80022309742184490FBF1F4C4EBC404A0EB2D
:1022B800040004D1181A0DB0F0BD0123D6E701328D
:1022C8000C2AECD10020F6E7C0620308F8B51446E2
:1022D8001D4606464FF47A7200232046294631F0FF
:1022E800A3F82C4B3C22034493FBF2F002FB103181
:1022F800B17190FBF2F102FB1102182072714FF4D8
:10230800616293FBF2F292FBF0F100FB1122327151
:102318002149224A93FBF2F293FBF1F3980040F231
:10232800B55392FBF3F103FB1123B3F5896F2DDA53
:1023380040F2DA2293422BDCB3F5B77FB4BF002218
:1023480001221749182707FB02170B2137F811C07C
:102358009C4501DD0139F9D100F5FA60104430805F
:10236800481CB0700C2000FB02120E4901EB42021F
:10237800013392F834209B1AF3704FF47A720023D9
:102388002046294631F050F83281F8BD0322D8E7BB
:102398000222D6E780BC92C7801F860780510100C1
:1023A800F0620308BC62030837B505466846FFF7C4
:1023B80023FF044638B1DDE900232846FFF786FFEE
:1023C800204603B030BD40F2011328806B80A880FE
:1023D800A8712881F4E737B50546FFF7E5FF0446FD
:1023E80040B1064B02AA1B8822F8023D294628461E
:1023F8002CF011FD204603B030BD00BFF08A00204C
:1024080010B50288C178A2F5FA629308013940F242
:10241800B55404FB031381780C24013902F003023C
:1024280004FB02120C49847901EB42021821928EB6
:102438001344027901FB0323427900893C2101FB03
:102448000323064A224401FB03234FF47A72002136
:10245800C2FB030110BD00BFBC62030880436D3896
:10246800D1E900329A4206D05A1C0A6008B11B789A
:102478000370012070470020704710B502681146AC
:10248800531C036011F8024B0160D31C51780360A0
:1024980093781B0443EA0123111D0160D07823437C
:1024A80043EA006010BD03685A1C02601A4612F81D
:1024B800021B0260587841EA00207047D1E90023E6
:1024C8009B1A012B10B5044605DD0846FFF7EBFF04
:1024D8002080012010BD0020FCE703685A1C026020
:1024E8001878704738B50446D0E900031B1A9A4299
:1024F800154606DC31F0F6FA22682A4422600120EB
:1025080038BD0020FCE738B504460068154631F0B0
:10251800E9FA22682A44226038BD03685A1C02601E
:10252800197003685A1C02600A0A1A7003685A1C58
:1025380002600A0C1A700368090E5A1C02601970AE
:10254800704703685A1C026019700368090A5A1C0C
:102558000260197070472DE9F04F89B082468B46AA
:1025680015461C4600270DF1140829786E1C51B336
:10257800252903D05046D847013742E069782D29EC
:1025880005BFA978EE1CAE1C012518BF002530290F
:1025980006BF3178012300230293A1F1300308BF5D
:1025A8000136092B4FF0000916D96C2940F0A0809C
:1025B8003278642A06F1010544D024D8252A7BD034
:1025C80014D8002AD1D1384609B0BDE8F08F0A23C3
:1025D80016F8011B03FB09090846FEF73DF80A280F
:1025E800F5D9002DE1D0C9F10009DEE7582A1AD043
:1025F800632ABAD12E4621785046D847251D01377F
:102608002C463546B1E7732A4AD008D8662A56D0F0
:102618006E2AAAD12E46236804341F60F1E7752A72
:102628000AD0782AA1D1A2F15800424204F1040646
:1026380043464241102103E0261D434600220A2159
:10264800206807E02068002804F104061ADB4346E6
:1026580000220A21FFF7ACFD3446CDF80080029B2A
:102668004A4659465046FEF716F807447DE7206863
:1026780000280EDB434600220A210434FFF798FDA8
:102688003546EAE72D238DF8143040420DF1150345
:10269800DEE72D238DF8143040420DF11503EAE7EB
:1026A8002E46236800934A46002359465046FDF7B4
:1026B800F2FF251D0744A3E72E4625215AE72E469B
:1026C800073424F00703D3E9000103F1080430F0CC
:1026D8004DFD00EE100A4046FFF7F2FCCDF80080F1
:1026E800029B4A4659465046FDF7D5FF074488E7FE
:1026F8006429BCD00CD82529DFD003D800293FF4A1
:1027080062AF7EE7582911D063293FF474AF78E7A8
:102718007329C6D005D86629D2D06E293FF47BAF7D
:102728006FE775290DD078297FF46BAF58394A4285
:102738004A412068251D43461021FFF739FD2C46E4
:102748009EE7231D03932068434600220A21FFF7D2
:102758002FFD3546039C80E70FB413B5084C094993
:10276800206804AB53F8042B0193FFF7F4FE2068AC
:10277800FFF704F902B0BDE8104004B0704700BF8D
:1027880030700020BD190008F8B50C4C0C4E0D4FE8
:1027980004F510752068FFF71DF9616811B130461E
:1027A800FFF7DAFFA16811B13846FFF7D5FF1034FB
:1027B800FFF760F9AC42EDD1F8BD00BF64BC030877
:1027C800EBC00308F1C0030830B5264C264885B095
:1027D800FFF700F994F82430032B05D8234805B0F7
:1027E800BDE83040FFF74AB994F83200E26B94F83C
:1027F8003A3094F82810029094F831000190208F14
:10280800009052081A48FFF7A7FF04F12C0531344D
:1028180015F8010BFFF7BEF8A542F9D1154C16487B
:10282800FFF7D8F86278032A13D8DFE802F008081F
:1028380006021248FFF7CEF80BE01148FAE71148F4
:10284800FFF7C8F841F2B413E35C022B06D0032B60
:1028580006D005B0BDE83040FFF70CB90A48E9E7F3
:102868000A48E7E7A8770020F7C0030801C1030872
:1028780010C1030864B700203EC103084EC1030815
:1028880054C1030861C1030867C1030880C1030874
:1028980010B5074C0B46024606492068FFF75BFE59
:1028A8002068FFF76BF8BDE81040FFF7E3B800BFFA
:1028B80030700020BD1900080FB407B504A951F8FD
:1028C800040B0191FFF7E4FF03B05DF804EB04B0DB
:1028D80070472DE9F3471948194C1A4D1A4FDFF87C
:1028E8006C80FFF7E9FF04F51376A379E27994F891
:1028F80008A005EB820205EB83032046D2F8189165
:10290800D3F89430FEF7A3FD00F141012046FEF70D
:1029180094FD0246BAF1000F0AD0CDE900A940465D
:10292800FFF7CAFF0C34A642DFD102B0BDE8F0873A
:10293800CDF800903846FFF7BFFFF3E792C10308D0
:1029480000330020BC620308BEC10308AEC10308FF
:10295800F8B51048104D114E114FFFF7ADFF002488
:1029680074B9104BD3F8BC306FF003025A4312F518
:1029780080620BD055F824103046FFF79DFF03E026
:1029880057F82420002AF5D1202C01D00134E7E79C
:10299800F8BD00BFCCC1030850630308E2C10308B7
:1029A800401E0020801D00201FB5074B0293074BD7
:1029B8000193074B0093074A074B08490848FFF75C
:1029C8007BFF05B05DF804FB1FC2030827C203089C
:1029D80030C20308F6C10308F0C1030802C20308A5
:1029E80007C203082DE9F04F5348544D8DB0FFF747
:1029F80063FF0026B046B146514B1A680023934244
:102A080023DB0136172E05F14805F5D14D49D1E9EB
:102A1800020240090C68096940EAC2624FF47A73FD
:102A28004948B4FBF3F3FFF747FF0A2298FBF2F398
:102A380002FB138099FBF2F1009002FB11924348CC
:102A4800FFF73AFF0DB0BDE8F08F414951F8231068
:102A58008D4201D00133D2E7AC6A5CB107EE904AEF
:102A6800DFED3C6AF8EEE77A86EEA77AFDEEC77AE4
:102A780017EE904AD5E90C727F0947EAC2675209F6
:102A8800D5E90EA30B922146E217CDE90812099A5F
:102A980063430AFB0233A4FB0A0141F2883B1BEBA8
:102AA800000B19444FF0000C4CEB010C4FF47A72F8
:102AB80000235846614630F007FD0B9B099A0A909F
:102AC800634307FB0233A4FB070141F2883B1BEB7E
:102AD800000B19444FF0000C4CEB010C00234FF491
:102AE8007A725846614630F0EFFC062E18BF0A9BF2
:102AF8000A9918BF99444FF47A722B6CB3FBF2F31E
:102B080006934FF00A0318BF804490FBF3F203FBCF
:102B18001200CDE904200A9A92FBF3F203FB121388
:102B2800CDE90223CDE900A723462A680A483146A1
:102B3800FFF7C2FE65E700BF3CC20308881100200A
:102B48003401001000000010B8C20308DAC20308FC
:102B5800380100100024744983C2030810B50C4CD6
:102B680003461846FDF70CFB30B10A4B0A48597961
:102B7800BDE8104001319FE61846FFF7E7F9013834
:102B8800022804D8C0B20CF071FA2346E9E710BD58
:102B9800B2F603088868002008C3030810B50C4C77
:102BA80003461846FDF7ECFA30B10A4B0A48197982
:102BB800BDE8104001317FE61846FFF7C7F9013834
:102BC800022804D8C0B20CF060FA2346E9E710BD29
:102BD800B2F603088868002010C3030838B5034616
:102BE800FDF7CEFA80B3214B9B6C0133172B21D80C
:102BF8001F490C2202FB03121C4695684DB91C4A5A
:102C08000C210134172C17DD002401FB04208568F2
:102C18009DB1164B9C6412F0ABFD2A46214615481F
:102C2800FFF74AFE0C235C43114B185DBDE83840A2
:102C380013F0B8B81C46E2E7E7D99C42E1D10E4848
:102C4800BDE83840FEF71ABF1846FFF77FF9172886
:102C5800044606D8064A0C2303FB00239D68002D72
:102C6800D7D121460548BDE8384025E600000020B8
:102C7800B493030845C303081BC303082FC3030801
:102C8800F7B50346FDF77CFA044618B1FEF71AFFBC
:102C980003B0F0BD01AA1D491C4F184631F0B6F823
:102CA8002646254640B90B2D18D919490B2302464B
:102CB8001848FFF701FEEBE744B1012C0AD001AA3E
:102CC80039460020013431F0A1F8EBE7FFF73EF96F
:102CD8000546F4E7FFF73AF90646F0E7022C0DD16E
:102CE800A6F57A73B3F57A7F05D94FF4FA634FF4F2
:102CF8007A720949DCE7094B23F81560074B084845
:102D080033F915202946FFF7D7FDC1E763F3030818
:102D18005AC3030860C3030863F803080647002082
:102D28007DC303082DE9F34104462FF08BFD0428E9
:102D38003DD1631E2546E11C13F8012FA2F1610065
:102D4800192898BF203A8B421A70F5D1DFF87080A5
:102D5800271D15F8016B4046314633F042FA20B181
:102D68003146284633F03DFA20B1FEF7ABFE02B0FB
:102D7800BDE8F081BD42ECD1204609F03BFE0E488B
:102D88000E4CFEF727FE0E4800231A1902A95278A6
:102D98000A44195C02F8081C0133042BF5D10023FE
:102DA800694608488DF80430FFF786FDDFE70028FC
:102DB800E5D0FEF787FEE2E78AC3030848890020CA
:102DC800DE690308F4C003082DE9F74F80462FF0A9
:102DD80039FD474DDFF844912F680446F0B945485E
:102DE800454EFFF7B9FC012519F80430013B05FAF7
:102DF80003F33B4209EB040203D091683046FFF726
:102E0800ABFC0C34B4F5847FEED117B93B48FEF720
:102E1800E1FD03B0BDE8F04FFEF72CBE024638498D
:102E28004046FFF747F8064670B93648324DFEF778
:102E3800D1FD09EB0603284699680C36FFF78CFC90
:102E4800B6F5907FF5D1E4E798F800302D2B03BF55
:102E580008F1010804F1FF344FF0010A4FF0000AAD
:102E680000260C2303FB069B0193DBF80830009334
:102E7800194622464046FFF71DF8019B00282ED12F
:102E8800BAF1000F18D0162E0AD11F4B2B601F481D
:102E9800FEF7A0FD00991E4803B0BDE8F04F0BE512
:102EA800172E01D16B68F1E79BF800305A1E0123F9
:102EB80093401F432F60EAE7162E03D1C5F800A000
:102EC8001448E5E7172E17BF9BF800306F6003F131
:102ED800FF3201231EBF93409F432F60F0E7013666
:102EE800182EBFD10C4803B0BDE8F04FFEF7C6BDA1
:102EF8008C45002090C30308A1C303089AC30308A4
:102F0800A6C30308ABC30308FFFF3F00C3C30308FE
:102F1800A2C30308CCC30308B6C30308B4930308C9
:102F28002DE9F84F05462FF08DFC334F0446D7F8AE
:102F38000090C0B93148324D324FFEF74BFD0126A3
:102F480055F8241059B10B783BB106FA04F313EA8B
:102F5800090F02D03846FFF7FFFB0134F0E7BDE860
:102F6800F84FFEF787BD024627492846FEF7A2FF1D
:102F780078B92648264C234DFEF72CFD54F8041F3B
:102F88000029ECD00B78002BF8D02846FFF7E4FB9B
:102F9800F4E72B78DFF868B02D2B03BF013504F177
:102FA800FF344FF0010A4FF0000A00265BF8268034
:102FB800B8F1000F04D11748BDE8F84FFEF75EBD21
:102FC800224641462846FEF775FF98B90120B040D1
:102FD800BAF1000F09D0FEF773FE0F48FEF7FAFCAE
:102FE80041460E48BDE8F84F66E440EA09003860FB
:102FF8000B48F3E70136D9E7D0280020D4C30308EB
:1030080024640308DEC30308A6C30308E2C3030855
:1030180020640308B6C30308C3C30308A2C3030894
:10302800CCC303082DE9F347204E21483768214CCB
:10303800DFF89080DFF88490DFF88CA0FEF71EFDA3
:103048000025BD4202DB02B0BDE8F08733689D422F
:1030580029DCA288D3B2162B18D808EB8303D3F83F
:10306800EC31002B08BF4B4621685046FFF774FB34
:10307800E3885A040CD5E0890090A38962892189E4
:103088000D48FFF719FC01351034DAE70B4BEBE775
:103098001B0405D5D4E902120948FFF70DFCF2E735
:1030A800FEF7E8FCEFE700239B88FFDE4C390020A1
:1030B800EEC303084C35002029C40308B2F6030800
:1030C8003BC40308BC6203081AC40308F8B5847932
:1030D80014F0C003054602D0402B17D0F8BD14F0F9
:1030E80017FB04F00F04062C064605D10146BDE87F
:1030F800F8401648FFF7E0BB284614F035FB324687
:103108000146BDE8F8401248FFF7D6BBC37911481D
:10311800114E124F242B96BF114D002505EBC30508
:10312800FEF758FC00242B799C4203D3BDE8F840F5
:10313800FEF7A0BC14B13046FEF74CFC2B683846AD
:1031480053F82410FFF708FB0134ECE745C40308E3
:1031580055C403086CC403087CC40308A2C303084D
:103168000495030870B58379164603F00F028AB0F8
:103178000546062A4CD8DFE802F0041316181B1D72
:1031880049000C7813F0C00344D0402B3CD12146B1
:10319800284614F0A5FA002856D0FFF7DDFA33E0E8
:1031A80091F90040EEE70C88ECE7B1F90040E9E757
:1031B8000C68E7E791ED000A01A8FEF781FF0146D8
:1031C8002648FFF7C9FAFEB1AB7913F0C00F1BD13F
:1031D800284614F0C9FA07EE900A01A8B8EEE70AE3
:1031E800FEF76EFF01461E48FFF7B6FA284614F0B0
:1031F8008FFA07EE900A01A8B8EE670AFEF760FF9B
:1032080001461748FFF7A8FA0AB070BD1348F9E756
:103218000024B7E7042A0CBF124813482146FFF7D9
:103228009BFA002EF0D0AB7913F0C00FECD12846F2
:1032380014F09AFA0446284614F06AFA214602461F
:103248000A48FFF789FADFE701A9284614F074FB5A
:1032580001AA21460648FFF72FFBD5E7F4C003086B
:10326800A2C3030869C40308A8F003087EC40308BE
:1032780085C4030838B50D46044614F0D3FA2A4627
:1032880001462046BDE838406CE72DE9F0470024A8
:10329800DFF86090DFF860A08AB0074625464FF057
:1032A8000B0808FB049601A9304614F045FB394683
:1032B80001A832F0E4FF78B101A95046FFF74CFAB3
:1032C80000213046FFF7D6FFFEF7D4FB3046FFF764
:1032D800FDFEFEF7CFFB01350134B4F5AD7FE0D13B
:1032E80015B90348FEF7CAFB0AB0BDE8F08700BF6E
:1032F800B6C30308D4AB0308E1C403082DE9F04FB3
:103308002DED028B8BB080462FF09CFA054628B134
:10331800012825D198F800302A2B21D18848DFF8D8
:103328004082884FFEF7AAFB00244FF00B0909FBE7
:10333800048601A9304614F0FFFA01A93846FFF7C0
:103348000BFA013429463046FFF794FFFEF792FB4B
:10335800B4F5AD7FEBD10BB0BDEC028BBDE8F08FBF
:103368003D21404632F03DFF002800F0E48003464E
:1033780013F8012C202A03F1FF312ED0A3EB080704
:10338800441C2378202B04F1010228D0DFF8D0B1A7
:1033980000264FF00B0A0AFB06B501A9284614F0CF
:1033A800CBFA01A82FF04EFA01A981460246404601
:1033B800FEF780FDA8B9FBB2994512D1AB7903F0AD
:1033C8000F08B8F1060F14D120462FF03BFA21461A
:1033D8000246284614F033FABDE70B46C8E7144600
:1033E800CFE70136B6F5AD7FD5D15748FEF746FB96
:1033F800B1E713F0C0030AD0402B5ED05348FEF764
:10340800E9FA2846FFF762FEFEF734FBA3E72378C4
:10341800002BF3D04E49204632F01FFF06462046C7
:103428002FF010FA8642E9D12046FDF789F82846A0
:10343800B0EE408A14F098F907EE900AF8EEE77AB1
:10344800F4EEC87AF1EE10FAD8D8284614F060F9EC
:1034580007EE900AF8EE677AF4EEC87AF1EE10FA01
:10346800CCDBB8F1050F17D0B8F1040F1FD12146F6
:1034780014F8013B202BFAD0092BF8D0013900238E
:103488000A2011F8012F303AD2B2092A02D800FBDB
:103498000323F6E708EE103A284614F0C3F9B8F10A
:1034A800050F35D8DFE808F031313D3D414420466D
:1034B800FEF74CFD08EE100AEEE7EB799FED258A42
:1034C800242B96BF244E064606EBC306002796F823
:1034D80004A03B46B946BA4500D91BB1B9F1000F63
:1034E8008CD0D9E733686FF0004253F827002146A3
:1034F800FEF7E0FC002808BF08EE107A0ABF012397
:1035080000234FF001090137E5E718EE103A037080
:1035180001A91248FFF720F900212846FFF7AAFE63
:1035280019E718EE103A0380F2E780ED008AEFE71A
:1035380080ED008AECE74046FFF7A7FE0BE700BFE7
:10354800A2C40308E1C40308B6C30308CDC4030832
:10355800B4C403080000000004950308C2C40308AB
:10356800D4AB03082DE9F04F81468DB0884600267C
:10357800464BF418464B1868FEF700FA94F806B064
:103588000BF030034B4549D1204614F029F9FEF7DA
:1035980085FB0546204614F0F7F8AA68019217182B
:1035A8008246204614F03EF90BF00F010546019AB9
:1035B800062968D8DFE801F0043A3F43484C5A002E
:1035C80012F80A200378D31AD3F1000A4AEB030A47
:1035D80018F0200F02D0BAF1000F1FD103A920461E
:1035E80014F0AAF918F0400F0DD0BAF1000F0AD163
:1035F80003A92848FFF7B0F8524629462046FFF7A6
:10360800B1FDFEF737FA03A92348FFF7A5F8002212
:1036180039462046FFF7A6FDFEF72CFA0B3640F692
:10362800DE639E42A4D10DB0BDE8F08F12F90A20E6
:1036380090F90030C7E732F80A200388C3E732F967
:103648000A20B0F90030BEE752F80A200368BAE74A
:1036580097ED007AD0ED007AB4EE677AF1EE10FAC1
:103668000CBF4FF0010A4FF0000AB1E7204614F0F2
:103678004FF82946421C384632F0C8FDB0FA80FAA5
:103688004FEA5A1AA4E74FF0000AA1E7D4AB03089F
:1036980030700020DCC40308DDC40308022810B51C
:1036A8000C460FD80BF060FB0748FEF70FFA074BE4
:1036B800074859790131FFF7FFF821463020BDE866
:1036C80010404FE710BD00BFE7C40308886800201A
:1036D800F7C40308022810B50C4613D80BF05CFB9E
:1036E8000948FEF7F3F9094B094819790131FFF741
:1036F800E3F821461020FFF735FF21462020BDE8DA
:1037080010402FE710BD00BF31F90308886800207A
:10371800FFC403080CB407B510F0400009D069B91C
:103728002320FEF737F905A904980191FFF7B0F8AF
:10373800012003B05DF804EB02B070470020F8E701
:103748000CB4830607B500D551B905A904980191B1
:10375800FFF79EF8012003B05DF804EB02B0704754
:103768000020F8E72DE9F04F824687B091460E46D3
:1037780015460027337896F90280049373780593E9
:1037880096F803B0B8F1000F32D0B9F1000F34D079
:103798002B78049C6A7895F90210E8789C422AD123
:1037A800059C944227D1884525D1ABEB000CDCF170
:1037B800000444EB0C04CDE90210CDE900322146A7
:1037C8003B460F4A5046FFF7A5FF059B0193049B14
:1037D8000093CDE9028B3B46094A21465046013702
:1037E800FFF7AEFF102F06F1040605F10405C1D15D
:1037F80007B0BDE8F08F0024DDE74C46E5E700BFE1
:103808000CC503082DE9F0478AB005462FF01AF8D1
:10381800C2B232B969490120FFF7A4FF0AB0BDE876
:10382800F087052266492846FEF744FB88B915202B
:10383800FEF734FA10B16149FEF7BEF9614B002278
:103848001A60DA609A615A621A63DA639A645A658E
:10385800E4E707225C492846FEF72CFB04460028CB
:1038680075D12021284632F0BCFC06462EF0EAFF2E
:10387800C5B285BB5548FEF76FFF2C46544D21460F
:1038880028460134FEF768FF172CF8D1FEF7F2F846
:103898004C4EDFF84C914F4FDFF848810024214609
:1038A8004846FEF759FFDFF840A10025326801239A
:1038B800AB40134214BF3946414650460135FEF726
:1038C8004BFF172DF2D10134FEF7D4F8082C06F17E
:1038D8000C06E4D1A2E7304601AA3F493E4E30F03B
:1038E80095FA02AD00283DD0022C15D1029A072A7C
:1038F8002AD80399162927D80378722B17D06E2B4C
:1039080022D10C2353432F48012202FA01F1C25855
:1039180022EA0102C25013E0FEF718FB01AA45F89B
:1039280024003146002030F071FA0134DAE70C2324
:10393800244C5343012000FA01F1E0580843E050B9
:103948002148FFF75FFF69E7FEF7BCF8F8E728466C
:1039580001AA2149204E30F059FA002402AD78B16D
:10396800052C02D1FEF7AEF858E7FEF7EFFA01AAE8
:1039780045F824003146002030F048FA0134EEE7DB
:10398800052CEFD1029A0F2AECD8039D072DE9D810
:10399800049C162CE6D8059800F17D03FA2BE1D893
:1039A8000699FF29DED8054B03F8225003EB820362
:1039B80098705C70D9700948C3E700BFED450020D6
:1039C80020C503083046002026C50308F5C00308B3
:1039D8002EC5030861C5030863F30308B2F603089C
:1039E800A8F0030868E8030833C503082DE9F04F79
:1039F800DFF8FCB085B08046894617460E46154666
:103A08004FF0000A002F6ED072686B689A4268D136
:103A1800B468AB6824F07F4423F07F43E31A5C4228
:103A28005C4195F90A300393B5F908300293B5F96A
:103A380006300193B5F9043000935A46534621469F
:103A48004046FFF767FE96F90A300393B6F9083047
:103A58000293B6F906300193B6F9043000935A463A
:103A68005346214640460AF1010AFFF769FEBAF1BA
:103A7800080F06F10C0605F10C05C3D177B3002435
:103A880026460025012303FA05FA3A5959F8043065
:103A980053403AEA030314BF4FF0010B4FF0000BF9
:103AA80012EA0A0F06D000953346104A5946404696
:103AB800FFF730FE59F804301AEA030F06D00095D4
:103AC80033460A4A59464046FFF73AFE0135172D54
:103AD800D8D10136082E04F10C04D2D105B0BDE8C6
:103AE800F08F00249DE73C46ADE700BF4EC50308B4
:103AF80039C503087FB50546FCF742FB002858D0B6
:103B08002D490022012004B0BDE870406EE72D2B3E
:103B180003D0A3F13002092A46D8042C04DD04B0EE
:103B2800BDE87040FDF7CEBF2846FEF70FFA04AB9C
:103B3800621C03EB440424F80C0C15F8013F303BDD
:103B4800092BFAD914462B78002BE0D1052CE6D1A5
:103B5800BDF904309AB2072AE1D8BDF90600A0F2EF
:103B6800EE2292B240F2DC54A242D8D8BDF9081035
:103B7800A1F2EE2292B2A242D1D8BDF90A20904217
:103B8800CDDC9142CBDBBDF90C5005F17D04A4B22C
:103B9800FA2CC4D8084C0C2606FB03439880D9801D
:103BA8001A819D7204B070BD202BB8D10135224610
:103BB800C8E70446C7E700BF304600202DE9F04FAC
:103BC800804685B00E461546894692460027002451
:103BD80009EB040393F8C0300393002D48D00AEB97
:103BE8000403039A93F8C030D11AD1F1000B4BEBC0
:103BF800010BCDE90043204A3B4659464046FFF7B2
:103C080089FD039B1C4ACDE9004359463B46404683
:103C18000134FFF795FD062CDAD10137062F09F19B
:103C280006090AF1060AD2D106F1E40A124E002466
:103C38001AF8019BF5B12B19404693F8E430A9EB2B
:103C4800030257425741CDE900433246062339461D
:103C5800FFF760FDCDE90049062332463946404664
:103C68000134FFF76DFD0B2CE2D105B0BDE8F08FF4
:103C7800AB46C6E72F46EDE763C503087FB50346A5
:103C8800FCF77EFA044630B100221F490120FFF7F5
:103C980095FF04B070BD6A461C491C4E184630F0AA
:103CA800B5F801ADC0B1032C02D1FDF70BFFF0E769
:103CB800FEF74CF96A4645F824003146002030F0FA
:103CC800A5F80134EEE70628EFD10A2AEDD80E4808
:103CD800104480F8E43012E0032CE6D1039B0F2B4C
:103CE800E3D8DDE90112C8B20528ECD8052ADCD8EA
:103CF800054C062505FB0040104480F8C0300448F8
:103D0800FEF7DAFDC5E700BF3862002063F3030859
:103D180063C503082DE9FF47DFF86CA0814690468C
:103D28000E4615460027B8F1000F2AD02B88328896
:103D38009A4224D174886A88A21A54425441EA7873
:103D48000292AA782146CDE9003248463B465246BF
:103D5800FFF7E0FCF3780293B378019336F8043B5D
:103D6800009352463B46214648460137FFF7E8FC98
:103D7800102F05F10405D6D104B0BDE8F087002462
:103D8800DDE74446E6E700BF77C503082DE9F041C3
:103D98000646FCF7F5F9044628B10022244901201B
:103DA800BDE8F041B6E73046FEF7D0F80F280546E3
:103DB8002EDC3046FCF7F3FFDFF884801D4F064603
:103DC80020353046FEF7C2F838F81430984227DC20
:103DD800012C11D0022C13D027F8250030462C21B5
:103DE80032F0FFF9064678B1013601230134BBB140
:103DF800032CE6D1BDE8F08107EB85039870EDE769
:103E080007EB8503D870E9E7A21E53425341EDE75B
:103E180022460F2308490948BDE8F041FEF74CBD8A
:103E2800002347F82530BDE8F041FDF74BBE00BF41
:103E3800B8620020386200205AC3030860C3030830
:103E4800046503082DE9F04FDFF868808FB0074656
:103E58008A46164600240DF124095AF824300293A4
:103E6800494602A82BF0CEF816B356F82430029D26
:103E78000393EB1A5D420DF1100B5D41594603A8FF
:103E88002BF0C0F8CDF800B0234642462946384604
:103E9800FFF740FC2346CDF80090424629463846B5
:103EA8000134FFF74DFC202CD7D10FB0BDE8F08FBF
:103EB8003546EFE789C503082DE9F04F87B0054679
:103EC800FCF75EF9044638B1002263490120FFF788
:103ED800B9FF07B0BDE8F08F2846FEF737F81F286E
:103EE800074600F3B1802846FCF759FF5A4B009467
:103EF80043F82740834625462646A046A146A246C3
:103F08000193564BE1B2E05C0DF10C0E0023DC4648
:103F18001BF8012B1AB1904211D00A2B0BD10DF1CD
:103F2800180E734490424FF0000E03F80CEC08D0C2
:103F3800FDF7C8FDCDE703F80E200133E7E7024699
:103F4800EDE701390CF1010B03293FD8DFE801F057
:103F58005A2602730DF10B014FF0010E11F8013FC3
:103F6800C3B300223E4810F802C09C4503D001327A
:103F7800072AF7D14A46542B53D04F2B53D0422B04
:103F880053D04E2B53D0492B53D0572B04D1052354
:103F98000EFA03F348EA03089146DFE70DF10B0236
:103FA800012112F8013FABB14E2B30D0452B30D058
:103FB800532B30D0572B30D0552B30D0442BF0D149
:103FC800052301FA03F34AEA030AEAE703A8FDF71F
:103FD800BDFF06460134052C93D1009B05F00F0563
:103FE80045EA834545EA8A5A4AEA0929360149EAEF
:103FF8000838019BF6B248EA060643F827601FF026
:1040080031FC66E703A8FDF7A1FF0546E2E70023B8
:10401800D7E70123D5E70223D3E70323D1E7042316
:10402800CFE70023B4E70123B2E70223B0E7032375
:10403800AEE70423ACE703A8FDF788FF03460F2883
:10404800C8BF00230093C5E71F2322460549064839
:10405800FEF732FC3DE700BF386200200A6503081E
:10406800F2BF03085AC3030860C303082DE9F347E6
:10407800DFF868A081460F46904602260024B8F172
:10408800000F28D038F8243037F8241038F80620E4
:1040980099421ED1BD5BA91A4D424D41CDE900326E
:1040A8002946234652464846FFF734FBBB5B01933B
:1040B80037F82430009352462346294648460134AF
:1040C800FFF73EFB042C06F10406D8D102B0BDE888
:1040D800F0870025E2E74546E8E700BF93C50308F7
:1040E8002DE9F0410546FCF74BF8064628B10022B9
:1040F80027490120BDE8F041B8E76FF000422549A3
:104108002846FDF7D7FE70B9214B4FF47A714FF46A
:10411800FA6219805A809980DA8019815A819981C6
:10412800DA81BDE8F0812846FDF710FF0328044630
:1041380026D82846FCF733FE064670B1FDF706FF81
:10414800012507463046FCF72AFE10B1FDF7FEFEB2
:104158002DB9BDE8F041FDF7B5BC0546F2E7A7F279
:10416800EE2240F2DC539A42F3D8A0F2EE229A42B1
:10417800EFD8074B23F8247003EB84035880D0E76B
:104188003246032304490548BDE8F041FEF794BBD5
:104198008031002020C50308A4C5030860C30308B4
:1041A8002DE9F04F2DED088BDFF80C9197B0804684
:1041B80092460D461446002695ED008AB5EE408AD3
:1041C800F1EE10FA70D0D5ED019A95ED029AD5ED81
:1041D800038ABAF1000F3ED094ED000A94ED01BABB
:1041E800D4ED02AA94ED03AAB4EE408AF1EE10FAD7
:1041F8005FD1F4EE4B9AF1EE10FA5AD1B4EE6A9A06
:10420800F1EE10FA55D1F4EE4A8AF1EE10FA0CBF2D
:104218000127002712A8FDF753FFB0EE4B0A83468B
:104228000EA8FDF74DFFB0EE6A0A05900AA8FDF743
:1042380047FFB0EE4A0A049006A8FDF741FF059B28
:10424800049A03900292CDE900B34A4633463946B0
:104258004046FFF75FFAB0EE480A12A8FDF730FFB4
:10426800B0EE690A07460EA8FDF72AFFB0EE490A24
:1042780083460AA8FDF724FFB0EE680A049006A852
:10428800FDF71EFF049B0390CDE901B30097334669
:104298004A46002140460136FFF752FA0C2E05F136
:1042A800100504F1100487D117B0BDEC088BBDE8E8
:1042B800F08F0027AEE700BFACC5030870B5044611
:1042C800FBF75EFF064628B100222E490120BDE813
:1042D800704065E705222C492046FDF7EBFD40B903
:1042E8002849002201EB001301300C281A60F9D18B
:1042F80070BD2046FDF72AFE0B2805463AD8204611
:10430800FCF74DFD064648B3FCF71AF91D4B03EBC5
:10431800051383ED000A01243046FCF740FD0646EC
:1043280038B1FCF70DF9174B03EB051383ED010AC0
:1043380001343046FCF733FD064638B1FCF700F986
:10434800104B03EB051383ED020A01343046FCF7EA
:1043580026FD28B9BDE87040FDF7B4BB0446DBE78D
:10436800FCF7EEF8074B032C03EB051585ED030A64
:10437800AAD0EFE732460B2304490548BDE8704050
:10438800FEF79ABAE048002020C503085AC303087C
:1043980060C303082DE9F04F834687B092460C4668
:1043A800164600274FF019094FF46178BAF1000F4B
:1043B8004DD0B078A5783378727896F803C096F81F
:1043C80004E07179854240D125789D423DD16578D8
:1043D80095423AD1E578654537D12579754534D187
:1043E80065798D4214BF0025012519FB028219FB4E
:1043F8000383CDE9010303920091CDE904CE3B4646
:10440800144A29465846FFF785F923790593E37836
:10441800049363780F4A19FB03830393237819FBEA
:1044280003830293A37801936379009329463B465B
:1044380058460137FFF784F90C2F04F1060406F1FA
:104448000606B3D107B0BDE8F08F0025CDE7554685
:10445800DBE700BFC0C503082DE9F7438146FBF73A
:104468008FFE064638B1002237490120FFF792FF38
:1044780003B0BDE8F0834846FDF768FD0B28044605
:104488005BDC0625454309F101008DF80760FCF760
:1044980086FCDFF8B480814605EB0807464638B14C
:1044A800FDF754FD03289EBF012378718DF807306E
:1044B8004846FCF774FC814660B1FDF747FD0D28BE
:1044C80008D8062303FB046398709DF8073001336E
:1044D8008DF807300DF1070239464846FDF7B8FD5B
:1044E800FCF75DFC814660B1FDF730FD302808D847
:1044F8009DF80730062202FB04620133D0708DF864
:1045080007304846FCF74BFC60B1FDF71FFD0D284E
:1045180008D89DF80730062202FB04640133207195
:104528008DF807309DF80730062BA1D0002345F8F9
:104538000830BB80FDF7C6FA9AE70B2332460349D9
:104548000348FEF7B9F993E7CA4900205AC303089C
:1045580060C303082DE9F04F374FDFF8E4A089B0B6
:10456800814690460C46164602F1400B94F90250DB
:1045780000230C2202FB03F130480956A94256D009
:104588000133082BF6D108365E4504F10804EDD155
:1045980009B0BDE8F08F96F9023007939D42328842
:1045A800F178307996F806C096F805E03DD125886F
:1045B80095423AD1E5788D4237D12579854234D173
:1045C800A579654531D16579A5EB0E035D425D415D
:1045D80057F82E3057F8211057F82000049357F851
:1045E8002C300393CDE900210290079B52462946BF
:1045F8004846FFF78FF8627994F9023057F822207D
:104608000492A27957F822200392227957F822209F
:104618000292E27857F822200192228800922946D5
:1046280052464846FFF78CF8ADE70025D0E7B8F1C9
:10463800000FB0D14546DEE7E8A003088C8A0020C9
:10464800DEC503082DE9F3410346FBF799FD30B1B8
:1046580035490022012002B0BDE8F0417AE7CDE9F2
:10466800000018465D1CFDF771FC44B2204611F0AD
:104678000FF8064600283CD08DF802400124284651
:10468800FCF78DFB074628B1FDF760FC0134ADF857
:104698000000E4B2DFF8948000253846FCF77FFB81
:1046A8000746F8B1FDF752FC002258F8221088425C
:1046B800D3B203D00132112AF7D1002358F82320AE
:1046C80090420FD1022D1CD0032D1FD0012D12D0E6
:1046D8005A1E0F2A03D88DF803300134E4B201358D
:1046E800042DDAD1052C17D802B0BDE8F041FDF74A
:1046F800E9B90446C3E71A1F042AF0D88DF8043034
:10470800EBE7082BEBD88DF80630E6E75A1F052AA9
:10471800E5D88DF80530E0E76B4603CB3060716073
:1047280002B0BDE8F08100BF4A8A0020E8A0030873
:104738002DE9F04F834685B092460D461646002770
:104748004FF019094FF46178BAF1000F3ED0327872
:104758002C787178B378F078944235D16C788C42A3
:1047680032D1AC789C422FD1EC78A4EB000CDCF170
:10477800000444EB0C0419FB008019FB0383CDE90A
:104788000113039000923B46114A21465846FEF712
:10479800C1FFEB780E4A19FB03830393AB7819FB2F
:1047A800038302936B78019315F8043B0093214629
:1047B8003B4658460137FEF7C3FF142F06F104069F
:1047C800C2D105B0BDE8F08F0024D4E75446E0E735
:1047D800FBC503082DE9F04F0F468DB07A49064610
:1047E800FDF782FB0546002840F0AC80774930464B
:1047F800FDF77AFB0546002840F0A680744930464C
:10480800FDF772FB0546002840F0A080714930464C
:10481800FDF76AFB002805460ABF01241024354627
:104828000FB144F020046C4B6C4E93F8049093F84D
:1048380005806B4F0193BE42C0F08A80FDF7EAF90C
:1048480048460AF0A9FA40460AF08EFA6549284611
:10485800FDF74AFB08B144F0400414F0110F00F0D2
:10486800D1816148FDF732F90020FEF79DF804F088
:104878003003302B02D15D48FDF728F95C4D5D48C7
:10488800DFF8A8A1DFF8A8B1FDF720F95A48FDF72D
:104898001DF9D5ED007A594AF5EE407AF1EE10FA95
:1048A8000CBF012100212046FEF74AFF2A46544941
:1048B800544D2046FFF774FC5348FDF707F995F966
:1048C8000210524AB1FA81F149092046FEF738FF31
:1048D8002A464F492046FEF745FF4E48FDF7F6F8B1
:1048E8004D4A4E492046FFF781F84D48FDF7EEF84E
:1048F8004C4B1E684C4B1F684FF000085AF8285064
:104908009DB32B78DBB14FF0010909FA08F967EA82
:10491800060313EA090F14BF012100212B465A464A
:104928002046FEF7F7FE66EA070313EA090F5A4620
:104938002B4614BF012100212046FEF701FF08F194
:104948000108DBE701246BE7022469E7042467E731
:104958007388C3F30B021B04D6E9011048BF02EBAE
:1049680042022FF0BFF8143665E7DFF8C8A0A84662
:1049780067EA060B2D4B53F82850002D5CD02B7896
:10498800FBB14FF0010909FA08F917EA090F0BD032
:1049980066EA070313EA090F52462B4614BF0121A2
:1049A80000212046FEF7B6FE16EA090F09D01BEAD9
:1049B800090F2B46524614BF012100212046FEF75D
:1049C800BFFE08F10108D5E723C6030831F903083B
:1049D800E7C40308C6EC0308886800204000040800
:1049E800C40304082AC60308FBFA030837C60308E9
:1049F800E048002077F903085DFA030872C6030847
:104A0800844A0020ED45002081C603088BC60308B0
:104A1800044C002098C6030830460020A44B002010
:104A28009EC6030884320020D0280020246403088E
:104A3800A6C60308B2C603088948DFF8B892DFF8AB
:104A4800B882FDF743F8874B1E68874B1B68734095
:104A5800DB4303934FF0010B039A0BFA05F31A4259
:104A680018BF5F46814A08BF0027334002934FF0C2
:104A78000C0303FB05233946D3F808A00CBF4A46AC
:104A8800424653462046FEF745FE029A5346002A00
:104A980014BF4A464246394620465D44FEF750FE5A
:104AA800162DD7D17248734E734FFDF70FF80023B8
:104AB8007248089304935D460BEB06021BF800301E
:104AC80012F8011C0CAA1A440DF1300C02F8201C33
:104AD8001BF8072094440CF8101C2DB1A3EB020C12
:104AE800DCF1000545EB0C050BF1010BBBF1050FE3
:104AF800E2D1002608AB624A8DF8146029462046A8
:104B0800FEF708FE04AB5E4A29462046FEF718FE6B
:104B18005C48FCF7DBFF5C4A5C492046FFF71AFD5E
:104B28005B48FCF7D3FF5B4A5B492046FFF78AF9ED
:104B38005A48FCF7CBFF5A4A5A492046FFF7EAF889
:104B48005948FCF7C3FF534A53492046FFF736F844
:104B58005648FCF7BBFF564A56492046FFF7E8FD82
:104B68005548FCF7B3FF554A55492046FFF712FC54
:104B78005448FCF7ABFF544A54492046FFF776FAED
:104B88005348FCF7A3FF4FF0FF331A46514920461C
:104B98002AF0DEF95048FCF799FF30462146FEF727
:104BA800E1FCE00643D5019B214630461F795D793B
:104BB800FEF790FD21460120FEF78CFD21460220DC
:104BC800FEF788FD21463046FEF768FD21460120A4
:104BD800FEF764FD21460220FEF760FD38460AF024
:104BE800DBF828460AF0C0F83C48FCF76FFF791C50
:104BF8003B48FDF761FE3B48691CFDF75DFE3A48FE
:104C0800FCF764FFA10704D5019B21461879FEF73C
:104C180061FD620704D5019B21465879FEF73EFDE8
:104C2800324C334B9C420DD30DB0BDE8F08F019B45
:104C380021461879FEF74EFD019B21465879FEF76B
:104C48002DFDDFE76388C3F30B021B04D4E90101E0
:104C580048BF02EB42022EF045FF1434E1E700BFE3
:104C680021F70308444C00208C450020B493030826
:104C7800BDC60308DE6903084889002040B7002044
:104C8800C1C603081AFA03084A8A0020FCB60020A5
:104C9800D0C303083862002044690020CDC6030849
:104CA800B8620020C4690020C8C60308D3C6030838
:104CB80078470020444B0020D7C60308CA49002083
:104CC800364A0020E0C603088031002070310020F9
:104CD800E8C603083AB4002023C60308F3C603084D
:104CE80010C3030808C3030816C7030840000408D4
:104CF800C403040818C603080EC60308012169E5A1
:104D0800002167E5F7B50746FBF73AFA044630B1E4
:104D1800002222490120FFF70BFD03B0F0BD384601
:104D2800FDF714F91328054630DC8600781C8DF849
:104D38000740FCF734F8194C074640B1FDF706F96F
:104D480023289EBF012304F825008DF80730384634
:104D5800FCF725F8074650B1FDF7F8F80D2806D8F6
:104D6800A31958709DF8073001338DF80730B11C2E
:104D78000DF1070221443846FDF76AF99DF807301E
:104D8800042BCAD0002344F82530C6E71323224653
:104D980003490448FDF790FDBFE700BF78470020AE
:104DA8005AC3030860C303080EB40FB505AB0190DE
:104DB80053F8042B0649039301A8FDF7CCFB019B8C
:104DC80000221A7004B05DF804EB03B0704700BF0E
:104DD800950600082DE9F043344B8DB00CAA1B88CA
:104DE80022F80E3D054609A82AF015F8BDF922203B
:104DF8003C2192FBF1F301FB132109B21EB2BDF86D
:104E080024300029B8BF4942B3F5FA6F1AD39DF888
:104E18002630013B0B2B15D89DF82730013B1E2B64
:104E280010D89DF82830172B0CD89DF829303B2B2B
:104E380008D89DF82A303B2B04D8BDF82C30B3F5A0
:104E48007A7F30D300201A4B0993ADF828008DF8EB
:104E58002A00ADF82C000446002E9DF828709DF815
:104E680029C09DF82AE0BDF82C809DF827000791FD
:104E7800B4BF4FF02D094FF02B09002EB8BF764272
:104E88000090BDF824209DF826300A49CDE9059602
:104E9800CDE903E8CDE9017C2846FFF785FF2046E8
:104EA8000DB0BDE8F0830124D6E700BFF08A0020EA
:104EB800000001012FC703080FB437B50B490C4890
:104EC800096800680B4D06AB53F8042B0193FDF7F6
:104ED80042FB04462868FCF752F90028FAD020461D
:104EE80003B0BDE8304004B0704700BF503900201F
:104EF800543900207C7000202DE9F04F87B003461C
:104F0800FBF73EF9064620B1FCF7DCFD07B0BDE82B
:104F1800F08F05AA6049DFF8AC91DFF8ACA1DFF8A3
:104F2800ACB118462EF072FF34460546B0464FF035
:104F3800FF37A5B9594B78B20C2606FB05F2D118F4
:104F4800D256824200F08B800135082DF5D1B8F198
:104F5800000F34D152483946FFF7AEFFD6E7012E8D
:104F68000ED0022E11D01EB92846FCF7EFFF0746D7
:104F780005AA494900202EF049FF01360546D8E721
:104F88002846FCF7E3FF8046F2E74946284631F019
:104F980076F920B94349284631F071F908B144F04F
:104FA80001045146284631F06AF928B9594628467D
:104FB80031F065F90028DBD044F00204D8E7002C72
:104FC80008BF03240023E4B20293CDE900841A4603
:104FD800194610F019FA054610B939463248BBE7A8
:104FE800424639463148FFF767FF39463048FFF7F0
:104FF80063FF304B1C68204610F0E6F9284610F095
:10500800E3F900210846FCF73BF900210120FCF7F1
:1050180037F92046FCF7BFF870B101210020FCF7F2
:105028002FF92046FCF7B1F801462846FCF7B6F8F8
:1050380000210846FCF724F92846FCF7ACF80028BC
:10504800E7D001210020FCF71BF92846FCF79DF862
:1050580001462046FCF7A2F800210846D7E74D682C
:10506800002D3FF474AF39461348FFF725FF54B1BC
:105078006979A14207D022461048FFF71DFFE1B227
:105088002846FCF779F8EB6A002BAED00C48FFF7FE
:1050980013FF0023EB62A8E763F303088C8A002060
:1050A8005DC70308B5CD030885C70308A4C703086F
:1050B8000FC8030834700020C1C70308D9C7030804
:1050C800F9C70308B9E70308B1E60308ADCD03083B
:1050D8002DE9F04F4FF0000C85B086460746804614
:1050E800054600F1400908F1100B2B463E4612E038
:1050F800F4EC016A1AED047AD3ED007AE6EEC77A89
:10510800C3ED007AAC420AF1100AF1D104335B45D1
:1051180006F1040602D0B2464446F3E71E464E4561
:105128001CD006EB0C0BBA46B04607E0F8EC016A57
:105138001AED047AE6EEC77AC4ED047AD845D4EDC0
:10514800047A0AF1100AF1D1D5ED006A87EEA67A41
:10515800103617EE108A44F8108FE0E70CF1040CB3
:10516800BCF1100F05F1140507F104079846BAD1F0
:105178000023009301930293039302F1100705465D
:105188006C4652F8043B44F8043B6E467346AB4207
:1051980024D1BA420EF1100E03F11405F1D14030BA
:1051A80004AE01F11003054656F8044D43F8044CCB
:1051B8001A1F0446AC42D2ED007A1AD150ED016AAA
:1051C80087EEA67A8A42A0F11400A4F110051346CE
:1051D80082ED007AE8D105B0BDE8F08FB6EC017A2F
:1051E80054ED017AF3EC016AE6EEC77A44ED017AF0
:1051F800CDE7F4EC016AB3EC017AE6EEC77AC2EDCA
:10520800007AD7E71FB50C46024669461030FFF70B
:105218005FFFDDED007AB6EE007A67EE877AC4EDBF
:10522800007ADDED017A67EE877AC4ED017ADDED6B
:10523800027A67EE877AC4ED027A04B010BDD1ED28
:10524800007A90ED066AD0ED095AB8EEE77AD0ED0B
:10525800047AE7EE077AB7EE005AC0ED047AD1ED8A
:10526800017AF8EEE76AD0ED057AE7EE267AC0ED26
:10527800057AD1ED027AF8EEE77AA7EE276A80ED93
:10528800066A90ED076A36EE076A80ED076A90EDC8
:10529800086AA7EE266A80ED086A26EEA66A75EE09
:1052A800865AA7EE076AC0ED095AD0ED0A5AE6EE0B
:1052B800A75AA7EEA76AC0ED0A5AD0ED0B5A75EEA9
:1052C800A65AC0ED0B5AD0ED0C5AE7EE275AC0ED9E
:1052D8000C5AD0ED0D5AE6EEA75AC0ED0D5AD0ED96
:1052E8000E5AE7EEA75AC0ED0E5AD0ED0F5A75EEDA
:1052F800A75AC0ED0F5AD0ED105A75EE875AC0ED77
:10530800105AD0ED115A75EEA65AC0ED115AD0EDCB
:10531800125A75EEA75AC0ED125AD0ED135A75EE0F
:10532800855AC0ED135AD0ED005AE7EE065A90EDB3
:10533800017AC0ED005AA6EE867A80ED017A90EDEA
:10534800027AA7EE867AD0ED037A80ED027A37EEFC
:10535800866A80ED036A704700F140010346002227
:105368001A615A619A61DA6110338B4240F8042B52
:10537800F6D17047024684B00068516801AB03C398
:1053880090681860DDE901329342C8BFCDE9012376
:10539800DDE902239A42C8BF0293DDE90132934254
:1053A800C8BF0293029804B0704780EAE073A3EB89
:1053B800E0738B4206DB002801DD401A704702D0FB
:1053C800084470470020704748F6A043984203DD20
:1053D800A0F50C40A03870470028B8BFC018704727
:1053E80044F25063984203DDA0F50C40A0387047A2
:1053F800034B9842BCBF00F50C40A030704700BF7B
:10540800B0B9FFFF08B52DED028BB0EEC08AF0EE03
:10541800408AB7EE000A30EE480A2FF063F89FED95
:105428000E7ADFED0E7AE8EE077A9FED0D7AA7EE99
:10543800887ADFED0C7AE7EE087AF5EEC08ABDECE3
:10544800028BF1EE10FA27EE800A44BFDFED067AF0
:1054580037EEC00A08BD00BF306E99BC2716983DCC
:10546800843459BEA40DC93FDB0F4940F0EEE06A11
:10547800B0EEC07AF4EEC76AF1EE10FAD4BFB0EE1F
:10548800476AB0EE666AB5EE406AF1EE10FA48D0A7
:10549800F4EEC76AF1EE10FA54BFF0EE475AF0EE98
:1054A800665AC5EE867A9FED206ADFED205A9FED99
:1054B800205AE7EE865A9FED1F6AA5EEA76ADFED30
:1054C8001E5AE6EE275A9FED1D6AA5EEA76ADFED84
:1054D8001C5AA7EEA55AF7EE005AE5EE275AB1EE88
:1054E800466AC6EE257AF4EEC76AF1EE10FA48BFAE
:1054F8009FED147AF5EEC00A48BF77EE677AF1EEB1
:1055080010FA48BF9FED107AB5EEC00A48BF77EE93
:10551800677AF1EE10FA48BFF1EE677AB0EE670AE3
:105528007047DFED0A7ABEE739094E3DE3B59EBE06
:1055380069A2163E88FA16BE45FE7FBFA7DFA8B44B
:1055480099FB243FDB0FC93FDB0F494000000000F7
:10555800FDEEC07A17EE903A2033402B43D8DFEDAA
:10556800237A9FED237AB4EEE70AF1EE10FA28DCED
:10557800DFED207A9FED1E7AB4EEE70AF1EE10FA1D
:1055880022D4DFED1D7AB4EEE70AF1EE10FA1EDD43
:1055980030EE670A37EEC00A60EE007ADFED176A70
:1055A8009FED177AA7EEA67ADFED166AE7EE876A0F
:1055B8009FED157AA7EEA67A20EE276AA6EE070ACF
:1055C800704730EE470ACEE730EE070AD4E79FED82
:1055D8000F7AB4EEC70AF1EE10FA44BF30EE270A8C
:1055E80037EE400AD8E79FED0A0A7047DB0F4940BB
:1055F800DB0FC940DB0F49C0DB0FC93F9A7C2E3651
:10560800FAAF4FB93587083CA4AA2ABEDB0FC9BF39
:1056180000000000DFED027A30EE270A98E700BFAD
:10562800DB0FC93F2DE9F74F07F01EFA794C7A4B8B
:10563800A4F114079F42C0F09B80784D287909F0A7
:10564800ABFB687909F090FB75494B898A899A42C6
:1056580024BF00234B810A8ACB899A42714A01925E
:1056680024BF0023CB811368988FDC8F84426E4C53
:105678006E4824BF00229A87237C627C9A4224BF0A
:1056880000232374FCF71CFB694B1B78012B02D108
:105698004020FCF715FBAB790BB10123CB70654BB0
:1056A8001A68654B934310D11F2028F0D3FF054695
:1056B80058B1122028F0CEFF38B102682B689A4200
:1056C80003D14FF48030FCF7FBFA5C4FDFF880A180
:1056D80000263546B9464FF0FF08F25B530803F041
:1056E8007733900800F03330D31A1B1AD00800F033
:1056F80011301B1A03EB231312F0010103F00F33CF
:1057080093FBF8F0C0EB002018BF0135A3EB0003B2
:1057180018BFEDB2012B0ADD022B0ED111B112EA2E
:105728000A0F04D109EB060017F03AFD28B1083634
:10573800402ED2D1013D022D06D90D20FCF7AEFA3C
:1057480010B13E49FCF738FA3D4A3E4D938B518BD8
:10575800643B8B42A8BF0B4653832B7A042B00F281
:105768008080DFE813F07700A401AB01B701BE0128
:1057780034F9123C002BA7BF4FF00008C1464FF088
:1057880003084FF001094FF0000A09EB0A02D2B2F0
:10579800904501D214344AE72B4E3588002D00F08D
:1057A800B7812A4B7019984280F0B281052D40F2DA
:1057B800AF8134F8141CB6F802C0C1F30B018C4554
:1057C80026D1717901F00301914221D15146384621
:1057D80096F804B0FCF712FA34F8141CBBEB113F2E
:1057E80013D134F812CC54F8100CCCF30B01AA1FC7
:1057F8008A42A8BF0A461CF4004F1CBF5FFA8AF50C
:1058080001FB0500B11D2EF06DF90AF1010ABCE794
:105818000646C2E754000408C40304088868002048
:105828005A310020705300205430002000630406D1
:1058380048890020D0280020400001004A8A002022
:10584800F0950020244D002001000E0800001008EB
:10585800BC83FFFFEB88B3F5F57FA8BF4FF4F57362
:10586800EB80002012F005F8AC4B1A68002800F015
:10587800448122F080621A60A94BB5F800C0D3F8C1
:1058880000A06D889AF80070A5EB0C05642205FB52
:1058980007F393FBF2F3A34A63441380BAB202EB13
:1058A80082035B005242C7F16409009392B2002060
:1058B8005FFA89F94FF00A0B4FF47A7813B2002B8C
:1058C80040F31E8149469AF8016003FB03FE06FB7C
:1058D8000EFEC6F1640611FB01F19EFBF1F13144A5
:1058E8004B43009993FBFBF30B441BB28E496B436C
:1058F80093FBF8F3634421F8103001300A320B2887
:1059080092B2DBD1894D06F05FF930220021884838
:1059180030F050FC12F040F92979864B6422C820F7
:1059280012FB010199606979A3F8308012FB01022A
:10593800DA6001210022C3E90422C3E90622C3E98F
:10594800082283F8282083F8292099715A859A8596
:10595800DA85B4F90430784D002B40F0D580B4F9DD
:105968000630002B40F0D080B4F90830002B40F00E
:10597800CB80B4F90A30B3F5805F40F0C580B4F944
:105988000C30B3F5805F40F0BF80B4F90E30B3F54A
:10599800805F40F0B9802B6823F400732B6006F019
:1059A80051F9664ADFED667AB2F84411654B664CE8
:1059B800664F676307EE101AB8EEC77AB2F8461159
:1059C800C7EE276A40F2055604F11C0020632687BB
:1059D80007EE101AB8EEC77AC3ED006AC7EE276A59
:1059E800B2F8481107EE101AB8EEC77AC3ED016A8B
:1059F800C7EE276AB2F84A1192F84C211A74142299
:105A080007EE101AB8EEC77AC3ED026AC7EE276A26
:105A18000021C3ED036A30F0CDFB04F1B400142279
:105A28000021C4E93207A4F8D06030F0C3FB04F5C4
:105A3800A670C4F86001C4F86471A4F868611422FF
:105A4800002130F0B7FB2B68DB0601D510F0CCFA4B
:105A5800019B9FED3F5A1A68B2F9503007EE903A11
:105A6800F8EEE77AF2EE044A87EEA40A20EE050A79
:105A7800FFF7D0FDB2F9523007EE903AF8EEE77A28
:105A8800F0EE405A87EEA40A20EE050AFFF7C2FDA1
:105A9800304B25EE800A002283ED000A2E4B1A7047
:105AA8001AF016FD03B0BDE8F04F06F0C1BFEB8851
:105AB80040F63C729342A8BF1346D1E6EB88B3F593
:105AC800FA5FA8BF4FF4FA53B3F5FA6FB8BF4FF4B3
