:020000040800F2
:10000000000001104552030867E40208E569020890
:1000100001530308015303080153030800000000C3
:1000200000000000000000000000000065E402087D
:1000300063E402080000000061E4020813110008F4
:100040000153030801530308015303080153030834
:100050000153030801530308771400087F140008B4
:10006000015303087D1400087B140008A1860108D1
:10007000918601087D860108698601085586010878
:10008000418601082D860108015303080153030826
:1000900001530308015303080153030879140008AE
:1000A000DD870108B58701088D87010805880108EB
:1000B0007987010865870108518701080153030802
:1000C00001530308015303080153030801530308B4
:1000D00001530308898E01087D8E0108718E010885
:1000E000751400080153030891FE020801870108F6
:1000F000D9860108B18601082987010819860108F7
:1001000001530308015303083D8701080153030805
:10011000658E0108598E0108015303080153030835
:1001200005860108F1850108DD850108C9850108FA
:10013000B58501080153030801530308015303085F
:10014000015303080153030801530308D3DE0208D7
:10015000A18501088D8501087985010801530308EF
:100160000153030801530308015303080153030813
:100170000153030801530308015303080153030803
:080180000153030801530308B9
:1001880020B10078B0FA80F040097047012070472C
:10019800436A826930B5D154436A04690133A34282
:1001A80028BF00234362836BFBB1196811F001017A
:1001B8001AD11A68856922F001021A60826A154408
:1001C800DD60456AAA4235BFAA1AA21A5A605A6067
:1001D8004FF0000280F850201A6838BF856242F05C
:1001E800010228BF81621A6030BDC26DD36843F036
:1001F8008003D360F8E7034610B55C6B4069D968A3
:1002080044B1DA6C8C1A013A005D08BF0A46C0B2E4
:10021800DA6410BD1A6A805C01328A4228BF22461D
:10022800C0B21A62F5E7836B13B190F850007047BB
:10023800D0E909031B1A584258417047D0E90913FD
:100248000269994238BF8918CB1A816B501E19B1BF
:100258004A681344834201D2C01A7047002070478D
:10026800436B4BB1C26C5B689A42A3EB020392BF2B
:100278001846C068C0187047D0E907239A422FBFB4
:10028800D01AC0688018C01A704710F80A3C0133A9
:10029800DBB20A2B00F80A3C07D910F8131C034AF2
:1002A800002322F8113000F80A3C7047C07800207B
:1002B800F0B54F4E337814200133B3FBF0F200FB56
:1002C800123333704B4B58681A6D9C6881420A444C
:1002D80004D293F8580008B102F5803246480778EE
:1002E800B2FBF7F2944233D293F858501DB14FF451
:1002F800803595FBF7F5101B451BDD60C3E901123E
:10030800717814220020013183F8580091FBF2F033
:1003180002FB10117170B178D868013191FBF2F4C9
:1003280002FB1412B27040F68C22904243D91A781C
:1003380093F955108A4250B223D1111F0C2920D8A5
:1003480093F8561018290BD8013183F8561009E094
:100358004FF4803090FBF7F0001B1044D860CDE7D5
:1003680083F8540093F954108A4202D193F8571035
:10037800D1B9012283F8572083F8550000221A705A
:10038800F0BD0021E1E703EB81052D6924F8115048
:1003980001318A42F7DC194900240F2A07DD184980
:1003A8000A7801320A70E4E70021144CF1E721F8D9
:1003B80012400132F1E793F85720002AE0D0A0F26A
:1003C800EF2140F2DA52914207D81A780F2A04D85E
:1003D800111D013243F82100D1E7002283F857208C
:1003E800104699180432402A0861FAD1C8E700BFBC
:1003F800C81B0020BC2B0020A8000020C0780020CB
:100408009E78002010B50B48037814240133B3FB01
:10041800F4F204FB1233084A0370136D01330B44E2
:1004280013654FF6FF73994204BF012382F85830D1
:1004380010BD00BFC81B0020BC2B0020024B53F886
:1004480020301B6819607047E06A0020064B53F89B
:100458002030A1F57A701A6819894FF47A734143EC
:1004680091FBF3F111607047E06A00207047704714
:100478000D4B1A683F2AF0B59C4613DC0B4C17014C
:100488000346E61900F1100E18685968354603C589
:10049800083373452E46F7D1054B1B68E3510132EB
:1004A800CCF80020F0BD00BF942B0020942700203A
:1004B8000899002070B5104C05460E46002200230E
:1004C800D4E9020134F010FB20B109A3D3E90023D9
:1004D800C4E90223304634F035F8D4E9022334F075
:1004E800C5F934F049FB04EB4504208270BD00BF18
:1004F800ABAAAAAAAA461040C81B00200E4B9842D5
:1005080013D0A3F57843984211D003F5806398423D
:100518000FD10223094A142101FB03235A8901320E
:1005280092B25A81588980B270470023F2E70123BA
:10053800F0E74FF0FF307047003001400000002026
:1005480030B50278202A034600F10100F9D0092AC3
:10055800F7D02D2A4BD10346BFEE000A9FED3C7A17
:100568001A46F2EE046A134612F8010BA0F13001A4
:10057800CCB2092C41D92E280BD1F2EE046A1146CF
:10058800B0EE666A0B4611F8012B303AD0B2092852
:100598003CD91A7802F0DF02452A53D15A782D2A1D
:1005A8003FD102330120013B00220A2513F8011F25
:1005B8003039CCB2092C3AD9B2F59A7F1346DFED1F
:1005C800256A28BF4FF49A731A46F7EE007A072A6D
:1005D80030D8DA086FF0070101FB0233F2EE046A43
:1005E80063BB88B3C7EE276A20EE260A30BD2B2AE4
:1005F80008BF0346B7EE000AB0E707EE901AF8EE18
:10060800E77AE7EE267AB0EE677AACE707EE902A4B
:10061800F8EEE77AC7EEA65A66EE866A37EE257ACE
:10062800B0E72B2A14BF013302330020BBE705FBD8
:100638000212BBE767EEA67A083AC8E767EEA67A21
:10064800013BCDE7F7EE007A67EE276ACCE700BFFB
:100658000000000020BCBE4CA0F13003DAB2092A29
:1006680001D818467047A0F16103052B01D8573807
:100678007047A0F14103052B94BF37384FF0FF3086
:10068800704703685A1C02601970704703685A1C47
:100698000260197070472DE9F84F002B14BF4FF016
:1006A80030094FF020090A9B141E07468846BABF36
:1006B80064424FF0010B4FF0000B13F8012B02B10D
:1006C80034B9BBF1000F0ED000230A9D5E1B0EE06B
:1006D800013CF2E749463846C04715F1FF35F9D2E3
:1006E80023462C46F1E72546F7E73846C04705EB91
:1006F800060A15F8011B0029F7D1BBF1000F05D038
:100708002546002D05DC002CA8BFA2445046BDE8B4
:10071800F88F49463846C047013DF2E7D0ED006AF8
:10072800D0ED057AE6EE807AB0EE407AB0EE670A50
:10073800D0ED037AD0ED016A67EEC07AE6EE877AEB
:10074800D0ED066A77EEA67AD0ED026AC0ED057A9A
:10075800D0ED047A67EEC07AE6EE877AC0ED067AC5
:100768007047704743230B80004870473C000020C7
:1007780010B5074CD4F88000FF2807D005490A6B4C
:1007880034312BF02CFCFF23C4F88030002010BD3E
:1007980000000020C81B002008B5D0F8E4355B6ACB
:1007A8009847002008BD08B5D0F8E4351B6A98477B
:1007B800002008BDD0F8E43510B504461B689847FA
:1007C800D4F8E8359B689847002010BD08B5D0F8E4
:1007D800E435DB6903B19847002008BD08B590F8F7
:1007E800123180F81331042380F81231D0F8E8353B
:1007F800DB689847002008BD10B5D0F8E8350446F6
:100808001B699847032384F81231002010BDF0B506
:100818004B784C69012B27D182691568136914B983
:1008280064F3060305E08E68A642F9D24E6166F3CA
:10083800060343F400231361C478012C05D10B7817
:100848000E6900EB83039B695E6145F00445156002
:1008580044B94B6933B102690978506B01238B4065
:10086800034353630020F0BD0B788F6800EB8303CC
:1008780007F07F065A6D156813696CB966F30603AD
:1008880043F400231361C378012B04BF0B69536140
:1008980045F004451560E5E74F61EFE72DE9F041C4
:1008A80091F801E00D784B69CE78BEF1010F4FD178
:1008B80000EB850CDCF818703A683C6963F31204A5
:1008C80093B96EF3DC443C61C478012C1BD10D69EB
:1008D8007D61012E25D100698068C00554BF42F0B2
:1008E800005242F080521CE0D1F8088008EB030E59
:1008F8000EF1FF3E012EBEFBF8FE6EF3DC4408BF8E
:1009080066F35E74DFE7012EE5D053B1D0F810E04E
:100918000120DEF8348000FA05F545EA0805CEF82E
:10092800345042F00442012E3A6009D144B99BB2D6
:100938000333C968DCF8D0009B102246934202D1E9
:100948000020BDE8F08151F8224004600132F5E74B
:1009580000EB8505D1F808C06F6DCCF312053A6835
:100968003C69A3B965F31204012363F3DC443C61D9
:10097800C378012B04BF0B697B61012E03D14B792E
:10098800A3B142F0005242F004423A60D8E763440F
:10099800013BB3FBFCF3C3F3090363F3DC446B4390
:1009A800C3F3120363F312044B61E0E742F0805291
:1009B800E9E770B501F07F05282404FB050104FB75
:1009C80005040126C4F82821C4F82C21002201F5C9
:1009D8008E7184F81D6184F81C51C4F83421C4F860
:1009E80030311DB9FFF713FF002070BDFFF756FF28
:1009F800FAE7214BDA6B0F2A70B502F101011D46A7
:100A080002D0D963002070BD1C490023EB630B782A
:100A1800002BF7D11A4C2268B2F5006F08BF23608B
:100A2800184B22681B689A4202D100230B70E9E731
:100A38008CBFC2F500639B1A2B642B6C402B0ED91C
:100A4800403B02F140062B6401230B7026604023D3
:100A58000D4911FA82F28121FFF7ABFFD2E702EBD1
:100A6800030626604FF000042C640EBF0224012404
:100A78009BB20C70ECE700BFC81B0020049100205B
:100A8800EC900020F09000200591002070B51849E6
:100A98000B78012B0C4603D1164D2B6C5BB90B70F0
:100AA8002378022B17D100231A468121FFF781FFF3
:100AB800002323700FE0104C402B22680DD9403BD7
:100AC80002F140012B64216040230C4911FA82F2A3
:100AD8008121FFF76EFF002070BD03EB0206266040
:100AE8004FF000042C640ABF02249BB20C70ECE7A0
:100AF80004910020C81B0020EC90002005910020E4
:100B080010B504461346C4F83C21C4F83821022223
:100B180080F811210A460021FFF74BFF002010BD85
:100B280070B50C46282606FB040506FB0101C5F82E
:100B38008833002385F87443C5F88023C5F88C33BF
:100B480085F87533C37806FB0404012B08BFC5F884
:100B5800842394F8743301F55D711BB9FFF757FED0
:100B6800002070BDFFF79AFEFAE738B5282303FB8B
:100B78000101074DB1F88C13044628462BF0F6F90D
:100B880040232A4601212046FFF7CAFF002038BD2E
:100B98000C1C002030B50B78497801229A4000EBF4
:100BA800830301294FF000052C460CBF9B695B6D40
:100BB80092B20CBF62F30F0462F31F446FF3CF3598
:100BC80002691D60D36923EA0403D361002030BDA4
:100BD80040F2011310B500F5A2710446A0F84431A3
:100BE800FFF7D8FF0123A4F89C3304F5677120466A
:100BF800FFF7D0FF4FF48173A4F86C3104F5B67198
:100C08002046FFF7C7FF2BF02BFA002010BD0B780A
:100C180030B501224D789A4000EB8303012D0CBFBB
:100C28009D695D6D2B6892B24FF000040CBF62F3B2
:100C38000F0462F31F441A040DD48A6862F30A038E
:100C4800CA7862F39343CA8862F3995343F0805396
:100C580043F400432B600369DA691443DC61002024
:100C680030BD2DE9F04140F201130446022600256B
:100C78004FF040080127A0F84431C0F84C8180F8B3
:100C88004761A0F84A7180F8485100F5A271FFF752
:100C9800BEFF04F56771A4F89C73C4F8A48384F8B4
:100CA8009F6384F8A0532046FFF7B1FF4FF4817388
:100CB800A4F86C310823C4F87431032304F5B67121
:100CC80084F86F31A4F872612046FFF7A0FF074B44
:100CD8001E715D712BF0CCF94346054A3946204612
:100CE800FFF71EFF2846BDE8F08100BFA4170020CB
:100CF8000C1C002070B5002540260446A0F874534B
:100D0800C0F87C6380F8775300F55D71FFF77FFFCB
:100D18004FF48073A4F81C3104F58E71C4F8246173
:100D280084F81F51A4F822512046FFF770FF0123D1
:100D380084F81231D4F8E835A0785B6898472846DB
:100D480070BD0E4BDA68D20310D4DA68D1060FD41E
:100D5800DA68D2050ED4DA6812F0E00F0CD1DB683D
:100D680013F0020F14BF08200920704701207047B4
:100D7800062070470220704707207047003C024059
:100D880007B509238DF80730FFF7DBFF8DF807005B
:100D98009DF80730012BF7D09DF8070003B05DF8E8
:100DA80004FB08B5202136F040FF0346184623B15E
:100DB8000278202A03F10103F8D008BD38B50446AB
:100DC8000A4614F80E1C50F8040C49B9012324F8FB
:100DD8000C2C04F80E3C0A22BDE8384017F02ABE55
:100DE80034F80C1C24F80A2C9142A2EB010384BFAE
:100DF8000268D26A9BB288BF9B1824F8083C14F892
:100E08000F2C074B34F8081C23F81210002504F89F
:100E18000E5C0A22012117F00DFE04F8065C38BDAD
:100E2800C0780020A1F57A7107EE901A9FED087A34
:100E38009FED080AF8EEE77A10B5A7EE870A044690
:100E480034F056FD044B53F824301B68186010BD6D
:100E58003D0AD73F0000D243E06A002015235943DA
:100E680007EE901AB8EEE70AF3EE087A10B580EEAE
:100E7800270A044634F03CFD024B53F824301B6823
:100E8800186010BDE06A00200C234B4300EE103AB6
:100E980010B5BAEEEE0A044634F02AFD024B53F8B8
:100EA80024301B68186010BDE06A00202DE9F0416D
:100EB8000B4DDFF830802C686A69012714400CB9A3
:100EC800BDE8F081B4FA84F3C3F11F0307FA03F60F
:100ED80058F823000368984724EA06046E61EEE791
:100EE800003C0140104E002070B50A7812F06004F2
:100EF80006460D462BD0202C30D1CC884B7804B335
:100F080012060CD522461F4918462BF068F8EA88C5
:100F18001C493046FFF7F4FD0024204670BD1A4AEC
:100F2800C0F89443C2F88030184AC0F890430323AD
:100F3800146380F81131343223460021FFF7F0FDA5
:100F4800EAE70222114418462BF049F8E5E74B7806
:100F58000A2B08D00B2B0BD0062BDED130462BF0FA
:100F680085FA0224D9E701220949FFF7C9FDD4E728
:100F78008B781BB9054AC2F88430CDE72BF076FA96
:100F8800CBE700BFFC1B002000000020C81B00208E
:100F98004C1C0020044B9B7913B9044B186870470C
:100FA800034B9888704700BF80420020F40400106B
:100FB8009ECB002073B504681C480023054650F8F2
:100FC8003360B4422CD1DCB255F83460304617F0A7
:100FD800D4FE3388E40043F0010333802B195B7996
:100FE80063B18DF804300022012301A88DF8053083
:100FF8008DF806208DF807302BF018FA2C44A379C9
:1010080063B18DF804300022012301A88DF8053062
:101018008DF806208DF807302BF008FA02B070BD65
:1010280001330E2BCBD1FE24CEE700BFA0800308EE
:101038002DE97848214B5A68214BC2F308028AB936
:10104800EFF3118272B91F481F491D6886681A6834
:101058009542FAD1D1F88C209642F6D81B4BD3E9A9
:1010680000231AE0EFF31182102181F3128801F1B5
:10107800E0218E68086810F4803F13481EBF0124E1
:10108800C0F888408E681968D0F88850D3B283F3C6
:1010980011880E4BD3E900230D444FF47A74A2FB58
:1010A80004BC04FB03CCBBEB06006CF1000133F07D
:1010B80031FFE4FB0501BDE8788800BF00ED00E0E2
:1010C8000899002010E000E0C81B00209865002067
:1010D800F8B504460D46FFF7ABFF06460F46FFF787
:1010E800A7FF821B61EB0703AB4208BFA242F6D3FE
:1010F800F8BD10B5044614F1FF3400D210BD4FF40A
:101108007A700021FFF7E4FFF5E7EFF3118310226F
:1011180082F3128808490A6801320A60074A0849B6
:101128009068C1F88C000020C1F888001268DBB212
:1011380083F31188704700BF0899002010E000E091
:10114800C81B0020074A084B12781B680AB980F0B0
:1011580001002BB11A689B8808B113837047538329
:10116800704700BFE02D0020DC2D002003689B6A3B
:1011780003B11847704703685B6A03B118477047A3
:1011880003689B69184703685B69184703681B690C
:1011980018470368DB68184703689B6818470368A3
:1011A8005B68184703681B6818470368DB6970B5F4
:1011B80006460C4615467BB90D442B1B002B00DC5C
:1011C80070BD3046FFF7E8FF0028FAD014F8011B7D
:1011D8003046FFF7E7FFF0E7BDE870401847E4E75F
:1011E800014B1868DEE700BF9476002038B5054645
:1011F8000C4614F8011B01B938BD2846FFF7D2FF89
:10120800F7E70C4B1B681B0110B407D50A4B1B688A
:101218005B050BD55DF8044BFFF74CB9074B53F84A
:1012280020301BB107289CBF1B6819605DF8044B70
:10123800704700BFC44D0020C84D0020F82C002086
:101248001FB5ADF80A30BDF81830ADF8040041F408
:101258008041ADF80C306846BDF81C30ADF806107A
:10126800ADF80820ADF80E30FFF702F905B05DF8CB
:1012780004FB1FB5ADF804006846ADF80610FFF78B
:10128800F7F805B05DF804FB084B53F8203049B176
:1012980023B970471A689B88138370471A689B881C
:1012A80053837047002BF5D1704700BF9480030823
:1012B80008B51E4B1E4C1D68A0681AF0F5FA2846A2
:1012C8001AF0F2FAA06841798B0703D441F00201C1
:1012D800FFF756FF00210846FFF7D6FF002101203F
:1012E800FFF7D2FFA068FFF75AFF70B10121002075
:1012F800FFF7CAFFA068FFF74CFF01462846FFF733
:1013080051FF00210846FFF7BFFF2846FFF747FFB8
:101318000028E7D001210846FFF7B6FF2846FFF767
:1013280038FF0146A068FFF73DFFD7E74C7600205D
:101338000C370020064B53F820303BB19A881B68C5
:1013480059690A4201D05A8370471A83704700BF0F
:101358009480030880B580460B25013D02D172B602
:1013680017F064FD01210846FFF78EFF00210846AB
:10137800FFF78AFF08F10106322705240120FFF74D
:10138800D9FF0020FFF7D6FF0120FFF7DBFE384624
:10139800FFF7AFFE0120FFF7CDFF0020FFF7CAFFE0
:1013A8000020FFF7CFFE3846FFF7A3FE74B1013CDB
:1013B800E4D14FF4FA70FFF79CFEFA2726B94FF4F0
:1013C8007A70FFF796FEC8E70024D7E7013EF5E7F5
:1013D80010B50409013C032C00F00F0215D80C4B82
:1013E80033F8141041FA02F313F001000CD0012075
:1013F80090400138084033F0A5FD064B1B5D1844AA
:10140800054B0C2202FB003010BD0020FCE700BF9A
:101418008A800308047D03084825002010B103686A
:1014280082885A83704710B1036882881A8370478C
:1014380030B1036882881B691A4214BF012000205A
:10144800704728B18088B0FA80F0C0F11F0070475B
:101458004FF0FF30704730B1006800F13F4000F5B1
:101468007E00800A70474FF0FF3070471EE51DE58B
:101478001CE51BE51AE519E538B504468B682160BB
:101488000D46984701232373FF220023A373627339
:10149800E3732B6B13B120469847E073044B93F822
:1014A80090301BB1E37B23F00103E37338BD00BF29
:1014B800C81B002003689B6A184703685B6A1847C3
:1014C80037B54D1C85720468C27200250095A46961
:1014D800A04703B030BD2DE9F04105468AB0184653
:1014E8000F4690461C4632F0D3FE3B189DF84060EC
:1014F800AB72EB7B85F80B8036EA030319D0F20751
:1015080017D5114BC8221B68B3FBF2F3DB0706F0B3
:10151800FE060ED51F2828BF1F200446024620219C
:1015280002A836F06BFB0AAB1C44002304F8203CED
:1015380002AC2B6800965E69424623463946284627
:10154800B0470AB0BDE8F081089900202DE9F341C1
:101558000446184616460D461F4632F099FE236883
:10156800E67228440022A0720092D3F81480324612
:101578003B4629462046C04702B0BDE8F0810368D3
:1015880010B504465B689847236820469B689847CF
:10159800A37B013BA37310BD036810B504461B6809
:1015A8009847236820469B689847A37B0133A37319
:1015B80010BD03681B69184710B5036804469B688B
:1015C800984701232373FF23637310BD144B98427C
:1015D80030B521D0A3F5784398421FD003F5806336
:1015E800984218D1022203880E4C23F040031B04B2
:1015F8001B0C1425038005FB02420388126923F0A3
:10160800380332F811201B041B0C13430380038892
:1016180043F04003038030BD0022E4E70122E2E703
:101628000030014000000020F8B584894FF6FF76AD
:101638004FF47A740BB901201CE082B1157801329D
:101648000789BF070DD5ADB285814FF47A74058936
:10165800ED0710D4013CA4B2B442F8D105E0FF254F
:10166800EEE7013CA4B2B442EAD1FEF747FF0030EE
:1016780018BF0120F8BD8589ADB209B10D700131DF
:10168800013BD7E708B540F2E933028992070BD549
:1016980089B2818140F2E9330289D2070CD4013B37
:1016A8009BB2002BF8D103E0013B9BB2002BECD19D
:1016B800FEF724FFC0B208BD8089FBE770B5164667
:1016C80090F90C2014235343094AD558044600695D
:1016D800FFF7A4FE2846FFF7D5FF01230022314675
:1016E8002846FFF7A1FF2069FFF79DFE012070BD86
:1016F80000000020F8B5164690F90C201423534337
:101708000D4A0446D55800690F46FFF787FE0120A9
:101718000021FFF7DDFC39462846FFF7B3FF3146C5
:101728002846FFF7AFFF2069FFF77DFE0120002163
:10173800FFF7CEFC0120F8BD00000020F8B51746E1
:1017480090F90C20142353430D4A05460069D658D6
:101758000C46FFF763FE00BFD1E901233046096854
:10176800FFF762FF022F05D1D4E90423E168304670
:10177800FFF75AFF00BF2869FFF755FE0120F8BDA3
:1017880000000020F8B50679012E054609D0022E82
:101798001FD18368DB0758BF41F08001BDE8F840DE
:1017A8008CE70D4B90F90C00182404FB0034637887
:1017B8006BB16B7BA1725B0023720023637223758C
:1017C8000223A370C4E9036217F0F4FD237D1846D1
:1017D800F8BD0023FBE700BF486500202DE9F04174
:1017E80098460379012B0546174623D0022B39D199
:1017F80095F90C200069142353431B4AD458AA684E
:1018080012F0010611D0FFF709FE2046FFF73AFF54
:101818000022434639462046FFF706FF2869FFF7AE
:1018280002FE01221046BDE8F081FFF7F7FD41F006
:101838008001EAE790F90C000C4B182404FB0034F3
:101848006278002AEED06B7BA1725B0023720023C2
:10185800637223750223C4E90387A37017F0AAFDF6
:10186800227DDFE70022DDE7000000204865002038
:1018780073B50379012B0D4616460AD0022B25D1E4
:101888008368DB0758BF01F07F01FFF733FF02B021
:1018980070BD90F90C10427B0D488DF80760182434
:1018A80004FB010460780028F1D06372E3600DF155
:1018B800070323610023520023750223084622727E
:1018C800A572A37017F076FD207DE0E70020DEE723
:1018D80048650020094B70B5841CD3F89450A400C7
:1018E800E4B20E46CAB228462146FFF7C1FF611C82
:1018F800320A2846C9B2BDE87040B9E7C81B0020C3
:101908002DE9F0410E4E8046002406F18807E0B22A
:1019180000F0030343450ED136F8145037F814305D
:10192800EB1A002BB8BF5B42052B04DD2946FFF7F5
:10193800D1FF27F814500134102CE8D1BDE8F0810C
:10194800D81B002038B50F4BD3F894501022002133
:1019580041F2D774B4FBF0F42846FFF789FF012061
:10196800FFF7C7FB621ED2B2FE212846FFF780FFB1
:101978000120FFF7BEFB284680220021BDE8384041
:1019880076E700BFC81B00201FB50479022C08D1D8
:10199800CDE90112012201A90393FFF7CFFE04B09C
:1019A80010BD0020FBE70379022B82B019D18DF816
:1019B8000230002203238DF800208DF80330012225
:1019C80004238DF801208DF8043090F90C2002AB27
:1019D800194414235343044A11F8081CD05802B080
:1019E800F4E502B0704700BF0000002010B5427A4D
:1019F800044632B1036800F10A01406898470023A1
:101A0800637210BD064B1B68597A4A1C1944D2B23E
:101A18005A728872197A914201D81846E6E77047D7
:101A28004876002010B4447A631C0444DBB2437245
:101A3800A172027A9A4202D85DF8044BD6E75DF8A3
:101A4800044B704738B5094D441E14F8011F01B9FD
:101A580038BD2868427A531C0244DBB24372917243
:101A6800027A9A42F1D8FFF7C1FFEEE748760020E4
:101A780008B504460648FFF7E5FF064B1868FFF768
:101A8800B5FF054B186819F00FFF204605F0B4FFA5
:101A9800A8D90308487600204C760020044808B5E9
:101AA800FFF7D0FF06F0BCF90020FFF7E1FF00BF09
:101AB800B4D90308034808B5FFF7C4FF0120FFF7AE
:101AC800D7FF00BFBBD9030808B50448FFF7BAFF22
:101AD800034B1868BDE8084088E700BFD4D903085D
:101AE800487600200048ADE790E1030808B5FFF705
:101AF800A9FFBDE80840F5E708B50948FFF7F6FF74
:101B0800084B1868FFF772FF074B00241C70074B3F
:101B18001C60074B1C701AF005FA2046FFF7A8FF57
:101B2800D9D9030848760020547600205076002042
:101B3800B8AF002008B50848FFF7D8FF16F0E4FA58
:101B480016F08AF918B10548BDE80840CEE76420C8
:101B5800FFF7CFFAF4E700BF03DA03080EDA030849
:101B68000048C3E714DA030810B504460348FFF732
:101B780069FF2046BDE81040B8E700BFD4D9030884
:101B8800124B53F8200070B5E0B1114A062303FB4D
:101B9800002393F90140621C15D0187990B10D4AC1
:101BA8000D4E155DDA7864211423002061438C18EA
:101BB800013B36F814402A442044F8D11423B0FBE2
:101BC800F3F080B270BD0020FCE700BFAC800020BD
:101BD800E52D002013310020042E002038B5032005
:101BE8000D461446FFF7CCFF07EE100A8DB1DFED66
:101BF8000B7AB8EE477AF0EE006A27EE277AF8EE0D
:101C0800047AE7EE267A9FED067A67EE877AC5EDC5
:101C1800007A0CB1034B236038BD00BF6740533ACC
:101C280000007A443313904330B5084B08498B427F
:101C380000D330BD5A88140406D55D68DC68C2F349
:101C48000B0200FB025222601433F0E7E81B040881
:101C5800941F040870B544880B460546C4F30B046A
:101C680022460021184635F0C9FF2969084A9142E1
:101C7800034607D3074A914204D22246BDE8704082
:101C880033F056BC19B11846BDE87040084770BD1E
:101C9800941F0408032204084388426813F4004F81
:101CA8001EBFC9B2C3F30B0301FB03221146D1E7E0
:101CB80038B5124C124DAC420DD30020FFF7B4FFDB
:101CC800104828F08DFE104B187906F08BF8BDE807
:101CD800384011F02FBFB4F90230002B4FF000014B
:101CE800204607DAFFF7D8FF01212046FFF7D4FF87
:101CF80002212046FFF7D0FF1434DCE7E81B040874
:101D0800941F040820DA030880420020064B074984
:101D18008B4202D30023184670471A88C2F30B027D
:101D28009042F8D01433F3E7E81B0408941F040822
:101D3800024A136823EA0000106070474CC900206B
:101D4800F8B50468C4F30D0405460E4604B32F68BD
:101D5800FFF716F8092840F08780454C236923F4DB
:101D680040732361236943F400732361236943F0BB
:101D7800010323613E60FFF703F82369092823F074
:101D88000103236170D12B6804332B60002034E0F9
:101D9800384B394A93422AD902F58042934225D9D1
:101DA80002F58042934229D902F58042934227D90D
:101DB80002F58032934225D902F50032934223D9A5
:101DC80002F50032934221D902F5003293421FD91D
:101DD80002F5003293421DD902F5802293421BD9A5
:101DE800B3F1016F1AD30520FFF7B4FA0824FEF700
:101DF800C7FF092814D04FF0FF30F8BD1024F6E7CC
:101E08001824F4E72024F2E72824F0E73024EEE74A
:101E18003824ECE74024EAE74824E8E75824E6E7D2
:101E2800134F3B6923F440733B613B6943F40073F0
:101E38003B613B6923F0F8033B613B6943F00203D4
:101E48001C433C613B6943F480333B61FEF798FFD8
:101E58003B6923F002033B613B69092823F0F8033F
:101E68003B613FF474AFC6E76FF00100C5E700BF00
:101E7800003C024000000E08FF3F0008F8B5044689
:101E88000D468E180027B542206900D1F8BDE368D9
:101E9800591CE160234415F8012B1A720429F2D168
:101EA80018B9A1682046FFF74BFFC4E90370EAE7B9
:101EB80038B50C468D18AC4200D138BD14F8011B5A
:101EC80019F0C2FCF7E770B501221149114C124E06
:101ED8000020FFF7EDFF22884AB1A518B54214D2B9
:101EE800052A12D92146FFF7E3FF2C46F3E7022221
:101EF8002146FFF7DDFF6388084AC31AA41A084A77
:101F08005842A2F8B840584170BD0020FCE700BF15
:101F180000000E0801000E0800001008FCFF0D0864
:101F2800C81B002030B50244904201D1002311E0C3
:101F380010F8013BA3F14104192C11F8014BA4F14D
:101F4800410598BF2033192D98BF20341B1B01D1A0
:101F5800002CE9D1184630BD70B5054608460E4636
:101F680032F096F93146044602462846FFF7DAFF72
:101F780060B92B5DA3F13002092A06D923F02003AA
:101F8800413B192B01D9601C284470BD0020FCE797
:101F980010B504460748FFF755FDFFF789FE05F021
:101FA8003FFF05492046FFF7D7FF08B9FFF760FD57
:101FB80010BD00BF29DA03083BE0030870B50346EB
:101FC80010F8012B202AFAD0092AF8D02D2A0ABFA6
:101FD800034601254FF0FF35591E00240A2611F843
:101FE800010FFEF739FB0A2802D905FB04F070BD82
:101FF80006FB0404F3E72DE9F3472F49DFF8B8A0FF
:1020080001AA33F029FC00254FF0FF382F46A946D6
:102018002C46464630B9052D10D8DFE805F0323297
:10202800320F3941042D09D8DFE805F0030D1217E6
:102038001C00FFF7C3FF0646032819D9FFF790FDD8
:1020480002B0BDE8F087FFF7B9FF80465428F4E7EF
:10205800FFF7B4FF04461F28EFE7FFF7AFFF8146FD
:102068001F28EAE70378482B09D0562BE6D1012729
:1020780001AA51460020013533F0EEFBCAE70027DC
:10208800F6E7434632460D4901202AF0F5FED7E728
:10209800552303FB0683094A32F81370C7F3C02798
:1020A800552344EA491403FB068624B2034B44EA49
:1020B800C72423F81640C3E73AEE0308649B0020C0
:1020C80070B50D461446FEF76CFE0646A0B1FFF744
:1020D80075FF40F634039842A8BF1846B0F5617FF3
:1020E800B8BF4FF461701923A0F5617090FBF3F04D
:1020F80028702378013323703046FEF752FE0646D7
:10210800A0B1FFF75BFF40F634039842A8BF18461A
:10211800B0F5617FB8BF4FF461701923A0F5617005
:1021280090FBF3F06870237801332370304670BD5C
:10213800B5EEC00ADFED2D7AF1EE10FACCBF30EE25
:10214800270A30EE670ADFED2A7A20EE270A30B533
:10215800FDEEC07A87B017EE904A054684EAE4702F
:10216800002303A9A0EBE470CDE9003302932AF021
:10217800C1F9002CACBF20232D2303A88DF8003013
:1021880032F086F8012822D130238DF801308DF8FD
:1021980002308DF8033003A9684635F037FD6846EC
:1021A80032F076F80338C4B222466946284635F03C
:1021B80063FD00232B550F49284635F027FD0DEB0D
:1021C8000401284635F022FD284607B030BD022814
:1021D80005D130238DF801308DF80230DBE7032874
:1021E80004BF30238DF80130D5E700BF6F12033AE2
:1021F80000007A44E705040870B506461546084607
:10220800B6FBF2F414B12046FFF7F6FF05FB1464A1
:10221800024B1B5D00F8013B70BD00BF3FDA0308AD
:10222800F0B50124B0FBF4F58D4203D200271CB9A8
:102238001C70F0BD4C43F5E7B0FBF4F604FB160048
:10224800B4FBF1F42FB9002E03DC002CEFD13025BC
:1022580005E0092EFBDD002A14BF37255725354434
:102268001D7001370133E2E70A4B2DE90048D3E935
:1022780000BC5BEA0C030AD0074909681BEB0102A2
:102288004CF10003C0E900230120BDE800880020CC
:10229800FBE700BF18CA002008990020F0B5264EB9
:1022A80004460F460FCE8DB06D460FC50FCE0FC535
:1022B80096E80F0085E80F0014F0030335D1642178
:1022C80094FBF1F201FB124242B94FF4C87294FB3D
:1022D800F2F302FB1343003318BF0123C3F11D03BC
:1022E80040F26D1201930420631E93FBF0F002FB91
:1022F80004046FF0630093FBF0F020444FF4C874BB
:1023080093FBF4F31844063000220721013F5DF8DF
:1023180022309742184490FBF1F4C4EBC404A0EBBC
:10232800040004D1181A0DB0F0BD0123D6E701321C
:102338000C2AECD10020F6E7087D0308F8B514460E
:102348001D4606464FF47A7200232046294632F08D
:1023580091FD2C4B3C22034493FBF2F002FB10311D
:10236800B17190FBF2F102FB1102182072714FF467
:10237800616293FBF2F292FBF0F100FB11223271E1
:102388002149224A93FBF2F293FBF1F3980040F2C1
:10239800B55392FBF3F103FB1123B3F5896F2DDAE3
:1023A80040F2DA2293422BDCB3F5B77FB4BF0022A8
:1023B80001221749182707FB02170B2137F811C00C
:1023C8009C4501DD0139F9D100F5FA6010443080EF
:1023D800481CB0700C2000FB02120E4901EB4202AF
:1023E800013392F834209B1AF3704FF47A72002369
:1023F8002046294632F03EFD3281F8BD0322D8E757
:102408000222D6E780BC92C7801F86078051010050
:10241800387D0308047D030837B505466846FFF78D
:1024280023FF044638B1DDE900232846FFF786FF7D
:10243800204603B030BD40F2011328806B80A8808D
:10244800A8712881F4E737B50546FFF7E5FF04468C
:1024580040B1064B02AA1B8822F8023D29462846AD
:102468002AF06DFC204603B030BD00BF609B002001
:1024780010B50288C178A2F5FA629308013940F2D2
:10248800B55404FB031381780C24013902F00302CC
:1024980004FB02120C49847901EB42021821928E46
:1024A8001344027901FB0323427900893C2101FB93
:1024B8000323064A224401FB03234FF47A720021C6
:1024C800C2FB030110BD00BF047D030880436D38C3
:1024D800D1E900329A4206D05A1C0A6008B11B782A
:1024E8000370012070470020704710B5026811463C
:1024F800531C036011F8024B0160D31C5178036030
:1025080093781B0443EA0123111D0160D07823430B
:1025180043EA006010BD03685A1C02601A4612F8AC
:10252800021B0260587841EA00207047D1E9002375
:102538009B1A012B10B5044605DD0846FFF7EBFF93
:102548002080012010BD0020FCE703685A1C0260AF
:102558001878704738B50446D0E900031B1A9A4228
:10256800154606DC32F0E4FF22682A442260012086
:1025780038BD0020FCE738B504460068154632F03F
:10258800D7FF22682A44226038BD03685A1C0260BB
:10259800197003685A1C02600A0A1A7003685A1CE8
:1025A80002600A0C1A700368090E5A1C026019703E
:1025B800704703685A1C026019700368090A5A1C9C
:1025C8000260197070472DE9F04F89B082468B463A
:1025D80015461C4600270DF1140829786E1C51B3C6
:1025E800252903D05046D847013742E069782D297C
:1025F80005BFA978EE1CAE1C012518BF002530299F
:1026080006BF3178012300230293A1F1300308BFEC
:102618000136092B4FF0000916D96C2940F0A0802B
:102628003278642A06F1010544D024D8252A7BD0C3
:1026380014D8002AD1D1384609B0BDE8F08F0A2352
:1026480016F8011B03FB09090846FEF705F80A28D6
:10265800F5D9002DE1D0C9F10009DEE7582A1AD0D2
:10266800632ABAD12E4621785046D847251D01370E
:102678002C463546B1E7732A4AD008D8662A56D080
:102688006E2AAAD12E46236804341F60F1E7752A02
:102698000AD0782AA1D1A2F15800424204F10406D6
:1026A80043464241102103E0261D434600220A21E9
:1026B800206807E02068002804F104061ADB434676
:1026C80000220A21FFF7ACFD3446CDF80080029BBA
:1026D8004A4659465046FDF7DEFF07447DE7206825
:1026E80000280EDB434600220A210434FFF798FD38
:1026F8003546EAE72D238DF8143040420DF11503D5
:10270800DEE72D238DF8143040420DF11503EAE77A
:102718002E46236800934A46002359465046FDF743
:10272800BAFF251D0744A3E72E4625215AE72E4662
:10273800073424F00703D3E9000103F1080432F059
:102748003BFA00EE100A4046FFF7F2FCCDF8008095
:10275800029B4A4659465046FDF79DFF074488E7C5
:102768006429BCD00CD82529DFD003D800293FF430
:1027780062AF7EE7582911D063293FF474AF78E738
:102788007329C6D005D86629D2D06E293FF47BAF0D
:102798006FE775290DD078297FF46BAF58394A4215
:1027A8004A412068251D43461021FFF739FD2C4674
:1027B8009EE7231D03932068434600220A21FFF762
:1027C8002FFD3546039C80E70FB413B5084C094923
:1027D800206804AB53F8042B0193FFF7F4FE20683C
:1027E800FFF704F902B0BDE8104004B0704700BF1D
:1027F800487600202D1A0008F8B50C4C0C4E0D4FE9
:1028080004F518752068FFF71DF9616811B13046A5
:10281800FFF7DAFFA16811B13846FFF7D5FF10348A
:10282800FFF760F9AC42EDD1F8BD00BF7CA9030801
:1028380064DA03086ADA030830B5264C264885B0FE
:10284800FFF700F994F82430032B05D8234805B086
:10285800BDE83040FFF74AB994F83200E26B94F8CB
:102868003A3094F82810029094F831000190208FA3
:10287800009052081A48FFF7A7FF04F12C053134DD
:1028880015F8010BFFF7BEF8A542F9D1154C16480B
:10289800FFF7D8F86278032A13D8DFE802F00808AF
:1028A80006021248FFF7CEF80BE01148FAE7114884
:1028B800FFF7C8F841F2B413E35C022B06D0032BF0
:1028C80006D005B0BDE83040FFF70CB90A48E9E783
:1028D8000A48E7E79088002070DA03087ADA0308E4
:1028E80089DA030854B60020B7DA0308C7DA030800
:1028F800CDDA0308DADA0308E0DA0308F9DA0308BC
:1029080010B5074C0B46024606492068FFF75BFEE8
:102918002068FFF76BF8BDE81040FFF7E3B800BF89
:10292800487600202D1A00080FB407B504A951F8FD
:10293800040B0191FFF7E4FF03B05DF804EB04B06A
:1029480070472DE9F3471948194C1A4D1A4FDFF80B
:102958006C80FFF7E9FF04F51376A379E27994F820
:1029680008A005EB820205EB83032046D2F81891F4
:10297800D3F89430FEF76FFD00F141012046FEF7D1
:1029880060FD0246BAF1000F0AD0CDE900A9404621
:10299800FFF7CAFF0C34A642DFD102B0BDE8F087CA
:1029A800CDF800903846FFF7BFFFF3E70BDB0308CD
:1029B80048250020047D030837DB030827DB0308CC
:1029C800F8B51048104D114E114FFFF7ADFF002418
:1029D80074B9104BD3F8BC306FF003025A4312F5A8
:1029E80080620BD055F824103046FFF79DFF03E0B6
:1029F80057F82420002AF5D1202C01D00134E7E72C
:102A0800F8BD00BF45DB0308987D03085BDB0308BE
:102A1800881C0020C81B00201FB5074B0293074BDA
:102A28000193074B0093074A074B08490848FFF7EB
:102A38007BFF05B05DF804FB96DB03089EDB03080B
:102A4800A7DB03086FDB030869DB030879DB0308EE
:102A58007EDB03082DE9F04F5348544D8DB0FFF746
:102A680063FF0026B046B146514B1A6800239342D3
:102A780023DB0136192E05F14805F5D14D49D1E979
:102A8800020240090C68096940EAC2624FF47A738D
:102A98004948B4FBF3F3FFF747FF0A2298FBF2F328
:102AA80002FB138099FBF2F1009002FB119243485C
:102AB800FFF73AFF0DB0BDE8F08F414951F82310F8
:102AC8008D4201D00133D2E7AC6A5CB107EE904A7F
:102AD800DFED3C6AF8EEE77A86EEA77AFDEEC77A74
:102AE80017EE904AD5E90C727F0947EAC267520986
:102AF800D5E90EA30B922146E217CDE90812099AEF
:102B080063430AFB0233A4FB0A0141F2883B1BEB37
:102B1800000B19444FF0000C4CEB010C4FF47A7287
:102B280000235846614632F0F5F90B9B099A0A9042
:102B3800634307FB0233A4FB070141F2883B1BEB0D
:102B4800000B19444FF0000C4CEB010C00234FF420
:102B58007A725846614632F0DDF9062E18BF0A9B94
:102B68000A9918BF99444FF47A722B6CB3FBF2F3AD
:102B780006934FF00A0318BF804490FBF3F203FB5F
:102B88001200CDE904200A9A92FBF3F203FB121318
:102B9800CDE90223CDE900A723462A680A48314631
:102BA800FFF7C2FE65E700BFB3DB0308381000205B
:102BB80004060010000000102FDC030851DC030895
:102BC8000806001000247449FADB030810B50C4C01
:102BD80003461846FDF7D4FA30B10A4B0A4859792A
:102BE800BDE8104001319FE61846FFF7E7F90138C4
:102BF800022804D8C0B205F061FA2346E9E710BDFF
:102C0800B6FF0308804200207FDC030810B50C4C97
:102C180003461846FDF7B4FA30B10A4B0A48197949
:102C2800BDE8104001317FE61846FFF7C7F90138C3
:102C3800022804D8C0B205F050FA2346E9E710BDCF
:102C4800B6FF03088042002087DC030838B5034636
:102C5800FDF796FA90B3224BD3F884300133172B43
:102C680022D820490C2202FB03121C4695684DB954
:102C78001C4A0C210134172C18DD002401FB042008
:102C88008568A5B1164BC3F8844018F015FF2A468D
:102C980021461548FFF748FE0C235C43114B185D8D
:102CA800BDE8384018F01EBF1C46E1E7E6D99C4253
:102CB800E0D10E48BDE83840FEF718BF1846FFF7C8
:102CC8007DF91728044606D8064A0C2303FB00237F
:102CD8009D68002DD6D121460548BDE8384023E639
:102CE80000000020AC9B0308BCDC030892DC03084E
:102CF800A6DC0308F7B50346FDF742FA044618B107
:102D0800FEF72EFF03B0F0BD01AA1D491C4F18465F
:102D180032F0A2FD2646254640B90B2D18D919498F
:102D28000B2302461848FFF7FFFDEBE744B1012CDF
:102D38000AD001AA39460020013432F08DFDEBE7B4
:102D4800FFF73CF90546F4E7FFF738F90646F0E7E0
:102D5800022C0DD1A6F57A73B3F57A7F05D94FF415
:102D6800FA634FF47A720949DCE7094B23F81560D6
:102D7800074B084833F915202946FFF7D5FDC1E769
:102D88003AEE0308D1DC0308D7DC0308A4010408E1
:102D9800166B0020F4DC03082DE9F341044631F0FA
:102DA80077FA04283DD1631E2546E11C13F8012F4C
:102DB800A2F16100192898BF203A8B421A70F5D108
:102DC800DFF87080271D15F8016B4046314634F056
:102DD8002CFF20B13146284634F027FF20B1FEF7FA
:102DE800BFFE02B0BDE8F081BD42ECD1204627F01D
:102DF800F7FD0E480E4CFEF725FE0E4800231A1963
:102E080002A952780A44195C02F8081C0133042B01
:102E1800F5D10023694608488DF80430FFF784FD92
:102E2800DFE70028E5D0FEF79BFEE2E701DD0308B7
:102E3800689900207EAC03086DDA03082DE9F74F86
:102E4800804631F025FA474DDFF844912F68044653
:102E5800F0B94548454EFFF7B7FC012519F804308D
:102E6800013B05FA03F33B4209EB040203D09168E6
:102E78003046FFF7A9FC0C34B4F5847FEED117B9BE
:102E88003B48FEF7DFFD03B0BDE8F04FFEF72ABE72
:102E9800024638494046FFF745F8064670B93648B5
:102EA800324DFEF7CFFD09EB0603284699680C362C
:102EB800FFF78AFCB6F5907FF5D1E4E798F8003083
:102EC8002D2B03BF08F1010804F1FF344FF0010A6C
:102ED8004FF0000A00260C2303FB069B0193DBF846
:102EE80008300093194622464046FFF71BF8019B1D
:102EF80000282ED1BAF1000F18D0162E0AD11F4B78
:102F08002B601F48FEF79EFD00991E4803B0BDE8E0
:102F1800F04F09E5172E01D16B68F1E79BF80030F7
:102F28005A1E012393401F432F60EAE7162E03D150
:102F3800C5F800A01448E5E7172E17BF9BF8003026
:102F48006F6003F1FF3201231EBF93409F432F6040
:102F5800F0E70136182EBFD10C4803B0BDE8F04F9A
:102F6800FEF7C4BD9C69002007DD030818DD0308CF
:102F780011DD03081DDD030822DD0308FFFF3F0004
:102F88003ADD030819DD030843DD03082DDD0308D6
:102F9800AC9B03082DE9F84F054631F079F9334F1A
:102FA8000446D7F80090C0B93148324D324FFEF789
:102FB80049FD012655F8241059B10B783BB106FAA2
:102FC80004F313EA090F02D03846FFF7FDFB01347A
:102FD800F0E7BDE8F84FFEF785BD024627492846C9
:102FE800FEF7A0FF78B92648264C234DFEF72AFDA8
:102FF80054F8041F0029ECD00B78002BF8D0284691
:10300800FFF7E2FBF4E72B78DFF868B02D2B03BF5E
:10301800013504F1FF344FF0010A4FF0000A002691
:103028005BF82680B8F1000F04D11748BDE8F84FC7
:10303800FEF75CBD224641462846FEF773FF98B965
:103048000120B040BAF1000F09D0FEF771FE0F4819
:10305800FEF7F8FC41460E48BDE8F84F64E440EA44
:10306800090038600B48F3E70136D9E74CC900205E
:103078004BDD03086C7E030855DD03081DDD0308DE
:1030880059DD0308687E03082DDD03083ADD0308CF
:1030980019DD030843DD03082DE9FF410A480488C8
:1030A800856846888788D0F80C8014F0B5FE0097AC
:1030B800CDE9018033462A4621460448FFF734FC0F
:1030C80004B0BDE8F08100BF8001002065DD030881
:1030D8002DE9F347204E21483768214CDFF89080CE
:1030E800DFF88490DFF88CA0FEF700FD0025BD42D4
:1030F80002DB02B0BDE8F08733689D4229DCA28874
:10310800D3B2162B18D808EB8303D3F8EC31002B75
:1031180008BF4B4621685046FFF756FBE3885A0420
:103128000CD5E0890090A389628921890D48FFF7B1
:10313800FBFB01351034DAE70B4BEBE71B0405D535
:10314800D4E902120948FFF7EFFBF2E7FEF7CAFCE1
:10315800EFE700239B88FFDE942B0020C0DD0308E7
:1031680094270020FBDD0308B6FF03080DDE0308E3
:10317800047D0308ECDD0308F8B5447914F0C003B6
:10318800054602D0402B17D0F8BD1AF05DF904F0BF
:103198000F04062C064605D10146BDE8F84016483E
:1031A800FFF7C2BB28461AF07BF932460146BDE854
:1031B800F8401248FFF7B8BB83791148114E124FF7
:1031C800262B96BF114D002505EBC305FEF73AFCEB
:1031D80000242B799C4203D3BDE8F840FEF782BC5B
:1031E80014B13046FEF72EFC2B68384653F82410ED
:1031F800FFF7EAFA0134ECE717DE030827DE0308D5
:103208003EDE03084EDE030819DD0308FC9C0308B4
:1032180070B54379164603F00F028AB00546062AB0
:103228004CD8DFE802F0041316181B1D49000C786F
:1032380013F0C00344D0402B3CD1214628461AF055
:10324800EBF8002856D0FFF7BFFA33E091F90040B9
:10325800EEE70C88ECE7B1F90040E9E70C68E7E72E
:1032680091ED000A01A8FEF763FF01462648FFF723
:10327800ABFAFEB16B7913F0C00F1BD128461AF0D8
:103288000FF907EE900A01A8B8EEE70AFEF750FF1B
:1032980001461E48FFF798FA28461AF0D5F807EEB7
:1032A800900A01A8B8EE670AFEF742FF01461748E0
:1032B800FFF78AFA0AB070BD1348F9E70024B7E7A8
:1032C800042A0CBF124813482146FFF77DFA002E46
:1032D800F0D06B7913F0C00FECD128461AF0E0F863
:1032E800044628461AF0B0F8214602460A48FFF775
:1032F8006BFADFE701A928461AF0BCF901AA2146B2
:103308000648FFF711FBD5E76DDA030819DD030856
:103318003BDE03084B06040850DE030857DE0308AB
:1033280038B50D4604461AF017F92A4601462046D4
:10333800BDE838406CE72DE9F0470024DFF86090DD
:10334800DFF860A08AB0074625464FF00A0808FB58
:10335800049601A930461AF08DF9394601A834F0CF
:10336800B2FC78B101A95046FFF72EFA0021304689
:10337800FFF7D6FFFEF7B6FB3046FFF7FDFEFEF778
:10338800B1FB0135013440F25F139C42DFD115B91E
:103398000248FEF7ABFB0AB0BDE8F0872DDD030855
:1033A800008A0308B3DE03082DE9F04F2DED028BE8
:1033B8008BB0804630F06CFF054628B1012826D135
:1033C80098F800302A2B22D18948DFF84482894FA7
:1033D800FEF78CFB00244FF00A0909FB048601A9BB
:1033E80030461AF047F901A93846FFF7EDF92946A2
:1033F8003046FFF795FF0134FEF774FB40F25F1388
:103408009C42EAD10BB0BDEC028BBDE8F08F3D21A8
:10341800404634F00AFC002800F0E580034613F823
:10342800012C202A03F1FF312ED0A3EB0807441CFE
:103438002378202B04F1010228D0DFF8D4B100262C
:103448004FF00A0A0AFB06B501A928461AF012F934
:1034580001A830F01DFF01A9814602464046FEF74B
:1034680061FDA8B9FBB2994512D16B7903F00F0839
:10347800B8F1060F15D1204630F00AFF2146024662
:1034880028461AF076F8BDE70B46C8E71446CFE79A
:10349800013640F25F139E42D4D15748FEF726FB0F
:1034A800B0E713F0C0030AD0402B5ED05348FEF7B4
:1034B800C9FA2846FFF760FEFEF714FBA2E7237857
:1034C800002BF3D04E49204634F0EBFB064620464D
:1034D80030F0DEFE8642E9D12046FDF731F8284675
:1034E800B0EE408A19F0DCFF07EE900AF8EEE77AB2
:1034F800F4EEC87AF1EE10FAD8D8284619F0A4FFED
:1035080007EE900AF8EE677AF4EEC87AF1EE10FA50
:10351800CCDBB8F1050F17D0B8F1040F1FD1214645
:1035280014F8013B202BFAD0092BF8D001390023DD
:103538000A2011F8012F303AD2B2092A02D800FB2A
:103548000323F6E708EE103A28461AF005F8B8F112
:10355800050F35D8DFE808F031313D3D41442046BC
:10356800FEF72CFD08EE100AEEE7AB799FED258AF1
:10357800262B96BF244E064606EBC306002796F870
:1035880004A03B46B946BA4500D91BB1B9F1000FB2
:103598008CD0D9E733686FF0004253F827002146F2
:1035A800FEF7C0FC002808BF08EE107A0ABF012306
:1035B80000234FF001090137E5E718EE103A0370D0
:1035C80001A91248FFF700F900212846FFF7A8FED5
:1035D80018E718EE103A0380F2E780ED008AEFE76B
:1035E80080ED008AECE74046FFF7A5FE0AE700BF3A
:1035F80074DE0308B3DE03082DDD03089FDE03082D
:1036080086DE030800000000FC9C030894DE030823
:10361800008A03082DE9F04F81468DB088460026C0
:10362800464BF418464B1868FEF7E0F994F805B0D5
:103638000BF030034B4549D1204619F06BFFFEF7DC
:1036480065FB0546204619F03BFFAA68019217184A
:103658008246204619F080FF0BF00F010546019ABB
:10366800062968D8DFE801F0043A3F43484C5A007D
:1036780012F80A200378D31AD3F1000A4AEB030A96
:1036880018F0200F02D0BAF1000F1FD103A920466D
:1036980019F0F0FF18F0400F0DD0BAF1000F0AD161
:1036A80003A92848FFF790F8524629462046FFF715
:1036B800AFFDFEF717FA03A92348FFF785F80022A4
:1036C80039462046FFF7A4FDFEF70CFA0A3640F605
:1036D800B6539E42A4D10DB0BDE8F08F12F90A206E
:1036E80090F90030C7E732F80A200388C3E732F9B7
:1036F8000A20B0F90030BEE752F80A200368BAE79A
:1037080097ED007AD0ED007AB4EE677AF1EE10FA10
:103718000CBF4FF0010A4FF0000AB1E7204619F03C
:1037280093FE2946421C384634F094FAB0FA80FADF
:103738004FEA5A1AA4E74FF0000AA1E7008A0308E3
:1037480048760020AEDE0308AFDE0308022810B575
:103758000C460FD804F02EFB0748FEF705FA074B76
:10376800074859790131FFF7DFF821463020BDE8D5
:1037780010404FE710BD00BFB9DE030880420020AB
:10378800C9DE0308022810B50C4613D804F02AFB3A
:103798000948FEF7E9F9094B094819790131FFF79A
:1037A800C3F821461020FFF735FF21462020BDE849
:1037B80010402FE710BD00BF7202040880420020AD
:1037C800D1DE03080CB407B510F0400009D069B980
:1037D8002320FEF717F905A904980191FFF790F83F
:1037E800012003B05DF804EB02B070470020F8E751
:1037F8000CB4830607B500D551B905A90498019101
:10380800FFF77EF8012003B05DF804EB02B07047C3
:103818000020F8E72DE9F04F824687B091460E4622
:1038280015460027337896F9028004937378059338
:1038380096F803B0B8F1000F32D0B9F1000F34D0C8
:103848002B78049C6A7895F90210E8789C422AD172
:10385800059C944227D1884525D1ABEB000CDCF1BF
:10386800000444EB0C04CDE90210CDE900322146F6
:103878003B460F4A5046FFF7A5FF059B0193049B63
:103888000093CDE9028B3B46094A21465046013751
:10389800FFF7AEFF102F06F1040605F10405C1D1AC
:1038A80007B0BDE8F08F0024DDE74C46E5E700BF30
:1038B800DEDE03082DE9F0478AB0054630F0E8FC63
:1038C800C2B232B969490120FFF7A4FF0AB0BDE8C6
:1038D800F087052266492846FEF724FB88B915209B
:1038E800FEF714FA10B16149FEF7B4F9614B0022F2
:1038F8001A60DA609A615A621A63DA639A645A65DE
:10390800E4E707225C492846FEF70CFB044600283A
:1039180075D12021284634F088F9064630F0B8FCE5
:10392800C5B285BB5548FEF74FFF2C46544D21467E
:1039380028460134FEF748FF172CF8D1FEF7D2F8D5
:103948004C4EDFF84C914F4FDFF848810024214658
:103958004846FEF739FFDFF840A100253268012309
:10396800AB40134214BF3946414650460135FEF775
:103978002BFF172DF2D10134FEF7B4F8082C06F10D
:103988000C06E4D1A2E7304601AA3F493E4E31F089
:1039980063FF02AD00283DD0022C15D1029A072AF8
:1039A8002AD80399162927D80378722B17D06E2B9B
:1039B80022D10C2353432F48012202FA01F1C258A5
:1039C80022EA0102C25013E0FEF7F8FA01AA45F80C
:1039D80024003146002031F03FFF0134DAE70C23A0
:1039E800244C5343012000FA01F1E0580843E05009
:1039F8002148FFF75FFF69E7FEF7B2F8F8E72846C6
:103A080001AA2149204E31F027FF002402AD78B1E8
:103A1800052C02D1FEF7A4F858E7FEF7CFFA01AA61
:103A280045F824003146002031F016FF0134EEE756
:103A3800052CEFD1029A0F2AECD8039D072DE9D85F
:103A4800049C162CE6D8059800F17D03FA2BE1D8E2
:103A58000699FF29DED8054B03F8225003EB8203B1
:103A680098705C70D9700948C3E700BFFD690020F1
:103A7800F2DE0308406A0020F8DE03086EDA030865
:103A880000DF030833DF03083AEE0308B6FF030834
:103A98004B060408EDF5030805DF03082DE9F04F90
:103AA800DFF8FCB085B08046894617460E461546B5
:103AB8004FF0000A002F6ED072686B689A4268D186
:103AC800B468AB6824F07F4423F07F43E31A5C4278
:103AD8005C4195F90A300393B5F908300293B5F9BA
:103AE80006300193B5F9043000935A4653462146EF
:103AF8004046FFF767FE96F90A300393B6F9083097
:103B08000293B6F906300193B6F9043000935A4689
:103B18005346214640460AF1010AFFF769FEBAF109
:103B2800080F06F10C0605F10C05C3D177B3002484
:103B380026460025012303FA05FA3A5959F80430B4
:103B480053403AEA030314BF4FF0010B4FF0000B48
:103B580012EA0A0F06D000953346104A59464046E5
:103B6800FFF730FE59F804301AEA030F06D0009523
:103B780033460A4A59464046FFF73AFE0135172DA3
:103B8800D8D10136082E04F10C04D2D105B0BDE815
:103B9800F08F00249DE73C46ADE700BF20DF030817
:103BA8000BDF03087FB50546FCF7EAFA002858D072
:103BB8002D490022012004B0BDE870406EE72D2B8E
:103BC80003D0A3F13002092A46D8042C04DD04B03E
:103BD800BDE87040FDF7C4BF2846FEF7EFF904AB17
:103BE800621C03EB440424F80C0C15F8013F303B2D
:103BF800092BFAD914462B78002BE0D1052CE6D1F5
:103C0800BDF904309AB2072AE1D8BDF90600A0F23E
:103C1800EE2292B240F2DC54A242D8D8BDF9081084
:103C2800A1F2EE2292B2A242D1D8BDF90A20904266
:103C3800CDDC9142CBDBBDF90C5005F17D04A4B27B
:103C4800FA2CC4D8084C0C2606FB03439880D9806C
:103C58001A819D7204B070BD202BB8D1013522465F
:103C6800C8E70446C7E700BF406A00202DE9F04FC7
:103C7800804685B00E4615468946924600270024A0
:103C880009EB040393F8C0300393002D48D00AEBE6
:103C98000403039A93F8C030D11AD1F1000B4BEB0F
:103CA800010BCDE90043204A3B4659464046FFF701
:103CB80089FD039B1C4ACDE9004359463B464046D3
:103CC8000134FFF795FD062CDAD10137062F09F1EB
:103CD80006090AF1060AD2D106F1E40A124E0024B6
:103CE8001AF8019BF5B12B19404693F8E430A9EB7B
:103CF800030257425741CDE900433246062339466D
:103D0800FFF760FDCDE900490623324639464046B3
:103D18000134FFF76DFD0B2CE2D105B0BDE8F08F43
:103D2800AB46C6E72F46EDE735DF03087FB5034608
:103D3800FCF726FA044630B100221F490120FFF79C
:103D480095FF04B070BD6A461C491C4E184631F0F8
:103D580083FD01ADC0B1032C02D1FDF701FFF0E7EF
:103D6800FEF72CF96A4645F824003146002031F068
:103D780073FD0134EEE70628EFD10A2AEDD80E4884
:103D8800104480F8E43012E0032CE6D1039B0F2B9B
:103D9800E3D8DDE90112C8B20528ECD8052ADCD839
:103DA800054C062505FB0040104480F8C030044847
:103DB800FEF7BAFDC5E700BF483500203AEE030814
:103DC80035DF03082DE9FF47DFF86CA081469046F0
:103DD8000E4615460027B8F1000F2AD02B883288E6
:103DE8009A4224D174886A88A21A54425441EA78C3
:103DF8000292AA782146CDE9003248463B4652460F
:103E0800FFF7E0FCF3780293B378019336F8043BAC
:103E1800009352463B46214648460137FFF7E8FCE7
:103E2800102F05F10405D6D104B0BDE8F0870024B1
:103E3800DDE74446E6E700BF49DF03082DE9F04126
:103E48000646FCF79DF9044628B1002224490120C2
:103E5800BDE8F041B6E73046FEF7B0F80F28054652
:103E68002EDC3046FCF79DFFDFF884801D4F0646A8
:103E780020353046FEF7A2F838F81430984227DC8F
:103E8800012C11D0022C13D027F8250030462C2104
:103E980033F0CBFE064678B1013601230134BBB1BD
:103EA800032CE6D1BDE8F08107EB85039870EDE7B8
:103EB80007EB8503D870E9E7A21E53425341EDE7AB
:103EC80022460F2308490948BDE8F041FEF72CBDFA
:103ED800002347F82530BDE8F041FDF741BE00BF9B
:103EE800C835002048350020D1DC0308D7DC03089A
:103EF8004C7F03082DE9F04FDFF868808FB0074644
:103F08008A46164600240DF124095AF824300293F3
:103F1800494602A829F00AF816B356F82430029D3B
:103F28000393EB1A5D420DF1100B5D41594603A84E
:103F380028F0FCFFCDF800B0234642462946384613
:103F4800FFF740FC2346CDF8009042462946384604
:103F58000134FFF74DFC202CD7D10FB0BDE8F08F0E
:103F68003546EFE75BDF03082DE9F04F87B00546DC
:103F7800FCF706F9044638B1002263490120FFF72F
:103F8800B9FF07B0BDE8F08F2846FEF717F81F28DD
:103F9800074600F3B1802846FCF703FF5A4B00940C
:103FA80043F82740834625462646A046A146A24612
:103FB8000193564BE1B2E05C0DF10C0E0023DC4698
:103FC8001BF8012B1AB1904211D00A2B0BD10DF11D
:103FD800180E734490424FF0000E03F80CEC08D012
:103FE800FDF7BEFDCDE703F80E200133E7E70246F3
:103FF800EDE701390CF1010B03293FD8DFE801F0A7
:104008005A2602730DF10B014FF0010E11F8013F12
:10401800C3B300223E4810F802C09C4503D00132C9
:10402800072AF7D14A46542B53D04F2B53D0422B53
:1040380053D04E2B53D0492B53D0572B04D10523A3
:104048000EFA03F348EA03089146DFE70DF10B0285
:10405800012112F8013FABB14E2B30D0452B30D0A7
:10406800532B30D0572B30D0552B30D0442BF0D198
:10407800052301FA03F34AEA030AEAE703A8FDF76E
:104088009DFF06460134052C93D1009B05F00F05D2
:1040980045EA834545EA8A5A4AEA0929360149EA3E
:1040A8000838019BF6B248EA060643F827600FF085
:1040B80041FD66E703A8FDF781FF0546E2E7002317
:1040C800D7E70123D5E70223D3E70323D1E7042366
:1040D800CFE70023B4E70123B2E70223B0E70323C5
:1040E800AEE70423ACE703A8FDF768FF03460F28F3
:1040F800C8BF00230093C5E71F2322460549064889
:10410800FEF712FC3DE700BF48350020527F030848
:104118006AAD0308D1DC0308D7DC03082DE9F347AF
:10412800DFF868A081460F46904602260024B8F1C1
:10413800000F28D038F8243037F8241038F8062033
:1041480099421ED1BD5BA91A4D424D41CDE90032BD
:104158002946234652464846FFF734FBBB5B01938A
:1041680037F82430009352462346294648460134FE
:10417800FFF73EFB042C06F10406D8D102B0BDE8D7
:10418800F0870025E2E74546E8E700BF65DF03085A
:104198002DE9F0410546FBF7F3FF064628B100225A
:1041A80027490120BDE8F041B8E76FF000422549F2
:1041B8002846FDF7B7FE70B9214B4FF47A714FF4DA
:1041C800FA6219805A809980DA8019815A81998116
:1041D800DA81BDE8F0812846FDF7F0FE03280446A1
:1041E80026D82846FCF7DDFD064670B1FDF7E6FE49
:1041F800012507463046FCF7D4FD10B1FDF7DEFE79
:104208002DB9BDE8F041FDF7ABBC0546F2E7A7F2D2
:10421800EE2240F2DC539A42F3D8A0F2EE229A4200
:10422800EFD8074B23F8247003EB84035880D0E7BA
:104238003246032304490548BDE8F041FEF774BB44
:1042480092810020F2DE030876DF0308D7DC03083A
:104258002DE9F04F2DED088BDFF80C9197B08046D3
:1042680092460D461446002695ED008AB5EE408A22
:10427800F1EE10FA70D0D5ED019A95ED029AD5EDD0
:10428800038ABAF1000F3ED094ED000A94ED01BA0A
:10429800D4ED02AA94ED03AAB4EE408AF1EE10FA26
:1042A8005FD1F4EE4B9AF1EE10FA5AD1B4EE6A9A55
:1042B800F1EE10FA55D1F4EE4A8AF1EE10FA0CBF7D
:1042C8000127002712A8FDF733FFB0EE4B0A8346FB
:1042D8000EA8FDF72DFFB0EE6A0A05900AA8FDF7B3
:1042E80027FFB0EE4A0A049006A8FDF721FF059BB8
:1042F800049A03900292CDE900B34A463346394600
:104308004046FFF75FFAB0EE480A12A8FDF710FF23
:10431800B0EE690A07460EA8FDF70AFFB0EE490A93
:1043280083460AA8FDF704FFB0EE680A049006A8C1
:10433800FDF7FEFE049B0390CDE901B300973346D9
:104348004A46002140460136FFF752FA0C2E05F185
:10435800100504F1100487D117B0BDEC088BBDE837
:10436800F08F0027AEE700BF7EDF030870B5044674
:10437800FBF706FF064628B100222E490120BDE8BA
:10438800704065E705222C492046FDF7CBFD40B972
:104398002849002201EB001301300C281A60F9D1DA
:1043A80070BD2046FDF70AFE0B2805463AD8204680
:1043B800FCF7F7FC064648B3FCF7C2F81D4B03EBC5
:1043C800051383ED000A01243046FCF7EAFC064693
:1043D80038B1FCF7B5F8174B03EB051383ED010A69
:1043E80001343046FCF7DDFC064638B1FCF7A8F886
:1043F800104B03EB051383ED020A01343046FCF73A
:10440800D0FC28B9BDE87040FDF7AABB0446DBE73D
:10441800FCF796F8074B032C03EB051585ED030A0B
:10442800AAD0EFE732460B2304490548BDE870409F
:10443800FEF77ABAFC6C0020F2DE0308D1DC030830
:10444800D7DC03082DE9F04F834687B092460C4627
:10445800164600274FF019094FF46178BAF1000F9A
:104468004DD0B078A5783378727896F803C096F86E
:1044780004E07179854240D125789D423DD1657827
:1044880095423AD1E578654537D12579754534D1D6
:1044980065798D4214BF0025012519FB028219FB9D
:1044A8000383CDE9010303920091CDE904CE3B4695
:1044B800144A29465846FFF785F923790593E37886
:1044C800049363780F4A19FB03830393237819FB3A
:1044D80003830293A37801936379009329463B46AB
:1044E80058460137FFF784F90C2F04F1060406F14A
:1044F8000606B3D107B0BDE8F08F0025CDE75546D5
:10450800DBE700BF92DF03082DE9F7438146FBF79D
:1045180037FE064638B1002237490120FFF792FFDF
:1045280003B0BDE8F0834846FDF748FD0B28044674
:104538005BDC0625454309F101008DF80760FCF7AF
:1045480030FCDFF8B480814605EB0807464638B1F1
:10455800FDF734FD03289EBF012378718DF80730DD
:104568004846FCF71EFC814660B1FDF727FD0D2883
:1045780008D8062303FB046398709DF807300133BD
:104588008DF807300DF1070239464846FDF798FDCA
:10459800FCF707FC814660B1FDF710FD302808D80C
:1045A8009DF80730062202FB04620133D0708DF8B3
:1045B80007304846FCF7F5FB60B1FDF7FFFC0D2816
:1045C80008D89DF80730062202FB046401332071E5
:1045D8008DF807309DF80730062BA1D0002345F849
:1045E8000830BB80FDF7BCFA9AE70B233246034933
:1045F8000348FEF799F993E7E66D0020D1DC03083C
:10460800D7DC03082DE9F04F374FDFF8E4A089B075
:10461800814690460C46164602F1400B94F902502A
:1046280000230C2202FB03F130480956A94256D058
:104638000133082BF6D108365E4504F10804EDD1A4
:1046480009B0BDE8F08F96F9023007939D42328891
:10465800F178307996F806C096F805E03DD12588BE
:1046680095423AD1E5788D4237D12579854234D1C2
:10467800A579654531D16579A5EB0E035D425D41AC
:1046880057F82E3057F8211057F82000049357F8A0
:104698002C300393CDE900210290079B524629460E
:1046A8004846FFF78FF8627994F9023057F82220CC
:1046B8000492A27957F822200392227957F82220EF
:1046C8000292E27857F82220019222880092294625
:1046D80052464846FFF78CF8ADE70025D0E7B8F119
:1046E800000FB0D14546DEE720990308FC9A002068
:1046F800B0DF03082DE9F3410346FBF741FD30B174
:1047080035490022012002B0BDE8F0417AE7CDE941
:10471800000018465D1CFDF751FC44B2204617F016
:104728005BF9064600283CD08DF802400124284653
:10473800FCF737FB074628B1FDF740FC0134ADF81C
:104748000000E4B2DFF8948000253846FCF729FB26
:104758000746F8B1FDF732FC002258F822108842CB
:10476800D3B203D00132112AF7D1002358F82320FD
:1047780090420FD1022D1CD0032D1FD0012D12D035
:104788005A1E0F2A03D88DF803300134E4B20135DC
:10479800042DDAD1052C17D802B0BDE8F041FDF799
:1047A800DFB90446C3E71A1F042AF0D88DF804308D
:1047B800EBE7082BEBD88DF80630E6E75A1F052AF9
:1047C800E5D88DF80530E0E76B4603CB30607160C3
:1047D80002B0BDE8F08100BFBA9A00202099030812
:1047E8002DE9F04F834685B092460D4616460027C0
:1047F8004FF019094FF46178BAF1000F3ED03278C2
:104808002C787178B378F078944235D16C788C42F2
:1048180032D1AC789C422FD1EC78A4EB000CDCF1BF
:10482800000444EB0C0419FB008019FB0383CDE959
:104838000113039000923B46114A21465846FEF761
:10484800C1FFEB780E4A19FB03830393AB7819FB7E
:10485800038302936B78019315F8043B0093214678
:104868003B4658460137FEF7C3FF142F06F10406EE
:10487800C2D105B0BDE8F08F0024D4E75446E0E784
:10488800CDDF03082DE9F04F0F468DB07A49064673
:10489800FDF762FB0546002840F0AC8077493046BA
:1048A800FDF75AFB0546002840F0A68074493046BB
:1048B800FDF752FB0546002840F0A08071493046BC
:1048C800FDF74AFB002805460ABF01241024354697
:1048D8000FB144F020046C4B6C4E93F8049093F89D
:1048E80005806B4F0193BE42C0F08A80FDF7E0F966
:1048F800484603F077FA404603F05CFA65492846D3
:10490800FDF72AFB08B144F0400414F0110F00F041
:10491800D1816148FDF728F90020FEF77DF804F001
:104928003003302B02D15D48FDF71EF95C4D5D4820
:10493800DFF8A8A1DFF8A8B1FDF716F95A48FDF786
:1049480013F9D5ED007A594AF5EE407AF1EE10FAEE
:104958000CBF012100212046FEF74AFF2A46544990
:10496800544D2046FFF774FC5348FDF7FDF895F9C0
:104978000210524AB1FA81F149092046FEF738FF80
:104988002A464F492046FEF745FF4E48FDF7ECF80A
:104998004D4A4E492046FFF781F84D48FDF7E4F8A7
:1049A8004C4B1E684C4B1F684FF000085AF82850B3
:1049B8009DB32B78DBB14FF0010909FA08F967EAD2
:1049C800060313EA090F14BF012100212B465A469A
:1049D8002046FEF7F7FE66EA070313EA090F5A4670
:1049E8002B4614BF012100212046FEF701FF08F1E4
:1049F8000108DBE701246BE7022469E7042467E781
:104A08007388C3F30B021B04D6E9011048BF02EBFD
:104A1800420230F08DFD143665E7DFF8C8A0A846DD
:104A280067EA060B2D4B53F82850002D5CD02B78E5
:104A3800FBB14FF0010909FA08F917EA090F0BD081
:104A480066EA070313EA090F52462B4614BF0121F1
:104A580000212046FEF7B6FE16EA090F09D01BEA28
:104A6800090F2B46524614BF012100212046FEF7AC
:104A7800BFFE08F10108D5E7F5DF03087202040854
:104A8800B9DE030857FC030880420020E81B04082D
:104A9800941F0408FCDF03083C04040809E0030829
:104AA800FC6C0020B80204089E03040844E00308D4
:104AB800A06E0020FD69002053E003085DE00308B4
:104AC800207000206AE00308406A0020C06F0020C0
:104AD80070E0030824CC00204CC900206C7E030839
:104AE80078E0030884E003088948DFF8B892DFF823
:104AF800B882FDF739F8874B1E68874B1B687340EF
:104B0800DB4303934FF0010B039A0BFA05F31A42A8
:104B180018BF5F46814A08BF0027334002934FF011
:104B28000C0303FB05233946D3F808A00CBF4A46FB
:104B3800424653462046FEF745FE029A5346002A4F
:104B480014BF4A464246394620465D44FEF750FEA9
:104B5800162DD7D17248734E734FFDF705F8002311
:104B68007248089304935D460BEB06021BF800306D
:104B780012F8011C0CAA1A440DF1300C02F8201C82
:104B88001BF8072094440CF8101C2DB1A3EB020C61
:104B9800DCF1000545EB0C050BF1010BBBF1050F32
:104BA800E2D1002608AB624A8DF8146029462046F7
:104BB800FEF708FE04AB5E4A29462046FEF718FEBB
:104BC8005C48FCF7D1FF5C4A5C492046FFF71AFDB8
:104BD8005B48FCF7C9FF5B4A5B492046FFF78AF947
:104BE8005A48FCF7C1FF5A4A5A492046FFF7EAF8E3
:104BF8005948FCF7B9FF534A53492046FFF736F89E
:104C08005648FCF7B1FF564A56492046FFF7E8FDDB
:104C18005548FCF7A9FF554A55492046FFF712FCAD
:104C28005448FCF7A1FF544A54492046FFF776FA46
:104C38005348FCF799FF4FF0FF331A465149204675
:104C480028F01AF95048FCF78FFF30462146FEF746
:104C5800E1FCE00643D5019B214630461F795D798A
:104C6800FEF790FD21460120FEF78CFD214602202B
:104C7800FEF788FD21463046FEF768FD21460120F3
:104C8800FEF764FD21460220FEF760FD384603F07A
:104C9800A9F8284603F08EF83C48FCF765FF791C14
:104CA8003B48FDF741FE3B48691CFDF73DFE3A488D
:104CB800FCF75AFFA10704D5019B21461879FEF796
:104CC80061FD620704D5019B21465879FEF73EFD38
:104CD800324C334B9C420DD30DB0BDE8F08F019B95
:104CE80021461879FEF74EFD019B21465879FEF7BB
:104CF8002DFDDFE76388C3F30B021B04D4E9010130
:104D080048BF02EB420230F013FC1434E1E700BF65
:104D180025000408607000209C690020AC9B0308F3
:104D28008FE003087EAC03086899002030B60020A5
:104D380093E003085B030408BA9A0020ECB500204E
:104D480047DD0308483500203C4300209FE0030866
:104D5800C8350020BC4300209AE00308A5E00308FA
:104D6800886B0020606F0020A9E00308E66D002032
:104D7800526E0020B2E00308928100208281002058
:104D8800BAE003082AB30020F5DF0308C5E00308EA
:104D980087DC03087FDC0308E8E00308E81B040855
:104DA800941F0408EADF0308E0DF0308012169E52E
:104DB800002167E5F7B50746FBF7E2F9044630B18D
:104DC800002222490120FFF70BFD03B0F0BD384651
:104DD800FDF7F4F81328054630DC8600781C8DF8BA
:104DE8000740FBF7DEFF194C074640B1FDF7E6F830
:104DF80023289EBF012304F825008DF80730384684
:104E0800FBF7CFFF074650B1FDF7D8F80D2806D8B5
:104E1800A31958709DF8073001338DF80730B11C7D
:104E28000DF1070221443846FDF74AF99DF807308D
:104E3800042BCAD0002344F82530C6E713232246A2
:104E480003490448FDF770FDBFE700BF886B0020E9
:104E5800D1DC0308D7DC03080EB40FB505AB01900D
:104E680053F8042B0649039301A8FDF7ACFB019BFB
:104E780000221A7004B05DF804EB03B0704700BF5D
:104E8800950600082DE9F043344B8DB00CAA1B8819
:104E980022F80E3D054609A827F051FFBDF922204A
:104EA8003C2192FBF1F301FB132109B21EB2BDF8BC
:104EB80024300029B8BF4942B3F5FA6F1AD39DF8D8
:104EC8002630013B0B2B15D89DF82730013B1E2BB4
:104ED80010D89DF82830172B0CD89DF829303B2B7B
:104EE80008D89DF82A303B2B04D8BDF82C30B3F5F0
:104EF8007A7F30D300201A4B0993ADF828008DF83B
:104F08002A00ADF82C000446002E9DF828709DF864
:104F180029C09DF82AE0BDF82C809DF8270007914C
:104F2800B4BF4FF02D094FF02B09002EB8BF7642C1
:104F38000090BDF824209DF826300A49CDE9059651
:104F4800CDE903E8CDE9017C2846FFF785FF204637
:104F58000DB0BDE8F0830124D6E700BF609B0020B8
:104F68000000010101E103080FB437B50B490C48F3
:104F7800096800680B4D06AB53F8042B0193FDF745
:104F880022FB04462868FCF7FEF80028FAD02046E1
:104F980003B0BDE8304004B0704700BF982B002034
:104FA8009C2B0020947600202DE9F04F87B0034613
:104FB800FBF7E6F8064620B1FCF7D2FD07B0BDE8DE
:104FC800F08F05AA6049DFF8AC91DFF8ACA1DFF8F3
:104FD800ACB1184630F040FC34460546B0464FF0B8
:104FE800FF37A5B9594B78B20C2606FB05F2D11844
:104FF800D256824200F08B800135082DF5D1B8F1E8
:10500800000F34D152483946FFF7AEFFD6E7012EDC
:105018000ED0022E11D01EB92846FCF7CFFF074646
:1050280005AA4949002030F017FC01360546D8E7A3
:105038002846FCF7C3FF8046F2E74946284632F087
:1050480042FE20B94349284632F03DFE08B144F0FB
:1050580001045146284632F036FE28B959462846FA
:1050680032F031FE0028DBD044F00204D8E7002CEF
:1050780008BF03240023E4B20293CDE900841A4652
:10508800194616F031FC054610B939463248BBE7D7
:10509800424639463148FFF767FF39463048FFF73F
:1050A80063FF304B1C68204616F0FEFB284616F0BE
:1050B800FBFB00210846FCF7E7F800210120FCF77C
:1050C800E3F82046FCF76BF870B101210020FCF7EB
:1050D800DBF82046FCF75DF801462846FCF762F845
:1050E80000210846FCF7D0F82846FCF758F80028B5
:1050F800E7D001210020FCF7C7F82846FCF749F85B
:1051080001462046FCF74EF800210846D7E74D68CF
:10511800002D3FF474AF39461348FFF725FF54B10B
:105128006979A14207D022461048FFF71DFFE1B276
:105138002846FCF725F8EB6A002BAED00C48FFF7A1
:1051480013FF0023EB62A8E73AEE0308FC9A00205D
:105158002FE1030887E7030857E1030876E103080E
:10516800E1E103084C76002093E10308ABE1030872
:10517800CBE1030814F60308FBF403087FE70308F0
:105188002DE9F04F4FF0000C85B086460746804663
:10519800054600F1400908F1100B2B463E4612E087
:1051A800F4EC016A1AED047AD3ED007AE6EEC77AD8
:1051B800C3ED007AAC420AF1100AF1D104335B4521
:1051C80006F1040602D0B2464446F3E71E464E45B1
:1051D8001CD006EB0C0BBA46B04607E0F8EC016AA7
:1051E8001AED047AE6EEC77AC4ED047AD845D4ED10
:1051F800047A0AF1100AF1D1D5ED006A87EEA67A91
:10520800103617EE108A44F8108FE0E70CF1040C02
:10521800BCF1100F05F1140507F104079846BAD13F
:105228000023009301930293039302F110070546AC
:105238006C4652F8043B44F8043B6E467346AB4256
:1052480024D1BA420EF1100E03F11405F1D1403009
:1052580004AE01F11003054656F8044D43F8044C1A
:105268001A1F0446AC42D2ED007A1AD150ED016AF9
:1052780087EEA67A8A42A0F11400A4F1100513461D
:1052880082ED007AE8D105B0BDE8F08FB6EC017A7E
:1052980054ED017AF3EC016AE6EEC77A44ED017A3F
:1052A800CDE7F4EC016AB3EC017AE6EEC77AC2ED19
:1052B800007AD7E71FB50C46024669461030FFF75B
:1052C8005FFFDDED007AB6EE007A67EE877AC4ED0F
:1052D800007ADDED017A67EE877AC4ED017ADDEDBB
:1052E800027A67EE877AC4ED027A04B010BDD1ED78
:1052F800007A90ED066AD0ED095AB8EEE77AD0ED5B
:10530800047AE7EE077AB7EE005AC0ED047AD1EDD9
:10531800017AF8EEE76AD0ED057AE7EE267AC0ED75
:10532800057AD1ED027AF8EEE77AA7EE276A80EDE2
:10533800066A90ED076A36EE076A80ED076A90ED17
:10534800086AA7EE266A80ED086A26EEA66A75EE58
:10535800865AA7EE076AC0ED095AD0ED0A5AE6EE5A
:10536800A75AA7EEA76AC0ED0A5AD0ED0B5A75EEF8
:10537800A65AC0ED0B5AD0ED0C5AE7EE275AC0EDED
:105388000C5AD0ED0D5AE6EEA75AC0ED0D5AD0EDE5
:105398000E5AE7EEA75AC0ED0E5AD0ED0F5A75EE29
:1053A800A75AC0ED0F5AD0ED105A75EE875AC0EDC6
:1053B800105AD0ED115A75EEA65AC0ED115AD0ED1B
:1053C800125A75EEA75AC0ED125AD0ED135A75EE5F
:1053D800855AC0ED135AD0ED005AE7EE065A90ED03
:1053E800017AC0ED005AA6EE867A80ED017A90ED3A
:1053F800027AA7EE867AD0ED037A80ED027A37EE4C
:10540800866A80ED036A704700F140010346002276
:105418001A615A619A61DA6110338B4240F8042BA1
:10542800F6D17047024684B00068516801AB03C3E7
:1054380090681860DDE901329342C8BFCDE90123C5
:10544800DDE902239A42C8BF0293DDE901329342A3
:10545800C8BF0293029804B0704780EAE073A3EBD8
:10546800E0738B4206DB002801DD401A704702D04A
:10547800084470470020704748F6A043984203DD6F
:10548800A0F50C40A03870470028B8BFC018704776
:1054980044F25063984203DDA0F50C40A0387047F1
:1054A800034B9842BCBF00F50C40A030704700BFCA
:1054B800B0B9FFFF08B52DED028BB0EEC08AF0EE53
:1054C800408AB7EE000A30EE480A30F031FD9FED11
:1054D8000E7ADFED0E7AE8EE077A9FED0D7AA7EEE9
:1054E800887ADFED0C7AE7EE087AF5EEC08ABDEC33
:1054F800028BF1EE10FA27EE800A44BFDFED067A40
:1055080037EEC00A08BD00BF306E99BC2716983D1B
:10551800843459BEA40DC93FDB0F4940F0EEE06A60
:10552800B0EEC07AF4EEC76AF1EE10FAD4BFB0EE6E
:10553800476AB0EE666AB5EE406AF1EE10FA48D0F6
:10554800F4EEC76AF1EE10FA54BFF0EE475AF0EEE7
:10555800665AC5EE867A9FED206ADFED205A9FEDE8
:10556800205AE7EE865A9FED1F6AA5EEA76ADFED7F
:105578001E5AE6EE275A9FED1D6AA5EEA76ADFEDD3
:105588001C5AA7EEA55AF7EE005AE5EE275AB1EED7
:10559800466AC6EE257AF4EEC76AF1EE10FA48BFFD
:1055A8009FED147AF5EEC00A48BF77EE677AF1EE00
:1055B80010FA48BF9FED107AB5EEC00A48BF77EEE3
:1055C800677AF1EE10FA48BFF1EE677AB0EE670A33
:1055D8007047DFED0A7ABEE739094E3DE3B59EBE56
:1055E80069A2163E88FA16BE45FE7FBFA7DFA8B49B
:1055F80099FB243FDB0FC93FDB0F49400000000047
:10560800FDEEC07A17EE903A2033402B43D8DFEDF9
:10561800237A9FED237AB4EEE70AF1EE10FA28DC3C
:10562800DFED207A9FED1E7AB4EEE70AF1EE10FA6C
:1056380022D4DFED1D7AB4EEE70AF1EE10FA1EDD92
:1056480030EE670A37EEC00A60EE007ADFED176ABF
:105658009FED177AA7EEA67ADFED166AE7EE876A5E
:105668009FED157AA7EEA67A20EE276AA6EE070A1E
:10567800704730EE470ACEE730EE070AD4E79FEDD1
:105688000F7AB4EEC70AF1EE10FA44BF30EE270ADB
:1056980037EE400AD8E79FED0A0A7047DB0F49400A
:1056A800DB0FC940DB0F49C0DB0FC93F9A7C2E36A0
:1056B800FAAF4FB93587083CA4AA2ABEDB0FC9BF89
:1056C80000000000DFED027A30EE270A98E700BFFD
:1056D800DB0FC93F2DE9F74F25F0BCF9804C814B12
:1056E800A4F114079F42C0F0A7807F4D287902F0EB
:1056F80079FB687902F05EFB7C494B898A899A427A
:1057080024BF00234B810A8ACB899A42784A0192A6
:1057180024BF0023CB811368988FDC8F8442754C9B
:10572800754824BF00229A87237C627C9A4224BF52
:1057380000232374FCF7FCFA704B1B78012B02D171
:105748004020FCF7F5FAAB790BB10123CB706C4B19
:105758001A686C4B93431CD11F2026F0DDFE0646C9
:10576800B8B1112026F0D8FE002800F0B7803568BF
:105778000068421B55425541122026F0CDFE18B153
:10578800026833689A4200D01DB14FF48030FCF7AC
:10579800CFFA5D4FDFF884A100263546B9464FF0B1
:1057A800FF08F25B530803F07733900800F03330BA
:1057B800D31A1B1AD00800F011301B1A03EB23135D
:1057C80012F0010103F00F3393FBF8F0C0EB002057
:1057D80018BF0135A3EB000318BFEDB2012B0ADD9A
:1057E800022B0ED111B112EA0A0F04D109EB0600FF
:1057F80014F056FD28B10836402ED2D1013D022DB5
:1058080006D90D20FCF782FA10B13F49FCF722FABD
:105818003E4A3F4D938B518B643B8B42A8BF0B464E
:1058280053832B7A042B00F28280DFE813F079008F
:10583800A601AD01B901C00134F9123C002BA7BF84
:105848004FF00008C1464FF003084FF001094FF030
:10585800000A09EB0A02D2B2904501D214343EE79D
:105868002C4E3588002D00F0B9812B4B70199842C9
:1058780080F0B481052D40F2B18134F8141CB6F8DB
:1058880002C0C1F30B018C4526D1717901F00301E7
:10589800914221D15146384696F804B0FCF7FCF9FC
:1058A80034F8141CBBEB113F13D134F812CC54F864
:1058B800100CCCF30B01AA1F8A42A8BF0A461CF49D
:1058C800004F1CBF5FFA8AF501FB0500B11D2FF0E0
:1058D8002FFE0AF1010ABCE70646C2E705464BE778
:1058E800FC1B0408941F0408804200209ECB002063
:1058F800E03A0020B2CB002000630406689900203B
:105908004CC9002040000100BA9A002060A600207F
:10591800E836002001000E0800001008BC83FFFFD5
:10592800EB88B3F5F57FA8BF4FF4F573EB80002043
:1059380017F039FEAC4B1A68002800F0448122F0B9
:1059480080621A60A94BB5F800C0D3F800A06D8832
:105958009AF80070A5EB0C05642205FB07F393FB8E
:10596800F2F3A34A63441380BAB202EB82035B00EA
:105978005242C7F16409009392B200205FFA89F994
:105988004FF00A0B4FF47A7813B2002B40F31E81C4
:1059980049469AF8016003FB03FE06FB0EFEC6F1BA
:1059A800640611FB01F19EFBF1F131444B43009970
:1059B80093FBFBF30B441BB28E496B4393FBF8F349
:1059C800634421F8103001300A320B2892B2DBD13F
:1059D800894D23F0D5FF30220021884832F00EF996
:1059E80017F084FF2979864B6422C82012FB010135
:1059F80099606979A3F8308012FB0102DA6001210D
:105A08000022C3E90422C3E90622C3E9082283F875
:105A1800282083F8292099715A859A85DA85B4F95E
:105A28000430784D002B40F0D580B4F90630002BB7
:105A380040F0D080B4F90830002B40F0CB80B4F9A6
:105A48000A30B3F5805F40F0C580B4F90C30B3F587
:105A5800805F40F0BF80B4F90E30B3F5805F40F04E
:105A6800B9802B6823F400732B6023F0ADFF664ADE
:105A7800DFED667AB2F84411654B664C664F676392
:105A880007EE101AB8EEC77AB2F84611C7EE276AC1
:105A980040F2055604F11C002063268707EE101A11
:105AA800B8EEC77AC3ED006AC7EE276AB2F84811A4
:105AB80007EE101AB8EEC77AC3ED016AC7EE276A77
:105AC800B2F84A1192F84C211A74142207EE101AEF
